{
  "contractName": "Charity",
  "abi": [
    {
      "anonymous": false,
      "inputs": [
        {
          "indexed": false,
          "name": "charityId",
          "type": "uint256"
        }
      ],
      "name": "charityRegistered",
      "type": "event"
    },
    {
      "anonymous": false,
      "inputs": [
        {
          "indexed": false,
          "name": "charityId",
          "type": "uint256"
        }
      ],
      "name": "charityVerified",
      "type": "event"
    },
    {
      "anonymous": false,
      "inputs": [
        {
          "indexed": false,
          "name": "charityId",
          "type": "uint256"
        }
      ],
      "name": "charityRejected",
      "type": "event"
    },
    {
      "anonymous": false,
      "inputs": [
        {
          "indexed": false,
          "name": "charityId",
          "type": "uint256"
        }
      ],
      "name": "charityRevoked",
      "type": "event"
    },
    {
      "anonymous": false,
      "inputs": [
        {
          "indexed": false,
          "name": "charityId",
          "type": "uint256"
        },
        {
          "indexed": false,
          "name": "campaignId",
          "type": "uint256"
        }
      ],
      "name": "campaignCreated",
      "type": "event"
    },
    {
      "anonymous": false,
      "inputs": [
        {
          "indexed": false,
          "name": "campaignId",
          "type": "uint256"
        }
      ],
      "name": "campaignEnded",
      "type": "event"
    },
    {
      "anonymous": false,
      "inputs": [
        {
          "indexed": false,
          "name": "newAmount",
          "type": "uint256"
        }
      ],
      "name": "updateCurrentDonation",
      "type": "event"
    },
    {
      "anonymous": false,
      "inputs": [
        {
          "indexed": false,
          "name": "newNumber",
          "type": "uint256"
        }
      ],
      "name": "updateCampaignDonors",
      "type": "event"
    },
    {
      "constant": false,
      "inputs": [
        {
          "name": "charityName",
          "type": "bytes"
        },
        {
          "name": "charityAddress",
          "type": "bytes"
        },
        {
          "name": "contactNumber",
          "type": "bytes"
        },
        {
          "name": "description",
          "type": "bytes"
        },
        {
          "name": "pictureURL",
          "type": "bytes"
        }
      ],
      "name": "registerCharity",
      "outputs": [
        {
          "name": "charityId",
          "type": "uint256"
        }
      ],
      "payable": false,
      "stateMutability": "nonpayable",
      "type": "function"
    },
    {
      "constant": false,
      "inputs": [
        {
          "name": "charityId",
          "type": "uint256"
        },
        {
          "name": "verificationLink",
          "type": "bytes"
        }
      ],
      "name": "verifyCharity",
      "outputs": [],
      "payable": false,
      "stateMutability": "nonpayable",
      "type": "function"
    },
    {
      "constant": false,
      "inputs": [
        {
          "name": "charityId",
          "type": "uint256"
        }
      ],
      "name": "rejectCharity",
      "outputs": [],
      "payable": false,
      "stateMutability": "nonpayable",
      "type": "function"
    },
    {
      "constant": false,
      "inputs": [
        {
          "name": "charityId",
          "type": "uint256"
        }
      ],
      "name": "revokeCharity",
      "outputs": [],
      "payable": false,
      "stateMutability": "nonpayable",
      "type": "function"
    },
    {
      "constant": false,
      "inputs": [
        {
          "name": "campaignName",
          "type": "bytes"
        },
        {
          "name": "description",
          "type": "bytes"
        },
        {
          "name": "pictureURL",
          "type": "bytes"
        },
        {
          "name": "targetDonation",
          "type": "uint256"
        },
        {
          "name": "startDate",
          "type": "uint256"
        },
        {
          "name": "endDate",
          "type": "uint256"
        }
      ],
      "name": "createCampaign",
      "outputs": [
        {
          "name": "campaignId",
          "type": "uint256"
        }
      ],
      "payable": false,
      "stateMutability": "nonpayable",
      "type": "function"
    },
    {
      "constant": false,
      "inputs": [
        {
          "name": "campaignId",
          "type": "uint256"
        }
      ],
      "name": "endCampaign",
      "outputs": [],
      "payable": false,
      "stateMutability": "nonpayable",
      "type": "function"
    },
    {
      "constant": true,
      "inputs": [
        {
          "name": "charityId",
          "type": "uint256"
        }
      ],
      "name": "getCharityOwner",
      "outputs": [
        {
          "name": "",
          "type": "address"
        }
      ],
      "payable": false,
      "stateMutability": "view",
      "type": "function"
    },
    {
      "constant": true,
      "inputs": [
        {
          "name": "charityId",
          "type": "uint256"
        }
      ],
      "name": "getCharityName",
      "outputs": [
        {
          "name": "",
          "type": "bytes"
        }
      ],
      "payable": false,
      "stateMutability": "view",
      "type": "function"
    },
    {
      "constant": true,
      "inputs": [
        {
          "name": "charityId",
          "type": "uint256"
        }
      ],
      "name": "getCharityPictureURL",
      "outputs": [
        {
          "name": "",
          "type": "bytes"
        }
      ],
      "payable": false,
      "stateMutability": "view",
      "type": "function"
    },
    {
      "constant": true,
      "inputs": [
        {
          "name": "charityId",
          "type": "uint256"
        }
      ],
      "name": "getCharityDescription",
      "outputs": [
        {
          "name": "",
          "type": "bytes"
        }
      ],
      "payable": false,
      "stateMutability": "view",
      "type": "function"
    },
    {
      "constant": true,
      "inputs": [
        {
          "name": "charityId",
          "type": "uint256"
        }
      ],
      "name": "getCharityStatus",
      "outputs": [
        {
          "name": "",
          "type": "uint8"
        }
      ],
      "payable": false,
      "stateMutability": "view",
      "type": "function"
    },
    {
      "constant": true,
      "inputs": [
        {
          "name": "charityId",
          "type": "uint256"
        }
      ],
      "name": "getCharityContactNumber",
      "outputs": [
        {
          "name": "",
          "type": "bytes"
        }
      ],
      "payable": false,
      "stateMutability": "view",
      "type": "function"
    },
    {
      "constant": true,
      "inputs": [
        {
          "name": "charityId",
          "type": "uint256"
        }
      ],
      "name": "getCharityContactAddress",
      "outputs": [
        {
          "name": "",
          "type": "bytes"
        }
      ],
      "payable": false,
      "stateMutability": "view",
      "type": "function"
    },
    {
      "constant": true,
      "inputs": [
        {
          "name": "charityId",
          "type": "uint256"
        }
      ],
      "name": "getCharityVerificationLink",
      "outputs": [
        {
          "name": "",
          "type": "bytes"
        }
      ],
      "payable": false,
      "stateMutability": "view",
      "type": "function"
    },
    {
      "constant": true,
      "inputs": [],
      "name": "getNoOfCharities",
      "outputs": [
        {
          "name": "",
          "type": "uint256"
        }
      ],
      "payable": false,
      "stateMutability": "view",
      "type": "function"
    },
    {
      "constant": true,
      "inputs": [],
      "name": "getVerifiedCharityAmount",
      "outputs": [
        {
          "name": "",
          "type": "uint256"
        }
      ],
      "payable": false,
      "stateMutability": "view",
      "type": "function"
    },
    {
      "constant": true,
      "inputs": [],
      "name": "getUnverifiedCharityAmount",
      "outputs": [
        {
          "name": "",
          "type": "uint256"
        }
      ],
      "payable": false,
      "stateMutability": "view",
      "type": "function"
    },
    {
      "constant": true,
      "inputs": [],
      "name": "getRejectedCharityAmount",
      "outputs": [
        {
          "name": "",
          "type": "uint256"
        }
      ],
      "payable": false,
      "stateMutability": "view",
      "type": "function"
    },
    {
      "constant": true,
      "inputs": [
        {
          "name": "charityId",
          "type": "uint256"
        }
      ],
      "name": "getCampaignAmountByCharity",
      "outputs": [
        {
          "name": "",
          "type": "uint256"
        }
      ],
      "payable": false,
      "stateMutability": "view",
      "type": "function"
    },
    {
      "constant": true,
      "inputs": [
        {
          "name": "charityId",
          "type": "uint256"
        }
      ],
      "name": "getActiveCampaignAmountByCharity",
      "outputs": [
        {
          "name": "",
          "type": "uint256"
        }
      ],
      "payable": false,
      "stateMutability": "view",
      "type": "function"
    },
    {
      "constant": true,
      "inputs": [
        {
          "name": "charityId",
          "type": "uint256"
        }
      ],
      "name": "getEndedCampaignAmountByCharity",
      "outputs": [
        {
          "name": "",
          "type": "uint256"
        }
      ],
      "payable": false,
      "stateMutability": "view",
      "type": "function"
    },
    {
      "constant": true,
      "inputs": [
        {
          "name": "campaignId",
          "type": "uint256"
        }
      ],
      "name": "getCampaignCharity",
      "outputs": [
        {
          "name": "",
          "type": "uint256"
        }
      ],
      "payable": false,
      "stateMutability": "view",
      "type": "function"
    },
    {
      "constant": true,
      "inputs": [
        {
          "name": "campaignId",
          "type": "uint256"
        }
      ],
      "name": "getCampaignName",
      "outputs": [
        {
          "name": "",
          "type": "bytes"
        }
      ],
      "payable": false,
      "stateMutability": "view",
      "type": "function"
    },
    {
      "constant": true,
      "inputs": [
        {
          "name": "campaignId",
          "type": "uint256"
        }
      ],
      "name": "getCampaignDescription",
      "outputs": [
        {
          "name": "",
          "type": "bytes"
        }
      ],
      "payable": false,
      "stateMutability": "view",
      "type": "function"
    },
    {
      "constant": true,
      "inputs": [
        {
          "name": "campaignId",
          "type": "uint256"
        }
      ],
      "name": "getCampaignPictureURL",
      "outputs": [
        {
          "name": "",
          "type": "bytes"
        }
      ],
      "payable": false,
      "stateMutability": "view",
      "type": "function"
    },
    {
      "constant": true,
      "inputs": [
        {
          "name": "campaignId",
          "type": "uint256"
        }
      ],
      "name": "getCampaignTargetDonation",
      "outputs": [
        {
          "name": "",
          "type": "uint256"
        }
      ],
      "payable": false,
      "stateMutability": "view",
      "type": "function"
    },
    {
      "constant": true,
      "inputs": [
        {
          "name": "campaignId",
          "type": "uint256"
        }
      ],
      "name": "getCampaignCurrentDonation",
      "outputs": [
        {
          "name": "",
          "type": "uint256"
        }
      ],
      "payable": false,
      "stateMutability": "view",
      "type": "function"
    },
    {
      "constant": true,
      "inputs": [
        {
          "name": "campaignId",
          "type": "uint256"
        }
      ],
      "name": "getCampaignNoOfDonors",
      "outputs": [
        {
          "name": "",
          "type": "uint256"
        }
      ],
      "payable": false,
      "stateMutability": "view",
      "type": "function"
    },
    {
      "constant": true,
      "inputs": [
        {
          "name": "campaignId",
          "type": "uint256"
        }
      ],
      "name": "getCampaignStartDate",
      "outputs": [
        {
          "name": "",
          "type": "uint256"
        }
      ],
      "payable": false,
      "stateMutability": "view",
      "type": "function"
    },
    {
      "constant": true,
      "inputs": [
        {
          "name": "campaignId",
          "type": "uint256"
        }
      ],
      "name": "getCampaignEndDate",
      "outputs": [
        {
          "name": "",
          "type": "uint256"
        }
      ],
      "payable": false,
      "stateMutability": "view",
      "type": "function"
    },
    {
      "constant": true,
      "inputs": [
        {
          "name": "campaignId",
          "type": "uint256"
        }
      ],
      "name": "getCampaignStatus",
      "outputs": [
        {
          "name": "",
          "type": "uint8"
        }
      ],
      "payable": false,
      "stateMutability": "view",
      "type": "function"
    },
    {
      "constant": true,
      "inputs": [],
      "name": "getNoOfCampaigns",
      "outputs": [
        {
          "name": "",
          "type": "uint256"
        }
      ],
      "payable": false,
      "stateMutability": "view",
      "type": "function"
    },
    {
      "constant": true,
      "inputs": [
        {
          "name": "campaignId",
          "type": "uint256"
        }
      ],
      "name": "isStatusComplete",
      "outputs": [
        {
          "name": "",
          "type": "bool"
        }
      ],
      "payable": false,
      "stateMutability": "view",
      "type": "function"
    },
    {
      "constant": true,
      "inputs": [
        {
          "name": "campaignId",
          "type": "uint256"
        }
      ],
      "name": "checkValidCampaign",
      "outputs": [
        {
          "name": "",
          "type": "bool"
        }
      ],
      "payable": false,
      "stateMutability": "view",
      "type": "function"
    },
    {
      "constant": false,
      "inputs": [
        {
          "name": "campaignId",
          "type": "uint256"
        },
        {
          "name": "newDonation",
          "type": "uint256"
        }
      ],
      "name": "updateCampaignCurrentDonation",
      "outputs": [],
      "payable": false,
      "stateMutability": "nonpayable",
      "type": "function"
    },
    {
      "constant": false,
      "inputs": [
        {
          "name": "campaignId",
          "type": "uint256"
        }
      ],
      "name": "addCampaignDonor",
      "outputs": [],
      "payable": false,
      "stateMutability": "nonpayable",
      "type": "function"
    },
    {
      "constant": true,
      "inputs": [],
      "name": "getContractOwner",
      "outputs": [
        {
          "name": "",
          "type": "address"
        }
      ],
      "payable": false,
      "stateMutability": "view",
      "type": "function"
    }
  ],
  "bytecode": "0x6080604052336000806101000a81548173ffffffffffffffffffffffffffffffffffffffff021916908373ffffffffffffffffffffffffffffffffffffffff1602179055506000600655600060095534801561005a57600080fd5b506144668061006a6000396000f3fe6080604052600436106101cc576000357c0100000000000000000000000000000000000000000000000000000000900463ffffffff16806296a1f0146101d1578063068782d2146101fc57806306fd7c60146102b05780630749c8ac146102db5780630bbcf6961461038f57806315f28a27146103ca578063161d3dd11461041957806332fa180d1461044457806336400a221461046f5780633ffe888f14610697578063442890d5146106e657806354ee0d361461073d57806355fb8f531461078c57806357d65eac146108405780635a102275146108935780635e0566a3146109475780636c19e004146109fb578063709d1e7c14610a5857806374eb573814610b0c57806376e77d3414610b5b5780637ede52fc14610baa57806381a256f414610c5e57806395657f7e14610d30578063960bb88714610de4578063980a268814610e335780639eaec80314610ee7578063a16fd1d014610f22578063a6af939a14610f7f578063bc4465da14610fc4578063ce269af814611013578063dd0408ae1461134b578063ddf1317614611386578063e317526a146113b1578063ea79c2001461142c578063f1c4bfac14611467578063f6b54898146114b6578063fb99932f14611509575b600080fd5b3480156101dd57600080fd5b506101e6611558565b6040518082815260200191505060405180910390f35b34801561020857600080fd5b506102356004803603602081101561021f57600080fd5b81019080803590602001909291905050506115ce565b6040518080602001828103825283818151815260200191508051906020019080838360005b8381101561027557808201518184015260208101905061025a565b50505050905090810190601f1680156102a25780820380516001836020036101000a031916815260200191505b509250505060405180910390f35b3480156102bc57600080fd5b506102c56116ff565b6040518082815260200191505060405180910390f35b3480156102e757600080fd5b50610314600480360360208110156102fe57600080fd5b8101908080359060200190929190505050611776565b6040518080602001828103825283818151815260200191508051906020019080838360005b83811015610354578082015181840152602081019050610339565b50505050905090810190601f1680156103815780820380516001836020036101000a031916815260200191505b509250505060405180910390f35b34801561039b57600080fd5b506103c8600480360360208110156103b257600080fd5b81019080803590602001909291905050506118a7565b005b3480156103d657600080fd5b50610403600480360360208110156103ed57600080fd5b8101908080359060200190929190505050611c8e565b6040518082815260200191505060405180910390f35b34801561042557600080fd5b5061042e611d27565b6040518082815260200191505060405180910390f35b34801561045057600080fd5b50610459611d31565b6040518082815260200191505060405180910390f35b34801561047b57600080fd5b50610681600480360360c081101561049257600080fd5b81019080803590602001906401000000008111156104af57600080fd5b8201836020820111156104c157600080fd5b803590602001918460018302840111640100000000831117156104e357600080fd5b91908080601f016020809104026020016040519081016040528093929190818152602001838380828437600081840152601f19601f8201169050808301925050505050505091929192908035906020019064010000000081111561054657600080fd5b82018360208201111561055857600080fd5b8035906020019184600183028401116401000000008311171561057a57600080fd5b91908080601f016020809104026020016040519081016040528093929190818152602001838380828437600081840152601f19601f820116905080830192505050505050509192919290803590602001906401000000008111156105dd57600080fd5b8201836020820111156105ef57600080fd5b8035906020019184600183028401116401000000008311171561061157600080fd5b91908080601f016020809104026020016040519081016040528093929190818152602001838380828437600081840152601f19601f820116905080830192505050505050509192919290803590602001909291908035906020019092919080359060200190929190505050611d3b565b6040518082815260200191505060405180910390f35b3480156106a357600080fd5b506106d0600480360360208110156106ba57600080fd5b8101908080359060200190929190505050612018565b6040518082815260200191505060405180910390f35b3480156106f257600080fd5b506106fb6120b1565b604051808273ffffffffffffffffffffffffffffffffffffffff1673ffffffffffffffffffffffffffffffffffffffff16815260200191505060405180910390f35b34801561074957600080fd5b506107766004803603602081101561076057600080fd5b81019080803590602001909291905050506120da565b6040518082815260200191505060405180910390f35b34801561079857600080fd5b506107c5600480360360208110156107af57600080fd5b810190808035906020019092919050505061215f565b6040518080602001828103825283818151815260200191508051906020019080838360005b838110156108055780820151818401526020810190506107ea565b50505050905090810190601f1680156108325780820380516001836020036101000a031916815260200191505b509250505060405180910390f35b34801561084c57600080fd5b506108796004803603602081101561086357600080fd5b8101908080359060200190929190505050612290565b604051808215151515815260200191505060405180910390f35b34801561089f57600080fd5b506108cc600480360360208110156108b657600080fd5b81019080803590602001909291905050506122af565b6040518080602001828103825283818151815260200191508051906020019080838360005b8381101561090c5780820151818401526020810190506108f1565b50505050905090810190601f1680156109395780820380516001836020036101000a031916815260200191505b509250505060405180910390f35b34801561095357600080fd5b506109806004803603602081101561096a57600080fd5b81019080803590602001909291905050506123e0565b6040518080602001828103825283818151815260200191508051906020019080838360005b838110156109c05780820151818401526020810190506109a5565b50505050905090810190601f1680156109ed5780820380516001836020036101000a031916815260200191505b509250505060405180910390f35b348015610a0757600080fd5b50610a3460048036036020811015610a1e57600080fd5b8101908080359060200190929190505050612511565b60405180826001811115610a4457fe5b60ff16815260200191505060405180910390f35b348015610a6457600080fd5b50610a9160048036036020811015610a7b57600080fd5b81019080803590602001909291905050506125b7565b6040518080602001828103825283818151815260200191508051906020019080838360005b83811015610ad1578082015181840152602081019050610ab6565b50505050905090810190601f168015610afe5780820380516001836020036101000a031916815260200191505b509250505060405180910390f35b348015610b1857600080fd5b50610b4560048036036020811015610b2f57600080fd5b81019080803590602001909291905050506126e8565b6040518082815260200191505060405180910390f35b348015610b6757600080fd5b50610b9460048036036020811015610b7e57600080fd5b8101908080359060200190929190505050612781565b6040518082815260200191505060405180910390f35b348015610bb657600080fd5b50610be360048036036020811015610bcd57600080fd5b8101908080359060200190929190505050612806565b6040518080602001828103825283818151815260200191508051906020019080838360005b83811015610c23578082015181840152602081019050610c08565b50505050905090810190601f168015610c505780820380516001836020036101000a031916815260200191505b509250505060405180910390f35b348015610c6a57600080fd5b50610d2e60048036036040811015610c8157600080fd5b810190808035906020019092919080359060200190640100000000811115610ca857600080fd5b820183602082011115610cba57600080fd5b80359060200191846001830284011164010000000083111715610cdc57600080fd5b91908080601f016020809104026020016040519081016040528093929190818152602001838380828437600081840152601f19601f820116905080830192505050505050509192919290505050612937565b005b348015610d3c57600080fd5b50610d6960048036036020811015610d5357600080fd5b8101908080359060200190929190505050612d76565b6040518080602001828103825283818151815260200191508051906020019080838360005b83811015610da9578082015181840152602081019050610d8e565b50505050905090810190601f168015610dd65780820380516001836020036101000a031916815260200191505b509250505060405180910390f35b348015610df057600080fd5b50610e1d60048036036020811015610e0757600080fd5b8101908080359060200190929190505050612ea7565b6040518082815260200191505060405180910390f35b348015610e3f57600080fd5b50610e6c60048036036020811015610e5657600080fd5b8101908080359060200190929190505050612efc565b6040518080602001828103825283818151815260200191508051906020019080838360005b83811015610eac578082015181840152602081019050610e91565b50505050905090810190601f168015610ed95780820380516001836020036101000a031916815260200191505b509250505060405180910390f35b348015610ef357600080fd5b50610f2060048036036020811015610f0a57600080fd5b810190808035906020019092919050505061302d565b005b348015610f2e57600080fd5b50610f5b60048036036020811015610f4557600080fd5b8101908080359060200190929190505050613414565b60405180826002811115610f6b57fe5b60ff16815260200191505060405180910390f35b348015610f8b57600080fd5b50610fc260048036036040811015610fa257600080fd5b8101908080359060200190929190803590602001909291905050506134ba565b005b348015610fd057600080fd5b50610ffd60048036036020811015610fe757600080fd5b81019080803590602001909291905050506135a7565b6040518082815260200191505060405180910390f35b34801561101f57600080fd5b50611335600480360360a081101561103657600080fd5b810190808035906020019064010000000081111561105357600080fd5b82018360208201111561106557600080fd5b8035906020019184600183028401116401000000008311171561108757600080fd5b91908080601f016020809104026020016040519081016040528093929190818152602001838380828437600081840152601f19601f820116905080830192505050505050509192919290803590602001906401000000008111156110ea57600080fd5b8201836020820111156110fc57600080fd5b8035906020019184600183028401116401000000008311171561111e57600080fd5b91908080601f016020809104026020016040519081016040528093929190818152602001838380828437600081840152601f19601f8201169050808301925050505050505091929192908035906020019064010000000081111561118157600080fd5b82018360208201111561119357600080fd5b803590602001918460018302840111640100000000831117156111b557600080fd5b91908080601f016020809104026020016040519081016040528093929190818152602001838380828437600081840152601f19601f8201169050808301925050505050505091929192908035906020019064010000000081111561121857600080fd5b82018360208201111561122a57600080fd5b8035906020019184600183028401116401000000008311171561124c57600080fd5b91908080601f016020809104026020016040519081016040528093929190818152602001838380828437600081840152601f19601f820116905080830192505050505050509192919290803590602001906401000000008111156112af57600080fd5b8201836020820111156112c157600080fd5b803590602001918460018302840111640100000000831117156112e357600080fd5b91908080601f016020809104026020016040519081016040528093929190818152602001838380828437600081840152601f19601f820116905080830192505050505050509192919290505050613640565b6040518082815260200191505060405180910390f35b34801561135757600080fd5b506113846004803603602081101561136e57600080fd5b81019080803590602001909291905050506139fa565b005b34801561139257600080fd5b5061139b613e31565b6040518082815260200191505060405180910390f35b3480156113bd57600080fd5b506113ea600480360360208110156113d457600080fd5b8101908080359060200190929190505050613ea8565b604051808273ffffffffffffffffffffffffffffffffffffffff1673ffffffffffffffffffffffffffffffffffffffff16815260200191505060405180910390f35b34801561143857600080fd5b506114656004803603602081101561144f57600080fd5b8101908080359060200190929190505050613f61565b005b34801561147357600080fd5b506114a06004803603602081101561148a57600080fd5b810190808035906020019092919050505061404e565b6040518082815260200191505060405180910390f35b3480156114c257600080fd5b506114ef600480360360208110156114d957600080fd5b81019080803590602001909291905050506140e7565b604051808215151515815260200191505060405180910390f35b34801561151557600080fd5b506115426004803603602081101561152c57600080fd5b81019080803590602001909291905050506141b6565b6040518082815260200191505060405180910390f35b6000806000905060008090505b6006548110156115c65760028081111561157b57fe5b6002600083815260200190815260200160002060070160009054906101000a900460ff1660028111156115aa57fe5b14156115b95781806001019250505b8080600101915050611565565b508091505090565b606060095482101515611649576040517f08c379a00000000000000000000000000000000000000000000000000000000081526004018080602001828103825260138152602001807f496e76616c69642063616d706169676e2069640000000000000000000000000081525060200191505060405180910390fd5b600860008381526020019081526020016000206002018054600181600116156101000203166002900480601f0160208091040260200160405190810160405280929190818152602001828054600181600116156101000203166002900480156116f35780601f106116c8576101008083540402835291602001916116f3565b820191906000526020600020905b8154815290600101906020018083116116d657829003601f168201915b50505050509050919050565b6000806000905060008090505b60065481101561176e576000600281111561172357fe5b6002600083815260200190815260200160002060070160009054906101000a900460ff16600281111561175257fe5b14156117615781806001019250505b808060010191505061170c565b508091505090565b6060600654821015156117f1576040517f08c379a00000000000000000000000000000000000000000000000000000000081526004018080602001828103825260128152602001807f496e76616c69642063686172697479206964000000000000000000000000000081525060200191505060405180910390fd5b600260008381526020019081526020016000206005018054600181600116156101000203166002900480601f01602080910402602001604051908101604052809291908181526020018280546001816001161561010002031660029004801561189b5780601f106118705761010080835404028352916020019161189b565b820191906000526020600020905b81548152906001019060200180831161187e57829003601f168201915b50505050509050919050565b336000809054906101000a900473ffffffffffffffffffffffffffffffffffffffff1673ffffffffffffffffffffffffffffffffffffffff168173ffffffffffffffffffffffffffffffffffffffff1614151561196c576040517f08c379a000000000000000000000000000000000000000000000000000000000815260040180806020018281038252601c8152602001807f43616c6c6572206973206e6f7420636f6e7472616374206f776e65720000000081525060200191505060405180910390fd5b6000809054906101000a900473ffffffffffffffffffffffffffffffffffffffff1673ffffffffffffffffffffffffffffffffffffffff163373ffffffffffffffffffffffffffffffffffffffff16141515611a30576040517f08c379a000000000000000000000000000000000000000000000000000000000815260040180806020018281038252601c8152602001807f43616c6c6572206973206e6f7420636f6e7472616374206f776e65720000000081525060200191505060405180910390fd5b60065482101515611aa9576040517f08c379a00000000000000000000000000000000000000000000000000000000081526004018080602001828103825260128152602001807f496e76616c69642063686172697479206964000000000000000000000000000081525060200191505060405180910390fd5b60016002811115611ab657fe5b6002600084815260200190815260200160002060070160009054906101000a900460ff166002811115611ae557fe5b141515611b80576040517f08c379a00000000000000000000000000000000000000000000000000000000081526004018080602001828103825260218152602001807f43686172697479206973206e6f7420612076657269666965642063686172697481526020017f790000000000000000000000000000000000000000000000000000000000000081525060400191505060405180910390fd5b600115156001600084815260200190815260200160002060009054906101000a900460ff161515141515611c1c576040517f08c379a00000000000000000000000000000000000000000000000000000000081526004018080602001828103825260198152602001807f4368617269747920686173206265656e2076657269666965640000000000000081525060200191505060405180910390fd5b600280600084815260200190815260200160002060070160006101000a81548160ff02191690836002811115611c4e57fe5b02179055507f0c3e8a5dc7b4dae9b9bacc0f229ddf9e8ff1a86a106b83477dfe72f4cda87f71826040518082815260200191505060405180910390a15050565b600060095482101515611d09576040517f08c379a00000000000000000000000000000000000000000000000000000000081526004018080602001828103825260138152602001807f496e76616c69642063616d706169676e2069640000000000000000000000000081525060200191505060405180910390fd5b60086000838152602001908152602001600020600401549050919050565b6000600954905090565b6000600654905090565b60003360016000600360008473ffffffffffffffffffffffffffffffffffffffff1673ffffffffffffffffffffffffffffffffffffffff16815260200190815260200160002054815260200190815260200160002060009054906101000a900460ff161515611e12576040517f08c379a000000000000000000000000000000000000000000000000000000000815260040180806020018281038252601d8152602001807f43616c6c6572206973206e6f7420612076616c6964206368617269747900000081525060200191505060405180910390fd5b600960008154809291906001019190505591506000600360003373ffffffffffffffffffffffffffffffffffffffff1673ffffffffffffffffffffffffffffffffffffffff168152602001908152602001600020549050611e7161424f565b610140604051908101604052808381526020018b81526020018a8152602001898152602001888152602001600081526020016000815260200187815260200186815260200160006001811115611ec357fe5b81525090508060086000868152602001908152602001600020600082015181600001556020820151816001019080519060200190611f029291906142ae565b506040820151816002019080519060200190611f1f9291906142ae565b506060820151816003019080519060200190611f3c9291906142ae565b506080820151816004015560a0820151816005015560c0820151816006015560e0820151816007015561010082015181600801556101208201518160090160006101000a81548160ff02191690836001811115611f9557fe5b021790555090505060016007600086815260200190815260200160002060006101000a81548160ff0219169083151502179055507f43ff46a4179f4c55f80d6329f38d2f16f0f6fad7f2e689fe51362d0ee5cd05b58285604051808381526020018281526020019250505060405180910390a18393505050509695505050505050565b600060095482101515612093576040517f08c379a00000000000000000000000000000000000000000000000000000000081526004018080602001828103825260138152602001807f496e76616c69642063616d706169676e2069640000000000000000000000000081525060200191505060405180910390fd5b60086000838152602001908152602001600020600601549050919050565b60008060009054906101000a900473ffffffffffffffffffffffffffffffffffffffff16905090565b6000806000905060008090505b6009548110156121555783600860008381526020019081526020016000206000015414801561213a5750600015156007600083815260200190815260200160002060009054906101000a900460ff161515145b156121485781806001019250505b80806001019150506120e7565b5080915050919050565b6060600954821015156121da576040517f08c379a00000000000000000000000000000000000000000000000000000000081526004018080602001828103825260138152602001807f496e76616c69642063616d706169676e2069640000000000000000000000000081525060200191505060405180910390fd5b600860008381526020019081526020016000206003018054600181600116156101000203166002900480601f0160208091040260200160405190810160405280929190818152602001828054600181600116156101000203166002900480156122845780601f1061225957610100808354040283529160200191612284565b820191906000526020600020905b81548152906001019060200180831161226757829003601f168201915b50505050509050919050565b60006009548210156122a557600190506122aa565b600090505b919050565b60606009548210151561232a576040517f08c379a00000000000000000000000000000000000000000000000000000000081526004018080602001828103825260138152602001807f496e76616c69642063616d706169676e2069640000000000000000000000000081525060200191505060405180910390fd5b600860008381526020019081526020016000206001018054600181600116156101000203166002900480601f0160208091040260200160405190810160405280929190818152602001828054600181600116156101000203166002900480156123d45780601f106123a9576101008083540402835291602001916123d4565b820191906000526020600020905b8154815290600101906020018083116123b757829003601f168201915b50505050509050919050565b60606006548210151561245b576040517f08c379a00000000000000000000000000000000000000000000000000000000081526004018080602001828103825260128152602001807f496e76616c69642063686172697479206964000000000000000000000000000081525060200191505060405180910390fd5b600260008381526020019081526020016000206003018054600181600116156101000203166002900480601f0160208091040260200160405190810160405280929190818152602001828054600181600116156101000203166002900480156125055780601f106124da57610100808354040283529160200191612505565b820191906000526020600020905b8154815290600101906020018083116124e857829003601f168201915b50505050509050919050565b60006009548210151561258c576040517f08c379a00000000000000000000000000000000000000000000000000000000081526004018080602001828103825260138152602001807f496e76616c69642063616d706169676e2069640000000000000000000000000081525060200191505060405180910390fd5b6008600083815260200190815260200160002060090160009054906101000a900460ff169050919050565b606060065482101515612632576040517f08c379a00000000000000000000000000000000000000000000000000000000081526004018080602001828103825260128152602001807f496e76616c69642063686172697479206964000000000000000000000000000081525060200191505060405180910390fd5b600260008381526020019081526020016000206006018054600181600116156101000203166002900480601f0160208091040260200160405190810160405280929190818152602001828054600181600116156101000203166002900480156126dc5780601f106126b1576101008083540402835291602001916126dc565b820191906000526020600020905b8154815290600101906020018083116126bf57829003601f168201915b50505050509050919050565b600060095482101515612763576040517f08c379a00000000000000000000000000000000000000000000000000000000081526004018080602001828103825260138152602001807f496e76616c69642063616d706169676e2069640000000000000000000000000081525060200191505060405180910390fd5b60086000838152602001908152602001600020600001549050919050565b6000806000905060008090505b6009548110156127fc578360086000838152602001908152602001600020600001541480156127e15750600115156007600083815260200190815260200160002060009054906101000a900460ff161515145b156127ef5781806001019250505b808060010191505061278e565b5080915050919050565b606060065482101515612881576040517f08c379a00000000000000000000000000000000000000000000000000000000081526004018080602001828103825260128152602001807f496e76616c69642063686172697479206964000000000000000000000000000081525060200191505060405180910390fd5b600260008381526020019081526020016000206001018054600181600116156101000203166002900480601f01602080910402602001604051908101604052809291908181526020018280546001816001161561010002031660029004801561292b5780601f106129005761010080835404028352916020019161292b565b820191906000526020600020905b81548152906001019060200180831161290e57829003601f168201915b50505050509050919050565b336000809054906101000a900473ffffffffffffffffffffffffffffffffffffffff1673ffffffffffffffffffffffffffffffffffffffff168173ffffffffffffffffffffffffffffffffffffffff161415156129fc576040517f08c379a000000000000000000000000000000000000000000000000000000000815260040180806020018281038252601c8152602001807f43616c6c6572206973206e6f7420636f6e7472616374206f776e65720000000081525060200191505060405180910390fd5b6000809054906101000a900473ffffffffffffffffffffffffffffffffffffffff1673ffffffffffffffffffffffffffffffffffffffff163373ffffffffffffffffffffffffffffffffffffffff16141515612ac0576040517f08c379a000000000000000000000000000000000000000000000000000000000815260040180806020018281038252601c8152602001807f43616c6c6572206973206e6f7420636f6e7472616374206f776e65720000000081525060200191505060405180910390fd5b60065483101515612b39576040517f08c379a00000000000000000000000000000000000000000000000000000000081526004018080602001828103825260128152602001807f496e76616c69642063686172697479206964000000000000000000000000000081525060200191505060405180910390fd5b60006002811115612b4657fe5b6002600085815260200190815260200160002060070160009054906101000a900460ff166002811115612b7557fe5b141515612c10576040517f08c379a00000000000000000000000000000000000000000000000000000000081526004018080602001828103825260258152602001807f4368617269747920686173206265656e207665726966696564206f722072656a81526020017f656374656400000000000000000000000000000000000000000000000000000081525060400191505060405180910390fd5b600015156001600085815260200190815260200160002060009054906101000a900460ff161515141515612cac576040517f08c379a00000000000000000000000000000000000000000000000000000000081526004018080602001828103825260198152602001807f4368617269747920686173206265656e2076657269666965640000000000000081525060200191505060405180910390fd5b60016002600085815260200190815260200160002060070160006101000a81548160ff02191690836002811115612cdf57fe5b021790555081600260008581526020019081526020016000206006019080519060200190612d0e92919061432e565b50600180600085815260200190815260200160002060006101000a81548160ff0219169083151502179055507ffb6ca19fa7c8eeb83b0f44c69164632fc81e6e1b17e2021cf8a905981f3babc2836040518082815260200191505060405180910390a1505050565b606060065482101515612df1576040517f08c379a00000000000000000000000000000000000000000000000000000000081526004018080602001828103825260128152602001807f496e76616c69642063686172697479206964000000000000000000000000000081525060200191505060405180910390fd5b600260008381526020019081526020016000206004018054600181600116156101000203166002900480601f016020809104026020016040519081016040528092919081815260200182805460018160011615610100020316600290048015612e9b5780601f10612e7057610100808354040283529160200191612e9b565b820191906000526020600020905b815481529060010190602001808311612e7e57829003601f168201915b50505050509050919050565b6000806000905060008090505b600954811015612ef2578360086000838152602001908152602001600020600001541415612ee55781806001019250505b8080600101915050612eb4565b5080915050919050565b606060065482101515612f77576040517f08c379a00000000000000000000000000000000000000000000000000000000081526004018080602001828103825260128152602001807f496e76616c69642063686172697479206964000000000000000000000000000081525060200191505060405180910390fd5b600260008381526020019081526020016000206002018054600181600116156101000203166002900480601f0160208091040260200160405190810160405280929190818152602001828054600181600116156101000203166002900480156130215780601f10612ff657610100808354040283529160200191613021565b820191906000526020600020905b81548152906001019060200180831161300457829003601f168201915b50505050509050919050565b336000809054906101000a900473ffffffffffffffffffffffffffffffffffffffff1673ffffffffffffffffffffffffffffffffffffffff168173ffffffffffffffffffffffffffffffffffffffff161415156130f2576040517f08c379a000000000000000000000000000000000000000000000000000000000815260040180806020018281038252601c8152602001807f43616c6c6572206973206e6f7420636f6e7472616374206f776e65720000000081525060200191505060405180910390fd5b6000809054906101000a900473ffffffffffffffffffffffffffffffffffffffff1673ffffffffffffffffffffffffffffffffffffffff163373ffffffffffffffffffffffffffffffffffffffff161415156131b6576040517f08c379a000000000000000000000000000000000000000000000000000000000815260040180806020018281038252601c8152602001807f43616c6c6572206973206e6f7420636f6e7472616374206f776e65720000000081525060200191505060405180910390fd5b6006548210151561322f576040517f08c379a00000000000000000000000000000000000000000000000000000000081526004018080602001828103825260128152602001807f496e76616c69642063686172697479206964000000000000000000000000000081525060200191505060405180910390fd5b6000600281111561323c57fe5b6002600084815260200190815260200160002060070160009054906101000a900460ff16600281111561326b57fe5b141515613306576040517f08c379a00000000000000000000000000000000000000000000000000000000081526004018080602001828103825260258152602001807f4368617269747920686173206265656e207665726966696564206f722072656a81526020017f656374656400000000000000000000000000000000000000000000000000000081525060400191505060405180910390fd5b600015156001600084815260200190815260200160002060009054906101000a900460ff1615151415156133a2576040517f08c379a00000000000000000000000000000000000000000000000000000000081526004018080602001828103825260198152602001807f4368617269747920686173206265656e2076657269666965640000000000000081525060200191505060405180910390fd5b600280600084815260200190815260200160002060070160006101000a81548160ff021916908360028111156133d457fe5b02179055507f96c57c4107d5e1b286da221e7c1bfebf23c6bb63fe29777a22645ca9ff8ef04a826040518082815260200191505060405180910390a15050565b60006006548210151561348f576040517f08c379a00000000000000000000000000000000000000000000000000000000081526004018080602001828103825260128152602001807f496e76616c69642063686172697479206964000000000000000000000000000081525060200191505060405180910390fd5b6002600083815260200190815260200160002060070160009054906101000a900460ff169050919050565b60095482101515613533576040517f08c379a00000000000000000000000000000000000000000000000000000000081526004018080602001828103825260138152602001807f496e76616c69642063616d706169676e2069640000000000000000000000000081525060200191505060405180910390fd5b60008160086000858152602001908152602001600020600501540190508060086000858152602001908152602001600020600501819055507fdccc5359108539a6edac03c5abafcdf18642f761cd87a8bd181ff92fbc6121b3816040518082815260200191505060405180910390a1505050565b600060095482101515613622576040517f08c379a00000000000000000000000000000000000000000000000000000000081526004018080602001828103825260138152602001807f496e76616c69642063616d706169676e2069640000000000000000000000000081525060200191505060405180910390fd5b60086000838152602001908152602001600020600701549050919050565b6000801515600560003373ffffffffffffffffffffffffffffffffffffffff1673ffffffffffffffffffffffffffffffffffffffff16815260200190815260200160002060009054906101000a900460ff16151514151561372f576040517f08c379a00000000000000000000000000000000000000000000000000000000081526004018080602001828103825260338152602001807f54686973206164647265737320686173207265676973746572656420616e6f7481526020017f686572206368617269747920616c72656164790000000000000000000000000081525060400191505060405180910390fd5b6006600081548092919060010191905055905061374a6143ae565b610100604051908101604052803373ffffffffffffffffffffffffffffffffffffffff16815260200188815260200187815260200186815260200185815260200184815260200160206040519081016040528060008152508152602001600060028111156137b457fe5b8152509050806002600084815260200190815260200160002060008201518160000160006101000a81548173ffffffffffffffffffffffffffffffffffffffff021916908373ffffffffffffffffffffffffffffffffffffffff16021790555060208201518160010190805190602001906138309291906142ae565b50604082015181600201908051906020019061384d9291906142ae565b50606082015181600301908051906020019061386a9291906142ae565b5060808201518160040190805190602001906138879291906142ae565b5060a08201518160050190805190602001906138a49291906142ae565b5060c08201518160060190805190602001906138c19291906142ae565b5060e08201518160070160006101000a81548160ff021916908360028111156138e657fe5b021790555090505081600360003373ffffffffffffffffffffffffffffffffffffffff1673ffffffffffffffffffffffffffffffffffffffff1681526020019081526020016000208190555060006001600084815260200190815260200160002060006101000a81548160ff0219169083151502179055506001600560003373ffffffffffffffffffffffffffffffffffffffff1673ffffffffffffffffffffffffffffffffffffffff16815260200190815260200160002060006101000a81548160ff0219169083151502179055507f2818bce8f12afdd5c38fb751b1b8b1ce1580ad9686c8ac779489a38df94a6600826040518082815260200191505060405180910390a18191505095945050505050565b3360016000600360008473ffffffffffffffffffffffffffffffffffffffff1673ffffffffffffffffffffffffffffffffffffffff16815260200190815260200160002054815260200190815260200160002060009054906101000a900460ff161515613acf576040517f08c379a000000000000000000000000000000000000000000000000000000000815260040180806020018281038252601d8152602001807f43616c6c6572206973206e6f7420612076616c6964206368617269747900000081525060200191505060405180910390fd5b336000809054906101000a900473ffffffffffffffffffffffffffffffffffffffff1673ffffffffffffffffffffffffffffffffffffffff168173ffffffffffffffffffffffffffffffffffffffff16141515613b94576040517f08c379a000000000000000000000000000000000000000000000000000000000815260040180806020018281038252601c8152602001807f43616c6c6572206973206e6f7420636f6e7472616374206f776e65720000000081525060200191505060405180910390fd5b60095483101515613c0d576040517f08c379a00000000000000000000000000000000000000000000000000000000081526004018080602001828103825260138152602001807f496e76616c69642063616d706169676e2069640000000000000000000000000081525060200191505060405180910390fd5b6007600084815260200190815260200160002060009054906101000a900460ff161515613ca2576040517f08c379a00000000000000000000000000000000000000000000000000000000081526004018080602001828103825260178152602001807f43616d706169676e206973206e6f74206f6e676f696e6700000000000000000081525060200191505060405180910390fd5b600260006008600086815260200190815260200160002060000154815260200190815260200160002060000160009054906101000a900473ffffffffffffffffffffffffffffffffffffffff1673ffffffffffffffffffffffffffffffffffffffff163373ffffffffffffffffffffffffffffffffffffffff16141515613d91576040517f08c379a000000000000000000000000000000000000000000000000000000000815260040180806020018281038252601e8152602001807f43616c6c6572206973206e6f74206f776e6572206f662063686172697479000081525060200191505060405180910390fd5b60016008600085815260200190815260200160002060090160006101000a81548160ff02191690836001811115613dc457fe5b021790555060006007600085815260200190815260200160002060006101000a81548160ff0219169083151502179055507f8d0449d6fed7183f55f431e23867be7d8553beb7dc2e0844821c9c951a59ca52836040518082815260200191505060405180910390a1505050565b6000806000905060008090505b600654811015613ea05760016002811115613e5557fe5b6002600083815260200190815260200160002060070160009054906101000a900460ff166002811115613e8457fe5b1415613e935781806001019250505b8080600101915050613e3e565b508091505090565b600060065482101515613f23576040517f08c379a00000000000000000000000000000000000000000000000000000000081526004018080602001828103825260128152602001807f496e76616c69642063686172697479206964000000000000000000000000000081525060200191505060405180910390fd5b6002600083815260200190815260200160002060000160009054906101000a900473ffffffffffffffffffffffffffffffffffffffff169050919050565b60095481101515613fda576040517f08c379a00000000000000000000000000000000000000000000000000000000081526004018080602001828103825260138152602001807f496e76616c69642063616d706169676e2069640000000000000000000000000081525060200191505060405180910390fd5b6000600160086000848152602001908152602001600020600601540190508060086000848152602001908152602001600020600601819055507f9c80f0e1f03145d2a9703bfa3a9b71624ac4aa74a383648a0dcd84a303a622ec816040518082815260200191505060405180910390a15050565b6000600954821015156140c9576040517f08c379a00000000000000000000000000000000000000000000000000000000081526004018080602001828103825260138152602001807f496e76616c69642063616d706169676e2069640000000000000000000000000081525060200191505060405180910390fd5b60086000838152602001908152602001600020600501549050919050565b600060095482101515614162576040517f08c379a00000000000000000000000000000000000000000000000000000000081526004018080602001828103825260138152602001807f496e76616c69642063616d706169676e2069640000000000000000000000000081525060200191505060405180910390fd5b60018081111561416e57fe5b6008600084815260200190815260200160002060090160009054906101000a900460ff16600181111561419d57fe5b14156141ac57600190506141b1565b600090505b919050565b600060095482101515614231576040517f08c379a00000000000000000000000000000000000000000000000000000000081526004018080602001828103825260138152602001807f496e76616c69642063616d706169676e2069640000000000000000000000000081525060200191505060405180910390fd5b60086000838152602001908152602001600020600801549050919050565b61014060405190810160405280600081526020016060815260200160608152602001606081526020016000815260200160008152602001600081526020016000815260200160008152602001600060018111156142a857fe5b81525090565b828054600181600116156101000203166002900490600052602060002090601f016020900481019282601f106142ef57805160ff191683800117855561431d565b8280016001018555821561431d579182015b8281111561431c578251825591602001919060010190614301565b5b50905061432a9190614415565b5090565b828054600181600116156101000203166002900490600052602060002090601f016020900481019282601f1061436f57805160ff191683800117855561439d565b8280016001018555821561439d579182015b8281111561439c578251825591602001919060010190614381565b5b5090506143aa9190614415565b5090565b61010060405190810160405280600073ffffffffffffffffffffffffffffffffffffffff1681526020016060815260200160608152602001606081526020016060815260200160608152602001606081526020016000600281111561440f57fe5b81525090565b61443791905b8082111561443357600081600090555060010161441b565b5090565b9056fea165627a7a72305820bd5c740a6878a27e0704d7de643df4cbbe3bdcb37feb7a87e0c351d1262c44c00029",
  "source": "pragma solidity ^0.5.0;\n\ncontract Charity {\n\n  enum CharityStatus {\n    UNVERIFIED, VERIFIED, REJECTED\n  }\n\n  enum CampaignStatus {\n    ONGOING, ENDED\n  }\n\n  struct charity {\n    address charityOwner;\n    bytes charityName;\n    bytes charityAddress;\n    bytes contactNumber;\n    bytes description;\n    bytes pictureURL;\n    bytes verificationLink;\n    CharityStatus charityStatus;\n  }\n\n  struct campaign {\n    uint charityId;\n    bytes campaignName;\n    bytes description;\n    bytes pictureURL;\n    uint targetDonation;\n    uint currentDonation;\n    uint noOfDonors;\n    uint startDate;\n    uint endDate;\n    CampaignStatus campaignStatus;\n  }\n\n  address contractOwner = msg.sender;\n  //uint[] charitiesPendingVerification;\n  mapping(uint => bool) isVerifiedCharity;\n  mapping(uint => charity) charities;\n  mapping(address => uint) charityAddressIdMap;\n  mapping(address => charity) charityAddressMap;\n  mapping(address => bool) charityOwnerRegistered;\n  uint noOfCharities = 0;\n\n  //uint[] ongoingCampaigns;\n  mapping(uint => bool) isOngoingCampaign;\n  mapping(uint => campaign) campaigns;\n  uint noOfCampaigns = 0;\n\n  event charityRegistered (uint charityId);\n  event charityVerified (uint charityId);\n  event charityRejected (uint charityId);\n  event charityRevoked (uint charityId);\n  event campaignCreated(uint charityId, uint campaignId);\n  event campaignEnded(uint campaignId);\n  event updateCurrentDonation(uint newAmount);\n  event updateCampaignDonors(uint newNumber);\n\n\n  modifier onlyOwner(address caller) {\n    require(caller == contractOwner, \"Caller is not contract owner\");\n    _;\n  }\n\n\n  // This will be the modifier that checks whether the function call is done by the Charity itself.\n  modifier onlyVerifiedCharity(address caller) {\n    require(isVerifiedCharity[charityAddressIdMap[caller]], \"Caller is not a valid charity\");\n    _;\n  }\n\n  function registerCharity(bytes memory charityName, bytes memory charityAddress, bytes memory contactNumber, bytes memory description, bytes memory pictureURL) public returns (uint charityId) {\n    /*require(charityName != \"Charity name cannot be empty\");\n    require(charityAddress != \"Charity address cannot be empty\");\n    require(contactNumber != \"Charity number cannot be empty\");\n    require(description != \"Description cannot be empty\");\n    require(pictureURL != \"Picture URL cannot be empty\");*/\n    require(charityOwnerRegistered[msg.sender] == false, \"This address has registered another charity already\");\n\n    charityId = noOfCharities++;\n    charity memory newCharity = charity(msg.sender, charityName, charityAddress, contactNumber, description, pictureURL, \"\", CharityStatus.UNVERIFIED);\n    charities[charityId] = newCharity;\n    charityAddressIdMap[msg.sender] = charityId;\n    isVerifiedCharity[charityId] = false;\n    charityOwnerRegistered[msg.sender] = true;\n    emit charityRegistered(charityId);\n    // charitiesPendingVerification.push(charityId);\n    return charityId;\n  }\n\n  function verifyCharity(uint charityId, bytes memory verificationLink) public onlyOwner(msg.sender) {\n    require(msg.sender == contractOwner, \"Caller is not contract owner\");\n    require(charityId < noOfCharities, \"Invalid charity id\");\n    require(charities[charityId].charityStatus == CharityStatus.UNVERIFIED, \"Charity has been verified or rejected\");\n    require(isVerifiedCharity[charityId] == false, \"Charity has been verified\");\n\n    charities[charityId].charityStatus = CharityStatus.VERIFIED;\n    charities[charityId].verificationLink = verificationLink;\n    isVerifiedCharity[charityId] = true;\n    emit charityVerified(charityId);\n    // remove charity from charitiesPendingVerification[]\n  }\n\n  function rejectCharity(uint charityId) public onlyOwner(msg.sender) {\n    require(msg.sender == contractOwner, \"Caller is not contract owner\");\n    require(charityId < noOfCharities, \"Invalid charity id\");\n    require(charities[charityId].charityStatus == CharityStatus.UNVERIFIED, \"Charity has been verified or rejected\");\n    require(isVerifiedCharity[charityId] == false, \"Charity has been verified\");\n\n    charities[charityId].charityStatus = CharityStatus.REJECTED;\n    emit charityRejected(charityId);\n    // remove charity from charitiesPendingVerification[]\n  }\n\n  function revokeCharity(uint charityId) public onlyOwner(msg.sender) {\n    require(msg.sender == contractOwner, \"Caller is not contract owner\");\n    require(charityId < noOfCharities, \"Invalid charity id\");\n    require(charities[charityId].charityStatus == CharityStatus.VERIFIED, \"Charity is not a verified charity\");\n    require(isVerifiedCharity[charityId] == true, \"Charity has been verified\");\n\n    charities[charityId].charityStatus = CharityStatus.REJECTED;\n    emit charityRevoked(charityId);\n  }\n\n  /*\n  * This will be the function that charities call to create a campaign.\n  * Parameters of this function will include uint targetDonation (of the campaign), uint startDate (of the campaign), uint endDate (of the campaign)\n  */\n  function createCampaign(bytes memory campaignName, bytes memory description, bytes memory pictureURL, uint targetDonation, uint startDate, uint endDate) public onlyVerifiedCharity(msg.sender) returns (uint campaignId) {\n    /*require(campaignName != \"Charity name cannot be empty\");\n    require(description != \"Description cannot be empty\");\n    require(pictureURL != \"Picture URL cannot be empty\");\n    require(targetDonation > 0, \"Target donation must be larger than 0\");\n    require(startDate < endDate, \"Start date must be earlier than end date\");*/\n\n    campaignId = noOfCampaigns++;\n    uint charityId = charityAddressIdMap[msg.sender];\n    campaign memory newCampaign = campaign(charityId, campaignName, description, pictureURL, targetDonation, 0, 0, startDate, endDate, CampaignStatus.ONGOING);\n    campaigns[campaignId] = newCampaign;\n    // ongoingCampaigns.push(campaignId);\n    isOngoingCampaign[campaignId] = true;\n    emit campaignCreated(charityId, campaignId);\n    return campaignId;\n  }\n\n  /*\n  *\n  * This will be the function that charities call to end an ongoing campaign.\n  * Parameters of this function will include uint campaignId\n  */\n  function endCampaign(uint campaignId) public onlyVerifiedCharity(msg.sender) onlyOwner(msg.sender) {\n    require(campaignId < noOfCampaigns, \"Invalid campaign id\");\n    require(isOngoingCampaign[campaignId], \"Campaign is not ongoing\");\n    require(msg.sender == charities[campaigns[campaignId].charityId].charityOwner, \"Caller is not owner of charity\");\n\n    campaigns[campaignId].campaignStatus = CampaignStatus.ENDED;\n    isOngoingCampaign[campaignId] = false;\n    emit campaignEnded(campaignId);\n    // remove campaign from ongoingCampaigns[]\n  }\n\n  /*\n  * This will be the getter function that everyone can call to check the charity address.\n  * Parameters of this function will include uint charityId\n  */\n  function getCharityOwner(uint charityId) public view returns (address) {\n    require(charityId < noOfCharities, \"Invalid charity id\");\n    return charities[charityId].charityOwner;\n  }\n\n  /*\n  * This will be the getter function that everyone can call to check the charity name.\n  * Parameters of this function will include uint charityId\n  */\n  function getCharityName(uint charityId) public view returns (bytes memory) {\n    require(charityId < noOfCharities, \"Invalid charity id\");\n    return charities[charityId].charityName;\n  }\n\n  /*\n  * This will be the getter function that everyone can call to check the charity pictureURL.\n  * Parameters of this function will include uint charityId\n  */\n  function getCharityPictureURL(uint charityId) public view returns (bytes memory) {\n    require(charityId < noOfCharities, \"Invalid charity id\");\n    return charities[charityId].pictureURL;\n  }\n\n  /*\n  * This will be the getter function that everyone can call to check the charity description.\n  * Parameters of this function will include uint charityId\n  */\n  function getCharityDescription(uint charityId) public view returns (bytes memory) {\n    require(charityId < noOfCharities, \"Invalid charity id\");\n    return charities[charityId].description;\n  }\n\n  /*\n  * This will be the getter function that everyone can call to check the charity status.\n  * Parameters of this function will include uint charityId\n  */\n  function getCharityStatus(uint charityId) public view returns (CharityStatus) {\n    require(charityId < noOfCharities, \"Invalid charity id\");\n    return charities[charityId].charityStatus;\n  }\n\n  /*\n  * This will be the getter function that everyone can call to get the charity contact number.\n  * Parameters of this function will include uint charityId\n  */\n  function getCharityContactNumber(uint charityId) public view returns (bytes memory) {\n    require(charityId < noOfCharities, \"Invalid charity id\");\n    return charities[charityId].contactNumber;\n  }\n\n  /*\n  * This will be the getter function that everyone can call to get the charity contact address.\n  * Parameters of this function will include uint charityId\n  */\n  function getCharityContactAddress(uint charityId) public view returns (bytes memory) {\n    require(charityId < noOfCharities, \"Invalid charity id\");\n    return charities[charityId].charityAddress;\n  }\n\n  /*\n  * This will be the getter function that everyone can call to get the charity verification Link.\n  * Parameters of this function will include uint charityId\n  */\n  function getCharityVerificationLink(uint charityId) public view returns (bytes memory) {\n    require(charityId < noOfCharities, \"Invalid charity id\");\n    return charities[charityId].verificationLink;\n  }\n\n  /* \n  * This will be the getter function that everyone can call to get the total amounts of the charities.\n  * There will be no parameters for this function\n  */\n  function getNoOfCharities() public view returns (uint) {\n    return noOfCharities;\n  }\n\n  /*\n  * This will be the getter function that everyone can call to get the total amounts of verified charities\n  * There will be no parameters for this function\n  */\n  function getVerifiedCharityAmount() public view returns (uint) {\n    uint noOfVerifiedCharities = 0;\n    for (uint i = 0; i < noOfCharities; i++) {\n      if (charities[i].charityStatus == CharityStatus.VERIFIED) {\n        noOfVerifiedCharities++;\n      }\n    }\n    return noOfVerifiedCharities;\n  }\n\n  /*\n  * This will be the getter function that everyone can call to get the total amounts of unverified charities\n  * There will be no parameters for this function\n  */\n  function getUnverifiedCharityAmount() public view returns (uint) {\n    uint noOfUnverifiedCharities = 0;\n    for (uint i = 0; i < noOfCharities; i++) {\n      if (charities[i].charityStatus == CharityStatus.UNVERIFIED) {\n        noOfUnverifiedCharities++;\n      }\n    }\n    return noOfUnverifiedCharities;\n  }\n\n  /*\n  * This will be the getter function that everyone can call to get the total amounts of rejected charities\n  * There will be no parameters for this function\n  */\n  function getRejectedCharityAmount() public view returns (uint) {\n    uint noOfRejectedCharities = 0;\n    for (uint i = 0; i < noOfCharities; i++) {\n      if (charities[i].charityStatus == CharityStatus.REJECTED) {\n        noOfRejectedCharities++;\n      }\n    }\n    return noOfRejectedCharities;\n  }\n\n  /*\n  * This will be the function that everyone can call to get the total amounts of campaigns hold by the given charities\n  * Parameters of this function will include uint charityId\n  */\n  function getCampaignAmountByCharity(uint charityId) public view returns (uint) {\n    uint noOfCampaignByCharity = 0;\n    for (uint i = 0; i < noOfCampaigns; i++) {\n      if (campaigns[i].charityId == charityId) {\n        noOfCampaignByCharity++;\n      }\n    }\n    return noOfCampaignByCharity;\n  }\n\n  /*\n  * This will be the function that everyone can call to get the total amounts of active campaigns hold by the given charities\n  * Parameters of this function will include uint charityId\n  */\n  function getActiveCampaignAmountByCharity(uint charityId) public view returns (uint) {\n    uint noOfActiveCampaignByCharity = 0;\n    for (uint i = 0; i < noOfCampaigns; i++) {\n      if (campaigns[i].charityId == charityId && isOngoingCampaign[i] == true) {\n        noOfActiveCampaignByCharity++;\n      }\n    }\n    return noOfActiveCampaignByCharity;\n  }\n\n  /*\n  * This will be the function that everyone can call to get the total amounts of ended campaigns hold by the given charities\n  * Parameters of this function will include uint charityId\n  */\n  function getEndedCampaignAmountByCharity(uint charityId) public view returns (uint) {\n    uint noOfEndedCampaignByCharity = 0;\n    for (uint i = 0; i < noOfCampaigns; i++) {\n      if (campaigns[i].charityId == charityId && isOngoingCampaign[i] == false) {\n        noOfEndedCampaignByCharity++;\n      }\n    }\n    return noOfEndedCampaignByCharity;\n  }\n\n  /*\n  * This will be the getter function that everyone can call to check the campaign's charityId.\n  * Parameters of this function will include uint campaignId\n  */\n  function getCampaignCharity(uint campaignId) public view returns (uint) {\n    require(campaignId < noOfCampaigns, \"Invalid campaign id\");\n    return campaigns[campaignId].charityId;\n  }\n\n  /*\n  * This will be the getter function that everyone can call to check the campaign name.\n  * Parameters of this function will include uint campaignId\n  */\n  function getCampaignName(uint campaignId) public view returns (bytes memory) {\n    require(campaignId < noOfCampaigns, \"Invalid campaign id\");\n    return campaigns[campaignId].campaignName;\n  }\n\n  /*\n  * This will be the getter function that everyone can call to check the campaign description.\n  * Parameters of this function will include uint campaignId\n  */\n  function getCampaignDescription(uint campaignId) public view returns (bytes memory) {\n    require(campaignId < noOfCampaigns, \"Invalid campaign id\");\n    return campaigns[campaignId].description;\n  }\n\n  /*\n  * This will be the getter function that everyone can call to check the campaign pictureURL.\n  * Parameters of this function will include uint campaignId\n  */\n  function getCampaignPictureURL(uint campaignId) public view returns (bytes memory) {\n    require(campaignId < noOfCampaigns, \"Invalid campaign id\");\n    return campaigns[campaignId].pictureURL;\n  }\n\n  /*\n  * This will be the getter function that everyone can call to check the campaign targetDonation.\n  * Parameters of this function will include uint campaignId\n  */\n  function getCampaignTargetDonation(uint campaignId) public view returns (uint) {\n    require(campaignId < noOfCampaigns, \"Invalid campaign id\");\n    return campaigns[campaignId].targetDonation;\n  }\n\n  /*\n  * This will be the getter function that everyone can call to check the campaign currentDonation.\n  * Parameters of this function will include uint campaignId\n  */\n  function getCampaignCurrentDonation(uint campaignId) public view returns (uint) {\n    require(campaignId < noOfCampaigns, \"Invalid campaign id\");\n    return campaigns[campaignId].currentDonation;\n  }\n\n  /*\n  * This will be the getter function that everyone can call to check the campaign noOfDonors.\n  * Parameters of this function will include uint campaignId\n  */\n  function getCampaignNoOfDonors(uint campaignId) public view returns (uint) {\n    require(campaignId < noOfCampaigns, \"Invalid campaign id\");\n    return campaigns[campaignId].noOfDonors;\n  }\n\n  /*\n  * This will be the getter function that everyone can call to check the campaign startDate.\n  * Parameters of this function will include uint campaignId\n  */\n  function getCampaignStartDate(uint campaignId) public view returns (uint) {\n    require(campaignId < noOfCampaigns, \"Invalid campaign id\");\n    return campaigns[campaignId].startDate;\n  }\n\n  /*\n  * This will be the getter function that everyone can call to check the campaign endDate.\n  * Parameters of this function will include uint campaignId\n  */\n  function getCampaignEndDate(uint campaignId) public view returns (uint) {\n    require(campaignId < noOfCampaigns, \"Invalid campaign id\");\n    return campaigns[campaignId].endDate;\n  }\n\n  /*\n  * This will be the getter function that everyone can call to check the campaign status.\n  * Parameters of this function will include uint campaignId\n  */\n  function getCampaignStatus(uint campaignId) public view returns (CampaignStatus) {\n    require(campaignId < noOfCampaigns, \"Invalid campaign id\");\n    return campaigns[campaignId].campaignStatus;\n  }\n\n  /* \n  * This will be the getter function that everyone can call to get the total amounts of the campaigns.\n  * There will be no parameters fot this function\n  */\n  function getNoOfCampaigns() public view returns (uint) {\n    return noOfCampaigns;\n  }\n  \n  // boolean to check campaign status\n  function isStatusComplete(uint campaignId) public view returns (bool) {\n    require(campaignId < noOfCampaigns, \"Invalid campaign id\");\n    if(campaigns[campaignId].campaignStatus == CampaignStatus.ENDED) {\n        return true;\n    }\n    return false;\n  }\n  \n  // boolean to check if campaign is valid\n  function checkValidCampaign(uint campaignId) public view returns (bool) {\n      if(campaignId < noOfCampaigns) {\n          return true;\n      }\n      return false;\n  }\n    \n  /*\n  * This will be the function that updates the campaign's currentDonation\n  * Parameters of this function will include uint campaignId and uint newDonation\n  */\n  function updateCampaignCurrentDonation(uint campaignId, uint newDonation) public {\n      require(campaignId < noOfCampaigns, \"Invalid campaign id\");\n      uint newAmount = campaigns[campaignId].currentDonation + newDonation;\n      campaigns[campaignId].currentDonation = newAmount;\n      emit updateCurrentDonation(newAmount);\n  }\n  \n  /*\n  * This will be the function that updates the campaign's noOfDonors\n  * Parameters of this function will include uint campaignId\n  */\n  function addCampaignDonor(uint campaignId) public {\n      require(campaignId < noOfCampaigns, \"Invalid campaign id\");\n      uint newNumber = campaigns[campaignId].noOfDonors + 1;\n      campaigns[campaignId].noOfDonors = newNumber;\n      emit updateCampaignDonors(newNumber);\n  }\n\n  /*\n  * This will be the function to get contract's owner\n  * There will be no parameters for this function\n  */\n  function getContractOwner() public view returns (address) {\n    return contractOwner;\n  }\n\n}",
  "sourcePath": "/Users/hawayo/Desktop/sharity/contracts/Charity.sol",
  "compiler": {
    "name": "solc",
    "version": "0.5.0+commit.1d4f565a.Emscripten.clang"
  },
  "schemaVersion": "3.3.3",
  "updatedAt": "2021-04-03T15:06:22.543Z",
  "networkType": "ethereum",
  "devdoc": {
    "methods": {}
  },
  "userdoc": {
    "methods": {}
  }
}