{
  "contractName": "Charity",
  "abi": [
    {
      "payable": true,
      "stateMutability": "payable",
      "type": "fallback"
    },
    {
      "constant": true,
      "inputs": [
        {
          "name": "inputAddress",
          "type": "address"
        }
      ],
      "name": "checkAddressType",
      "outputs": [
        {
          "name": "",
          "type": "string"
        }
      ],
      "payable": false,
      "stateMutability": "view",
      "type": "function"
    },
    {
      "constant": false,
      "inputs": [],
      "name": "withdrawMoney",
      "outputs": [],
      "payable": false,
      "stateMutability": "nonpayable",
      "type": "function"
    },
    {
      "constant": false,
      "inputs": [
        {
          "name": "charityName",
          "type": "string"
        },
        {
          "name": "charityAddress",
          "type": "string"
        },
        {
          "name": "contactNumber",
          "type": "string"
        },
        {
          "name": "description",
          "type": "string"
        },
        {
          "name": "pictureURL",
          "type": "string"
        }
      ],
      "name": "registerCharity",
      "outputs": [
        {
          "name": "charityId",
          "type": "uint256"
        }
      ],
      "payable": true,
      "stateMutability": "payable",
      "type": "function"
    },
    {
      "constant": false,
      "inputs": [
        {
          "name": "charityId",
          "type": "uint256"
        },
        {
          "name": "verificationLink",
          "type": "string"
        }
      ],
      "name": "verifyCharity",
      "outputs": [],
      "payable": false,
      "stateMutability": "nonpayable",
      "type": "function"
    },
    {
      "constant": false,
      "inputs": [
        {
          "name": "charityId",
          "type": "uint256"
        }
      ],
      "name": "rejectCharity",
      "outputs": [],
      "payable": false,
      "stateMutability": "nonpayable",
      "type": "function"
    },
    {
      "constant": false,
      "inputs": [
        {
          "name": "charityId",
          "type": "uint256"
        }
      ],
      "name": "revokeCharity",
      "outputs": [],
      "payable": false,
      "stateMutability": "nonpayable",
      "type": "function"
    },
    {
      "constant": false,
      "inputs": [
        {
          "name": "campaignName",
          "type": "string"
        },
        {
          "name": "description",
          "type": "string"
        },
        {
          "name": "pictureURL",
          "type": "string"
        },
        {
          "name": "targetDonation",
          "type": "uint256"
        },
        {
          "name": "startDate",
          "type": "uint256"
        },
        {
          "name": "endDate",
          "type": "uint256"
        }
      ],
      "name": "createCampaign",
      "outputs": [
        {
          "name": "campaignId",
          "type": "uint256"
        }
      ],
      "payable": false,
      "stateMutability": "nonpayable",
      "type": "function"
    },
    {
      "constant": false,
      "inputs": [
        {
          "name": "campaignId",
          "type": "uint256"
        }
      ],
      "name": "endCampaign",
      "outputs": [],
      "payable": false,
      "stateMutability": "nonpayable",
      "type": "function"
    },
    {
      "constant": true,
      "inputs": [
        {
          "name": "charityId",
          "type": "uint256"
        }
      ],
      "name": "getCharityOwner",
      "outputs": [
        {
          "name": "",
          "type": "address"
        }
      ],
      "payable": false,
      "stateMutability": "view",
      "type": "function"
    },
    {
      "constant": true,
      "inputs": [
        {
          "name": "inputAddress",
          "type": "address"
        }
      ],
      "name": "getCharityIdByAddress",
      "outputs": [
        {
          "name": "",
          "type": "uint256"
        }
      ],
      "payable": false,
      "stateMutability": "view",
      "type": "function"
    },
    {
      "constant": true,
      "inputs": [
        {
          "name": "charityId",
          "type": "uint256"
        }
      ],
      "name": "getCharityName",
      "outputs": [
        {
          "name": "",
          "type": "string"
        }
      ],
      "payable": false,
      "stateMutability": "view",
      "type": "function"
    },
    {
      "constant": true,
      "inputs": [
        {
          "name": "charityId",
          "type": "uint256"
        }
      ],
      "name": "getCharityPictureURL",
      "outputs": [
        {
          "name": "",
          "type": "string"
        }
      ],
      "payable": false,
      "stateMutability": "view",
      "type": "function"
    },
    {
      "constant": true,
      "inputs": [
        {
          "name": "inputAddress",
          "type": "address"
        }
      ],
      "name": "getCharityPictureURLByAddress",
      "outputs": [
        {
          "name": "",
          "type": "string"
        }
      ],
      "payable": false,
      "stateMutability": "view",
      "type": "function"
    },
    {
      "constant": true,
      "inputs": [
        {
          "name": "charityId",
          "type": "uint256"
        }
      ],
      "name": "getCharityDescription",
      "outputs": [
        {
          "name": "",
          "type": "string"
        }
      ],
      "payable": false,
      "stateMutability": "view",
      "type": "function"
    },
    {
      "constant": true,
      "inputs": [
        {
          "name": "charityId",
          "type": "uint256"
        }
      ],
      "name": "getCharityStatus",
      "outputs": [
        {
          "name": "",
          "type": "uint8"
        }
      ],
      "payable": false,
      "stateMutability": "view",
      "type": "function"
    },
    {
      "constant": true,
      "inputs": [
        {
          "name": "inputAddress",
          "type": "address"
        }
      ],
      "name": "getCharityStatusByAddress",
      "outputs": [
        {
          "name": "",
          "type": "uint8"
        }
      ],
      "payable": false,
      "stateMutability": "view",
      "type": "function"
    },
    {
      "constant": true,
      "inputs": [
        {
          "name": "charityId",
          "type": "uint256"
        }
      ],
      "name": "getCharityContactNumber",
      "outputs": [
        {
          "name": "",
          "type": "string"
        }
      ],
      "payable": false,
      "stateMutability": "view",
      "type": "function"
    },
    {
      "constant": true,
      "inputs": [
        {
          "name": "charityId",
          "type": "uint256"
        }
      ],
      "name": "getCharityContactAddress",
      "outputs": [
        {
          "name": "",
          "type": "string"
        }
      ],
      "payable": false,
      "stateMutability": "view",
      "type": "function"
    },
    {
      "constant": true,
      "inputs": [
        {
          "name": "charityId",
          "type": "uint256"
        }
      ],
      "name": "getCharityVerificationLink",
      "outputs": [
        {
          "name": "",
          "type": "string"
        }
      ],
      "payable": false,
      "stateMutability": "view",
      "type": "function"
    },
    {
      "constant": true,
      "inputs": [],
      "name": "getNoOfCharities",
      "outputs": [
        {
          "name": "",
          "type": "uint256"
        }
      ],
      "payable": false,
      "stateMutability": "view",
      "type": "function"
    },
    {
      "constant": true,
      "inputs": [
        {
          "name": "campaignId",
          "type": "uint256"
        }
      ],
      "name": "getCampaignCharity",
      "outputs": [
        {
          "name": "",
          "type": "uint256"
        }
      ],
      "payable": false,
      "stateMutability": "view",
      "type": "function"
    },
    {
      "constant": true,
      "inputs": [
        {
          "name": "campaignId",
          "type": "uint256"
        }
      ],
      "name": "getCampaignName",
      "outputs": [
        {
          "name": "",
          "type": "string"
        }
      ],
      "payable": false,
      "stateMutability": "view",
      "type": "function"
    },
    {
      "constant": true,
      "inputs": [
        {
          "name": "campaignId",
          "type": "uint256"
        }
      ],
      "name": "getCampaignDescription",
      "outputs": [
        {
          "name": "",
          "type": "string"
        }
      ],
      "payable": false,
      "stateMutability": "view",
      "type": "function"
    },
    {
      "constant": true,
      "inputs": [
        {
          "name": "campaignId",
          "type": "uint256"
        }
      ],
      "name": "getCampaignPictureURL",
      "outputs": [
        {
          "name": "",
          "type": "string"
        }
      ],
      "payable": false,
      "stateMutability": "view",
      "type": "function"
    },
    {
      "constant": true,
      "inputs": [
        {
          "name": "campaignId",
          "type": "uint256"
        }
      ],
      "name": "getCampaignTargetDonation",
      "outputs": [
        {
          "name": "",
          "type": "uint256"
        }
      ],
      "payable": false,
      "stateMutability": "view",
      "type": "function"
    },
    {
      "constant": true,
      "inputs": [
        {
          "name": "campaignId",
          "type": "uint256"
        }
      ],
      "name": "getCampaignCurrentDonation",
      "outputs": [
        {
          "name": "",
          "type": "uint256"
        }
      ],
      "payable": false,
      "stateMutability": "view",
      "type": "function"
    },
    {
      "constant": true,
      "inputs": [
        {
          "name": "campaignId",
          "type": "uint256"
        }
      ],
      "name": "getCampaignNoOfDonors",
      "outputs": [
        {
          "name": "",
          "type": "uint256"
        }
      ],
      "payable": false,
      "stateMutability": "view",
      "type": "function"
    },
    {
      "constant": true,
      "inputs": [
        {
          "name": "campaignId",
          "type": "uint256"
        }
      ],
      "name": "getCampaignStartDate",
      "outputs": [
        {
          "name": "",
          "type": "uint256"
        }
      ],
      "payable": false,
      "stateMutability": "view",
      "type": "function"
    },
    {
      "constant": true,
      "inputs": [
        {
          "name": "campaignId",
          "type": "uint256"
        }
      ],
      "name": "getCampaignEndDate",
      "outputs": [
        {
          "name": "",
          "type": "uint256"
        }
      ],
      "payable": false,
      "stateMutability": "view",
      "type": "function"
    },
    {
      "constant": true,
      "inputs": [
        {
          "name": "campaignId",
          "type": "uint256"
        }
      ],
      "name": "getCampaignStatus",
      "outputs": [
        {
          "name": "",
          "type": "uint8"
        }
      ],
      "payable": false,
      "stateMutability": "view",
      "type": "function"
    },
    {
      "constant": true,
      "inputs": [],
      "name": "getNoOfCampaigns",
      "outputs": [
        {
          "name": "",
          "type": "uint256"
        }
      ],
      "payable": false,
      "stateMutability": "view",
      "type": "function"
    },
    {
      "constant": true,
      "inputs": [
        {
          "name": "campaignId",
          "type": "uint256"
        }
      ],
      "name": "isStatusComplete",
      "outputs": [
        {
          "name": "",
          "type": "bool"
        }
      ],
      "payable": false,
      "stateMutability": "view",
      "type": "function"
    },
    {
      "constant": true,
      "inputs": [
        {
          "name": "campaignId",
          "type": "uint256"
        }
      ],
      "name": "checkValidCampaign",
      "outputs": [
        {
          "name": "",
          "type": "bool"
        }
      ],
      "payable": false,
      "stateMutability": "view",
      "type": "function"
    },
    {
      "constant": false,
      "inputs": [
        {
          "name": "campaignId",
          "type": "uint256"
        },
        {
          "name": "newDonation",
          "type": "uint256"
        }
      ],
      "name": "updateCampaignCurrentDonation",
      "outputs": [],
      "payable": false,
      "stateMutability": "nonpayable",
      "type": "function"
    },
    {
      "constant": false,
      "inputs": [
        {
          "name": "campaignId",
          "type": "uint256"
        }
      ],
      "name": "addCampaignDonor",
      "outputs": [],
      "payable": false,
      "stateMutability": "nonpayable",
      "type": "function"
    },
    {
      "constant": true,
      "inputs": [
        {
          "name": "charityId",
          "type": "uint256"
        }
      ],
      "name": "getDonors",
      "outputs": [
        {
          "name": "",
          "type": "address[]"
        }
      ],
      "payable": false,
      "stateMutability": "view",
      "type": "function"
    },
    {
      "constant": true,
      "inputs": [],
      "name": "getRegFee",
      "outputs": [
        {
          "name": "",
          "type": "uint256"
        }
      ],
      "payable": false,
      "stateMutability": "view",
      "type": "function"
    },
    {
      "constant": true,
      "inputs": [],
      "name": "getContractOwner",
      "outputs": [
        {
          "name": "",
          "type": "address"
        }
      ],
      "payable": false,
      "stateMutability": "view",
      "type": "function"
    },
    {
      "constant": true,
      "inputs": [
        {
          "name": "donor",
          "type": "address"
        },
        {
          "name": "charityId",
          "type": "uint256"
        }
      ],
      "name": "checkCharityDonor",
      "outputs": [
        {
          "name": "",
          "type": "bool"
        }
      ],
      "payable": false,
      "stateMutability": "view",
      "type": "function"
    },
    {
      "constant": false,
      "inputs": [
        {
          "name": "donor",
          "type": "address"
        },
        {
          "name": "charityId",
          "type": "uint256"
        }
      ],
      "name": "addCharityDonor",
      "outputs": [],
      "payable": false,
      "stateMutability": "nonpayable",
      "type": "function"
    }
  ],
  "bytecode": "0x6080604052336000806101000a81548173ffffffffffffffffffffffffffffffffffffffff021916908373ffffffffffffffffffffffffffffffffffffffff160217905550600060075560006008556706f05b59d3b200006009556000600c556000600d5534801561007057600080fd5b50614d43806100806000396000f3fe6080604052600436106101ed576000357c0100000000000000000000000000000000000000000000000000000000900463ffffffff16806282c0b2146101ef578063068782d2146102545780630749c8ac146103085780630bbcf696146103bc57806312c7d50a146103f757806315f28a2714610722578063161d3dd11461077157806327f2b91d1461079c57806329516511146109c457806332fa180d14610a545780633ffe888f14610a7f578063442890d514610ace57806355fb8f5314610b2557806357d65eac14610bd95780635a10227514610c2c5780635e0566a314610ce057806368b0875614610d945780636c19e00414610def5780636dbdfedc14610e4c578063709d1e7c14610f1e57806374eb573814610fd25780637ede52fc1461102157806395657f7e146110d5578063980a2688146111895780639eaec8031461123d5780639fd852f014611278578063a16fd1d014611342578063a6af939a1461139f578063ac446002146113e4578063bc4465da146113fb578063ca032ade1461144a578063dba22957146114bd578063dd0408ae14611530578063e317526a1461156b578063ea79c200146115e6578063eaa44df214611621578063f1c4bfac146116eb578063f26fec9a1461173a578063f6b5489814611765578063fb99932f146117b8575b005b3480156101fb57600080fd5b5061023e6004803603602081101561021257600080fd5b81019080803573ffffffffffffffffffffffffffffffffffffffff169060200190929190505050611807565b6040518082815260200191505060405180910390f35b34801561026057600080fd5b5061028d6004803603602081101561027757600080fd5b810190808035906020019092919050505061191e565b6040518080602001828103825283818151815260200191508051906020019080838360005b838110156102cd5780820151818401526020810190506102b2565b50505050905090810190601f1680156102fa5780820380516001836020036101000a031916815260200191505b509250505060405180910390f35b34801561031457600080fd5b506103416004803603602081101561032b57600080fd5b8101908080359060200190929190505050611a4f565b6040518080602001828103825283818151815260200191508051906020019080838360005b83811015610381578082015181840152602081019050610366565b50505050905090810190601f1680156103ae5780820380516001836020036101000a031916815260200191505b509250505060405180910390f35b3480156103c857600080fd5b506103f5600480360360208110156103df57600080fd5b8101908080359060200190929190505050611b80565b005b61070c600480360360a081101561040d57600080fd5b810190808035906020019064010000000081111561042a57600080fd5b82018360208201111561043c57600080fd5b8035906020019184600183028401116401000000008311171561045e57600080fd5b91908080601f016020809104026020016040519081016040528093929190818152602001838380828437600081840152601f19601f820116905080830192505050505050509192919290803590602001906401000000008111156104c157600080fd5b8201836020820111156104d357600080fd5b803590602001918460018302840111640100000000831117156104f557600080fd5b91908080601f016020809104026020016040519081016040528093929190818152602001838380828437600081840152601f19601f8201169050808301925050505050505091929192908035906020019064010000000081111561055857600080fd5b82018360208201111561056a57600080fd5b8035906020019184600183028401116401000000008311171561058c57600080fd5b91908080601f016020809104026020016040519081016040528093929190818152602001838380828437600081840152601f19601f820116905080830192505050505050509192919290803590602001906401000000008111156105ef57600080fd5b82018360208201111561060157600080fd5b8035906020019184600183028401116401000000008311171561062357600080fd5b91908080601f016020809104026020016040519081016040528093929190818152602001838380828437600081840152601f19601f8201169050808301925050505050505091929192908035906020019064010000000081111561068657600080fd5b82018360208201111561069857600080fd5b803590602001918460018302840111640100000000831117156106ba57600080fd5b91908080601f016020809104026020016040519081016040528093929190818152602001838380828437600081840152601f19601f820116905080830192505050505050509192919290505050611dd0565b6040518082815260200191505060405180910390f35b34801561072e57600080fd5b5061075b6004803603602081101561074557600080fd5b8101908080359060200190929190505050612316565b6040518082815260200191505060405180910390f35b34801561077d57600080fd5b506107866123af565b6040518082815260200191505060405180910390f35b3480156107a857600080fd5b506109ae600480360360c08110156107bf57600080fd5b81019080803590602001906401000000008111156107dc57600080fd5b8201836020820111156107ee57600080fd5b8035906020019184600183028401116401000000008311171561081057600080fd5b91908080601f016020809104026020016040519081016040528093929190818152602001838380828437600081840152601f19601f8201169050808301925050505050505091929192908035906020019064010000000081111561087357600080fd5b82018360208201111561088557600080fd5b803590602001918460018302840111640100000000831117156108a757600080fd5b91908080601f016020809104026020016040519081016040528093929190818152602001838380828437600081840152601f19601f8201169050808301925050505050505091929192908035906020019064010000000081111561090a57600080fd5b82018360208201111561091c57600080fd5b8035906020019184600183028401116401000000008311171561093e57600080fd5b91908080601f016020809104026020016040519081016040528093929190818152602001838380828437600081840152601f19601f8201169050808301925050505050505091929192908035906020019092919080359060200190929190803590602001909291905050506123b9565b6040518082815260200191505060405180910390f35b3480156109d057600080fd5b506109fd600480360360208110156109e757600080fd5b8101908080359060200190929190505050612657565b6040518080602001828103825283818151815260200191508051906020019060200280838360005b83811015610a40578082015181840152602081019050610a25565b505050509050019250505060405180910390f35b348015610a6057600080fd5b50610a69612700565b6040518082815260200191505060405180910390f35b348015610a8b57600080fd5b50610ab860048036036020811015610aa257600080fd5b810190808035906020019092919050505061270a565b6040518082815260200191505060405180910390f35b348015610ada57600080fd5b50610ae36127a3565b604051808273ffffffffffffffffffffffffffffffffffffffff1673ffffffffffffffffffffffffffffffffffffffff16815260200191505060405180910390f35b348015610b3157600080fd5b50610b5e60048036036020811015610b4857600080fd5b81019080803590602001909291905050506127cc565b6040518080602001828103825283818151815260200191508051906020019080838360005b83811015610b9e578082015181840152602081019050610b83565b50505050905090810190601f168015610bcb5780820380516001836020036101000a031916815260200191505b509250505060405180910390f35b348015610be557600080fd5b50610c1260048036036020811015610bfc57600080fd5b81019080803590602001909291905050506128fd565b604051808215151515815260200191505060405180910390f35b348015610c3857600080fd5b50610c6560048036036020811015610c4f57600080fd5b810190808035906020019092919050505061291c565b6040518080602001828103825283818151815260200191508051906020019080838360005b83811015610ca5578082015181840152602081019050610c8a565b50505050905090810190601f168015610cd25780820380516001836020036101000a031916815260200191505b509250505060405180910390f35b348015610cec57600080fd5b50610d1960048036036020811015610d0357600080fd5b8101908080359060200190929190505050612a4d565b6040518080602001828103825283818151815260200191508051906020019080838360005b83811015610d59578082015181840152602081019050610d3e565b50505050905090810190601f168015610d865780820380516001836020036101000a031916815260200191505b509250505060405180910390f35b348015610da057600080fd5b50610ded60048036036040811015610db757600080fd5b81019080803573ffffffffffffffffffffffffffffffffffffffff16906020019092919080359060200190929190505050612b7e565b005b348015610dfb57600080fd5b50610e2860048036036020811015610e1257600080fd5b8101908080359060200190929190505050612bfc565b60405180826001811115610e3857fe5b60ff16815260200191505060405180910390f35b348015610e5857600080fd5b50610f1c60048036036040811015610e6f57600080fd5b810190808035906020019092919080359060200190640100000000811115610e9657600080fd5b820183602082011115610ea857600080fd5b80359060200191846001830284011164010000000083111715610eca57600080fd5b91908080601f016020809104026020016040519081016040528093929190818152602001838380828437600081840152601f19601f820116905080830192505050505050509192919290505050612ca2565b005b348015610f2a57600080fd5b50610f5760048036036020811015610f4157600080fd5b81019080803590602001909291905050506130aa565b6040518080602001828103825283818151815260200191508051906020019080838360005b83811015610f97578082015181840152602081019050610f7c565b50505050905090810190601f168015610fc45780820380516001836020036101000a031916815260200191505b509250505060405180910390f35b348015610fde57600080fd5b5061100b60048036036020811015610ff557600080fd5b81019080803590602001909291905050506131db565b6040518082815260200191505060405180910390f35b34801561102d57600080fd5b5061105a6004803603602081101561104457600080fd5b8101908080359060200190929190505050613274565b6040518080602001828103825283818151815260200191508051906020019080838360005b8381101561109a57808201518184015260208101905061107f565b50505050905090810190601f1680156110c75780820380516001836020036101000a031916815260200191505b509250505060405180910390f35b3480156110e157600080fd5b5061110e600480360360208110156110f857600080fd5b81019080803590602001909291905050506133a5565b6040518080602001828103825283818151815260200191508051906020019080838360005b8381101561114e578082015181840152602081019050611133565b50505050905090810190601f16801561117b5780820380516001836020036101000a031916815260200191505b509250505060405180910390f35b34801561119557600080fd5b506111c2600480360360208110156111ac57600080fd5b81019080803590602001909291905050506134d6565b6040518080602001828103825283818151815260200191508051906020019080838360005b838110156112025780820151818401526020810190506111e7565b50505050905090810190601f16801561122f5780820380516001836020036101000a031916815260200191505b509250505060405180910390f35b34801561124957600080fd5b506112766004803603602081101561126057600080fd5b8101908080359060200190929190505050613607565b005b34801561128457600080fd5b506112c76004803603602081101561129b57600080fd5b81019080803573ffffffffffffffffffffffffffffffffffffffff1690602001909291905050506139b7565b6040518080602001828103825283818151815260200191508051906020019080838360005b838110156113075780820151818401526020810190506112ec565b50505050905090810190601f1680156113345780820380516001836020036101000a031916815260200191505b509250505060405180910390f35b34801561134e57600080fd5b5061137b6004803603602081101561136557600080fd5b8101908080359060200190929190505050613b1f565b6040518082600281111561138b57fe5b60ff16815260200191505060405180910390f35b3480156113ab57600080fd5b506113e2600480360360408110156113c257600080fd5b810190808035906020019092919080359060200190929190505050613bc5565b005b3480156113f057600080fd5b506113f9613c7b565b005b34801561140757600080fd5b506114346004803603602081101561141e57600080fd5b8101908080359060200190929190505050613e3f565b6040518082815260200191505060405180910390f35b34801561145657600080fd5b506114996004803603602081101561146d57600080fd5b81019080803573ffffffffffffffffffffffffffffffffffffffff169060200190929190505050613ed8565b604051808260028111156114a957fe5b60ff16815260200191505060405180910390f35b3480156114c957600080fd5b50611516600480360360408110156114e057600080fd5b81019080803573ffffffffffffffffffffffffffffffffffffffff16906020019092919080359060200190929190505050614012565b604051808215151515815260200191505060405180910390f35b34801561153c57600080fd5b506115696004803603602081101561155357600080fd5b81019080803590602001909291905050506140e5565b005b34801561157757600080fd5b506115a46004803603602081101561158e57600080fd5b8101908080359060200190929190505050614519565b604051808273ffffffffffffffffffffffffffffffffffffffff1673ffffffffffffffffffffffffffffffffffffffff16815260200191505060405180910390f35b3480156115f257600080fd5b5061161f6004803603602081101561160957600080fd5b81019080803590602001909291905050506145d2565b005b34801561162d57600080fd5b506116706004803603602081101561164457600080fd5b81019080803573ffffffffffffffffffffffffffffffffffffffff169060200190929190505050614688565b6040518080602001828103825283818151815260200191508051906020019080838360005b838110156116b0578082015181840152602081019050611695565b50505050905090810190601f1680156116dd5780820380516001836020036101000a031916815260200191505b509250505060405180910390f35b3480156116f757600080fd5b506117246004803603602081101561170e57600080fd5b810190808035906020019092919050505061484d565b6040518082815260200191505060405180910390f35b34801561174657600080fd5b5061174f6148e6565b6040518082815260200191505060405180910390f35b34801561177157600080fd5b5061179e6004803603602081101561178857600080fd5b81019080803590602001909291905050506148f0565b604051808215151515815260200191505060405180910390f35b3480156117c457600080fd5b506117f1600480360360208110156117db57600080fd5b81019080803590602001909291905050506149bf565b6040518082815260200191505060405180910390f35b600060011515600560008473ffffffffffffffffffffffffffffffffffffffff1673ffffffffffffffffffffffffffffffffffffffff16815260200190815260200160002060009054906101000a900460ff1615151415156118d1576040517f08c379a00000000000000000000000000000000000000000000000000000000081526004018080602001828103825260208152602001807f41646472657373206e6f74206f776e6572206f6620616e79206368617269747981525060200191505060405180910390fd5b6000600360008473ffffffffffffffffffffffffffffffffffffffff1673ffffffffffffffffffffffffffffffffffffffff16815260200190815260200160002054905080915050919050565b6060600c5482101515611999576040517f08c379a00000000000000000000000000000000000000000000000000000000081526004018080602001828103825260138152602001807f496e76616c69642063616d706169676e2069640000000000000000000000000081525060200191505060405180910390fd5b600b60008381526020019081526020016000206002018054600181600116156101000203166002900480601f016020809104026020016040519081016040528092919081815260200182805460018160011615610100020316600290048015611a435780601f10611a1857610100808354040283529160200191611a43565b820191906000526020600020905b815481529060010190602001808311611a2657829003601f168201915b50505050509050919050565b606060075482101515611aca576040517f08c379a00000000000000000000000000000000000000000000000000000000081526004018080602001828103825260128152602001807f496e76616c69642063686172697479206964000000000000000000000000000081525060200191505060405180910390fd5b600260008381526020019081526020016000206005018054600181600116156101000203166002900480601f016020809104026020016040519081016040528092919081815260200182805460018160011615610100020316600290048015611b745780601f10611b4957610100808354040283529160200191611b74565b820191906000526020600020905b815481529060010190602001808311611b5757829003601f168201915b50505050509050919050565b336000809054906101000a900473ffffffffffffffffffffffffffffffffffffffff1673ffffffffffffffffffffffffffffffffffffffff168173ffffffffffffffffffffffffffffffffffffffff16141515611c45576040517f08c379a000000000000000000000000000000000000000000000000000000000815260040180806020018281038252601c8152602001807f43616c6c6572206973206e6f7420636f6e7472616374206f776e65720000000081525060200191505060405180910390fd5b60075482101515611cbe576040517f08c379a00000000000000000000000000000000000000000000000000000000081526004018080602001828103825260128152602001807f496e76616c69642063686172697479206964000000000000000000000000000081525060200191505060405180910390fd5b60016002811115611ccb57fe5b6002600084815260200190815260200160002060070160009054906101000a900460ff166002811115611cfa57fe5b141515611d95576040517f08c379a00000000000000000000000000000000000000000000000000000000081526004018080602001828103825260218152602001807f43686172697479206973206e6f7420612076657269666965642063686172697481526020017f790000000000000000000000000000000000000000000000000000000000000081525060400191505060405180910390fd5b600280600084815260200190815260200160002060070160006101000a81548160ff02191690836002811115611dc757fe5b02179055505050565b6000801515600560003373ffffffffffffffffffffffffffffffffffffffff1673ffffffffffffffffffffffffffffffffffffffff16815260200190815260200160002060009054906101000a900460ff161515141515611ebf576040517f08c379a00000000000000000000000000000000000000000000000000000000081526004018080602001828103825260338152602001807f54686973206164647265737320686173207265676973746572656420616e6f7481526020017f686572206368617269747920616c72656164790000000000000000000000000081525060400191505060405180910390fd5b6009543410151515611f5f576040517f08c379a000000000000000000000000000000000000000000000000000000000815260040180806020018281038252602d8152602001807f4e656564206174206c6561737420302e3520657468657220746f20726567697381526020017f746572206120636861726974790000000000000000000000000000000000000081525060400191505060405180910390fd5b346008540160088190555060076000815480929190600101919050559050611f85614a58565b610120604051908101604052803373ffffffffffffffffffffffffffffffffffffffff1681526020018881526020018781526020018681526020018581526020018481526020016020604051908101604052806000815250815260200160006002811115611fef57fe5b8152602001600680548060200260200160405190810160405280929190818152602001828054801561207657602002820191906000526020600020905b8160009054906101000a900473ffffffffffffffffffffffffffffffffffffffff1673ffffffffffffffffffffffffffffffffffffffff168152602001906001019080831161202c575b50505050508152509050806002600084815260200190815260200160002060008201518160000160006101000a81548173ffffffffffffffffffffffffffffffffffffffff021916908373ffffffffffffffffffffffffffffffffffffffff16021790555060208201518160010190805190602001906120f7929190614ac6565b506040820151816002019080519060200190612114929190614ac6565b506060820151816003019080519060200190612131929190614ac6565b50608082015181600401908051906020019061214e929190614ac6565b5060a082015181600501908051906020019061216b929190614ac6565b5060c0820151816006019080519060200190612188929190614ac6565b5060e08201518160070160006101000a81548160ff021916908360028111156121ad57fe5b02179055506101008201518160080190805190602001906121cf929190614b46565b5090505081600360003373ffffffffffffffffffffffffffffffffffffffff1673ffffffffffffffffffffffffffffffffffffffff1681526020019081526020016000208190555060006001600084815260200190815260200160002060006101000a81548160ff0219169083151502179055506001600560003373ffffffffffffffffffffffffffffffffffffffff1673ffffffffffffffffffffffffffffffffffffffff16815260200190815260200160002060006101000a81548160ff02191690831515021790555060008060009054906101000a900473ffffffffffffffffffffffffffffffffffffffff1690508073ffffffffffffffffffffffffffffffffffffffff166108fc349081150290604051600060405180830381858888f19350505050158015612307573d6000803e3d6000fd5b50829250505095945050505050565b6000600c5482101515612391576040517f08c379a00000000000000000000000000000000000000000000000000000000081526004018080602001828103825260138152602001807f496e76616c69642063616d706169676e2069640000000000000000000000000081525060200191505060405180910390fd5b600b6000838152602001908152602001600020600401549050919050565b6000600c54905090565b60003360016000600360008473ffffffffffffffffffffffffffffffffffffffff1673ffffffffffffffffffffffffffffffffffffffff16815260200190815260200160002054815260200190815260200160002060009054906101000a900460ff161515612490576040517f08c379a000000000000000000000000000000000000000000000000000000000815260040180806020018281038252601d8152602001807f43616c6c6572206973206e6f7420612076616c6964206368617269747900000081525060200191505060405180910390fd5b600c60008154809291906001019190505591506000600360003373ffffffffffffffffffffffffffffffffffffffff1673ffffffffffffffffffffffffffffffffffffffff1681526020019081526020016000205490506124ef614bd0565b610140604051908101604052808381526020018b81526020018a815260200189815260200188815260200160008152602001600081526020018781526020018681526020016000600181111561254157fe5b815250905080600b6000868152602001908152602001600020600082015181600001556020820151816001019080519060200190612580929190614ac6565b50604082015181600201908051906020019061259d929190614ac6565b5060608201518160030190805190602001906125ba929190614ac6565b506080820151816004015560a0820151816005015560c0820151816006015560e0820151816007015561010082015181600801556101208201518160090160006101000a81548160ff0219169083600181111561261357fe5b02179055509050506001600a600086815260200190815260200160002060006101000a81548160ff0219169083151502179055508393505050509695505050505050565b606080600260008481526020019081526020016000206008018054806020026020016040519081016040528092919081815260200182805480156126f057602002820191906000526020600020905b8160009054906101000a900473ffffffffffffffffffffffffffffffffffffffff1673ffffffffffffffffffffffffffffffffffffffff16815260200190600101908083116126a6575b5050505050905080915050919050565b6000600754905090565b6000600c5482101515612785576040517f08c379a00000000000000000000000000000000000000000000000000000000081526004018080602001828103825260138152602001807f496e76616c69642063616d706169676e2069640000000000000000000000000081525060200191505060405180910390fd5b600b6000838152602001908152602001600020600601549050919050565b60008060009054906101000a900473ffffffffffffffffffffffffffffffffffffffff16905090565b6060600c5482101515612847576040517f08c379a00000000000000000000000000000000000000000000000000000000081526004018080602001828103825260138152602001807f496e76616c69642063616d706169676e2069640000000000000000000000000081525060200191505060405180910390fd5b600b60008381526020019081526020016000206003018054600181600116156101000203166002900480601f0160208091040260200160405190810160405280929190818152602001828054600181600116156101000203166002900480156128f15780601f106128c6576101008083540402835291602001916128f1565b820191906000526020600020905b8154815290600101906020018083116128d457829003601f168201915b50505050509050919050565b6000600c548210156129125760019050612917565b600090505b919050565b6060600c5482101515612997576040517f08c379a00000000000000000000000000000000000000000000000000000000081526004018080602001828103825260138152602001807f496e76616c69642063616d706169676e2069640000000000000000000000000081525060200191505060405180910390fd5b600b60008381526020019081526020016000206001018054600181600116156101000203166002900480601f016020809104026020016040519081016040528092919081815260200182805460018160011615610100020316600290048015612a415780601f10612a1657610100808354040283529160200191612a41565b820191906000526020600020905b815481529060010190602001808311612a2457829003601f168201915b50505050509050919050565b606060075482101515612ac8576040517f08c379a00000000000000000000000000000000000000000000000000000000081526004018080602001828103825260128152602001807f496e76616c69642063686172697479206964000000000000000000000000000081525060200191505060405180910390fd5b600260008381526020019081526020016000206003018054600181600116156101000203166002900480601f016020809104026020016040519081016040528092919081815260200182805460018160011615610100020316600290048015612b725780601f10612b4757610100808354040283529160200191612b72565b820191906000526020600020905b815481529060010190602001808311612b5557829003601f168201915b50505050509050919050565b600260008281526020019081526020016000206008018290806001815401808255809150509060018203906000526020600020016000909192909190916101000a81548173ffffffffffffffffffffffffffffffffffffffff021916908373ffffffffffffffffffffffffffffffffffffffff160217905550505050565b6000600c5482101515612c77576040517f08c379a00000000000000000000000000000000000000000000000000000000081526004018080602001828103825260138152602001807f496e76616c69642063616d706169676e2069640000000000000000000000000081525060200191505060405180910390fd5b600b600083815260200190815260200160002060090160009054906101000a900460ff169050919050565b336000809054906101000a900473ffffffffffffffffffffffffffffffffffffffff1673ffffffffffffffffffffffffffffffffffffffff168173ffffffffffffffffffffffffffffffffffffffff16141515612d67576040517f08c379a000000000000000000000000000000000000000000000000000000000815260040180806020018281038252601c8152602001807f43616c6c6572206973206e6f7420636f6e7472616374206f776e65720000000081525060200191505060405180910390fd5b6000809054906101000a900473ffffffffffffffffffffffffffffffffffffffff1673ffffffffffffffffffffffffffffffffffffffff163373ffffffffffffffffffffffffffffffffffffffff16141515612e2b576040517f08c379a000000000000000000000000000000000000000000000000000000000815260040180806020018281038252601c8152602001807f43616c6c6572206973206e6f7420636f6e7472616374206f776e65720000000081525060200191505060405180910390fd5b60075483101515612ea4576040517f08c379a00000000000000000000000000000000000000000000000000000000081526004018080602001828103825260128152602001807f496e76616c69642063686172697479206964000000000000000000000000000081525060200191505060405180910390fd5b60006002811115612eb157fe5b6002600085815260200190815260200160002060070160009054906101000a900460ff166002811115612ee057fe5b141515612f7b576040517f08c379a00000000000000000000000000000000000000000000000000000000081526004018080602001828103825260258152602001807f4368617269747920686173206265656e207665726966696564206f722072656a81526020017f656374656400000000000000000000000000000000000000000000000000000081525060400191505060405180910390fd5b600015156001600085815260200190815260200160002060009054906101000a900460ff161515141515613017576040517f08c379a00000000000000000000000000000000000000000000000000000000081526004018080602001828103825260198152602001807f4368617269747920686173206265656e2076657269666965640000000000000081525060200191505060405180910390fd5b60016002600085815260200190815260200160002060070160006101000a81548160ff0219169083600281111561304a57fe5b021790555081600260008581526020019081526020016000206006019080519060200190613079929190614c2f565b50600180600085815260200190815260200160002060006101000a81548160ff021916908315150217905550505050565b606060075482101515613125576040517f08c379a00000000000000000000000000000000000000000000000000000000081526004018080602001828103825260128152602001807f496e76616c69642063686172697479206964000000000000000000000000000081525060200191505060405180910390fd5b600260008381526020019081526020016000206006018054600181600116156101000203166002900480601f0160208091040260200160405190810160405280929190818152602001828054600181600116156101000203166002900480156131cf5780601f106131a4576101008083540402835291602001916131cf565b820191906000526020600020905b8154815290600101906020018083116131b257829003601f168201915b50505050509050919050565b6000600c5482101515613256576040517f08c379a00000000000000000000000000000000000000000000000000000000081526004018080602001828103825260138152602001807f496e76616c69642063616d706169676e2069640000000000000000000000000081525060200191505060405180910390fd5b600b6000838152602001908152602001600020600001549050919050565b6060600754821015156132ef576040517f08c379a00000000000000000000000000000000000000000000000000000000081526004018080602001828103825260128152602001807f496e76616c69642063686172697479206964000000000000000000000000000081525060200191505060405180910390fd5b600260008381526020019081526020016000206001018054600181600116156101000203166002900480601f0160208091040260200160405190810160405280929190818152602001828054600181600116156101000203166002900480156133995780601f1061336e57610100808354040283529160200191613399565b820191906000526020600020905b81548152906001019060200180831161337c57829003601f168201915b50505050509050919050565b606060075482101515613420576040517f08c379a00000000000000000000000000000000000000000000000000000000081526004018080602001828103825260128152602001807f496e76616c69642063686172697479206964000000000000000000000000000081525060200191505060405180910390fd5b600260008381526020019081526020016000206004018054600181600116156101000203166002900480601f0160208091040260200160405190810160405280929190818152602001828054600181600116156101000203166002900480156134ca5780601f1061349f576101008083540402835291602001916134ca565b820191906000526020600020905b8154815290600101906020018083116134ad57829003601f168201915b50505050509050919050565b606060075482101515613551576040517f08c379a00000000000000000000000000000000000000000000000000000000081526004018080602001828103825260128152602001807f496e76616c69642063686172697479206964000000000000000000000000000081525060200191505060405180910390fd5b600260008381526020019081526020016000206002018054600181600116156101000203166002900480601f0160208091040260200160405190810160405280929190818152602001828054600181600116156101000203166002900480156135fb5780601f106135d0576101008083540402835291602001916135fb565b820191906000526020600020905b8154815290600101906020018083116135de57829003601f168201915b50505050509050919050565b336000809054906101000a900473ffffffffffffffffffffffffffffffffffffffff1673ffffffffffffffffffffffffffffffffffffffff168173ffffffffffffffffffffffffffffffffffffffff161415156136cc576040517f08c379a000000000000000000000000000000000000000000000000000000000815260040180806020018281038252601c8152602001807f43616c6c6572206973206e6f7420636f6e7472616374206f776e65720000000081525060200191505060405180910390fd5b6000809054906101000a900473ffffffffffffffffffffffffffffffffffffffff1673ffffffffffffffffffffffffffffffffffffffff163373ffffffffffffffffffffffffffffffffffffffff16141515613790576040517f08c379a000000000000000000000000000000000000000000000000000000000815260040180806020018281038252601c8152602001807f43616c6c6572206973206e6f7420636f6e7472616374206f776e65720000000081525060200191505060405180910390fd5b60075482101515613809576040517f08c379a00000000000000000000000000000000000000000000000000000000081526004018080602001828103825260128152602001807f496e76616c69642063686172697479206964000000000000000000000000000081525060200191505060405180910390fd5b6000600281111561381657fe5b6002600084815260200190815260200160002060070160009054906101000a900460ff16600281111561384557fe5b1415156138e0576040517f08c379a00000000000000000000000000000000000000000000000000000000081526004018080602001828103825260258152602001807f4368617269747920686173206265656e207665726966696564206f722072656a81526020017f656374656400000000000000000000000000000000000000000000000000000081525060400191505060405180910390fd5b600015156001600084815260200190815260200160002060009054906101000a900460ff16151514151561397c576040517f08c379a00000000000000000000000000000000000000000000000000000000081526004018080602001828103825260198152602001807f4368617269747920686173206265656e2076657269666965640000000000000081525060200191505060405180910390fd5b600280600084815260200190815260200160002060070160006101000a81548160ff021916908360028111156139ae57fe5b02179055505050565b60606000809054906101000a900473ffffffffffffffffffffffffffffffffffffffff1673ffffffffffffffffffffffffffffffffffffffff168273ffffffffffffffffffffffffffffffffffffffff161415613a4b576040805190810160405280600881526020017f434f4e54524143540000000000000000000000000000000000000000000000008152509050613b1a565b60011515600560008473ffffffffffffffffffffffffffffffffffffffff1673ffffffffffffffffffffffffffffffffffffffff16815260200190815260200160002060009054906101000a900460ff1615151415613ae1576040805190810160405280600c81526020017f434841524954594f574e455200000000000000000000000000000000000000008152509050613b1a565b6040805190810160405280600581526020017f444f4e4f5200000000000000000000000000000000000000000000000000000081525090505b919050565b600060075482101515613b9a576040517f08c379a00000000000000000000000000000000000000000000000000000000081526004018080602001828103825260128152602001807f496e76616c69642063686172697479206964000000000000000000000000000081525060200191505060405180910390fd5b6002600083815260200190815260200160002060070160009054906101000a900460ff169050919050565b600c5482101515613c3e576040517f08c379a00000000000000000000000000000000000000000000000000000000081526004018080602001828103825260138152602001807f496e76616c69642063616d706169676e2069640000000000000000000000000081525060200191505060405180910390fd5b600081600b60008581526020019081526020016000206005015401905080600b600085815260200190815260200160002060050181905550505050565b336000809054906101000a900473ffffffffffffffffffffffffffffffffffffffff1673ffffffffffffffffffffffffffffffffffffffff168173ffffffffffffffffffffffffffffffffffffffff16141515613d40576040517f08c379a000000000000000000000000000000000000000000000000000000000815260040180806020018281038252601c8152602001807f43616c6c6572206973206e6f7420636f6e7472616374206f776e65720000000081525060200191505060405180910390fd5b60095460030260085410151515613de5576040517f08c379a00000000000000000000000000000000000000000000000000000000081526004018080602001828103825260338152602001807f43757272656e74206d6f6e6579206973206c657373207468616e2033202a206381526020017f686172697479207265676973746572206665650000000000000000000000000081525060400191505060405180910390fd5b60003090508073ffffffffffffffffffffffffffffffffffffffff166108fc6008549081150290604051600060405180830381858888f19350505050158015613e32573d6000803e3d6000fd5b5060006008819055505050565b6000600c5482101515613eba576040517f08c379a00000000000000000000000000000000000000000000000000000000081526004018080602001828103825260138152602001807f496e76616c69642063616d706169676e2069640000000000000000000000000081525060200191505060405180910390fd5b600b6000838152602001908152602001600020600701549050919050565b600060011515600560008473ffffffffffffffffffffffffffffffffffffffff1673ffffffffffffffffffffffffffffffffffffffff16815260200190815260200160002060009054906101000a900460ff161515141515613fa2576040517f08c379a00000000000000000000000000000000000000000000000000000000081526004018080602001828103825260208152602001807f41646472657373206e6f74206f776e6572206f6620616e79206368617269747981525060200191505060405180910390fd5b6000600360008473ffffffffffffffffffffffffffffffffffffffff1673ffffffffffffffffffffffffffffffffffffffff1681526020019081526020016000205490506002600082815260200190815260200160002060070160009054906101000a900460ff16915050919050565b6000806002600084815260200190815260200160002060080180549050905060008090505b818110156140d8578473ffffffffffffffffffffffffffffffffffffffff16600260008681526020019081526020016000206008018281548110151561407957fe5b9060005260206000200160009054906101000a900473ffffffffffffffffffffffffffffffffffffffff1673ffffffffffffffffffffffffffffffffffffffff1614156140cb576001925050506140df565b8080600101915050614037565b5060009150505b92915050565b3360016000600360008473ffffffffffffffffffffffffffffffffffffffff1673ffffffffffffffffffffffffffffffffffffffff16815260200190815260200160002054815260200190815260200160002060009054906101000a900460ff168061419d57506000809054906101000a900473ffffffffffffffffffffffffffffffffffffffff1673ffffffffffffffffffffffffffffffffffffffff168173ffffffffffffffffffffffffffffffffffffffff16145b1515614237576040517f08c379a00000000000000000000000000000000000000000000000000000000081526004018080602001828103825260308152602001807f43616c6c6572206973206e6f7420612076616c69642063686172697479206e6f81526020017f7220636f6e7472616374206f776e65720000000000000000000000000000000081525060400191505060405180910390fd5b600c54821015156142b0576040517f08c379a00000000000000000000000000000000000000000000000000000000081526004018080602001828103825260138152602001807f496e76616c69642063616d706169676e2069640000000000000000000000000081525060200191505060405180910390fd5b600a600083815260200190815260200160002060009054906101000a900460ff161515614345576040517f08c379a00000000000000000000000000000000000000000000000000000000081526004018080602001828103825260178152602001807f43616d706169676e206973206e6f74206f6e676f696e6700000000000000000081525060200191505060405180910390fd5b60026000600b600085815260200190815260200160002060000154815260200190815260200160002060000160009054906101000a900473ffffffffffffffffffffffffffffffffffffffff1673ffffffffffffffffffffffffffffffffffffffff163373ffffffffffffffffffffffffffffffffffffffff16148061441757506000809054906101000a900473ffffffffffffffffffffffffffffffffffffffff1673ffffffffffffffffffffffffffffffffffffffff163373ffffffffffffffffffffffffffffffffffffffff16145b15156144b1576040517f08c379a000000000000000000000000000000000000000000000000000000000815260040180806020018281038252602b8152602001807f43616c6c6572206973206e6f7420617574686f72697a656420666f722074686981526020017f73206f7065726174696f6e00000000000000000000000000000000000000000081525060400191505060405180910390fd5b6001600b600084815260200190815260200160002060090160006101000a81548160ff021916908360018111156144e457fe5b02179055506000600a600084815260200190815260200160002060006101000a81548160ff0219169083151502179055505050565b600060075482101515614594576040517f08c379a00000000000000000000000000000000000000000000000000000000081526004018080602001828103825260128152602001807f496e76616c69642063686172697479206964000000000000000000000000000081525060200191505060405180910390fd5b6002600083815260200190815260200160002060000160009054906101000a900473ffffffffffffffffffffffffffffffffffffffff169050919050565b600c548110151561464b576040517f08c379a00000000000000000000000000000000000000000000000000000000081526004018080602001828103825260138152602001807f496e76616c69642063616d706169676e2069640000000000000000000000000081525060200191505060405180910390fd5b60006001600b60008481526020019081526020016000206006015401905080600b6000848152602001908152602001600020600601819055505050565b606060011515600560008473ffffffffffffffffffffffffffffffffffffffff1673ffffffffffffffffffffffffffffffffffffffff16815260200190815260200160002060009054906101000a900460ff161515141515614752576040517f08c379a00000000000000000000000000000000000000000000000000000000081526004018080602001828103825260208152602001807f41646472657373206e6f74206f776e6572206f6620616e79206368617269747981525060200191505060405180910390fd5b6000600360008473ffffffffffffffffffffffffffffffffffffffff1673ffffffffffffffffffffffffffffffffffffffff168152602001908152602001600020549050600260008281526020019081526020016000206005018054600181600116156101000203166002900480601f0160208091040260200160405190810160405280929190818152602001828054600181600116156101000203166002900480156148405780601f1061481557610100808354040283529160200191614840565b820191906000526020600020905b81548152906001019060200180831161482357829003601f168201915b5050505050915050919050565b6000600c54821015156148c8576040517f08c379a00000000000000000000000000000000000000000000000000000000081526004018080602001828103825260138152602001807f496e76616c69642063616d706169676e2069640000000000000000000000000081525060200191505060405180910390fd5b600b6000838152602001908152602001600020600501549050919050565b6000600954905090565b6000600c548210151561496b576040517f08c379a00000000000000000000000000000000000000000000000000000000081526004018080602001828103825260138152602001807f496e76616c69642063616d706169676e2069640000000000000000000000000081525060200191505060405180910390fd5b60018081111561497757fe5b600b600084815260200190815260200160002060090160009054906101000a900460ff1660018111156149a657fe5b14156149b557600190506149ba565b600090505b919050565b6000600c5482101515614a3a576040517f08c379a00000000000000000000000000000000000000000000000000000000081526004018080602001828103825260138152602001807f496e76616c69642063616d706169676e2069640000000000000000000000000081525060200191505060405180910390fd5b600b6000838152602001908152602001600020600801549050919050565b61012060405190810160405280600073ffffffffffffffffffffffffffffffffffffffff16815260200160608152602001606081526020016060815260200160608152602001606081526020016060815260200160006002811115614ab957fe5b8152602001606081525090565b828054600181600116156101000203166002900490600052602060002090601f016020900481019282601f10614b0757805160ff1916838001178555614b35565b82800160010185558215614b35579182015b82811115614b34578251825591602001919060010190614b19565b5b509050614b429190614caf565b5090565b828054828255906000526020600020908101928215614bbf579160200282015b82811115614bbe5782518260006101000a81548173ffffffffffffffffffffffffffffffffffffffff021916908373ffffffffffffffffffffffffffffffffffffffff16021790555091602001919060010190614b66565b5b509050614bcc9190614cd4565b5090565b6101406040519081016040528060008152602001606081526020016060815260200160608152602001600081526020016000815260200160008152602001600081526020016000815260200160006001811115614c2957fe5b81525090565b828054600181600116156101000203166002900490600052602060002090601f016020900481019282601f10614c7057805160ff1916838001178555614c9e565b82800160010185558215614c9e579182015b82811115614c9d578251825591602001919060010190614c82565b5b509050614cab9190614caf565b5090565b614cd191905b80821115614ccd576000816000905550600101614cb5565b5090565b90565b614d1491905b80821115614d1057600081816101000a81549073ffffffffffffffffffffffffffffffffffffffff021916905550600101614cda565b5090565b9056fea165627a7a72305820a23fc50db6b7d81d5aa4a56f766a1546d2065d8841b25c4f2d568f8f58e8f1e60029",
  "source": "pragma solidity ^0.5.0;\n\ncontract Charity {\n    enum CharityStatus {UNVERIFIED, VERIFIED, REJECTED}\n\n    enum CampaignStatus {ONGOING, ENDED}\n\n    struct charity {\n        address charityOwner;\n        string charityName;\n        string charityAddress;\n        string contactNumber;\n        string description;\n        string pictureURL;\n        string verificationLink;\n        CharityStatus charityStatus;\n        address[] donors;\n    }\n\n    struct campaign {\n        uint256 charityId;\n        string campaignName;\n        string description;\n        string pictureURL;\n        uint256 targetDonation;\n        uint256 currentDonation;\n        uint256 noOfDonors;\n        uint256 startDate;\n        uint256 endDate;\n        CampaignStatus campaignStatus;\n    }\n    \n    struct Transaction {\n        uint transactionId;\n        address donor;\n        uint campaignId;\n        uint amount;\n    }\n    \n\n    address contractOwner = msg.sender;\n    //uint[] charitiesPendingVerification;\n    mapping(uint256 => bool) isVerifiedCharity;\n    mapping(uint256 => charity) charities;\n    mapping(address => uint256) charityAddressIdMap;\n    mapping(address => charity) charityAddressMap;\n    mapping(address => bool) charityOwnerRegistered;\n    address[] donors;\n    uint256 noOfCharities = 0;\n    uint contractMoney = 0;\n    uint256 charityRegFee = 5 * 10**17; // Reg fee is 0.5 ether, 1 ether is 10**18 wei\n\n    //uint[] ongoingCampaigns;\n    mapping(uint256 => bool) isOngoingCampaign;\n    mapping(uint256 => campaign) campaigns;\n    uint256 noOfCampaigns = 0;\n    uint256 noOfReturns = 0;\n\n    modifier onlyOwner(address caller) {\n        require(caller == contractOwner, \"Caller is not contract owner\");\n        _;\n    }\n\n    // This will be the modifier that checks whether the function call is done by the Charity itself.\n    modifier onlyVerifiedCharity(address caller) {\n        require(\n            isVerifiedCharity[charityAddressIdMap[caller]],\n            \"Caller is not a valid charity\"\n        );\n        _;\n    }\n\n    // This will be the modifier that checks whether the function call is done by the Charity or contract owner itself.\n    modifier onlyVerifiedCharityOrOwner(address caller) {\n        require(\n            isVerifiedCharity[charityAddressIdMap[caller]] || caller == contractOwner,\n            \"Caller is not a valid charity nor contract owner\"\n        );\n        _;\n    }\n\n    /*\n     * This will be the function that check the address type\n     * Parameters of this function will include address inputAddress\n     * This function assumes all input address are either contract, charity, or donor\n     */\n    function checkAddressType(address inputAddress)\n        public\n        view\n        returns (string memory)\n    {\n        if (inputAddress == contractOwner) {\n            return \"CONTRACT\";\n        } else if (charityOwnerRegistered[inputAddress] == true) {\n            return \"CHARITYOWNER\";\n        } else {\n            return \"DONOR\";\n        }\n    }\n\n    function withdrawMoney() \n        public\n        onlyOwner(msg.sender)\n    {\n        require(contractMoney >= 3 * charityRegFee, \"Current money is less than 3 * charity register fee\");\n        address payable recipient = address(uint160(address(this)));\n        recipient.transfer(contractMoney);\n        contractMoney = 0;\n    }\n    function() external payable { }\n\n    function registerCharity(\n        string memory charityName,\n        string memory charityAddress,\n        string memory contactNumber,\n        string memory description,\n        string memory pictureURL\n    ) public payable returns (uint256 charityId) {\n        /*require(bytes(charityName).length != 0, \"Charity name cannot be empty\");\n    require(bytes(charityAddress).length != 0,  \"Charity address cannot be empty\");\n    require(bytes(contactNumber).length != 0,  \"Charity number cannot be empty\");\n    require(bytes(description).length != 0,  \"Description cannot be empty\");\n    require(bytes(pictureURL).length != 0,  \"Picture URL cannot be empty\");*/\n        require(\n            charityOwnerRegistered[msg.sender] == false,\n            \"This address has registered another charity already\"\n        );\n        require(\n            msg.value >= charityRegFee,\n            \"Need at least 0.5 ether to register a charity\"\n        );\n        contractMoney = contractMoney + msg.value;\n        charityId = noOfCharities++;\n        charity memory newCharity =\n            charity(\n                msg.sender,\n                charityName,\n                charityAddress,\n                contactNumber,\n                description,\n                pictureURL,\n                \"\",\n                CharityStatus.UNVERIFIED,\n                donors\n            );\n        charities[charityId] = newCharity;\n        charityAddressIdMap[msg.sender] = charityId;\n        isVerifiedCharity[charityId] = false;\n        charityOwnerRegistered[msg.sender] = true;\n        \n        address payable recipient = address(uint160(contractOwner));\n        recipient.transfer(msg.value);\n        \n        // charitiesPendingVerification.push(charityId);\n        return charityId;\n    }\n\n    function verifyCharity(uint256 charityId, string memory verificationLink)\n        public\n        onlyOwner(msg.sender)\n    {\n        require(msg.sender == contractOwner, \"Caller is not contract owner\");\n        require(charityId < noOfCharities, \"Invalid charity id\");\n        require(\n            charities[charityId].charityStatus == CharityStatus.UNVERIFIED,\n            \"Charity has been verified or rejected\"\n        );\n        require(\n            isVerifiedCharity[charityId] == false,\n            \"Charity has been verified\"\n        );\n\n        charities[charityId].charityStatus = CharityStatus.VERIFIED;\n        charities[charityId].verificationLink = verificationLink;\n        isVerifiedCharity[charityId] = true;\n        // remove charity from charitiesPendingVerification[]\n    }\n\n    function rejectCharity(uint256 charityId) public onlyOwner(msg.sender) {\n        require(msg.sender == contractOwner, \"Caller is not contract owner\");\n        require(charityId < noOfCharities, \"Invalid charity id\");\n        require(\n            charities[charityId].charityStatus == CharityStatus.UNVERIFIED,\n            \"Charity has been verified or rejected\"\n        );\n        require(\n            isVerifiedCharity[charityId] == false,\n            \"Charity has been verified\"\n        );\n\n        charities[charityId].charityStatus = CharityStatus.REJECTED;\n        // remove charity from charitiesPendingVerification[]\n    }\n\n\n    function revokeCharity(uint256 charityId) public onlyOwner(msg.sender) {\n        require(charityId < noOfCharities, \"Invalid charity id\");\n        require(\n            charities[charityId].charityStatus == CharityStatus.VERIFIED,\n            \"Charity is not a verified charity\"\n        );\n\n        charities[charityId].charityStatus = CharityStatus.REJECTED;\n\n    }\n\n    \n\n    /*\n     * This will be the function that charities call to create a campaign.\n     * Parameters of this function will include uint targetDonation (of the campaign), uint startDate (of the campaign), uint endDate (of the campaign)\n     */\n    function createCampaign(\n        string memory campaignName,\n        string memory description,\n        string memory pictureURL,\n        uint256 targetDonation,\n        uint256 startDate,\n        uint256 endDate\n    ) public onlyVerifiedCharity(msg.sender) returns (uint256 campaignId) {\n        /*require(bytes(campaignName).length != 0, \"Charity name cannot be empty\");\n    require(bytes(description).length != 0,  \"Description cannot be empty\");\n    require(bytes(pictureURL ).length != 0,  \"Picture URL cannot be empty\");\n    require(targetDonation > 0, \"Target donation must be larger than 0\");\n    require(startDate < endDate, \"Start date must be earlier than end date\");*/\n\n        campaignId = noOfCampaigns++;\n        uint256 charityId = charityAddressIdMap[msg.sender];\n        campaign memory newCampaign =\n            campaign(\n                charityId,\n                campaignName,\n                description,\n                pictureURL,\n                targetDonation,\n                0,\n                0,\n                startDate,\n                endDate,\n                CampaignStatus.ONGOING\n            );\n        campaigns[campaignId] = newCampaign;\n        // ongoingCampaigns.push(campaignId);\n        isOngoingCampaign[campaignId] = true;\n        return campaignId;\n    }\n\n    /*\n     *\n     * This will be the function that charities call to end an ongoing campaign.\n     * Parameters of this function will include uint campaignId\n     */\n    function endCampaign(uint256 campaignId)\n        public\n        onlyVerifiedCharityOrOwner(msg.sender)\n    {\n        require(campaignId < noOfCampaigns, \"Invalid campaign id\");\n        require(isOngoingCampaign[campaignId], \"Campaign is not ongoing\");\n        require(\n            msg.sender ==\n                charities[campaigns[campaignId].charityId].charityOwner ||\n                msg.sender == contractOwner,\n            \"Caller is not authorized for this operation\"\n        );\n\n        campaigns[campaignId].campaignStatus = CampaignStatus.ENDED;\n        isOngoingCampaign[campaignId] = false;\n        // remove campaign from ongoingCampaigns[]\n    }\n\n    /*\n     * This will be the getter function that everyone can call to check the charity address.\n     * Parameters of this function will include uint charityId\n     */\n    function getCharityOwner(uint256 charityId) public view returns (address) {\n        require(charityId < noOfCharities, \"Invalid charity id\");\n        return charities[charityId].charityOwner;\n    }\n\n    /*\n     * This will be the getter function that everyone can call to check the charity id.\n     * Parameters of this function will include address inputAddress\n     */\n    function getCharityIdByAddress(address inputAddress)   //used \n        public\n        view\n        returns (uint256)\n    {\n        require(\n            charityOwnerRegistered[inputAddress] == true,\n            \"Address not owner of any charity\"\n        );\n        uint256 charityIdByAddress = charityAddressIdMap[inputAddress];\n        return charityIdByAddress;\n    }\n\n    /*\n     * This will be the getter function that everyone can call to check the charity name.\n     * Parameters of this function will include uint charityId\n     */\n    function getCharityName(uint256 charityId)\n        public\n        view\n        returns (string memory)\n    {\n        require(charityId < noOfCharities, \"Invalid charity id\");\n        return charities[charityId].charityName;\n    }\n\n    /*\n     * This will be the getter function that everyone can call to check the charity pictureURL.\n     * Parameters of this function will include uint charityId\n     */\n    function getCharityPictureURL(uint256 charityId)\n        public\n        view\n        returns (string memory)\n    {\n        require(charityId < noOfCharities, \"Invalid charity id\");\n        return charities[charityId].pictureURL;\n    }\n\n    /*\n     * This will be the getter function that everyone can call to check the charity pictureURL.\n     * Parameters of this function will include uint charityId\n     */\n    function getCharityPictureURLByAddress(address inputAddress)   \n        public\n        view\n        returns (string memory)\n    {\n        require(\n            charityOwnerRegistered[inputAddress] == true,\n            \"Address not owner of any charity\"\n        );\n        uint256 charityIdByAddress = charityAddressIdMap[inputAddress];\n        return charities[charityIdByAddress].pictureURL;\n    }\n\n    /*\n     * This will be the getter function that everyone can call to check the charity description.\n     * Parameters of this function will include uint charityId\n     */\n    function getCharityDescription(uint256 charityId)\n        public\n        view\n        returns (string memory)\n    {\n        require(charityId < noOfCharities, \"Invalid charity id\");\n        return charities[charityId].description;\n    }\n\n\n    /*\n     * This will be the getter function that everyone can call to check the charity status.\n     * Parameters of this function will include uint charityId\n     */\n    function getCharityStatus(uint256 charityId)\n        public\n        view\n        returns (CharityStatus)\n    {\n        require(charityId < noOfCharities, \"Invalid charity id\");\n        return charities[charityId].charityStatus;\n    }\n\n    /*\n     * This will be the getter function that everyone can call to check the charity status.\n     * Parameters of this function will include address inputAddress\n     */\n    function getCharityStatusByAddress(address inputAddress)   \n        public\n        view\n        returns (CharityStatus)\n    {\n        require(\n            charityOwnerRegistered[inputAddress] == true,\n            \"Address not owner of any charity\"\n        );\n        uint256 charityIdByAddress = charityAddressIdMap[inputAddress];\n        return charities[charityIdByAddress].charityStatus;\n    }\n\n    /*\n     * This will be the getter function that everyone can call to get the charity contact number.\n     * Parameters of this function will include uint charityId\n     */\n    function getCharityContactNumber(uint256 charityId)\n        public\n        view\n        returns (string memory)\n    {\n        require(charityId < noOfCharities, \"Invalid charity id\");\n        return charities[charityId].contactNumber;\n    }\n\n\n    /*\n     * This will be the getter function that everyone can call to get the charity contact address.\n     * Parameters of this function will include uint charityId\n     */\n    function getCharityContactAddress(uint256 charityId)\n        public\n        view\n        returns (string memory)\n    {\n        require(charityId < noOfCharities, \"Invalid charity id\");\n        return charities[charityId].charityAddress;\n    }\n\n\n    /*\n     * This will be the getter function that everyone can call to get the charity verification Link.\n     * Parameters of this function will include uint charityId\n     */\n    function getCharityVerificationLink(uint256 charityId)\n        public\n        view\n        returns (string memory)\n    {\n        require(charityId < noOfCharities, \"Invalid charity id\");\n        return charities[charityId].verificationLink;\n    }\n\n\n    /*\n     * This will be the getter function that everyone can call to get the total amounts of the charities.\n     * There will be no parameters for this function\n     */\n    function getNoOfCharities() public view returns (uint256) {\n        return noOfCharities;\n    }\n    \n    /*\n     * This will be the getter function that everyone can call to check the campaign's charityId.\n     * Parameters of this function will include uint campaignId\n     */\n    function getCampaignCharity(uint256 campaignId)\n        public\n        view\n        returns (uint256)\n    {\n        require(campaignId < noOfCampaigns, \"Invalid campaign id\");\n        return campaigns[campaignId].charityId;\n    }\n\n    /*\n     * This will be the getter function that everyone can call to check the campaign name.\n     * Parameters of this function will include uint campaignId\n     */\n    function getCampaignName(uint256 campaignId)\n        public\n        view\n        returns (string memory)\n    {\n        require(campaignId < noOfCampaigns, \"Invalid campaign id\");\n        return campaigns[campaignId].campaignName;\n    }\n\n    /*\n     * This will be the getter function that everyone can call to check the campaign description.\n     * Parameters of this function will include uint campaignId\n     */\n    function getCampaignDescription(uint256 campaignId)\n        public\n        view\n        returns (string memory)\n    {\n        require(campaignId < noOfCampaigns, \"Invalid campaign id\");\n        return campaigns[campaignId].description;\n    }\n\n    /*\n     * This will be the getter function that everyone can call to check the campaign pictureURL.\n     * Parameters of this function will include uint campaignId\n     */\n    function getCampaignPictureURL(uint256 campaignId)\n        public\n        view\n        returns (string memory)\n    {\n        require(campaignId < noOfCampaigns, \"Invalid campaign id\");\n        return campaigns[campaignId].pictureURL;\n    }\n\n    /*\n     * This will be the getter function that everyone can call to check the campaign targetDonation.\n     * Parameters of this function will include uint campaignId\n     */\n    function getCampaignTargetDonation(uint256 campaignId)\n        public\n        view\n        returns (uint256)\n    {\n        require(campaignId < noOfCampaigns, \"Invalid campaign id\");\n        return campaigns[campaignId].targetDonation;\n    }\n\n    /*\n     * This will be the getter function that everyone can call to check the campaign currentDonation.\n     * Parameters of this function will include uint campaignId\n     */\n    function getCampaignCurrentDonation(uint256 campaignId)\n        public\n        view\n        returns (uint256)\n    {\n        require(campaignId < noOfCampaigns, \"Invalid campaign id\");\n        return campaigns[campaignId].currentDonation;\n    }\n\n    /*\n     * This will be the getter function that everyone can call to check the campaign noOfDonors.\n     * Parameters of this function will include uint campaignId\n     */\n    function getCampaignNoOfDonors(uint256 campaignId)\n        public\n        view\n        returns (uint256)\n    {\n        require(campaignId < noOfCampaigns, \"Invalid campaign id\");\n        return campaigns[campaignId].noOfDonors;\n    }\n\n    /*\n     * This will be the getter function that everyone can call to check the campaign startDate.\n     * Parameters of this function will include uint campaignId\n     */\n    function getCampaignStartDate(uint256 campaignId)\n        public\n        view\n        returns (uint256)\n    {\n        require(campaignId < noOfCampaigns, \"Invalid campaign id\");\n        return campaigns[campaignId].startDate;\n    }\n\n    /*\n     * This will be the getter function that everyone can call to check the campaign endDate.\n     * Parameters of this function will include uint campaignId\n     */\n    function getCampaignEndDate(uint256 campaignId)\n        public\n        view\n        returns (uint256)\n    {\n        require(campaignId < noOfCampaigns, \"Invalid campaign id\");\n        return campaigns[campaignId].endDate;\n    }\n\n    /*\n     * This will be the getter function that everyone can call to check the campaign status.\n     * Parameters of this function will include uint campaignId\n     */\n    function getCampaignStatus(uint256 campaignId)\n        public\n        view\n        returns (CampaignStatus)\n    {\n        require(campaignId < noOfCampaigns, \"Invalid campaign id\");\n        return campaigns[campaignId].campaignStatus;\n    }\n\n    /*\n     * This will be the getter function that everyone can call to get the total amounts of the campaigns.\n     * There will be no parameters fot this function\n     */\n    function getNoOfCampaigns() public view returns (uint256) {\n        return noOfCampaigns;\n    }\n\n    // boolean to check campaign status\n    function isStatusComplete(uint256 campaignId) public view returns (bool) {\n        require(campaignId < noOfCampaigns, \"Invalid campaign id\");\n        if (campaigns[campaignId].campaignStatus == CampaignStatus.ENDED) {\n            return true;\n        }\n        return false;\n    }\n\n    // boolean to check if campaign is valid\n    function checkValidCampaign(uint256 campaignId) public view returns (bool) {\n        if (campaignId < noOfCampaigns) {\n            return true;\n        }\n        return false;\n    }\n\n    /*\n     * This will be the function that updates the campaign's currentDonation\n     * Parameters of this function will include uint campaignId and uint newDonation\n     */\n    function updateCampaignCurrentDonation(\n        uint256 campaignId,\n        uint256 newDonation\n    ) public {\n        require(campaignId < noOfCampaigns, \"Invalid campaign id\");\n        uint256 newAmount = campaigns[campaignId].currentDonation + newDonation;\n        campaigns[campaignId].currentDonation = newAmount;\n    }\n\n    /*\n     * This will be the function that updates the campaign's noOfDonors\n     * Parameters of this function will include uint campaignId\n     */\n    function addCampaignDonor(uint256 campaignId) public {\n        require(campaignId < noOfCampaigns, \"Invalid campaign id\");\n        uint256 newNumber = campaigns[campaignId].noOfDonors + 1;\n        campaigns[campaignId].noOfDonors = newNumber;\n    }\n\n    function getDonors(uint256 charityId) public view returns(address[] memory) {\n        address[] memory donorList = charities[charityId].donors;\n        return donorList;\n    }\n\n    function getRegFee() public view returns(uint256) {\n        return charityRegFee;\n    }\n\n    /*\n     * This will be the function to get contract's owner\n     * There will be no parameters for this function\n     */\n    function getContractOwner() public view returns (address) {\n        return contractOwner;\n    }\n\n    // This will be the function to check if donor has donated to charity before\n    function checkCharityDonor(address donor, uint256 charityId) public view returns (bool) {\n        uint length = charities[charityId].donors.length;\n        for (uint i = 0; i < length; i++) {\n            if(charities[charityId].donors[i] == donor) {\n                return true;\n            }\n        }\n        return false;\n    }\n\n\n    // This will be the function to add a new donor to charity\n    function addCharityDonor(address donor, uint256 charityId) public {\n        charities[charityId].donors.push(donor);\n    }\n}\n",
  "sourcePath": "/Users/hawayo/Desktop/sharity/contracts/Charity.sol",
  "compiler": {
    "name": "solc",
    "version": "0.5.0+commit.1d4f565a.Emscripten.clang"
  },
  "schemaVersion": "3.3.3",
  "updatedAt": "2021-04-11T16:30:48.923Z",
  "networkType": "ethereum",
  "devdoc": {
    "methods": {}
  },
  "userdoc": {
    "methods": {}
  }
}