{
  "contractName": "Charity",
  "abi": [
    {
      "anonymous": false,
      "inputs": [
        {
          "indexed": false,
          "name": "charityId",
          "type": "uint256"
        }
      ],
      "name": "charityRegistered",
      "type": "event"
    },
    {
      "anonymous": false,
      "inputs": [
        {
          "indexed": false,
          "name": "charityId",
          "type": "uint256"
        }
      ],
      "name": "charityVerified",
      "type": "event"
    },
    {
      "anonymous": false,
      "inputs": [
        {
          "indexed": false,
          "name": "charityId",
          "type": "uint256"
        }
      ],
      "name": "charityRejected",
      "type": "event"
    },
    {
      "anonymous": false,
      "inputs": [
        {
          "indexed": false,
          "name": "charityId",
          "type": "uint256"
        }
      ],
      "name": "charityRevoked",
      "type": "event"
    },
    {
      "anonymous": false,
      "inputs": [
        {
          "indexed": false,
          "name": "charityId",
          "type": "uint256"
        },
        {
          "indexed": false,
          "name": "campaignId",
          "type": "uint256"
        }
      ],
      "name": "campaignCreated",
      "type": "event"
    },
    {
      "anonymous": false,
      "inputs": [
        {
          "indexed": false,
          "name": "campaignId",
          "type": "uint256"
        }
      ],
      "name": "campaignEnded",
      "type": "event"
    },
    {
      "anonymous": false,
      "inputs": [
        {
          "indexed": false,
          "name": "newAmount",
          "type": "uint256"
        }
      ],
      "name": "updateCurrentDonation",
      "type": "event"
    },
    {
      "anonymous": false,
      "inputs": [
        {
          "indexed": false,
          "name": "newNumber",
          "type": "uint256"
        }
      ],
      "name": "updateCampaignDonors",
      "type": "event"
    },
    {
      "constant": false,
      "inputs": [
        {
          "name": "charityName",
          "type": "bytes32"
        },
        {
          "name": "charityAddress",
          "type": "bytes32"
        },
        {
          "name": "contactNumber",
          "type": "bytes32"
        },
        {
          "name": "description",
          "type": "bytes32"
        },
        {
          "name": "pictureURL",
          "type": "bytes32"
        }
      ],
      "name": "registerCharity",
      "outputs": [
        {
          "name": "charityId",
          "type": "uint256"
        }
      ],
      "payable": false,
      "stateMutability": "nonpayable",
      "type": "function"
    },
    {
      "constant": false,
      "inputs": [
        {
          "name": "charityId",
          "type": "uint256"
        }
      ],
      "name": "verifyCharity",
      "outputs": [],
      "payable": false,
      "stateMutability": "nonpayable",
      "type": "function"
    },
    {
      "constant": false,
      "inputs": [
        {
          "name": "charityId",
          "type": "uint256"
        }
      ],
      "name": "rejectCharity",
      "outputs": [],
      "payable": false,
      "stateMutability": "nonpayable",
      "type": "function"
    },
    {
      "constant": false,
      "inputs": [
        {
          "name": "charityId",
          "type": "uint256"
        }
      ],
      "name": "revokeCharity",
      "outputs": [],
      "payable": false,
      "stateMutability": "nonpayable",
      "type": "function"
    },
    {
      "constant": false,
      "inputs": [
        {
          "name": "campaignName",
          "type": "bytes32"
        },
        {
          "name": "description",
          "type": "bytes32"
        },
        {
          "name": "pictureURL",
          "type": "bytes32"
        },
        {
          "name": "targetDonation",
          "type": "uint256"
        },
        {
          "name": "startDate",
          "type": "uint256"
        },
        {
          "name": "endDate",
          "type": "uint256"
        }
      ],
      "name": "createCampaign",
      "outputs": [
        {
          "name": "campaignId",
          "type": "uint256"
        }
      ],
      "payable": false,
      "stateMutability": "nonpayable",
      "type": "function"
    },
    {
      "constant": false,
      "inputs": [
        {
          "name": "campaignId",
          "type": "uint256"
        }
      ],
      "name": "endCampaign",
      "outputs": [],
      "payable": false,
      "stateMutability": "nonpayable",
      "type": "function"
    },
    {
      "constant": true,
      "inputs": [
        {
          "name": "charityId",
          "type": "uint256"
        }
      ],
      "name": "getCharityOwner",
      "outputs": [
        {
          "name": "",
          "type": "address"
        }
      ],
      "payable": false,
      "stateMutability": "view",
      "type": "function"
    },
    {
      "constant": true,
      "inputs": [
        {
          "name": "charityId",
          "type": "uint256"
        }
      ],
      "name": "getCharityName",
      "outputs": [
        {
          "name": "",
          "type": "bytes32"
        }
      ],
      "payable": false,
      "stateMutability": "view",
      "type": "function"
    },
    {
      "constant": true,
      "inputs": [
        {
          "name": "charityId",
          "type": "uint256"
        }
      ],
      "name": "getCharityPictureURL",
      "outputs": [
        {
          "name": "",
          "type": "bytes32"
        }
      ],
      "payable": false,
      "stateMutability": "view",
      "type": "function"
    },
    {
      "constant": true,
      "inputs": [
        {
          "name": "charityId",
          "type": "uint256"
        }
      ],
      "name": "getCharityDescription",
      "outputs": [
        {
          "name": "",
          "type": "bytes32"
        }
      ],
      "payable": false,
      "stateMutability": "view",
      "type": "function"
    },
    {
      "constant": true,
      "inputs": [
        {
          "name": "charityId",
          "type": "uint256"
        }
      ],
      "name": "getCharityStatus",
      "outputs": [
        {
          "name": "",
          "type": "uint8"
        }
      ],
      "payable": false,
      "stateMutability": "view",
      "type": "function"
    },
    {
      "constant": true,
      "inputs": [],
      "name": "getCharityAmount",
      "outputs": [
        {
          "name": "",
          "type": "uint256"
        }
      ],
      "payable": false,
      "stateMutability": "view",
      "type": "function"
    },
    {
      "constant": true,
      "inputs": [
        {
          "name": "campaignId",
          "type": "uint256"
        }
      ],
      "name": "getCampaignCharity",
      "outputs": [
        {
          "name": "",
          "type": "uint256"
        }
      ],
      "payable": false,
      "stateMutability": "view",
      "type": "function"
    },
    {
      "constant": true,
      "inputs": [
        {
          "name": "campaignId",
          "type": "uint256"
        }
      ],
      "name": "getCampaignName",
      "outputs": [
        {
          "name": "",
          "type": "bytes32"
        }
      ],
      "payable": false,
      "stateMutability": "view",
      "type": "function"
    },
    {
      "constant": true,
      "inputs": [
        {
          "name": "campaignId",
          "type": "uint256"
        }
      ],
      "name": "getCampaignDescription",
      "outputs": [
        {
          "name": "",
          "type": "bytes32"
        }
      ],
      "payable": false,
      "stateMutability": "view",
      "type": "function"
    },
    {
      "constant": true,
      "inputs": [
        {
          "name": "campaignId",
          "type": "uint256"
        }
      ],
      "name": "getCampaignPictureURL",
      "outputs": [
        {
          "name": "",
          "type": "bytes32"
        }
      ],
      "payable": false,
      "stateMutability": "view",
      "type": "function"
    },
    {
      "constant": true,
      "inputs": [
        {
          "name": "campaignId",
          "type": "uint256"
        }
      ],
      "name": "getCampaignTargetDonation",
      "outputs": [
        {
          "name": "",
          "type": "uint256"
        }
      ],
      "payable": false,
      "stateMutability": "view",
      "type": "function"
    },
    {
      "constant": true,
      "inputs": [
        {
          "name": "campaignId",
          "type": "uint256"
        }
      ],
      "name": "getCampaignCurrentDonation",
      "outputs": [
        {
          "name": "",
          "type": "uint256"
        }
      ],
      "payable": false,
      "stateMutability": "view",
      "type": "function"
    },
    {
      "constant": true,
      "inputs": [
        {
          "name": "campaignId",
          "type": "uint256"
        }
      ],
      "name": "getCampaignNoOfDonors",
      "outputs": [
        {
          "name": "",
          "type": "uint256"
        }
      ],
      "payable": false,
      "stateMutability": "view",
      "type": "function"
    },
    {
      "constant": true,
      "inputs": [
        {
          "name": "campaignId",
          "type": "uint256"
        }
      ],
      "name": "getCampaignStartDate",
      "outputs": [
        {
          "name": "",
          "type": "uint256"
        }
      ],
      "payable": false,
      "stateMutability": "view",
      "type": "function"
    },
    {
      "constant": true,
      "inputs": [
        {
          "name": "campaignId",
          "type": "uint256"
        }
      ],
      "name": "getCampaignEndDate",
      "outputs": [
        {
          "name": "",
          "type": "uint256"
        }
      ],
      "payable": false,
      "stateMutability": "view",
      "type": "function"
    },
    {
      "constant": true,
      "inputs": [
        {
          "name": "campaignId",
          "type": "uint256"
        }
      ],
      "name": "getCampaignStatus",
      "outputs": [
        {
          "name": "",
          "type": "uint8"
        }
      ],
      "payable": false,
      "stateMutability": "view",
      "type": "function"
    },
    {
      "constant": true,
      "inputs": [],
      "name": "getCampaignAmount",
      "outputs": [
        {
          "name": "",
          "type": "uint256"
        }
      ],
      "payable": false,
      "stateMutability": "view",
      "type": "function"
    },
    {
      "constant": true,
      "inputs": [
        {
          "name": "campaignId",
          "type": "uint256"
        }
      ],
      "name": "isStatusComplete",
      "outputs": [
        {
          "name": "",
          "type": "bool"
        }
      ],
      "payable": false,
      "stateMutability": "view",
      "type": "function"
    },
    {
      "constant": true,
      "inputs": [
        {
          "name": "campaignId",
          "type": "uint256"
        }
      ],
      "name": "checkValidCampaign",
      "outputs": [
        {
          "name": "",
          "type": "bool"
        }
      ],
      "payable": false,
      "stateMutability": "view",
      "type": "function"
    },
    {
      "constant": false,
      "inputs": [
        {
          "name": "campaignId",
          "type": "uint256"
        },
        {
          "name": "newDonation",
          "type": "uint256"
        }
      ],
      "name": "updateCampaignCurrentDonation",
      "outputs": [],
      "payable": false,
      "stateMutability": "nonpayable",
      "type": "function"
    },
    {
      "constant": false,
      "inputs": [
        {
          "name": "campaignId",
          "type": "uint256"
        }
      ],
      "name": "addCampaignDonor",
      "outputs": [],
      "payable": false,
      "stateMutability": "nonpayable",
      "type": "function"
    }
  ],
  "bytecode": "0x60806040526000600455600060075534801561001a57600080fd5b50612fd18061002a6000396000f3fe60806040526004361061015f576000357c0100000000000000000000000000000000000000000000000000000000900463ffffffff168063068782d2146101645780630749c8ac146101b35780630bbcf6961461020257806315f28a271461023d57806332b99da01461028c5780633ffe888f146102b7578063408525c5146103065780635468dfdc1461033157806355fb8f53146103b257806357d65eac146104015780635a102275146104545780636c19e004146104a357806374eb5738146105005780637ede52fc1461054f57806382e7e5a61461059e57806395657f7e146106155780639eaec80314610664578063a16fd1d01461069f578063a6af939a146106fc578063b0de901014610741578063bc4465da1461077c578063dd0408ae146107cb578063e317526a14610806578063ea79c20014610881578063f1c4bfac146108bc578063f6b548981461090b578063fb99932f1461095e575b600080fd5b34801561017057600080fd5b5061019d6004803603602081101561018757600080fd5b81019080803590602001909291905050506109ad565b6040518082815260200191505060405180910390f35b3480156101bf57600080fd5b506101ec600480360360208110156101d657600080fd5b8101908080359060200190929190505050610a46565b6040518082815260200191505060405180910390f35b34801561020e57600080fd5b5061023b6004803603602081101561022557600080fd5b8101908080359060200190929190505050610adf565b005b34801561024957600080fd5b506102766004803603602081101561026057600080fd5b8101908080359060200190929190505050610f28565b6040518082815260200191505060405180910390f35b34801561029857600080fd5b506102a1610fc1565b6040518082815260200191505060405180910390f35b3480156102c357600080fd5b506102f0600480360360208110156102da57600080fd5b8101908080359060200190929190505050610fcb565b6040518082815260200191505060405180910390f35b34801561031257600080fd5b5061031b611064565b6040518082815260200191505060405180910390f35b34801561033d57600080fd5b5061039c600480360360c081101561035457600080fd5b8101908080359060200190929190803590602001909291908035906020019092919080359060200190929190803590602001909291908035906020019092919050505061106e565b6040518082815260200191505060405180910390f35b3480156103be57600080fd5b506103eb600480360360208110156103d557600080fd5b81019080803590602001909291905050506114c7565b6040518082815260200191505060405180910390f35b34801561040d57600080fd5b5061043a6004803603602081101561042457600080fd5b8101908080359060200190929190505050611560565b604051808215151515815260200191505060405180910390f35b34801561046057600080fd5b5061048d6004803603602081101561047757600080fd5b810190808035906020019092919050505061157f565b6040518082815260200191505060405180910390f35b3480156104af57600080fd5b506104dc600480360360208110156104c657600080fd5b8101908080359060200190929190505050611618565b604051808260018111156104ec57fe5b60ff16815260200191505060405180910390f35b34801561050c57600080fd5b506105396004803603602081101561052357600080fd5b81019080803590602001909291905050506116be565b6040518082815260200191505060405180910390f35b34801561055b57600080fd5b506105886004803603602081101561057257600080fd5b8101908080359060200190929190505050611757565b6040518082815260200191505060405180910390f35b3480156105aa57600080fd5b506105ff600480360360a08110156105c157600080fd5b8101908080359060200190929190803590602001909291908035906020019092919080359060200190929190803590602001909291905050506117f0565b6040518082815260200191505060405180910390f35b34801561062157600080fd5b5061064e6004803603602081101561063857600080fd5b8101908080359060200190929190505050611b1f565b6040518082815260200191505060405180910390f35b34801561067057600080fd5b5061069d6004803603602081101561068757600080fd5b8101908080359060200190929190505050611bb8565b005b3480156106ab57600080fd5b506106d8600480360360208110156106c257600080fd5b8101908080359060200190929190505050612001565b604051808260028111156106e857fe5b60ff16815260200191505060405180910390f35b34801561070857600080fd5b5061073f6004803603604081101561071f57600080fd5b8101908080359060200190929190803590602001909291905050506120a7565b005b34801561074d57600080fd5b5061077a6004803603602081101561076457600080fd5b8101908080359060200190929190505050612194565b005b34801561078857600080fd5b506107b56004803603602081101561079f57600080fd5b810190808035906020019092919050505061266b565b6040518082815260200191505060405180910390f35b3480156107d757600080fd5b50610804600480360360208110156107ee57600080fd5b8101908080359060200190929190505050612704565b005b34801561081257600080fd5b5061083f6004803603602081101561082957600080fd5b8101908080359060200190929190505050612b28565b604051808273ffffffffffffffffffffffffffffffffffffffff1673ffffffffffffffffffffffffffffffffffffffff16815260200191505060405180910390f35b34801561088d57600080fd5b506108ba600480360360208110156108a457600080fd5b8101908080359060200190929190505050612be1565b005b3480156108c857600080fd5b506108f5600480360360208110156108df57600080fd5b8101908080359060200190929190505050612cce565b6040518082815260200191505060405180910390f35b34801561091757600080fd5b506109446004803603602081101561092e57600080fd5b8101908080359060200190929190505050612d67565b604051808215151515815260200191505060405180910390f35b34801561096a57600080fd5b506109976004803603602081101561098157600080fd5b8101908080359060200190929190505050612e36565b6040518082815260200191505060405180910390f35b600060075482101515610a28576040517f08c379a00000000000000000000000000000000000000000000000000000000081526004018080602001828103825260138152602001807f496e76616c69642063616d706169676e2069640000000000000000000000000081525060200191505060405180910390fd5b60066000838152602001908152602001600020600201549050919050565b600060045482101515610ac1576040517f08c379a00000000000000000000000000000000000000000000000000000000081526004018080602001828103825260128152602001807f496e76616c69642063686172697479206964000000000000000000000000000081525060200191505060405180910390fd5b60026000838152602001908152602001600020600501549050919050565b336000809054906101000a900473ffffffffffffffffffffffffffffffffffffffff1673ffffffffffffffffffffffffffffffffffffffff168173ffffffffffffffffffffffffffffffffffffffff16141515610ba4576040517f08c379a000000000000000000000000000000000000000000000000000000000815260040180806020018281038252601c8152602001807f43616c6c6572206973206e6f7420636f6e7472616374206f776e65720000000081525060200191505060405180910390fd5b6000809054906101000a900473ffffffffffffffffffffffffffffffffffffffff1673ffffffffffffffffffffffffffffffffffffffff163373ffffffffffffffffffffffffffffffffffffffff16141515610c68576040517f08c379a000000000000000000000000000000000000000000000000000000000815260040180806020018281038252601c8152602001807f43616c6c6572206973206e6f7420636f6e7472616374206f776e65720000000081525060200191505060405180910390fd5b60045482101515610ce1576040517f08c379a00000000000000000000000000000000000000000000000000000000081526004018080602001828103825260128152602001807f496e76616c69642063686172697479206964000000000000000000000000000081525060200191505060405180910390fd5b60016002811115610cee57fe5b6002600084815260200190815260200160002060060160009054906101000a900460ff166002811115610d1d57fe5b141515610db8576040517f08c379a00000000000000000000000000000000000000000000000000000000081526004018080602001828103825260218152602001807f43686172697479206973206e6f7420612076657269666965642063686172697481526020017f790000000000000000000000000000000000000000000000000000000000000081525060400191505060405180910390fd5b60011515600160006002600086815260200190815260200160002060000160009054906101000a900473ffffffffffffffffffffffffffffffffffffffff1673ffffffffffffffffffffffffffffffffffffffff1673ffffffffffffffffffffffffffffffffffffffff16815260200190815260200160002060009054906101000a900460ff161515141515610eb6576040517f08c379a00000000000000000000000000000000000000000000000000000000081526004018080602001828103825260198152602001807f4368617269747920686173206265656e2076657269666965640000000000000081525060200191505060405180910390fd5b600280600084815260200190815260200160002060060160006101000a81548160ff02191690836002811115610ee857fe5b02179055507f0c3e8a5dc7b4dae9b9bacc0f229ddf9e8ff1a86a106b83477dfe72f4cda87f71826040518082815260200191505060405180910390a15050565b600060075482101515610fa3576040517f08c379a00000000000000000000000000000000000000000000000000000000081526004018080602001828103825260138152602001807f496e76616c69642063616d706169676e2069640000000000000000000000000081525060200191505060405180910390fd5b60066000838152602001908152602001600020600401549050919050565b6000600754905090565b600060075482101515611046576040517f08c379a00000000000000000000000000000000000000000000000000000000081526004018080602001828103825260138152602001807f496e76616c69642063616d706169676e2069640000000000000000000000000081525060200191505060405180910390fd5b60066000838152602001908152602001600020600601549050919050565b6000600454905090565b600033600160008273ffffffffffffffffffffffffffffffffffffffff1673ffffffffffffffffffffffffffffffffffffffff16815260200190815260200160002060009054906101000a900460ff161515611132576040517f08c379a000000000000000000000000000000000000000000000000000000000815260040180806020018281038252601d8152602001807f43616c6c6572206973206e6f7420612076616c6964206368617269747900000081525060200191505060405180910390fd5b7f43686172697479206e616d652063616e6e6f7420626520656d70747900000000881415151561116157600080fd5b7f4465736372697074696f6e2063616e6e6f7420626520656d7074790000000000871415151561119057600080fd5b7f506963747572652055524c2063616e6e6f7420626520656d707479000000000086141515156111bf57600080fd5b60008511151561125d576040517f08c379a00000000000000000000000000000000000000000000000000000000081526004018080602001828103825260258152602001807f54617267657420646f6e6174696f6e206d757374206265206c6172676572207481526020017f68616e203000000000000000000000000000000000000000000000000000000081525060400191505060405180910390fd5b82841015156112fa576040517f08c379a00000000000000000000000000000000000000000000000000000000081526004018080602001828103825260288152602001807f53746172742064617465206d757374206265206561726c696572207468616e2081526020017f656e64206461746500000000000000000000000000000000000000000000000081525060400191505060405180910390fd5b600760008154809291906001019190505591506000600360003373ffffffffffffffffffffffffffffffffffffffff1673ffffffffffffffffffffffffffffffffffffffff168152602001908152602001600020549050611359612ecf565b610140604051908101604052808381526020018b81526020018a81526020018981526020018881526020016000815260200160008152602001878152602001868152602001600060018111156113ab57fe5b81525090508060066000868152602001908152602001600020600082015181600001556020820151816001015560408201518160020155606082015181600301556080820151816004015560a0820151816005015560c0820151816006015560e0820151816007015561010082015181600801556101208201518160090160006101000a81548160ff0219169083600181111561144457fe5b021790555090505060016005600086815260200190815260200160002060006101000a81548160ff0219169083151502179055507f43ff46a4179f4c55f80d6329f38d2f16f0f6fad7f2e689fe51362d0ee5cd05b58285604051808381526020018281526020019250505060405180910390a18393505050509695505050505050565b600060075482101515611542576040517f08c379a00000000000000000000000000000000000000000000000000000000081526004018080602001828103825260138152602001807f496e76616c69642063616d706169676e2069640000000000000000000000000081525060200191505060405180910390fd5b60066000838152602001908152602001600020600301549050919050565b6000600754821015611575576001905061157a565b600090505b919050565b6000600754821015156115fa576040517f08c379a00000000000000000000000000000000000000000000000000000000081526004018080602001828103825260138152602001807f496e76616c69642063616d706169676e2069640000000000000000000000000081525060200191505060405180910390fd5b60066000838152602001908152602001600020600101549050919050565b600060075482101515611693576040517f08c379a00000000000000000000000000000000000000000000000000000000081526004018080602001828103825260138152602001807f496e76616c69642063616d706169676e2069640000000000000000000000000081525060200191505060405180910390fd5b6006600083815260200190815260200160002060090160009054906101000a900460ff169050919050565b600060075482101515611739576040517f08c379a00000000000000000000000000000000000000000000000000000000081526004018080602001828103825260138152602001807f496e76616c69642063616d706169676e2069640000000000000000000000000081525060200191505060405180910390fd5b60066000838152602001908152602001600020600001549050919050565b6000600454821015156117d2576040517f08c379a00000000000000000000000000000000000000000000000000000000081526004018080602001828103825260128152602001807f496e76616c69642063686172697479206964000000000000000000000000000081525060200191505060405180910390fd5b60026000838152602001908152602001600020600101549050919050565b60007f43686172697479206e616d652063616e6e6f7420626520656d70747900000000861415151561182157600080fd5b7f4368617269747920616464726573732063616e6e6f7420626520656d70747900851415151561185057600080fd5b7f43686172697479206e756d6265722063616e6e6f7420626520656d7074790000841415151561187f57600080fd5b7f4465736372697074696f6e2063616e6e6f7420626520656d707479000000000083141515156118ae57600080fd5b7f506963747572652055524c2063616e6e6f7420626520656d707479000000000082141515156118dd57600080fd5b600460008154809291906001019190505590506118f8612f37565b60e0604051908101604052803373ffffffffffffffffffffffffffffffffffffffff1681526020018881526020018781526020018681526020018581526020018481526020016000600281111561194b57fe5b8152509050806002600084815260200190815260200160002060008201518160000160006101000a81548173ffffffffffffffffffffffffffffffffffffffff021916908373ffffffffffffffffffffffffffffffffffffffff1602179055506020820151816001015560408201518160020155606082015181600301556080820151816004015560a0820151816005015560c08201518160060160006101000a81548160ff02191690836002811115611a0157fe5b021790555090505081600360003373ffffffffffffffffffffffffffffffffffffffff1673ffffffffffffffffffffffffffffffffffffffff168152602001908152602001600020819055506000600160006002600086815260200190815260200160002060000160009054906101000a900473ffffffffffffffffffffffffffffffffffffffff1673ffffffffffffffffffffffffffffffffffffffff1673ffffffffffffffffffffffffffffffffffffffff16815260200190815260200160002060006101000a81548160ff0219169083151502179055507f2818bce8f12afdd5c38fb751b1b8b1ce1580ad9686c8ac779489a38df94a6600826040518082815260200191505060405180910390a18191505095945050505050565b600060045482101515611b9a576040517f08c379a00000000000000000000000000000000000000000000000000000000081526004018080602001828103825260128152602001807f496e76616c69642063686172697479206964000000000000000000000000000081525060200191505060405180910390fd5b60026000838152602001908152602001600020600401549050919050565b336000809054906101000a900473ffffffffffffffffffffffffffffffffffffffff1673ffffffffffffffffffffffffffffffffffffffff168173ffffffffffffffffffffffffffffffffffffffff16141515611c7d576040517f08c379a000000000000000000000000000000000000000000000000000000000815260040180806020018281038252601c8152602001807f43616c6c6572206973206e6f7420636f6e7472616374206f776e65720000000081525060200191505060405180910390fd5b6000809054906101000a900473ffffffffffffffffffffffffffffffffffffffff1673ffffffffffffffffffffffffffffffffffffffff163373ffffffffffffffffffffffffffffffffffffffff16141515611d41576040517f08c379a000000000000000000000000000000000000000000000000000000000815260040180806020018281038252601c8152602001807f43616c6c6572206973206e6f7420636f6e7472616374206f776e65720000000081525060200191505060405180910390fd5b60045482101515611dba576040517f08c379a00000000000000000000000000000000000000000000000000000000081526004018080602001828103825260128152602001807f496e76616c69642063686172697479206964000000000000000000000000000081525060200191505060405180910390fd5b60006002811115611dc757fe5b6002600084815260200190815260200160002060060160009054906101000a900460ff166002811115611df657fe5b141515611e91576040517f08c379a00000000000000000000000000000000000000000000000000000000081526004018080602001828103825260258152602001807f4368617269747920686173206265656e207665726966696564206f722072656a81526020017f656374656400000000000000000000000000000000000000000000000000000081525060400191505060405180910390fd5b60001515600160006002600086815260200190815260200160002060000160009054906101000a900473ffffffffffffffffffffffffffffffffffffffff1673ffffffffffffffffffffffffffffffffffffffff1673ffffffffffffffffffffffffffffffffffffffff16815260200190815260200160002060009054906101000a900460ff161515141515611f8f576040517f08c379a00000000000000000000000000000000000000000000000000000000081526004018080602001828103825260198152602001807f4368617269747920686173206265656e2076657269666965640000000000000081525060200191505060405180910390fd5b600280600084815260200190815260200160002060060160006101000a81548160ff02191690836002811115611fc157fe5b02179055507f96c57c4107d5e1b286da221e7c1bfebf23c6bb63fe29777a22645ca9ff8ef04a826040518082815260200191505060405180910390a15050565b60006004548210151561207c576040517f08c379a00000000000000000000000000000000000000000000000000000000081526004018080602001828103825260128152602001807f496e76616c69642063686172697479206964000000000000000000000000000081525060200191505060405180910390fd5b6002600083815260200190815260200160002060060160009054906101000a900460ff169050919050565b60075482101515612120576040517f08c379a00000000000000000000000000000000000000000000000000000000081526004018080602001828103825260138152602001807f496e76616c69642063616d706169676e2069640000000000000000000000000081525060200191505060405180910390fd5b60008160066000858152602001908152602001600020600501540190508060066000858152602001908152602001600020600501819055507fdccc5359108539a6edac03c5abafcdf18642f761cd87a8bd181ff92fbc6121b3816040518082815260200191505060405180910390a1505050565b336000809054906101000a900473ffffffffffffffffffffffffffffffffffffffff1673ffffffffffffffffffffffffffffffffffffffff168173ffffffffffffffffffffffffffffffffffffffff16141515612259576040517f08c379a000000000000000000000000000000000000000000000000000000000815260040180806020018281038252601c8152602001807f43616c6c6572206973206e6f7420636f6e7472616374206f776e65720000000081525060200191505060405180910390fd5b6000809054906101000a900473ffffffffffffffffffffffffffffffffffffffff1673ffffffffffffffffffffffffffffffffffffffff163373ffffffffffffffffffffffffffffffffffffffff1614151561231d576040517f08c379a000000000000000000000000000000000000000000000000000000000815260040180806020018281038252601c8152602001807f43616c6c6572206973206e6f7420636f6e7472616374206f776e65720000000081525060200191505060405180910390fd5b60045482101515612396576040517f08c379a00000000000000000000000000000000000000000000000000000000081526004018080602001828103825260128152602001807f496e76616c69642063686172697479206964000000000000000000000000000081525060200191505060405180910390fd5b600060028111156123a357fe5b6002600084815260200190815260200160002060060160009054906101000a900460ff1660028111156123d257fe5b14151561246d576040517f08c379a00000000000000000000000000000000000000000000000000000000081526004018080602001828103825260258152602001807f4368617269747920686173206265656e207665726966696564206f722072656a81526020017f656374656400000000000000000000000000000000000000000000000000000081525060400191505060405180910390fd5b60001515600160006002600086815260200190815260200160002060000160009054906101000a900473ffffffffffffffffffffffffffffffffffffffff1673ffffffffffffffffffffffffffffffffffffffff1673ffffffffffffffffffffffffffffffffffffffff16815260200190815260200160002060009054906101000a900460ff16151514151561256b576040517f08c379a00000000000000000000000000000000000000000000000000000000081526004018080602001828103825260198152602001807f4368617269747920686173206265656e2076657269666965640000000000000081525060200191505060405180910390fd5b60016002600084815260200190815260200160002060060160006101000a81548160ff0219169083600281111561259e57fe5b021790555060018060006002600086815260200190815260200160002060000160009054906101000a900473ffffffffffffffffffffffffffffffffffffffff1673ffffffffffffffffffffffffffffffffffffffff1673ffffffffffffffffffffffffffffffffffffffff16815260200190815260200160002060006101000a81548160ff0219169083151502179055507ffb6ca19fa7c8eeb83b0f44c69164632fc81e6e1b17e2021cf8a905981f3babc2826040518082815260200191505060405180910390a15050565b6000600754821015156126e6576040517f08c379a00000000000000000000000000000000000000000000000000000000081526004018080602001828103825260138152602001807f496e76616c69642063616d706169676e2069640000000000000000000000000081525060200191505060405180910390fd5b60066000838152602001908152602001600020600701549050919050565b33600160008273ffffffffffffffffffffffffffffffffffffffff1673ffffffffffffffffffffffffffffffffffffffff16815260200190815260200160002060009054906101000a900460ff1615156127c6576040517f08c379a000000000000000000000000000000000000000000000000000000000815260040180806020018281038252601d8152602001807f43616c6c6572206973206e6f7420612076616c6964206368617269747900000081525060200191505060405180910390fd5b336000809054906101000a900473ffffffffffffffffffffffffffffffffffffffff1673ffffffffffffffffffffffffffffffffffffffff168173ffffffffffffffffffffffffffffffffffffffff1614151561288b576040517f08c379a000000000000000000000000000000000000000000000000000000000815260040180806020018281038252601c8152602001807f43616c6c6572206973206e6f7420636f6e7472616374206f776e65720000000081525060200191505060405180910390fd5b60075483101515612904576040517f08c379a00000000000000000000000000000000000000000000000000000000081526004018080602001828103825260138152602001807f496e76616c69642063616d706169676e2069640000000000000000000000000081525060200191505060405180910390fd5b6005600084815260200190815260200160002060009054906101000a900460ff161515612999576040517f08c379a00000000000000000000000000000000000000000000000000000000081526004018080602001828103825260178152602001807f43616d706169676e206973206e6f74206f6e676f696e6700000000000000000081525060200191505060405180910390fd5b600260006006600086815260200190815260200160002060000154815260200190815260200160002060000160009054906101000a900473ffffffffffffffffffffffffffffffffffffffff1673ffffffffffffffffffffffffffffffffffffffff163373ffffffffffffffffffffffffffffffffffffffff16141515612a88576040517f08c379a000000000000000000000000000000000000000000000000000000000815260040180806020018281038252601e8152602001807f43616c6c6572206973206e6f74206f776e6572206f662063686172697479000081525060200191505060405180910390fd5b60016006600085815260200190815260200160002060090160006101000a81548160ff02191690836001811115612abb57fe5b021790555060006005600085815260200190815260200160002060006101000a81548160ff0219169083151502179055507f8d0449d6fed7183f55f431e23867be7d8553beb7dc2e0844821c9c951a59ca52836040518082815260200191505060405180910390a1505050565b600060045482101515612ba3576040517f08c379a00000000000000000000000000000000000000000000000000000000081526004018080602001828103825260128152602001807f496e76616c69642063686172697479206964000000000000000000000000000081525060200191505060405180910390fd5b6002600083815260200190815260200160002060000160009054906101000a900473ffffffffffffffffffffffffffffffffffffffff169050919050565b60075481101515612c5a576040517f08c379a00000000000000000000000000000000000000000000000000000000081526004018080602001828103825260138152602001807f496e76616c69642063616d706169676e2069640000000000000000000000000081525060200191505060405180910390fd5b6000600160066000848152602001908152602001600020600601540190508060066000848152602001908152602001600020600601819055507f9c80f0e1f03145d2a9703bfa3a9b71624ac4aa74a383648a0dcd84a303a622ec816040518082815260200191505060405180910390a15050565b600060075482101515612d49576040517f08c379a00000000000000000000000000000000000000000000000000000000081526004018080602001828103825260138152602001807f496e76616c69642063616d706169676e2069640000000000000000000000000081525060200191505060405180910390fd5b60066000838152602001908152602001600020600501549050919050565b600060075482101515612de2576040517f08c379a00000000000000000000000000000000000000000000000000000000081526004018080602001828103825260138152602001807f496e76616c69642063616d706169676e2069640000000000000000000000000081525060200191505060405180910390fd5b600180811115612dee57fe5b6006600084815260200190815260200160002060090160009054906101000a900460ff166001811115612e1d57fe5b1415612e2c5760019050612e31565b600090505b919050565b600060075482101515612eb1576040517f08c379a00000000000000000000000000000000000000000000000000000000081526004018080602001828103825260138152602001807f496e76616c69642063616d706169676e2069640000000000000000000000000081525060200191505060405180910390fd5b60066000838152602001908152602001600020600801549050919050565b6101406040519081016040528060008152602001600080191681526020016000801916815260200160008019168152602001600081526020016000815260200160008152602001600081526020016000815260200160006001811115612f3157fe5b81525090565b60e060405190810160405280600073ffffffffffffffffffffffffffffffffffffffff168152602001600080191681526020016000801916815260200160008019168152602001600080191681526020016000801916815260200160006002811115612f9f57fe5b8152509056fea165627a7a723058200a914fea502bcabcf1c7efa4350f19b2e5251d8501b9613e78a926ecb36ff8dc0029",
  "source": "pragma solidity ^0.5.0;\n\ncontract Charity {\n\n  enum CharityStatus {\n\t  UNVERIFIED, VERIFIED, REJECTED\n  }\n\n  enum CampaignStatus {\n\t  ONGOING, ENDED\n  }\n\n  struct charity {\n\t  address charityOwner;\n    bytes32 charityName;\n    bytes32 charityAddress;\n    bytes32 contactNumber;\n    bytes32 description;\n    bytes32 pictureURL;\n    CharityStatus charityStatus;\n  }\n\n  struct campaign {\n    uint charityId;\n    bytes32 campaignName;\n    bytes32 description;\n    bytes32 pictureURL;\n    uint targetDonation;\n    uint currentDonation;\n    uint noOfDonors;\n    uint startDate;\n    uint endDate;\n    CampaignStatus campaignStatus;\n  }\n\n  address contractOwner;\n  //uint[] charitiesPendingVerification;\n  mapping(address => bool) isVerifiedCharity;\n  mapping(uint => charity) charities;\n  mapping(address => uint) charityAddressMap;\n  uint noOfCharities = 0;\n\n  //uint[] ongoingCampaigns;\n  mapping(uint => bool) isOngoingCampaign;\n  mapping(uint => campaign) campaigns;\n  uint noOfCampaigns = 0;\n\n  event charityRegistered (uint charityId);\n  event charityVerified (uint charityId);\n  event charityRejected (uint charityId);\n  event charityRevoked (uint charityId);\n  event campaignCreated(uint charityId, uint campaignId);\n  event campaignEnded(uint campaignId);\n  event updateCurrentDonation(uint newAmount);\n  event updateCampaignDonors(uint newNumber);\n\n\n  modifier onlyOwner(address caller) {\n    require(caller == contractOwner, \"Caller is not contract owner\");\n    _;\n  }\n\n\n  // This will be the modifier that checks whether the function call is done by the Charity itself.\n  modifier onlyVerifiedCharity(address caller) {\n    require(isVerifiedCharity[caller], \"Caller is not a valid charity\");\n    _;\n  }\n\n  function registerCharity(bytes32 charityName, bytes32 charityAddress, bytes32 contactNumber, bytes32 description, bytes32 pictureURL) public returns (uint charityId) {\n    require(charityName != \"Charity name cannot be empty\");\n    require(charityAddress != \"Charity address cannot be empty\");\n    require(contactNumber != \"Charity number cannot be empty\");\n    require(description != \"Description cannot be empty\");\n    require(pictureURL != \"Picture URL cannot be empty\");\n\n    charityId = noOfCharities++;\n    charity memory newCharity = charity(msg.sender, charityName, charityAddress, contactNumber, description, pictureURL, CharityStatus.UNVERIFIED);\n    charities[charityId] = newCharity;\n    charityAddressMap[msg.sender] = charityId;\n    isVerifiedCharity[charities[charityId].charityOwner] = false;\n    emit charityRegistered(charityId);\n    // charitiesPendingVerification.push(charityId);\n    return charityId;\n  }\n\n  function verifyCharity(uint charityId) public onlyOwner(msg.sender) {\n    require(msg.sender == contractOwner, \"Caller is not contract owner\");\n    require(charityId < noOfCharities, \"Invalid charity id\");\n    require(charities[charityId].charityStatus == CharityStatus.UNVERIFIED, \"Charity has been verified or rejected\");\n    require(isVerifiedCharity[charities[charityId].charityOwner] == false, \"Charity has been verified\");\n\n    charities[charityId].charityStatus = CharityStatus.VERIFIED;\n    isVerifiedCharity[charities[charityId].charityOwner] = true;\n    emit charityVerified(charityId);\n    // remove charity from charitiesPendingVerification[]\n  }\n\n  function rejectCharity(uint charityId) public onlyOwner(msg.sender) {\n    require(msg.sender == contractOwner, \"Caller is not contract owner\");\n    require(charityId < noOfCharities, \"Invalid charity id\");\n    require(charities[charityId].charityStatus == CharityStatus.UNVERIFIED, \"Charity has been verified or rejected\");\n    require(isVerifiedCharity[charities[charityId].charityOwner] == false, \"Charity has been verified\");\n\n    charities[charityId].charityStatus = CharityStatus.REJECTED;\n    emit charityRejected(charityId);\n    // remove charity from charitiesPendingVerification[]\n  }\n\n  function revokeCharity(uint charityId) public onlyOwner(msg.sender) {\n    require(msg.sender == contractOwner, \"Caller is not contract owner\");\n    require(charityId < noOfCharities, \"Invalid charity id\");\n    require(charities[charityId].charityStatus == CharityStatus.VERIFIED, \"Charity is not a verified charity\");\n    require(isVerifiedCharity[charities[charityId].charityOwner] == true, \"Charity has been verified\");\n\n    charities[charityId].charityStatus = CharityStatus.REJECTED;\n    emit charityRevoked(charityId);\n  }\n\n  /*\n  * This will be the function that charities call to create a campaign.\n  * Parameters of this function will include uint targetDonation (of the campaign), uint startDate (of the campaign), uint endDate (of the campaign)\n  */\n  function createCampaign(bytes32 campaignName, bytes32 description, bytes32 pictureURL, uint targetDonation, uint startDate, uint endDate) public onlyVerifiedCharity(msg.sender) returns (uint campaignId) {\n    require(campaignName != \"Charity name cannot be empty\");\n    require(description != \"Description cannot be empty\");\n    require(pictureURL != \"Picture URL cannot be empty\");\n    require(targetDonation > 0, \"Target donation must be larger than 0\");\n    require(startDate < endDate, \"Start date must be earlier than end date\");\n\n    campaignId = noOfCampaigns++;\n    uint charityId = charityAddressMap[msg.sender];\n    campaign memory newCampaign = campaign(charityId, campaignName, description, pictureURL, targetDonation, 0, 0, startDate, endDate, CampaignStatus.ONGOING);\n    campaigns[campaignId] = newCampaign;\n    // ongoingCampaigns.push(campaignId);\n    isOngoingCampaign[campaignId] = true;\n    emit campaignCreated(charityId, campaignId);\n    return campaignId;\n  }\n\n  /*\n  *\n  * This will be the function that charities call to end an ongoing campaign.\n  * Parameters of this function will include uint campaignId\n  */\n  function endCampaign(uint campaignId) public onlyVerifiedCharity(msg.sender) onlyOwner(msg.sender) {\n    require(campaignId < noOfCampaigns, \"Invalid campaign id\");\n    require(isOngoingCampaign[campaignId], \"Campaign is not ongoing\");\n    require(msg.sender == charities[campaigns[campaignId].charityId].charityOwner, \"Caller is not owner of charity\");\n\n    campaigns[campaignId].campaignStatus = CampaignStatus.ENDED;\n    isOngoingCampaign[campaignId] = false;\n    emit campaignEnded(campaignId);\n    // remove campaign from ongoingCampaigns[]\n  }\n\n  /*\n  * This will be the getter function that everyone can call to check the charity address.\n  * Parameters of this function will include uint charityId\n  */\n  function getCharityOwner(uint charityId) public view returns (address) {\n    require(charityId < noOfCharities, \"Invalid charity id\");\n    return charities[charityId].charityOwner;\n  }\n\n  /*\n  * This will be the getter function that everyone can call to check the charity name.\n  * Parameters of this function will include uint charityId\n  */\n  function getCharityName(uint charityId) public view returns (bytes32) {\n    require(charityId < noOfCharities, \"Invalid charity id\");\n    return charities[charityId].charityName;\n  }\n\n  /*\n  * This will be the getter function that everyone can call to check the charity pictureURL.\n  * Parameters of this function will include uint charityId\n  */\n  function getCharityPictureURL(uint charityId) public view returns (bytes32) {\n    require(charityId < noOfCharities, \"Invalid charity id\");\n    return charities[charityId].pictureURL;\n  }\n\n  /*\n  * This will be the getter function that everyone can call to check the charity description.\n  * Parameters of this function will include uint charityId\n  */\n  function getCharityDescription(uint charityId) public view returns (bytes32) {\n    require(charityId < noOfCharities, \"Invalid charity id\");\n    return charities[charityId].description;\n  }\n\n  /*\n  * This will be the getter function that everyone can call to check the charity status.\n  * Parameters of this function will include uint charityId\n  */\n  function getCharityStatus(uint charityId) public view returns (CharityStatus) {\n    require(charityId < noOfCharities, \"Invalid charity id\");\n    return charities[charityId].charityStatus;\n  }\n\n  /* \n  * This will be the getter function that everyone can call to get the total amounts of the charities.\n  * There will be no parameters fot this function\n  */\n  function getCharityAmount() public view returns (uint) {\n    return noOfCharities;\n  }\n\n  /*\n  * This will be the getter function that everyone can call to check the campaign's charityId.\n  * Parameters of this function will include uint campaignId\n  */\n  function getCampaignCharity(uint campaignId) public view returns (uint) {\n    require(campaignId < noOfCampaigns, \"Invalid campaign id\");\n    return campaigns[campaignId].charityId;\n  }\n\n  /*\n  * This will be the getter function that everyone can call to check the campaign name.\n  * Parameters of this function will include uint campaignId\n  */\n  function getCampaignName(uint campaignId) public view returns (bytes32) {\n    require(campaignId < noOfCampaigns, \"Invalid campaign id\");\n    return campaigns[campaignId].campaignName;\n  }\n\n  /*\n  * This will be the getter function that everyone can call to check the campaign description.\n  * Parameters of this function will include uint campaignId\n  */\n  function getCampaignDescription(uint campaignId) public view returns (bytes32) {\n    require(campaignId < noOfCampaigns, \"Invalid campaign id\");\n    return campaigns[campaignId].description;\n  }\n\n  /*\n  * This will be the getter function that everyone can call to check the campaign pictureURL.\n  * Parameters of this function will include uint campaignId\n  */\n  function getCampaignPictureURL(uint campaignId) public view returns (bytes32) {\n    require(campaignId < noOfCampaigns, \"Invalid campaign id\");\n    return campaigns[campaignId].pictureURL;\n  }\n\n  /*\n  * This will be the getter function that everyone can call to check the campaign targetDonation.\n  * Parameters of this function will include uint campaignId\n  */\n  function getCampaignTargetDonation(uint campaignId) public view returns (uint) {\n    require(campaignId < noOfCampaigns, \"Invalid campaign id\");\n    return campaigns[campaignId].targetDonation;\n  }\n\n  /*\n  * This will be the getter function that everyone can call to check the campaign currentDonation.\n  * Parameters of this function will include uint campaignId\n  */\n  function getCampaignCurrentDonation(uint campaignId) public view returns (uint) {\n    require(campaignId < noOfCampaigns, \"Invalid campaign id\");\n    return campaigns[campaignId].currentDonation;\n  }\n\n  /*\n  * This will be the getter function that everyone can call to check the campaign noOfDonors.\n  * Parameters of this function will include uint campaignId\n  */\n  function getCampaignNoOfDonors(uint campaignId) public view returns (uint) {\n    require(campaignId < noOfCampaigns, \"Invalid campaign id\");\n    return campaigns[campaignId].noOfDonors;\n  }\n\n  /*\n  * This will be the getter function that everyone can call to check the campaign startDate.\n  * Parameters of this function will include uint campaignId\n  */\n  function getCampaignStartDate(uint campaignId) public view returns (uint) {\n    require(campaignId < noOfCampaigns, \"Invalid campaign id\");\n    return campaigns[campaignId].startDate;\n  }\n\n  /*\n  * This will be the getter function that everyone can call to check the campaign endDate.\n  * Parameters of this function will include uint campaignId\n  */\n  function getCampaignEndDate(uint campaignId) public view returns (uint) {\n    require(campaignId < noOfCampaigns, \"Invalid campaign id\");\n    return campaigns[campaignId].endDate;\n  }\n\n  /*\n  * This will be the getter function that everyone can call to check the campaign status.\n  * Parameters of this function will include uint campaignId\n  */\n  function getCampaignStatus(uint campaignId) public view returns (CampaignStatus) {\n    require(campaignId < noOfCampaigns, \"Invalid campaign id\");\n    return campaigns[campaignId].campaignStatus;\n  }\n\n  /* \n  * This will be the getter function that everyone can call to get the total amounts of the campaigns.\n  * There will be no parameters fot this function\n  */\n  function getCampaignAmount() public view returns (uint) {\n    return noOfCampaigns;\n  }\n  \n  // boolean to check campaign status\n  function isStatusComplete(uint campaignId) public view returns (bool) {\n    require(campaignId < noOfCampaigns, \"Invalid campaign id\");\n    if(campaigns[campaignId].campaignStatus == CampaignStatus.ENDED) {\n        return true;\n    }\n    return false;\n  }\n  \n  // boolean to check if campaign is valid\n  function checkValidCampaign(uint campaignId) public view returns (bool) {\n      if(campaignId < noOfCampaigns) {\n          return true;\n      }\n      return false;\n  }\n    \n  /*\n  * This will be the function that updates the campaign's currentDonation\n  * Parameters of this function will include uint campaignId and uint newDonation\n  */\n  function updateCampaignCurrentDonation(uint campaignId, uint newDonation) public {\n      require(campaignId < noOfCampaigns, \"Invalid campaign id\");\n      uint newAmount = campaigns[campaignId].currentDonation + newDonation;\n      campaigns[campaignId].currentDonation = newAmount;\n      emit updateCurrentDonation(newAmount);\n  }\n  \n  /*\n  * This will be the function that updates the campaign's noOfDonors\n  * Parameters of this function will include uint campaignId\n  */\n  function addCampaignDonor(uint campaignId) public {\n      require(campaignId < noOfCampaigns, \"Invalid campaign id\");\n      uint newNumber = campaigns[campaignId].noOfDonors + 1;\n      campaigns[campaignId].noOfDonors = newNumber;\n      emit updateCampaignDonors(newNumber);\n  }\n\n}",
  "sourcePath": "/Users/hawayo/Desktop/sharity/contracts/Charity.sol",
  "compiler": {
    "name": "solc",
    "version": "0.5.0+commit.1d4f565a.Emscripten.clang"
  },
  "schemaVersion": "3.3.3",
  "updatedAt": "2021-03-26T08:05:50.567Z",
  "devdoc": {
    "methods": {}
  },
  "userdoc": {
    "methods": {}
  }
}