{
  "contractName": "Charity",
  "abi": [
    {
      "constant": false,
      "inputs": [
        {
          "internalType": "bytes32",
          "name": "charityName",
          "type": "bytes32"
        },
        {
          "internalType": "bytes32",
          "name": "description",
          "type": "bytes32"
        },
        {
          "internalType": "bytes32",
          "name": "pictureURL",
          "type": "bytes32"
        }
      ],
      "name": "registerCharity",
      "outputs": [
        {
          "internalType": "uint256",
          "name": "charityId",
          "type": "uint256"
        }
      ],
      "payable": false,
      "stateMutability": "nonpayable",
      "type": "function"
    },
    {
      "constant": false,
      "inputs": [
        {
          "internalType": "uint256",
          "name": "charityId",
          "type": "uint256"
        }
      ],
      "name": "verifyCharity",
      "outputs": [],
      "payable": false,
      "stateMutability": "nonpayable",
      "type": "function"
    },
    {
      "constant": false,
      "inputs": [
        {
          "internalType": "uint256",
          "name": "charityId",
          "type": "uint256"
        }
      ],
      "name": "rejectCharity",
      "outputs": [],
      "payable": false,
      "stateMutability": "nonpayable",
      "type": "function"
    },
    {
      "constant": false,
      "inputs": [
        {
          "internalType": "uint256",
          "name": "charityId",
          "type": "uint256"
        }
      ],
      "name": "revokeCharity",
      "outputs": [],
      "payable": false,
      "stateMutability": "nonpayable",
      "type": "function"
    },
    {
      "constant": false,
      "inputs": [
        {
          "internalType": "bytes32",
          "name": "campaignName",
          "type": "bytes32"
        },
        {
          "internalType": "bytes32",
          "name": "description",
          "type": "bytes32"
        },
        {
          "internalType": "bytes32",
          "name": "pictureURL",
          "type": "bytes32"
        },
        {
          "internalType": "uint256",
          "name": "targetDonation",
          "type": "uint256"
        },
        {
          "internalType": "uint256",
          "name": "startDate",
          "type": "uint256"
        },
        {
          "internalType": "uint256",
          "name": "endDate",
          "type": "uint256"
        }
      ],
      "name": "createCampaign",
      "outputs": [
        {
          "internalType": "uint256",
          "name": "campaignId",
          "type": "uint256"
        }
      ],
      "payable": false,
      "stateMutability": "nonpayable",
      "type": "function"
    },
    {
      "constant": false,
      "inputs": [
        {
          "internalType": "uint256",
          "name": "campaignId",
          "type": "uint256"
        }
      ],
      "name": "endCampaign",
      "outputs": [],
      "payable": false,
      "stateMutability": "nonpayable",
      "type": "function"
    },
    {
      "constant": true,
      "inputs": [
        {
          "internalType": "uint256",
          "name": "charityId",
          "type": "uint256"
        }
      ],
      "name": "getCharityOwner",
      "outputs": [
        {
          "internalType": "address",
          "name": "",
          "type": "address"
        }
      ],
      "payable": false,
      "stateMutability": "view",
      "type": "function"
    },
    {
      "constant": true,
      "inputs": [
        {
          "internalType": "uint256",
          "name": "charityId",
          "type": "uint256"
        }
      ],
      "name": "getCharityName",
      "outputs": [
        {
          "internalType": "bytes32",
          "name": "",
          "type": "bytes32"
        }
      ],
      "payable": false,
      "stateMutability": "view",
      "type": "function"
    },
    {
      "constant": true,
      "inputs": [
        {
          "internalType": "uint256",
          "name": "charityId",
          "type": "uint256"
        }
      ],
      "name": "getCharityPictureURL",
      "outputs": [
        {
          "internalType": "bytes32",
          "name": "",
          "type": "bytes32"
        }
      ],
      "payable": false,
      "stateMutability": "view",
      "type": "function"
    },
    {
      "constant": true,
      "inputs": [
        {
          "internalType": "uint256",
          "name": "charityId",
          "type": "uint256"
        }
      ],
      "name": "getCharityDescription",
      "outputs": [
        {
          "internalType": "bytes32",
          "name": "",
          "type": "bytes32"
        }
      ],
      "payable": false,
      "stateMutability": "view",
      "type": "function"
    },
    {
      "constant": true,
      "inputs": [
        {
          "internalType": "uint256",
          "name": "charityId",
          "type": "uint256"
        }
      ],
      "name": "getCharityStatus",
      "outputs": [
        {
          "internalType": "enum Charity.CharityStatus",
          "name": "",
          "type": "uint8"
        }
      ],
      "payable": false,
      "stateMutability": "view",
      "type": "function"
    },
    {
      "constant": true,
      "inputs": [
        {
          "internalType": "uint256",
          "name": "campaignId",
          "type": "uint256"
        }
      ],
      "name": "getCampaignCharity",
      "outputs": [
        {
          "internalType": "uint256",
          "name": "",
          "type": "uint256"
        }
      ],
      "payable": false,
      "stateMutability": "view",
      "type": "function"
    },
    {
      "constant": true,
      "inputs": [
        {
          "internalType": "uint256",
          "name": "campaignId",
          "type": "uint256"
        }
      ],
      "name": "getCampaignName",
      "outputs": [
        {
          "internalType": "bytes32",
          "name": "",
          "type": "bytes32"
        }
      ],
      "payable": false,
      "stateMutability": "view",
      "type": "function"
    },
    {
      "constant": true,
      "inputs": [
        {
          "internalType": "uint256",
          "name": "campaignId",
          "type": "uint256"
        }
      ],
      "name": "getCampaignDescription",
      "outputs": [
        {
          "internalType": "bytes32",
          "name": "",
          "type": "bytes32"
        }
      ],
      "payable": false,
      "stateMutability": "view",
      "type": "function"
    },
    {
      "constant": true,
      "inputs": [
        {
          "internalType": "uint256",
          "name": "campaignId",
          "type": "uint256"
        }
      ],
      "name": "getCampaignPictureURL",
      "outputs": [
        {
          "internalType": "bytes32",
          "name": "",
          "type": "bytes32"
        }
      ],
      "payable": false,
      "stateMutability": "view",
      "type": "function"
    },
    {
      "constant": true,
      "inputs": [
        {
          "internalType": "uint256",
          "name": "campaignId",
          "type": "uint256"
        }
      ],
      "name": "getCampaignTargetDonation",
      "outputs": [
        {
          "internalType": "uint256",
          "name": "",
          "type": "uint256"
        }
      ],
      "payable": false,
      "stateMutability": "view",
      "type": "function"
    },
    {
      "constant": true,
      "inputs": [
        {
          "internalType": "uint256",
          "name": "campaignId",
          "type": "uint256"
        }
      ],
      "name": "getCampaignCurrentDonation",
      "outputs": [
        {
          "internalType": "uint256",
          "name": "",
          "type": "uint256"
        }
      ],
      "payable": false,
      "stateMutability": "view",
      "type": "function"
    },
    {
      "constant": true,
      "inputs": [
        {
          "internalType": "uint256",
          "name": "campaignId",
          "type": "uint256"
        }
      ],
      "name": "getCampaignNoOfDonors",
      "outputs": [
        {
          "internalType": "uint256",
          "name": "",
          "type": "uint256"
        }
      ],
      "payable": false,
      "stateMutability": "view",
      "type": "function"
    },
    {
      "constant": true,
      "inputs": [
        {
          "internalType": "uint256",
          "name": "campaignId",
          "type": "uint256"
        }
      ],
      "name": "getCampaignStartDate",
      "outputs": [
        {
          "internalType": "uint256",
          "name": "",
          "type": "uint256"
        }
      ],
      "payable": false,
      "stateMutability": "view",
      "type": "function"
    },
    {
      "constant": true,
      "inputs": [
        {
          "internalType": "uint256",
          "name": "campaignId",
          "type": "uint256"
        }
      ],
      "name": "getCampaignEndDate",
      "outputs": [
        {
          "internalType": "uint256",
          "name": "",
          "type": "uint256"
        }
      ],
      "payable": false,
      "stateMutability": "view",
      "type": "function"
    },
    {
      "constant": true,
      "inputs": [
        {
          "internalType": "uint256",
          "name": "campaignId",
          "type": "uint256"
        }
      ],
      "name": "getCampaignStatus",
      "outputs": [
        {
          "internalType": "enum Charity.CampaignStatus",
          "name": "",
          "type": "uint8"
        }
      ],
      "payable": false,
      "stateMutability": "view",
      "type": "function"
    }
  ],
  "bytecode": "0x60806040526001600455600160075534801561001a57600080fd5b506127318061002a6000396000f3fe608060405234801561001057600080fd5b50600436106101375760003560e01c806374eb5738116100b8578063b0de90101161007c578063b0de901014610554578063bc4465da14610582578063dd0408ae146105c4578063e317526a146105f2578063f1c4bfac14610660578063fb99932f146106a257610137565b806374eb5738146104105780637ede52fc1461045257806395657f7e146104945780639eaec803146104d6578063a16fd1d01461050457610137565b80633ffe888f116100ff5780633ffe888f146102865780635468dfdc146102c857806355fb8f531461033c5780635a1022751461037e5780636c19e004146103c057610137565b8063068782d21461013c5780630749c8ac1461017e5780630bbcf696146101c057806315f28a27146101ee5780631f6a9b2514610230575b600080fd5b6101686004803603602081101561015257600080fd5b81019080803590602001909291905050506106e4565b6040518082815260200191505060405180910390f35b6101aa6004803603602081101561019457600080fd5b810190808035906020019092919050505061077b565b6040518082815260200191505060405180910390f35b6101ec600480360360208110156101d657600080fd5b8101908080359060200190929190505050610812565b005b61021a6004803603602081101561020457600080fd5b8101908080359060200190929190505050610bd7565b6040518082815260200191505060405180910390f35b6102706004803603606081101561024657600080fd5b81019080803590602001909291908035906020019092919080359060200190929190505050610c6e565b6040518082815260200191505060405180910390f35b6102b26004803603602081101561029c57600080fd5b8101908080359060200190929190505050610edf565b6040518082815260200191505060405180910390f35b610326600480360360c08110156102de57600080fd5b81019080803590602001909291908035906020019092919080359060200190929190803590602001909291908035906020019092919080359060200190929190505050610f76565b6040518082815260200191505060405180910390f35b6103686004803603602081101561035257600080fd5b81019080803590602001909291905050506112f7565b6040518082815260200191505060405180910390f35b6103aa6004803603602081101561039457600080fd5b810190808035906020019092919050505061138e565b6040518082815260200191505060405180910390f35b6103ec600480360360208110156103d657600080fd5b8101908080359060200190929190505050611425565b604051808260018111156103fc57fe5b60ff16815260200191505060405180910390f35b61043c6004803603602081101561042657600080fd5b81019080803590602001909291905050506114c9565b6040518082815260200191505060405180910390f35b61047e6004803603602081101561046857600080fd5b8101908080359060200190929190505050611560565b6040518082815260200191505060405180910390f35b6104c0600480360360208110156104aa57600080fd5b81019080803590602001909291905050506115f7565b6040518082815260200191505060405180910390f35b610502600480360360208110156104ec57600080fd5b810190808035906020019092919050505061168e565b005b6105306004803603602081101561051a57600080fd5b8101908080359060200190929190505050611a53565b6040518082600281111561054057fe5b60ff16815260200191505060405180910390f35b6105806004803603602081101561056a57600080fd5b8101908080359060200190929190505050611af7565b005b6105ae6004803603602081101561059857600080fd5b8101908080359060200190929190505050611f4a565b6040518082815260200191505060405180910390f35b6105f0600480360360208110156105da57600080fd5b8101908080359060200190929190505050611fe1565b005b61061e6004803603602081101561060857600080fd5b81019080803590602001909291905050506123c4565b604051808273ffffffffffffffffffffffffffffffffffffffff1673ffffffffffffffffffffffffffffffffffffffff16815260200191505060405180910390f35b61068c6004803603602081101561067657600080fd5b810190808035906020019092919050505061247b565b6040518082815260200191505060405180910390f35b6106ce600480360360208110156106b857600080fd5b8101908080359060200190929190505050612512565b6040518082815260200191505060405180910390f35b6000600754821061075d576040517f08c379a00000000000000000000000000000000000000000000000000000000081526004018080602001828103825260138152602001807f496e76616c69642063616d706169676e2069640000000000000000000000000081525060200191505060405180910390fd5b60066000838152602001908152602001600020600201549050919050565b600060045482106107f4576040517f08c379a00000000000000000000000000000000000000000000000000000000081526004018080602001828103825260128152602001807f496e76616c69642063686172697479206964000000000000000000000000000081525060200191505060405180910390fd5b60026000838152602001908152602001600020600301549050919050565b336000809054906101000a900473ffffffffffffffffffffffffffffffffffffffff1673ffffffffffffffffffffffffffffffffffffffff168173ffffffffffffffffffffffffffffffffffffffff16146108d5576040517f08c379a000000000000000000000000000000000000000000000000000000000815260040180806020018281038252601c8152602001807f43616c6c6572206973206e6f7420636f6e7472616374206f776e65720000000081525060200191505060405180910390fd5b6000809054906101000a900473ffffffffffffffffffffffffffffffffffffffff1673ffffffffffffffffffffffffffffffffffffffff163373ffffffffffffffffffffffffffffffffffffffff1614610997576040517f08c379a000000000000000000000000000000000000000000000000000000000815260040180806020018281038252601c8152602001807f43616c6c6572206973206e6f7420636f6e7472616374206f776e65720000000081525060200191505060405180910390fd5b6004548210610a0e576040517f08c379a00000000000000000000000000000000000000000000000000000000081526004018080602001828103825260128152602001807f496e76616c69642063686172697479206964000000000000000000000000000081525060200191505060405180910390fd5b60016002811115610a1b57fe5b6002600084815260200190815260200160002060040160009054906101000a900460ff166002811115610a4a57fe5b14610aa0576040517f08c379a000000000000000000000000000000000000000000000000000000000815260040180806020018281038252602181526020018061266a6021913960400191505060405180910390fd5b60011515600160006002600086815260200190815260200160002060000160009054906101000a900473ffffffffffffffffffffffffffffffffffffffff1673ffffffffffffffffffffffffffffffffffffffff1673ffffffffffffffffffffffffffffffffffffffff16815260200190815260200160002060009054906101000a900460ff16151514610b9c576040517f08c379a00000000000000000000000000000000000000000000000000000000081526004018080602001828103825260198152602001807f4368617269747920686173206265656e2076657269666965640000000000000081525060200191505060405180910390fd5b600280600084815260200190815260200160002060040160006101000a81548160ff02191690836002811115610bce57fe5b02179055505050565b60006007548210610c50576040517f08c379a00000000000000000000000000000000000000000000000000000000081526004018080602001828103825260138152602001807f496e76616c69642063616d706169676e2069640000000000000000000000000081525060200191505060405180910390fd5b60066000838152602001908152602001600020600401549050919050565b60007f43686172697479206e616d652063616e6e6f7420626520656d70747900000000841415610c9d57600080fd5b7f4465736372697074696f6e2063616e6e6f7420626520656d7074790000000000831415610cca57600080fd5b7f506963747572652055524c2063616e6e6f7420626520656d7074790000000000821415610cf757600080fd5b60046000815480929190600101919050559050610d126125a9565b6040518060a001604052803373ffffffffffffffffffffffffffffffffffffffff16815260200186815260200185815260200184815260200160006002811115610d5857fe5b8152509050806002600084815260200190815260200160002060008201518160000160006101000a81548173ffffffffffffffffffffffffffffffffffffffff021916908373ffffffffffffffffffffffffffffffffffffffff16021790555060208201518160010155604082015181600201556060820151816003015560808201518160040160006101000a81548160ff02191690836002811115610dfa57fe5b021790555090505081600360003373ffffffffffffffffffffffffffffffffffffffff1673ffffffffffffffffffffffffffffffffffffffff168152602001908152602001600020819055506000600160006002600086815260200190815260200160002060000160009054906101000a900473ffffffffffffffffffffffffffffffffffffffff1673ffffffffffffffffffffffffffffffffffffffff1673ffffffffffffffffffffffffffffffffffffffff16815260200190815260200160002060006101000a81548160ff021916908315150217905550819150509392505050565b60006007548210610f58576040517f08c379a00000000000000000000000000000000000000000000000000000000081526004018080602001828103825260138152602001807f496e76616c69642063616d706169676e2069640000000000000000000000000081525060200191505060405180910390fd5b60066000838152602001908152602001600020600601549050919050565b600033600160008273ffffffffffffffffffffffffffffffffffffffff1673ffffffffffffffffffffffffffffffffffffffff16815260200190815260200160002060009054906101000a900460ff16611038576040517f08c379a000000000000000000000000000000000000000000000000000000000815260040180806020018281038252601d8152602001807f43616c6c6572206973206e6f7420612076616c6964206368617269747900000081525060200191505060405180910390fd5b7f43686172697479206e616d652063616e6e6f7420626520656d7074790000000088141561106557600080fd5b7f4465736372697074696f6e2063616e6e6f7420626520656d707479000000000087141561109257600080fd5b7f506963747572652055524c2063616e6e6f7420626520656d70747900000000008614156110bf57600080fd5b60008511611118576040517f08c379a00000000000000000000000000000000000000000000000000000000081526004018080602001828103825260258152602001806126b36025913960400191505060405180910390fd5b828410611170576040517f08c379a000000000000000000000000000000000000000000000000000000000815260040180806020018281038252602881526020018061268b6028913960400191505060405180910390fd5b6007600081548092919060010191905055915061118b612602565b604051806101400160405280600360003373ffffffffffffffffffffffffffffffffffffffff1673ffffffffffffffffffffffffffffffffffffffff1681526020019081526020016000205481526020018a815260200189815260200188815260200187815260200160008152602001600081526020018681526020018581526020016000600181111561121b57fe5b81525090508060066000858152602001908152602001600020600082015181600001556020820151816001015560408201518160020155606082015181600301556080820151816004015560a0820151816005015560c0820151816006015560e0820151816007015561010082015181600801556101208201518160090160006101000a81548160ff021916908360018111156112b457fe5b021790555090505060016005600085815260200190815260200160002060006101000a81548160ff02191690831515021790555082925050509695505050505050565b60006007548210611370576040517f08c379a00000000000000000000000000000000000000000000000000000000081526004018080602001828103825260138152602001807f496e76616c69642063616d706169676e2069640000000000000000000000000081525060200191505060405180910390fd5b60066000838152602001908152602001600020600301549050919050565b60006007548210611407576040517f08c379a00000000000000000000000000000000000000000000000000000000081526004018080602001828103825260138152602001807f496e76616c69642063616d706169676e2069640000000000000000000000000081525060200191505060405180910390fd5b60066000838152602001908152602001600020600101549050919050565b6000600754821061149e576040517f08c379a00000000000000000000000000000000000000000000000000000000081526004018080602001828103825260138152602001807f496e76616c69642063616d706169676e2069640000000000000000000000000081525060200191505060405180910390fd5b6006600083815260200190815260200160002060090160009054906101000a900460ff169050919050565b60006007548210611542576040517f08c379a00000000000000000000000000000000000000000000000000000000081526004018080602001828103825260138152602001807f496e76616c69642063616d706169676e2069640000000000000000000000000081525060200191505060405180910390fd5b60066000838152602001908152602001600020600001549050919050565b600060045482106115d9576040517f08c379a00000000000000000000000000000000000000000000000000000000081526004018080602001828103825260128152602001807f496e76616c69642063686172697479206964000000000000000000000000000081525060200191505060405180910390fd5b60026000838152602001908152602001600020600101549050919050565b60006004548210611670576040517f08c379a00000000000000000000000000000000000000000000000000000000081526004018080602001828103825260128152602001807f496e76616c69642063686172697479206964000000000000000000000000000081525060200191505060405180910390fd5b60026000838152602001908152602001600020600201549050919050565b336000809054906101000a900473ffffffffffffffffffffffffffffffffffffffff1673ffffffffffffffffffffffffffffffffffffffff168173ffffffffffffffffffffffffffffffffffffffff1614611751576040517f08c379a000000000000000000000000000000000000000000000000000000000815260040180806020018281038252601c8152602001807f43616c6c6572206973206e6f7420636f6e7472616374206f776e65720000000081525060200191505060405180910390fd5b6000809054906101000a900473ffffffffffffffffffffffffffffffffffffffff1673ffffffffffffffffffffffffffffffffffffffff163373ffffffffffffffffffffffffffffffffffffffff1614611813576040517f08c379a000000000000000000000000000000000000000000000000000000000815260040180806020018281038252601c8152602001807f43616c6c6572206973206e6f7420636f6e7472616374206f776e65720000000081525060200191505060405180910390fd5b600454821061188a576040517f08c379a00000000000000000000000000000000000000000000000000000000081526004018080602001828103825260128152602001807f496e76616c69642063686172697479206964000000000000000000000000000081525060200191505060405180910390fd5b6000600281111561189757fe5b6002600084815260200190815260200160002060040160009054906101000a900460ff1660028111156118c657fe5b1461191c576040517f08c379a00000000000000000000000000000000000000000000000000000000081526004018080602001828103825260258152602001806126d86025913960400191505060405180910390fd5b60001515600160006002600086815260200190815260200160002060000160009054906101000a900473ffffffffffffffffffffffffffffffffffffffff1673ffffffffffffffffffffffffffffffffffffffff1673ffffffffffffffffffffffffffffffffffffffff16815260200190815260200160002060009054906101000a900460ff16151514611a18576040517f08c379a00000000000000000000000000000000000000000000000000000000081526004018080602001828103825260198152602001807f4368617269747920686173206265656e2076657269666965640000000000000081525060200191505060405180910390fd5b600280600084815260200190815260200160002060040160006101000a81548160ff02191690836002811115611a4a57fe5b02179055505050565b60006004548210611acc576040517f08c379a00000000000000000000000000000000000000000000000000000000081526004018080602001828103825260128152602001807f496e76616c69642063686172697479206964000000000000000000000000000081525060200191505060405180910390fd5b6002600083815260200190815260200160002060040160009054906101000a900460ff169050919050565b336000809054906101000a900473ffffffffffffffffffffffffffffffffffffffff1673ffffffffffffffffffffffffffffffffffffffff168173ffffffffffffffffffffffffffffffffffffffff1614611bba576040517f08c379a000000000000000000000000000000000000000000000000000000000815260040180806020018281038252601c8152602001807f43616c6c6572206973206e6f7420636f6e7472616374206f776e65720000000081525060200191505060405180910390fd5b6000809054906101000a900473ffffffffffffffffffffffffffffffffffffffff1673ffffffffffffffffffffffffffffffffffffffff163373ffffffffffffffffffffffffffffffffffffffff1614611c7c576040517f08c379a000000000000000000000000000000000000000000000000000000000815260040180806020018281038252601c8152602001807f43616c6c6572206973206e6f7420636f6e7472616374206f776e65720000000081525060200191505060405180910390fd5b6004548210611cf3576040517f08c379a00000000000000000000000000000000000000000000000000000000081526004018080602001828103825260128152602001807f496e76616c69642063686172697479206964000000000000000000000000000081525060200191505060405180910390fd5b60006002811115611d0057fe5b6002600084815260200190815260200160002060040160009054906101000a900460ff166002811115611d2f57fe5b14611d85576040517f08c379a00000000000000000000000000000000000000000000000000000000081526004018080602001828103825260258152602001806126d86025913960400191505060405180910390fd5b60001515600160006002600086815260200190815260200160002060000160009054906101000a900473ffffffffffffffffffffffffffffffffffffffff1673ffffffffffffffffffffffffffffffffffffffff1673ffffffffffffffffffffffffffffffffffffffff16815260200190815260200160002060009054906101000a900460ff16151514611e81576040517f08c379a00000000000000000000000000000000000000000000000000000000081526004018080602001828103825260198152602001807f4368617269747920686173206265656e2076657269666965640000000000000081525060200191505060405180910390fd5b60016002600084815260200190815260200160002060040160006101000a81548160ff02191690836002811115611eb457fe5b021790555060018060006002600086815260200190815260200160002060000160009054906101000a900473ffffffffffffffffffffffffffffffffffffffff1673ffffffffffffffffffffffffffffffffffffffff1673ffffffffffffffffffffffffffffffffffffffff16815260200190815260200160002060006101000a81548160ff0219169083151502179055505050565b60006007548210611fc3576040517f08c379a00000000000000000000000000000000000000000000000000000000081526004018080602001828103825260138152602001807f496e76616c69642063616d706169676e2069640000000000000000000000000081525060200191505060405180910390fd5b60066000838152602001908152602001600020600701549050919050565b33600160008273ffffffffffffffffffffffffffffffffffffffff1673ffffffffffffffffffffffffffffffffffffffff16815260200190815260200160002060009054906101000a900460ff166120a1576040517f08c379a000000000000000000000000000000000000000000000000000000000815260040180806020018281038252601d8152602001807f43616c6c6572206973206e6f7420612076616c6964206368617269747900000081525060200191505060405180910390fd5b336000809054906101000a900473ffffffffffffffffffffffffffffffffffffffff1673ffffffffffffffffffffffffffffffffffffffff168173ffffffffffffffffffffffffffffffffffffffff1614612164576040517f08c379a000000000000000000000000000000000000000000000000000000000815260040180806020018281038252601c8152602001807f43616c6c6572206973206e6f7420636f6e7472616374206f776e65720000000081525060200191505060405180910390fd5b60075483106121db576040517f08c379a00000000000000000000000000000000000000000000000000000000081526004018080602001828103825260138152602001807f496e76616c69642063616d706169676e2069640000000000000000000000000081525060200191505060405180910390fd5b6005600084815260200190815260200160002060009054906101000a900460ff1661226e576040517f08c379a00000000000000000000000000000000000000000000000000000000081526004018080602001828103825260178152602001807f43616d706169676e206973206e6f74206f6e676f696e6700000000000000000081525060200191505060405180910390fd5b600260006006600086815260200190815260200160002060000154815260200190815260200160002060000160009054906101000a900473ffffffffffffffffffffffffffffffffffffffff1673ffffffffffffffffffffffffffffffffffffffff163373ffffffffffffffffffffffffffffffffffffffff161461235b576040517f08c379a000000000000000000000000000000000000000000000000000000000815260040180806020018281038252601e8152602001807f43616c6c6572206973206e6f74206f776e6572206f662063686172697479000081525060200191505060405180910390fd5b60016006600085815260200190815260200160002060090160006101000a81548160ff0219169083600181111561238e57fe5b021790555060006005600085815260200190815260200160002060006101000a81548160ff021916908315150217905550505050565b6000600454821061243d576040517f08c379a00000000000000000000000000000000000000000000000000000000081526004018080602001828103825260128152602001807f496e76616c69642063686172697479206964000000000000000000000000000081525060200191505060405180910390fd5b6002600083815260200190815260200160002060000160009054906101000a900473ffffffffffffffffffffffffffffffffffffffff169050919050565b600060075482106124f4576040517f08c379a00000000000000000000000000000000000000000000000000000000081526004018080602001828103825260138152602001807f496e76616c69642063616d706169676e2069640000000000000000000000000081525060200191505060405180910390fd5b60066000838152602001908152602001600020600501549050919050565b6000600754821061258b576040517f08c379a00000000000000000000000000000000000000000000000000000000081526004018080602001828103825260138152602001807f496e76616c69642063616d706169676e2069640000000000000000000000000081525060200191505060405180910390fd5b60066000838152602001908152602001600020600801549050919050565b6040518060a00160405280600073ffffffffffffffffffffffffffffffffffffffff168152602001600080191681526020016000801916815260200160008019168152602001600060028111156125fc57fe5b81525090565b6040518061014001604052806000815260200160008019168152602001600080191681526020016000801916815260200160008152602001600081526020016000815260200160008152602001600081526020016000600181111561266357fe5b8152509056fe43686172697479206973206e6f742061207665726966696564206368617269747953746172742064617465206d757374206265206561726c696572207468616e20656e64206461746554617267657420646f6e6174696f6e206d757374206265206c6172676572207468616e20304368617269747920686173206265656e207665726966696564206f722072656a6563746564a265627a7a723158207bf4b114b488ae9fc3b732e12f7dad9ebc8f3cb0a8cc65fa8c7f3fcfa11ac58964736f6c63430005100032",
  "source": "pragma solidity ^0.5.0;\n\ncontract Charity {\n\n  enum CharityStatus {\n\t  UNVERIFIED, VERIFIED, REJECTED\n  }\n\n  enum CampaignStatus {\n\t  ONGOING, ENDED\n  }\n\n  struct charity {\n\t  address charityOwner;\n    bytes32 charityName;\n    bytes32 description;\n    bytes32 pictureURL;\n    CharityStatus charityStatus;\n  }\n\n  struct campaign {\n    uint charityId;\n    bytes32 campaignName;\n    bytes32 description;\n    bytes32 pictureURL;\n    uint targetDonation;\n    uint currentDonation;\n    uint noOfDonors;\n    uint startDate;\n    uint endDate;\n    CampaignStatus campaignStatus;\n  }\n\n  address contractOwner;\n  //uint[] charitiesPendingVerification;\n  mapping(address => bool) isVerifiedCharity;\n  mapping(uint => charity) charities;\n  mapping(address => uint) charityAddress;\n  uint noOfCharities = 1;\n\n  //uint[] ongoingCampaigns;\n  mapping(uint => bool) isOngoingCampaign;\n  mapping(uint => campaign) campaigns;\n  uint noOfCampaigns = 1;\n\n  modifier onlyOwner(address caller) {\n    require(caller == contractOwner, \"Caller is not contract owner\");\n    _;\n  }\n\n\n  // This will be the modifier that checks whether the function call is done by the Charity itself.\n  modifier onlyVerifiedCharity(address caller) {\n    require(isVerifiedCharity[caller], \"Caller is not a valid charity\");\n    _;\n  }\n\n  function registerCharity(bytes32 charityName, bytes32 description, bytes32 pictureURL) public returns (uint charityId) {\n    require(charityName != \"Charity name cannot be empty\");\n    require(description != \"Description cannot be empty\");\n    require(pictureURL != \"Picture URL cannot be empty\");\n\n    charityId = noOfCharities++;\n    charity memory newCharity = charity(msg.sender, charityName, description, pictureURL, CharityStatus.UNVERIFIED);\n    charities[charityId] = newCharity;\n    charityAddress[msg.sender] = charityId;\n    isVerifiedCharity[charities[charityId].charityOwner] = false;\n    // charitiesPendingVerification.push(charityId);\n    return charityId;\n  }\n\n  function verifyCharity(uint charityId) public onlyOwner(msg.sender) {\n    require(msg.sender == contractOwner, \"Caller is not contract owner\");\n    require(charityId < noOfCharities, \"Invalid charity id\");\n    require(charities[charityId].charityStatus == CharityStatus.UNVERIFIED, \"Charity has been verified or rejected\");\n    require(isVerifiedCharity[charities[charityId].charityOwner] == false, \"Charity has been verified\");\n\n    charities[charityId].charityStatus = CharityStatus.VERIFIED;\n    isVerifiedCharity[charities[charityId].charityOwner] = true;\n    // remove charity from charitiesPendingVerification[]\n  }\n\n  function rejectCharity(uint charityId) public onlyOwner(msg.sender) {\n    require(msg.sender == contractOwner, \"Caller is not contract owner\");\n    require(charityId < noOfCharities, \"Invalid charity id\");\n    require(charities[charityId].charityStatus == CharityStatus.UNVERIFIED, \"Charity has been verified or rejected\");\n    require(isVerifiedCharity[charities[charityId].charityOwner] == false, \"Charity has been verified\");\n\n    charities[charityId].charityStatus = CharityStatus.REJECTED;\n    // remove charity from charitiesPendingVerification[]\n  }\n\n  function revokeCharity(uint charityId) public onlyOwner(msg.sender) {\n    require(msg.sender == contractOwner, \"Caller is not contract owner\");\n    require(charityId < noOfCharities, \"Invalid charity id\");\n    require(charities[charityId].charityStatus == CharityStatus.VERIFIED, \"Charity is not a verified charity\");\n    require(isVerifiedCharity[charities[charityId].charityOwner] == true, \"Charity has been verified\");\n\n    charities[charityId].charityStatus = CharityStatus.REJECTED;\n  }\n\n  /*\n  * This will be the function that charities call to create a campaign.\n  * Parameters of this function will include uint targetDonation (of the campaign), uint startDate (of the campaign), uint endDate (of the campaign)\n  */\n  function createCampaign(bytes32 campaignName, bytes32 description, bytes32 pictureURL, uint targetDonation, uint startDate, uint endDate) public onlyVerifiedCharity(msg.sender) returns (uint campaignId) {\n    require(campaignName != \"Charity name cannot be empty\");\n    require(description != \"Description cannot be empty\");\n    require(pictureURL != \"Picture URL cannot be empty\");\n    require(targetDonation > 0, \"Target donation must be larger than 0\");\n    require(startDate < endDate, \"Start date must be earlier than end date\");\n\n    campaignId = noOfCampaigns++;\n    campaign memory newCampaign = campaign(charityAddress[msg.sender], campaignName, description, pictureURL, targetDonation, 0, 0, startDate, endDate, CampaignStatus.ONGOING);\n    campaigns[campaignId] = newCampaign;\n    // ongoingCampaigns.push(campaignId);\n    isOngoingCampaign[campaignId] = true;\n    return campaignId;\n  }\n\n  /*\n  *\n  * This will be the function that charities call to end an ongoing campaign.\n  * Parameters of this function will include uint campaignId\n  */\n  function endCampaign(uint campaignId) public onlyVerifiedCharity(msg.sender) onlyOwner(msg.sender) {\n    require(campaignId < noOfCampaigns, \"Invalid campaign id\");\n    require(isOngoingCampaign[campaignId], \"Campaign is not ongoing\");\n    require(msg.sender == charities[campaigns[campaignId].charityId].charityOwner, \"Caller is not owner of charity\");\n\n    campaigns[campaignId].campaignStatus = CampaignStatus.ENDED;\n    isOngoingCampaign[campaignId] = false;\n    // remove campaign from ongoingCampaigns[]\n  }\n\n  /*\n  * This will be the getter function that everyone can call to check the charity address.\n  * Parameters of this function will include uint charityId\n  */\n  function getCharityOwner(uint charityId) public view returns (address) {\n    require(charityId < noOfCharities, \"Invalid charity id\");\n    return charities[charityId].charityOwner;\n  }\n\n  /*\n  * This will be the getter function that everyone can call to check the charity name.\n  * Parameters of this function will include uint charityId\n  */\n  function getCharityName(uint charityId) public view returns (bytes32) {\n    require(charityId < noOfCharities, \"Invalid charity id\");\n    return charities[charityId].charityName;\n  }\n\n  /*\n  * This will be the getter function that everyone can call to check the charity pictureURL.\n  * Parameters of this function will include uint charityId\n  */\n  function getCharityPictureURL(uint charityId) public view returns (bytes32) {\n    require(charityId < noOfCharities, \"Invalid charity id\");\n    return charities[charityId].pictureURL;\n  }\n\n  /*\n  * This will be the getter function that everyone can call to check the charity description.\n  * Parameters of this function will include uint charityId\n  */\n  function getCharityDescription(uint charityId) public view returns (bytes32) {\n    require(charityId < noOfCharities, \"Invalid charity id\");\n    return charities[charityId].description;\n  }\n\n  /*\n  * This will be the getter function that everyone can call to check the charity status.\n  * Parameters of this function will include uint charityId\n  */\n  function getCharityStatus(uint charityId) public view returns (CharityStatus) {\n    require(charityId < noOfCharities, \"Invalid charity id\");\n    return charities[charityId].charityStatus;\n  }\n\n  /*\n  * This will be the getter function that everyone can call to check the campaign's charityId.\n  * Parameters of this function will include uint campaignId\n  */\n  function getCampaignCharity(uint campaignId) public view returns (uint) {\n    require(campaignId < noOfCampaigns, \"Invalid campaign id\");\n    return campaigns[campaignId].charityId;\n  }\n\n  /*\n  * This will be the getter function that everyone can call to check the campaign name.\n  * Parameters of this function will include uint campaignId\n  */\n  function getCampaignName(uint campaignId) public view returns (bytes32) {\n    require(campaignId < noOfCampaigns, \"Invalid campaign id\");\n    return campaigns[campaignId].campaignName;\n  }\n\n  /*\n  * This will be the getter function that everyone can call to check the campaign description.\n  * Parameters of this function will include uint campaignId\n  */\n  function getCampaignDescription(uint campaignId) public view returns (bytes32) {\n    require(campaignId < noOfCampaigns, \"Invalid campaign id\");\n    return campaigns[campaignId].description;\n  }\n\n  /*\n  * This will be the getter function that everyone can call to check the campaign pictureURL.\n  * Parameters of this function will include uint campaignId\n  */\n  function getCampaignPictureURL(uint campaignId) public view returns (bytes32) {\n    require(campaignId < noOfCampaigns, \"Invalid campaign id\");\n    return campaigns[campaignId].pictureURL;\n  }\n\n  /*\n  * This will be the getter function that everyone can call to check the campaign targetDonation.\n  * Parameters of this function will include uint campaignId\n  */\n  function getCampaignTargetDonation(uint campaignId) public view returns (uint) {\n    require(campaignId < noOfCampaigns, \"Invalid campaign id\");\n    return campaigns[campaignId].targetDonation;\n  }\n\n  /*\n  * This will be the getter function that everyone can call to check the campaign currentDonation.\n  * Parameters of this function will include uint campaignId\n  */\n  function getCampaignCurrentDonation(uint campaignId) public view returns (uint) {\n    require(campaignId < noOfCampaigns, \"Invalid campaign id\");\n    return campaigns[campaignId].currentDonation;\n  }\n\n  /*\n  * This will be the getter function that everyone can call to check the campaign noOfDonors.\n  * Parameters of this function will include uint campaignId\n  */\n  function getCampaignNoOfDonors(uint campaignId) public view returns (uint) {\n    require(campaignId < noOfCampaigns, \"Invalid campaign id\");\n    return campaigns[campaignId].noOfDonors;\n  }\n\n  /*\n  * This will be the getter function that everyone can call to check the campaign startDate.\n  * Parameters of this function will include uint campaignId\n  */\n  function getCampaignStartDate(uint campaignId) public view returns (uint) {\n    require(campaignId < noOfCampaigns, \"Invalid campaign id\");\n    return campaigns[campaignId].startDate;\n  }\n\n  /*\n  * This will be the getter function that everyone can call to check the campaign endDate.\n  * Parameters of this function will include uint campaignId\n  */\n  function getCampaignEndDate(uint campaignId) public view returns (uint) {\n    require(campaignId < noOfCampaigns, \"Invalid campaign id\");\n    return campaigns[campaignId].endDate;\n  }\n\n  /*\n  * This will be the getter function that everyone can call to check the campaign status.\n  * Parameters of this function will include uint campaignId\n  */\n  function getCampaignStatus(uint campaignId) public view returns (CampaignStatus) {\n    require(campaignId < noOfCampaigns, \"Invalid campaign id\");\n    return campaigns[campaignId].campaignStatus;\n  }\n\n\n\n}",
  "sourcePath": "/Users/nelsonho/Documents/GitHub/sharity/contracts/Charity.sol",
  "compiler": {
    "name": "solc",
    "version": "0.5.16+commit.9c3226ce.Emscripten.clang"
  },
  "schemaVersion": "3.3.4",
  "updatedAt": "2021-03-16T02:19:08.105Z",
  "networkType": "ethereum",
  "devdoc": {
    "methods": {}
  },
  "userdoc": {
    "methods": {}
  }
}