{
  "contractName": "Charity",
  "abi": [
    {
      "anonymous": false,
      "inputs": [
        {
          "indexed": false,
          "name": "charityId",
          "type": "uint256"
        }
      ],
      "name": "charityRegistered",
      "type": "event"
    },
    {
      "anonymous": false,
      "inputs": [
        {
          "indexed": false,
          "name": "charityId",
          "type": "uint256"
        }
      ],
      "name": "charityVerified",
      "type": "event"
    },
    {
      "anonymous": false,
      "inputs": [
        {
          "indexed": false,
          "name": "charityId",
          "type": "uint256"
        }
      ],
      "name": "charityRejected",
      "type": "event"
    },
    {
      "anonymous": false,
      "inputs": [
        {
          "indexed": false,
          "name": "charityId",
          "type": "uint256"
        }
      ],
      "name": "charityRevoked",
      "type": "event"
    },
    {
      "anonymous": false,
      "inputs": [
        {
          "indexed": false,
          "name": "charityId",
          "type": "uint256"
        },
        {
          "indexed": false,
          "name": "campaignId",
          "type": "uint256"
        }
      ],
      "name": "campaignCreated",
      "type": "event"
    },
    {
      "anonymous": false,
      "inputs": [
        {
          "indexed": false,
          "name": "campaignId",
          "type": "uint256"
        }
      ],
      "name": "campaignEnded",
      "type": "event"
    },
    {
      "anonymous": false,
      "inputs": [
        {
          "indexed": false,
          "name": "newAmount",
          "type": "uint256"
        }
      ],
      "name": "updateCurrentDonation",
      "type": "event"
    },
    {
      "anonymous": false,
      "inputs": [
        {
          "indexed": false,
          "name": "newNumber",
          "type": "uint256"
        }
      ],
      "name": "updateCampaignDonors",
      "type": "event"
    },
    {
      "constant": true,
      "inputs": [
        {
          "name": "inputAddress",
          "type": "address"
        }
      ],
      "name": "checkAddressType",
      "outputs": [
        {
          "name": "",
          "type": "string"
        }
      ],
      "payable": false,
      "stateMutability": "view",
      "type": "function"
    },
    {
      "constant": false,
      "inputs": [
        {
          "name": "charityName",
          "type": "string"
        },
        {
          "name": "charityAddress",
          "type": "string"
        },
        {
          "name": "contactNumber",
          "type": "string"
        },
        {
          "name": "description",
          "type": "string"
        },
        {
          "name": "pictureURL",
          "type": "string"
        }
      ],
      "name": "registerCharity",
      "outputs": [
        {
          "name": "charityId",
          "type": "uint256"
        }
      ],
      "payable": false,
      "stateMutability": "nonpayable",
      "type": "function"
    },
    {
      "constant": false,
      "inputs": [
        {
          "name": "charityId",
          "type": "uint256"
        },
        {
          "name": "verificationLink",
          "type": "string"
        }
      ],
      "name": "verifyCharity",
      "outputs": [],
      "payable": false,
      "stateMutability": "nonpayable",
      "type": "function"
    },
    {
      "constant": false,
      "inputs": [
        {
          "name": "charityId",
          "type": "uint256"
        }
      ],
      "name": "rejectCharity",
      "outputs": [],
      "payable": false,
      "stateMutability": "nonpayable",
      "type": "function"
    },
    {
      "constant": false,
      "inputs": [
        {
          "name": "charityId",
          "type": "uint256"
        }
      ],
      "name": "revokeCharity",
      "outputs": [],
      "payable": false,
      "stateMutability": "nonpayable",
      "type": "function"
    },
    {
      "constant": false,
      "inputs": [
        {
          "name": "campaignName",
          "type": "string"
        },
        {
          "name": "description",
          "type": "string"
        },
        {
          "name": "pictureURL",
          "type": "string"
        },
        {
          "name": "targetDonation",
          "type": "uint256"
        },
        {
          "name": "startDate",
          "type": "uint256"
        },
        {
          "name": "endDate",
          "type": "uint256"
        }
      ],
      "name": "createCampaign",
      "outputs": [
        {
          "name": "campaignId",
          "type": "uint256"
        }
      ],
      "payable": false,
      "stateMutability": "nonpayable",
      "type": "function"
    },
    {
      "constant": false,
      "inputs": [
        {
          "name": "campaignId",
          "type": "uint256"
        }
      ],
      "name": "endCampaign",
      "outputs": [],
      "payable": false,
      "stateMutability": "nonpayable",
      "type": "function"
    },
    {
      "constant": true,
      "inputs": [
        {
          "name": "charityId",
          "type": "uint256"
        }
      ],
      "name": "getCharityOwner",
      "outputs": [
        {
          "name": "",
          "type": "address"
        }
      ],
      "payable": false,
      "stateMutability": "view",
      "type": "function"
    },
    {
      "constant": true,
      "inputs": [
        {
          "name": "inputAddress",
          "type": "address"
        }
      ],
      "name": "getCharityIdByAddress",
      "outputs": [
        {
          "name": "",
          "type": "uint256"
        }
      ],
      "payable": false,
      "stateMutability": "view",
      "type": "function"
    },
    {
      "constant": true,
      "inputs": [
        {
          "name": "charityId",
          "type": "uint256"
        }
      ],
      "name": "getCharityName",
      "outputs": [
        {
          "name": "",
          "type": "string"
        }
      ],
      "payable": false,
      "stateMutability": "view",
      "type": "function"
    },
    {
      "constant": true,
      "inputs": [
        {
          "name": "inputAddress",
          "type": "address"
        }
      ],
      "name": "getCharityNameByAddress",
      "outputs": [
        {
          "name": "",
          "type": "string"
        }
      ],
      "payable": false,
      "stateMutability": "view",
      "type": "function"
    },
    {
      "constant": true,
      "inputs": [
        {
          "name": "charityId",
          "type": "uint256"
        }
      ],
      "name": "getCharityPictureURL",
      "outputs": [
        {
          "name": "",
          "type": "string"
        }
      ],
      "payable": false,
      "stateMutability": "view",
      "type": "function"
    },
    {
      "constant": true,
      "inputs": [
        {
          "name": "inputAddress",
          "type": "address"
        }
      ],
      "name": "getCharityPictureURLByAddress",
      "outputs": [
        {
          "name": "",
          "type": "string"
        }
      ],
      "payable": false,
      "stateMutability": "view",
      "type": "function"
    },
    {
      "constant": true,
      "inputs": [
        {
          "name": "charityId",
          "type": "uint256"
        }
      ],
      "name": "getCharityDescription",
      "outputs": [
        {
          "name": "",
          "type": "string"
        }
      ],
      "payable": false,
      "stateMutability": "view",
      "type": "function"
    },
    {
      "constant": true,
      "inputs": [
        {
          "name": "inputAddress",
          "type": "address"
        }
      ],
      "name": "getCharityDescriptionByAddress",
      "outputs": [
        {
          "name": "",
          "type": "string"
        }
      ],
      "payable": false,
      "stateMutability": "view",
      "type": "function"
    },
    {
      "constant": true,
      "inputs": [
        {
          "name": "charityId",
          "type": "uint256"
        }
      ],
      "name": "getCharityStatus",
      "outputs": [
        {
          "name": "",
          "type": "uint8"
        }
      ],
      "payable": false,
      "stateMutability": "view",
      "type": "function"
    },
    {
      "constant": true,
      "inputs": [
        {
          "name": "inputAddress",
          "type": "address"
        }
      ],
      "name": "getCharityStatusByAddress",
      "outputs": [
        {
          "name": "",
          "type": "uint8"
        }
      ],
      "payable": false,
      "stateMutability": "view",
      "type": "function"
    },
    {
      "constant": true,
      "inputs": [
        {
          "name": "charityId",
          "type": "uint256"
        }
      ],
      "name": "getCharityContactNumber",
      "outputs": [
        {
          "name": "",
          "type": "string"
        }
      ],
      "payable": false,
      "stateMutability": "view",
      "type": "function"
    },
    {
      "constant": true,
      "inputs": [
        {
          "name": "inputAddress",
          "type": "address"
        }
      ],
      "name": "getCharityContactNumberByAddress",
      "outputs": [
        {
          "name": "",
          "type": "string"
        }
      ],
      "payable": false,
      "stateMutability": "view",
      "type": "function"
    },
    {
      "constant": true,
      "inputs": [
        {
          "name": "charityId",
          "type": "uint256"
        }
      ],
      "name": "getCharityContactAddress",
      "outputs": [
        {
          "name": "",
          "type": "string"
        }
      ],
      "payable": false,
      "stateMutability": "view",
      "type": "function"
    },
    {
      "constant": true,
      "inputs": [
        {
          "name": "inputAddress",
          "type": "address"
        }
      ],
      "name": "getCharityContactAddressByAddress",
      "outputs": [
        {
          "name": "",
          "type": "string"
        }
      ],
      "payable": false,
      "stateMutability": "view",
      "type": "function"
    },
    {
      "constant": true,
      "inputs": [
        {
          "name": "charityId",
          "type": "uint256"
        }
      ],
      "name": "getCharityVerificationLink",
      "outputs": [
        {
          "name": "",
          "type": "string"
        }
      ],
      "payable": false,
      "stateMutability": "view",
      "type": "function"
    },
    {
      "constant": true,
      "inputs": [
        {
          "name": "inputAddress",
          "type": "address"
        }
      ],
      "name": "getCharityVerificationLinkByAddress",
      "outputs": [
        {
          "name": "",
          "type": "string"
        }
      ],
      "payable": false,
      "stateMutability": "view",
      "type": "function"
    },
    {
      "constant": true,
      "inputs": [],
      "name": "getNoOfCharities",
      "outputs": [
        {
          "name": "",
          "type": "uint256"
        }
      ],
      "payable": false,
      "stateMutability": "view",
      "type": "function"
    },
    {
      "constant": true,
      "inputs": [],
      "name": "getVerifiedCharityAmount",
      "outputs": [
        {
          "name": "",
          "type": "uint256"
        }
      ],
      "payable": false,
      "stateMutability": "view",
      "type": "function"
    },
    {
      "constant": true,
      "inputs": [],
      "name": "getUnverifiedCharityAmount",
      "outputs": [
        {
          "name": "",
          "type": "uint256"
        }
      ],
      "payable": false,
      "stateMutability": "view",
      "type": "function"
    },
    {
      "constant": true,
      "inputs": [],
      "name": "getRejectedCharityAmount",
      "outputs": [
        {
          "name": "",
          "type": "uint256"
        }
      ],
      "payable": false,
      "stateMutability": "view",
      "type": "function"
    },
    {
      "constant": true,
      "inputs": [
        {
          "name": "charityId",
          "type": "uint256"
        }
      ],
      "name": "getCampaignAmountByCharity",
      "outputs": [
        {
          "name": "",
          "type": "uint256"
        }
      ],
      "payable": false,
      "stateMutability": "view",
      "type": "function"
    },
    {
      "constant": true,
      "inputs": [
        {
          "name": "charityId",
          "type": "uint256"
        }
      ],
      "name": "getActiveCampaignAmountByCharity",
      "outputs": [
        {
          "name": "",
          "type": "uint256"
        }
      ],
      "payable": false,
      "stateMutability": "view",
      "type": "function"
    },
    {
      "constant": true,
      "inputs": [
        {
          "name": "charityId",
          "type": "uint256"
        }
      ],
      "name": "getEndedCampaignAmountByCharity",
      "outputs": [
        {
          "name": "",
          "type": "uint256"
        }
      ],
      "payable": false,
      "stateMutability": "view",
      "type": "function"
    },
    {
      "constant": true,
      "inputs": [
        {
          "name": "campaignId",
          "type": "uint256"
        }
      ],
      "name": "getCampaignCharity",
      "outputs": [
        {
          "name": "",
          "type": "uint256"
        }
      ],
      "payable": false,
      "stateMutability": "view",
      "type": "function"
    },
    {
      "constant": true,
      "inputs": [
        {
          "name": "campaignId",
          "type": "uint256"
        }
      ],
      "name": "getCampaignName",
      "outputs": [
        {
          "name": "",
          "type": "string"
        }
      ],
      "payable": false,
      "stateMutability": "view",
      "type": "function"
    },
    {
      "constant": true,
      "inputs": [
        {
          "name": "campaignId",
          "type": "uint256"
        }
      ],
      "name": "getCampaignDescription",
      "outputs": [
        {
          "name": "",
          "type": "string"
        }
      ],
      "payable": false,
      "stateMutability": "view",
      "type": "function"
    },
    {
      "constant": true,
      "inputs": [
        {
          "name": "campaignId",
          "type": "uint256"
        }
      ],
      "name": "getCampaignPictureURL",
      "outputs": [
        {
          "name": "",
          "type": "string"
        }
      ],
      "payable": false,
      "stateMutability": "view",
      "type": "function"
    },
    {
      "constant": true,
      "inputs": [
        {
          "name": "campaignId",
          "type": "uint256"
        }
      ],
      "name": "getCampaignTargetDonation",
      "outputs": [
        {
          "name": "",
          "type": "uint256"
        }
      ],
      "payable": false,
      "stateMutability": "view",
      "type": "function"
    },
    {
      "constant": true,
      "inputs": [
        {
          "name": "campaignId",
          "type": "uint256"
        }
      ],
      "name": "getCampaignCurrentDonation",
      "outputs": [
        {
          "name": "",
          "type": "uint256"
        }
      ],
      "payable": false,
      "stateMutability": "view",
      "type": "function"
    },
    {
      "constant": true,
      "inputs": [
        {
          "name": "campaignId",
          "type": "uint256"
        }
      ],
      "name": "getCampaignNoOfDonors",
      "outputs": [
        {
          "name": "",
          "type": "uint256"
        }
      ],
      "payable": false,
      "stateMutability": "view",
      "type": "function"
    },
    {
      "constant": true,
      "inputs": [
        {
          "name": "campaignId",
          "type": "uint256"
        }
      ],
      "name": "getCampaignStartDate",
      "outputs": [
        {
          "name": "",
          "type": "uint256"
        }
      ],
      "payable": false,
      "stateMutability": "view",
      "type": "function"
    },
    {
      "constant": true,
      "inputs": [
        {
          "name": "campaignId",
          "type": "uint256"
        }
      ],
      "name": "getCampaignEndDate",
      "outputs": [
        {
          "name": "",
          "type": "uint256"
        }
      ],
      "payable": false,
      "stateMutability": "view",
      "type": "function"
    },
    {
      "constant": true,
      "inputs": [
        {
          "name": "campaignId",
          "type": "uint256"
        }
      ],
      "name": "getCampaignStatus",
      "outputs": [
        {
          "name": "",
          "type": "uint8"
        }
      ],
      "payable": false,
      "stateMutability": "view",
      "type": "function"
    },
    {
      "constant": true,
      "inputs": [],
      "name": "getNoOfCampaigns",
      "outputs": [
        {
          "name": "",
          "type": "uint256"
        }
      ],
      "payable": false,
      "stateMutability": "view",
      "type": "function"
    },
    {
      "constant": true,
      "inputs": [
        {
          "name": "campaignId",
          "type": "uint256"
        }
      ],
      "name": "isStatusComplete",
      "outputs": [
        {
          "name": "",
          "type": "bool"
        }
      ],
      "payable": false,
      "stateMutability": "view",
      "type": "function"
    },
    {
      "constant": true,
      "inputs": [
        {
          "name": "campaignId",
          "type": "uint256"
        }
      ],
      "name": "checkValidCampaign",
      "outputs": [
        {
          "name": "",
          "type": "bool"
        }
      ],
      "payable": false,
      "stateMutability": "view",
      "type": "function"
    },
    {
      "constant": false,
      "inputs": [
        {
          "name": "campaignId",
          "type": "uint256"
        },
        {
          "name": "newDonation",
          "type": "uint256"
        }
      ],
      "name": "updateCampaignCurrentDonation",
      "outputs": [],
      "payable": false,
      "stateMutability": "nonpayable",
      "type": "function"
    },
    {
      "constant": false,
      "inputs": [
        {
          "name": "campaignId",
          "type": "uint256"
        }
      ],
      "name": "addCampaignDonor",
      "outputs": [],
      "payable": false,
      "stateMutability": "nonpayable",
      "type": "function"
    },
    {
      "constant": true,
      "inputs": [],
      "name": "getContractOwner",
      "outputs": [
        {
          "name": "",
          "type": "address"
        }
      ],
      "payable": false,
      "stateMutability": "view",
      "type": "function"
    }
  ],
  "bytecode": "0x6080604052336000806101000a81548173ffffffffffffffffffffffffffffffffffffffff021916908373ffffffffffffffffffffffffffffffffffffffff1602179055506000600655600060095534801561005a57600080fd5b50615934806200006b6000396000f3fe60806040526004361061022e576000357c0100000000000000000000000000000000000000000000000000000000900463ffffffff16806282c0b21461023357806296a1f014610298578063068782d2146102c357806306fd7c60146103775780630749c8ac146103a25780630bbcf69614610456578063113856361461049157806312c7d50a1461055b57806315f28a2714610893578063161d3dd1146108e257806327f2b91d1461090d57806332fa180d14610b355780633ffe888f14610b60578063442890d514610baf5780634e429c0b14610c0657806354ee0d3614610cd057806355fb8f5314610d1f57806357d65eac14610dd35780635a10227514610e265780635e0566a314610eda5780636c19e00414610f8e5780636dbdfedc14610feb578063709d1e7c146110bd57806374eb57381461117157806376e77d34146111c05780637ede52fc1461120f57806395657f7e146112c3578063960bb88714611377578063980a2688146113c65780639eaec8031461147a5780639fd852f0146114b5578063a16fd1d01461157f578063a6af939a146115dc578063b95c6d3914611621578063bc4465da146116eb578063bd12c9a81461173a578063c5001c1114611804578063ca032ade146118ce578063dd0408ae14611941578063ddf131761461197c578063e317526a146119a7578063ea79c20014611a22578063eaa44df214611a5d578063f1c4bfac14611b27578063f6b5489814611b76578063fb99932f14611bc9575b600080fd5b34801561023f57600080fd5b506102826004803603602081101561025657600080fd5b81019080803573ffffffffffffffffffffffffffffffffffffffff169060200190929190505050611c18565b6040518082815260200191505060405180910390f35b3480156102a457600080fd5b506102ad611d2f565b6040518082815260200191505060405180910390f35b3480156102cf57600080fd5b506102fc600480360360208110156102e657600080fd5b8101908080359060200190929190505050611da5565b6040518080602001828103825283818151815260200191508051906020019080838360005b8381101561033c578082015181840152602081019050610321565b50505050905090810190601f1680156103695780820380516001836020036101000a031916815260200191505b509250505060405180910390f35b34801561038357600080fd5b5061038c611ed6565b6040518082815260200191505060405180910390f35b3480156103ae57600080fd5b506103db600480360360208110156103c557600080fd5b8101908080359060200190929190505050611f4d565b6040518080602001828103825283818151815260200191508051906020019080838360005b8381101561041b578082015181840152602081019050610400565b50505050905090810190601f1680156104485780820380516001836020036101000a031916815260200191505b509250505060405180910390f35b34801561046257600080fd5b5061048f6004803603602081101561047957600080fd5b810190808035906020019092919050505061207e565b005b34801561049d57600080fd5b506104e0600480360360208110156104b457600080fd5b81019080803573ffffffffffffffffffffffffffffffffffffffff169060200190929190505050612465565b6040518080602001828103825283818151815260200191508051906020019080838360005b83811015610520578082015181840152602081019050610505565b50505050905090810190601f16801561054d5780820380516001836020036101000a031916815260200191505b509250505060405180910390f35b34801561056757600080fd5b5061087d600480360360a081101561057e57600080fd5b810190808035906020019064010000000081111561059b57600080fd5b8201836020820111156105ad57600080fd5b803590602001918460018302840111640100000000831117156105cf57600080fd5b91908080601f016020809104026020016040519081016040528093929190818152602001838380828437600081840152601f19601f8201169050808301925050505050505091929192908035906020019064010000000081111561063257600080fd5b82018360208201111561064457600080fd5b8035906020019184600183028401116401000000008311171561066657600080fd5b91908080601f016020809104026020016040519081016040528093929190818152602001838380828437600081840152601f19601f820116905080830192505050505050509192919290803590602001906401000000008111156106c957600080fd5b8201836020820111156106db57600080fd5b803590602001918460018302840111640100000000831117156106fd57600080fd5b91908080601f016020809104026020016040519081016040528093929190818152602001838380828437600081840152601f19601f8201169050808301925050505050505091929192908035906020019064010000000081111561076057600080fd5b82018360208201111561077257600080fd5b8035906020019184600183028401116401000000008311171561079457600080fd5b91908080601f016020809104026020016040519081016040528093929190818152602001838380828437600081840152601f19601f820116905080830192505050505050509192919290803590602001906401000000008111156107f757600080fd5b82018360208201111561080957600080fd5b8035906020019184600183028401116401000000008311171561082b57600080fd5b91908080601f016020809104026020016040519081016040528093929190818152602001838380828437600081840152601f19601f82011690508083019250505050505050919291929050505061262a565b6040518082815260200191505060405180910390f35b34801561089f57600080fd5b506108cc600480360360208110156108b657600080fd5b81019080803590602001909291905050506129e4565b6040518082815260200191505060405180910390f35b3480156108ee57600080fd5b506108f7612a7d565b6040518082815260200191505060405180910390f35b34801561091957600080fd5b50610b1f600480360360c081101561093057600080fd5b810190808035906020019064010000000081111561094d57600080fd5b82018360208201111561095f57600080fd5b8035906020019184600183028401116401000000008311171561098157600080fd5b91908080601f016020809104026020016040519081016040528093929190818152602001838380828437600081840152601f19601f820116905080830192505050505050509192919290803590602001906401000000008111156109e457600080fd5b8201836020820111156109f657600080fd5b80359060200191846001830284011164010000000083111715610a1857600080fd5b91908080601f016020809104026020016040519081016040528093929190818152602001838380828437600081840152601f19601f82011690508083019250505050505050919291929080359060200190640100000000811115610a7b57600080fd5b820183602082011115610a8d57600080fd5b80359060200191846001830284011164010000000083111715610aaf57600080fd5b91908080601f016020809104026020016040519081016040528093929190818152602001838380828437600081840152601f19601f820116905080830192505050505050509192919290803590602001909291908035906020019092919080359060200190929190505050612a87565b6040518082815260200191505060405180910390f35b348015610b4157600080fd5b50610b4a612d64565b6040518082815260200191505060405180910390f35b348015610b6c57600080fd5b50610b9960048036036020811015610b8357600080fd5b8101908080359060200190929190505050612d6e565b6040518082815260200191505060405180910390f35b348015610bbb57600080fd5b50610bc4612e07565b604051808273ffffffffffffffffffffffffffffffffffffffff1673ffffffffffffffffffffffffffffffffffffffff16815260200191505060405180910390f35b348015610c1257600080fd5b50610c5560048036036020811015610c2957600080fd5b81019080803573ffffffffffffffffffffffffffffffffffffffff169060200190929190505050612e30565b6040518080602001828103825283818151815260200191508051906020019080838360005b83811015610c95578082015181840152602081019050610c7a565b50505050905090810190601f168015610cc25780820380516001836020036101000a031916815260200191505b509250505060405180910390f35b348015610cdc57600080fd5b50610d0960048036036020811015610cf357600080fd5b8101908080359060200190929190505050612ff5565b6040518082815260200191505060405180910390f35b348015610d2b57600080fd5b50610d5860048036036020811015610d4257600080fd5b810190808035906020019092919050505061307a565b6040518080602001828103825283818151815260200191508051906020019080838360005b83811015610d98578082015181840152602081019050610d7d565b50505050905090810190601f168015610dc55780820380516001836020036101000a031916815260200191505b509250505060405180910390f35b348015610ddf57600080fd5b50610e0c60048036036020811015610df657600080fd5b81019080803590602001909291905050506131ab565b604051808215151515815260200191505060405180910390f35b348015610e3257600080fd5b50610e5f60048036036020811015610e4957600080fd5b81019080803590602001909291905050506131ca565b6040518080602001828103825283818151815260200191508051906020019080838360005b83811015610e9f578082015181840152602081019050610e84565b50505050905090810190601f168015610ecc5780820380516001836020036101000a031916815260200191505b509250505060405180910390f35b348015610ee657600080fd5b50610f1360048036036020811015610efd57600080fd5b81019080803590602001909291905050506132fb565b6040518080602001828103825283818151815260200191508051906020019080838360005b83811015610f53578082015181840152602081019050610f38565b50505050905090810190601f168015610f805780820380516001836020036101000a031916815260200191505b509250505060405180910390f35b348015610f9a57600080fd5b50610fc760048036036020811015610fb157600080fd5b810190808035906020019092919050505061342c565b60405180826001811115610fd757fe5b60ff16815260200191505060405180910390f35b348015610ff757600080fd5b506110bb6004803603604081101561100e57600080fd5b81019080803590602001909291908035906020019064010000000081111561103557600080fd5b82018360208201111561104757600080fd5b8035906020019184600183028401116401000000008311171561106957600080fd5b91908080601f016020809104026020016040519081016040528093929190818152602001838380828437600081840152601f19601f8201169050808301925050505050505091929192905050506134d2565b005b3480156110c957600080fd5b506110f6600480360360208110156110e057600080fd5b8101908080359060200190929190505050613911565b6040518080602001828103825283818151815260200191508051906020019080838360005b8381101561113657808201518184015260208101905061111b565b50505050905090810190601f1680156111635780820380516001836020036101000a031916815260200191505b509250505060405180910390f35b34801561117d57600080fd5b506111aa6004803603602081101561119457600080fd5b8101908080359060200190929190505050613a42565b6040518082815260200191505060405180910390f35b3480156111cc57600080fd5b506111f9600480360360208110156111e357600080fd5b8101908080359060200190929190505050613adb565b6040518082815260200191505060405180910390f35b34801561121b57600080fd5b506112486004803603602081101561123257600080fd5b8101908080359060200190929190505050613b60565b6040518080602001828103825283818151815260200191508051906020019080838360005b8381101561128857808201518184015260208101905061126d565b50505050905090810190601f1680156112b55780820380516001836020036101000a031916815260200191505b509250505060405180910390f35b3480156112cf57600080fd5b506112fc600480360360208110156112e657600080fd5b8101908080359060200190929190505050613c91565b6040518080602001828103825283818151815260200191508051906020019080838360005b8381101561133c578082015181840152602081019050611321565b50505050905090810190601f1680156113695780820380516001836020036101000a031916815260200191505b509250505060405180910390f35b34801561138357600080fd5b506113b06004803603602081101561139a57600080fd5b8101908080359060200190929190505050613dc2565b6040518082815260200191505060405180910390f35b3480156113d257600080fd5b506113ff600480360360208110156113e957600080fd5b8101908080359060200190929190505050613e17565b6040518080602001828103825283818151815260200191508051906020019080838360005b8381101561143f578082015181840152602081019050611424565b50505050905090810190601f16801561146c5780820380516001836020036101000a031916815260200191505b509250505060405180910390f35b34801561148657600080fd5b506114b36004803603602081101561149d57600080fd5b8101908080359060200190929190505050613f48565b005b3480156114c157600080fd5b50611504600480360360208110156114d857600080fd5b81019080803573ffffffffffffffffffffffffffffffffffffffff16906020019092919050505061432f565b6040518080602001828103825283818151815260200191508051906020019080838360005b83811015611544578082015181840152602081019050611529565b50505050905090810190601f1680156115715780820380516001836020036101000a031916815260200191505b509250505060405180910390f35b34801561158b57600080fd5b506115b8600480360360208110156115a257600080fd5b8101908080359060200190929190505050614497565b604051808260028111156115c857fe5b60ff16815260200191505060405180910390f35b3480156115e857600080fd5b5061161f600480360360408110156115ff57600080fd5b81019080803590602001909291908035906020019092919050505061453d565b005b34801561162d57600080fd5b506116706004803603602081101561164457600080fd5b81019080803573ffffffffffffffffffffffffffffffffffffffff16906020019092919050505061462a565b6040518080602001828103825283818151815260200191508051906020019080838360005b838110156116b0578082015181840152602081019050611695565b50505050905090810190601f1680156116dd5780820380516001836020036101000a031916815260200191505b509250505060405180910390f35b3480156116f757600080fd5b506117246004803603602081101561170e57600080fd5b81019080803590602001909291905050506147ef565b6040518082815260200191505060405180910390f35b34801561174657600080fd5b506117896004803603602081101561175d57600080fd5b81019080803573ffffffffffffffffffffffffffffffffffffffff169060200190929190505050614888565b6040518080602001828103825283818151815260200191508051906020019080838360005b838110156117c95780820151818401526020810190506117ae565b50505050905090810190601f1680156117f65780820380516001836020036101000a031916815260200191505b509250505060405180910390f35b34801561181057600080fd5b506118536004803603602081101561182757600080fd5b81019080803573ffffffffffffffffffffffffffffffffffffffff169060200190929190505050614a4d565b6040518080602001828103825283818151815260200191508051906020019080838360005b83811015611893578082015181840152602081019050611878565b50505050905090810190601f1680156118c05780820380516001836020036101000a031916815260200191505b509250505060405180910390f35b3480156118da57600080fd5b5061191d600480360360208110156118f157600080fd5b81019080803573ffffffffffffffffffffffffffffffffffffffff169060200190929190505050614c12565b6040518082600281111561192d57fe5b60ff16815260200191505060405180910390f35b34801561194d57600080fd5b5061197a6004803603602081101561196457600080fd5b8101908080359060200190929190505050614d4c565b005b34801561198857600080fd5b5061199161513a565b6040518082815260200191505060405180910390f35b3480156119b357600080fd5b506119e0600480360360208110156119ca57600080fd5b81019080803590602001909291905050506151b1565b604051808273ffffffffffffffffffffffffffffffffffffffff1673ffffffffffffffffffffffffffffffffffffffff16815260200191505060405180910390f35b348015611a2e57600080fd5b50611a5b60048036036020811015611a4557600080fd5b810190808035906020019092919050505061526a565b005b348015611a6957600080fd5b50611aac60048036036020811015611a8057600080fd5b81019080803573ffffffffffffffffffffffffffffffffffffffff169060200190929190505050615357565b6040518080602001828103825283818151815260200191508051906020019080838360005b83811015611aec578082015181840152602081019050611ad1565b50505050905090810190601f168015611b195780820380516001836020036101000a031916815260200191505b509250505060405180910390f35b348015611b3357600080fd5b50611b6060048036036020811015611b4a57600080fd5b810190808035906020019092919050505061551c565b6040518082815260200191505060405180910390f35b348015611b8257600080fd5b50611baf60048036036020811015611b9957600080fd5b81019080803590602001909291905050506155b5565b604051808215151515815260200191505060405180910390f35b348015611bd557600080fd5b50611c0260048036036020811015611bec57600080fd5b8101908080359060200190929190505050615684565b6040518082815260200191505060405180910390f35b600060011515600560008473ffffffffffffffffffffffffffffffffffffffff1673ffffffffffffffffffffffffffffffffffffffff16815260200190815260200160002060009054906101000a900460ff161515141515611ce2576040517f08c379a00000000000000000000000000000000000000000000000000000000081526004018080602001828103825260208152602001807f41646472657373206e6f74206f776e6572206f6620616e79206368617269747981525060200191505060405180910390fd5b6000600360008473ffffffffffffffffffffffffffffffffffffffff1673ffffffffffffffffffffffffffffffffffffffff16815260200190815260200160002054905080915050919050565b6000806000905060008090505b600654811015611d9d57600280811115611d5257fe5b6002600083815260200190815260200160002060070160009054906101000a900460ff166002811115611d8157fe5b1415611d905781806001019250505b8080600101915050611d3c565b508091505090565b606060095482101515611e20576040517f08c379a00000000000000000000000000000000000000000000000000000000081526004018080602001828103825260138152602001807f496e76616c69642063616d706169676e2069640000000000000000000000000081525060200191505060405180910390fd5b600860008381526020019081526020016000206002018054600181600116156101000203166002900480601f016020809104026020016040519081016040528092919081815260200182805460018160011615610100020316600290048015611eca5780601f10611e9f57610100808354040283529160200191611eca565b820191906000526020600020905b815481529060010190602001808311611ead57829003601f168201915b50505050509050919050565b6000806000905060008090505b600654811015611f455760006002811115611efa57fe5b6002600083815260200190815260200160002060070160009054906101000a900460ff166002811115611f2957fe5b1415611f385781806001019250505b8080600101915050611ee3565b508091505090565b606060065482101515611fc8576040517f08c379a00000000000000000000000000000000000000000000000000000000081526004018080602001828103825260128152602001807f496e76616c69642063686172697479206964000000000000000000000000000081525060200191505060405180910390fd5b600260008381526020019081526020016000206005018054600181600116156101000203166002900480601f0160208091040260200160405190810160405280929190818152602001828054600181600116156101000203166002900480156120725780601f1061204757610100808354040283529160200191612072565b820191906000526020600020905b81548152906001019060200180831161205557829003601f168201915b50505050509050919050565b336000809054906101000a900473ffffffffffffffffffffffffffffffffffffffff1673ffffffffffffffffffffffffffffffffffffffff168173ffffffffffffffffffffffffffffffffffffffff16141515612143576040517f08c379a000000000000000000000000000000000000000000000000000000000815260040180806020018281038252601c8152602001807f43616c6c6572206973206e6f7420636f6e7472616374206f776e65720000000081525060200191505060405180910390fd5b6000809054906101000a900473ffffffffffffffffffffffffffffffffffffffff1673ffffffffffffffffffffffffffffffffffffffff163373ffffffffffffffffffffffffffffffffffffffff16141515612207576040517f08c379a000000000000000000000000000000000000000000000000000000000815260040180806020018281038252601c8152602001807f43616c6c6572206973206e6f7420636f6e7472616374206f776e65720000000081525060200191505060405180910390fd5b60065482101515612280576040517f08c379a00000000000000000000000000000000000000000000000000000000081526004018080602001828103825260128152602001807f496e76616c69642063686172697479206964000000000000000000000000000081525060200191505060405180910390fd5b6001600281111561228d57fe5b6002600084815260200190815260200160002060070160009054906101000a900460ff1660028111156122bc57fe5b141515612357576040517f08c379a00000000000000000000000000000000000000000000000000000000081526004018080602001828103825260218152602001807f43686172697479206973206e6f7420612076657269666965642063686172697481526020017f790000000000000000000000000000000000000000000000000000000000000081525060400191505060405180910390fd5b600115156001600084815260200190815260200160002060009054906101000a900460ff1615151415156123f3576040517f08c379a00000000000000000000000000000000000000000000000000000000081526004018080602001828103825260198152602001807f4368617269747920686173206265656e2076657269666965640000000000000081525060200191505060405180910390fd5b600280600084815260200190815260200160002060070160006101000a81548160ff0219169083600281111561242557fe5b02179055507f0c3e8a5dc7b4dae9b9bacc0f229ddf9e8ff1a86a106b83477dfe72f4cda87f71826040518082815260200191505060405180910390a15050565b606060011515600560008473ffffffffffffffffffffffffffffffffffffffff1673ffffffffffffffffffffffffffffffffffffffff16815260200190815260200160002060009054906101000a900460ff16151514151561252f576040517f08c379a00000000000000000000000000000000000000000000000000000000081526004018080602001828103825260208152602001807f41646472657373206e6f74206f776e6572206f6620616e79206368617269747981525060200191505060405180910390fd5b6000600360008473ffffffffffffffffffffffffffffffffffffffff1673ffffffffffffffffffffffffffffffffffffffff168152602001908152602001600020549050600260008281526020019081526020016000206006018054600181600116156101000203166002900480601f01602080910402602001604051908101604052809291908181526020018280546001816001161561010002031660029004801561261d5780601f106125f25761010080835404028352916020019161261d565b820191906000526020600020905b81548152906001019060200180831161260057829003601f168201915b5050505050915050919050565b6000801515600560003373ffffffffffffffffffffffffffffffffffffffff1673ffffffffffffffffffffffffffffffffffffffff16815260200190815260200160002060009054906101000a900460ff161515141515612719576040517f08c379a00000000000000000000000000000000000000000000000000000000081526004018080602001828103825260338152602001807f54686973206164647265737320686173207265676973746572656420616e6f7481526020017f686572206368617269747920616c72656164790000000000000000000000000081525060400191505060405180910390fd5b6006600081548092919060010191905055905061273461571d565b610100604051908101604052803373ffffffffffffffffffffffffffffffffffffffff168152602001888152602001878152602001868152602001858152602001848152602001602060405190810160405280600081525081526020016000600281111561279e57fe5b8152509050806002600084815260200190815260200160002060008201518160000160006101000a81548173ffffffffffffffffffffffffffffffffffffffff021916908373ffffffffffffffffffffffffffffffffffffffff160217905550602082015181600101908051906020019061281a929190615784565b506040820151816002019080519060200190612837929190615784565b506060820151816003019080519060200190612854929190615784565b506080820151816004019080519060200190612871929190615784565b5060a082015181600501908051906020019061288e929190615784565b5060c08201518160060190805190602001906128ab929190615784565b5060e08201518160070160006101000a81548160ff021916908360028111156128d057fe5b021790555090505081600360003373ffffffffffffffffffffffffffffffffffffffff1673ffffffffffffffffffffffffffffffffffffffff1681526020019081526020016000208190555060006001600084815260200190815260200160002060006101000a81548160ff0219169083151502179055506001600560003373ffffffffffffffffffffffffffffffffffffffff1673ffffffffffffffffffffffffffffffffffffffff16815260200190815260200160002060006101000a81548160ff0219169083151502179055507f2818bce8f12afdd5c38fb751b1b8b1ce1580ad9686c8ac779489a38df94a6600826040518082815260200191505060405180910390a18191505095945050505050565b600060095482101515612a5f576040517f08c379a00000000000000000000000000000000000000000000000000000000081526004018080602001828103825260138152602001807f496e76616c69642063616d706169676e2069640000000000000000000000000081525060200191505060405180910390fd5b60086000838152602001908152602001600020600401549050919050565b6000600954905090565b60003360016000600360008473ffffffffffffffffffffffffffffffffffffffff1673ffffffffffffffffffffffffffffffffffffffff16815260200190815260200160002054815260200190815260200160002060009054906101000a900460ff161515612b5e576040517f08c379a000000000000000000000000000000000000000000000000000000000815260040180806020018281038252601d8152602001807f43616c6c6572206973206e6f7420612076616c6964206368617269747900000081525060200191505060405180910390fd5b600960008154809291906001019190505591506000600360003373ffffffffffffffffffffffffffffffffffffffff1673ffffffffffffffffffffffffffffffffffffffff168152602001908152602001600020549050612bbd615804565b610140604051908101604052808381526020018b81526020018a8152602001898152602001888152602001600081526020016000815260200187815260200186815260200160006001811115612c0f57fe5b81525090508060086000868152602001908152602001600020600082015181600001556020820151816001019080519060200190612c4e929190615784565b506040820151816002019080519060200190612c6b929190615784565b506060820151816003019080519060200190612c88929190615784565b506080820151816004015560a0820151816005015560c0820151816006015560e0820151816007015561010082015181600801556101208201518160090160006101000a81548160ff02191690836001811115612ce157fe5b021790555090505060016007600086815260200190815260200160002060006101000a81548160ff0219169083151502179055507f43ff46a4179f4c55f80d6329f38d2f16f0f6fad7f2e689fe51362d0ee5cd05b58285604051808381526020018281526020019250505060405180910390a18393505050509695505050505050565b6000600654905090565b600060095482101515612de9576040517f08c379a00000000000000000000000000000000000000000000000000000000081526004018080602001828103825260138152602001807f496e76616c69642063616d706169676e2069640000000000000000000000000081525060200191505060405180910390fd5b60086000838152602001908152602001600020600601549050919050565b60008060009054906101000a900473ffffffffffffffffffffffffffffffffffffffff16905090565b606060011515600560008473ffffffffffffffffffffffffffffffffffffffff1673ffffffffffffffffffffffffffffffffffffffff16815260200190815260200160002060009054906101000a900460ff161515141515612efa576040517f08c379a00000000000000000000000000000000000000000000000000000000081526004018080602001828103825260208152602001807f41646472657373206e6f74206f776e6572206f6620616e79206368617269747981525060200191505060405180910390fd5b6000600360008473ffffffffffffffffffffffffffffffffffffffff1673ffffffffffffffffffffffffffffffffffffffff168152602001908152602001600020549050600260008281526020019081526020016000206003018054600181600116156101000203166002900480601f016020809104026020016040519081016040528092919081815260200182805460018160011615610100020316600290048015612fe85780601f10612fbd57610100808354040283529160200191612fe8565b820191906000526020600020905b815481529060010190602001808311612fcb57829003601f168201915b5050505050915050919050565b6000806000905060008090505b600954811015613070578360086000838152602001908152602001600020600001541480156130555750600015156007600083815260200190815260200160002060009054906101000a900460ff161515145b156130635781806001019250505b8080600101915050613002565b5080915050919050565b6060600954821015156130f5576040517f08c379a00000000000000000000000000000000000000000000000000000000081526004018080602001828103825260138152602001807f496e76616c69642063616d706169676e2069640000000000000000000000000081525060200191505060405180910390fd5b600860008381526020019081526020016000206003018054600181600116156101000203166002900480601f01602080910402602001604051908101604052809291908181526020018280546001816001161561010002031660029004801561319f5780601f106131745761010080835404028352916020019161319f565b820191906000526020600020905b81548152906001019060200180831161318257829003601f168201915b50505050509050919050565b60006009548210156131c057600190506131c5565b600090505b919050565b606060095482101515613245576040517f08c379a00000000000000000000000000000000000000000000000000000000081526004018080602001828103825260138152602001807f496e76616c69642063616d706169676e2069640000000000000000000000000081525060200191505060405180910390fd5b600860008381526020019081526020016000206001018054600181600116156101000203166002900480601f0160208091040260200160405190810160405280929190818152602001828054600181600116156101000203166002900480156132ef5780601f106132c4576101008083540402835291602001916132ef565b820191906000526020600020905b8154815290600101906020018083116132d257829003601f168201915b50505050509050919050565b606060065482101515613376576040517f08c379a00000000000000000000000000000000000000000000000000000000081526004018080602001828103825260128152602001807f496e76616c69642063686172697479206964000000000000000000000000000081525060200191505060405180910390fd5b600260008381526020019081526020016000206003018054600181600116156101000203166002900480601f0160208091040260200160405190810160405280929190818152602001828054600181600116156101000203166002900480156134205780601f106133f557610100808354040283529160200191613420565b820191906000526020600020905b81548152906001019060200180831161340357829003601f168201915b50505050509050919050565b6000600954821015156134a7576040517f08c379a00000000000000000000000000000000000000000000000000000000081526004018080602001828103825260138152602001807f496e76616c69642063616d706169676e2069640000000000000000000000000081525060200191505060405180910390fd5b6008600083815260200190815260200160002060090160009054906101000a900460ff169050919050565b336000809054906101000a900473ffffffffffffffffffffffffffffffffffffffff1673ffffffffffffffffffffffffffffffffffffffff168173ffffffffffffffffffffffffffffffffffffffff16141515613597576040517f08c379a000000000000000000000000000000000000000000000000000000000815260040180806020018281038252601c8152602001807f43616c6c6572206973206e6f7420636f6e7472616374206f776e65720000000081525060200191505060405180910390fd5b6000809054906101000a900473ffffffffffffffffffffffffffffffffffffffff1673ffffffffffffffffffffffffffffffffffffffff163373ffffffffffffffffffffffffffffffffffffffff1614151561365b576040517f08c379a000000000000000000000000000000000000000000000000000000000815260040180806020018281038252601c8152602001807f43616c6c6572206973206e6f7420636f6e7472616374206f776e65720000000081525060200191505060405180910390fd5b600654831015156136d4576040517f08c379a00000000000000000000000000000000000000000000000000000000081526004018080602001828103825260128152602001807f496e76616c69642063686172697479206964000000000000000000000000000081525060200191505060405180910390fd5b600060028111156136e157fe5b6002600085815260200190815260200160002060070160009054906101000a900460ff16600281111561371057fe5b1415156137ab576040517f08c379a00000000000000000000000000000000000000000000000000000000081526004018080602001828103825260258152602001807f4368617269747920686173206265656e207665726966696564206f722072656a81526020017f656374656400000000000000000000000000000000000000000000000000000081525060400191505060405180910390fd5b600015156001600085815260200190815260200160002060009054906101000a900460ff161515141515613847576040517f08c379a00000000000000000000000000000000000000000000000000000000081526004018080602001828103825260198152602001807f4368617269747920686173206265656e2076657269666965640000000000000081525060200191505060405180910390fd5b60016002600085815260200190815260200160002060070160006101000a81548160ff0219169083600281111561387a57fe5b0217905550816002600085815260200190815260200160002060060190805190602001906138a9929190615863565b50600180600085815260200190815260200160002060006101000a81548160ff0219169083151502179055507ffb6ca19fa7c8eeb83b0f44c69164632fc81e6e1b17e2021cf8a905981f3babc2836040518082815260200191505060405180910390a1505050565b60606006548210151561398c576040517f08c379a00000000000000000000000000000000000000000000000000000000081526004018080602001828103825260128152602001807f496e76616c69642063686172697479206964000000000000000000000000000081525060200191505060405180910390fd5b600260008381526020019081526020016000206006018054600181600116156101000203166002900480601f016020809104026020016040519081016040528092919081815260200182805460018160011615610100020316600290048015613a365780601f10613a0b57610100808354040283529160200191613a36565b820191906000526020600020905b815481529060010190602001808311613a1957829003601f168201915b50505050509050919050565b600060095482101515613abd576040517f08c379a00000000000000000000000000000000000000000000000000000000081526004018080602001828103825260138152602001807f496e76616c69642063616d706169676e2069640000000000000000000000000081525060200191505060405180910390fd5b60086000838152602001908152602001600020600001549050919050565b6000806000905060008090505b600954811015613b5657836008600083815260200190815260200160002060000154148015613b3b5750600115156007600083815260200190815260200160002060009054906101000a900460ff161515145b15613b495781806001019250505b8080600101915050613ae8565b5080915050919050565b606060065482101515613bdb576040517f08c379a00000000000000000000000000000000000000000000000000000000081526004018080602001828103825260128152602001807f496e76616c69642063686172697479206964000000000000000000000000000081525060200191505060405180910390fd5b600260008381526020019081526020016000206001018054600181600116156101000203166002900480601f016020809104026020016040519081016040528092919081815260200182805460018160011615610100020316600290048015613c855780601f10613c5a57610100808354040283529160200191613c85565b820191906000526020600020905b815481529060010190602001808311613c6857829003601f168201915b50505050509050919050565b606060065482101515613d0c576040517f08c379a00000000000000000000000000000000000000000000000000000000081526004018080602001828103825260128152602001807f496e76616c69642063686172697479206964000000000000000000000000000081525060200191505060405180910390fd5b600260008381526020019081526020016000206004018054600181600116156101000203166002900480601f016020809104026020016040519081016040528092919081815260200182805460018160011615610100020316600290048015613db65780601f10613d8b57610100808354040283529160200191613db6565b820191906000526020600020905b815481529060010190602001808311613d9957829003601f168201915b50505050509050919050565b6000806000905060008090505b600954811015613e0d578360086000838152602001908152602001600020600001541415613e005781806001019250505b8080600101915050613dcf565b5080915050919050565b606060065482101515613e92576040517f08c379a00000000000000000000000000000000000000000000000000000000081526004018080602001828103825260128152602001807f496e76616c69642063686172697479206964000000000000000000000000000081525060200191505060405180910390fd5b600260008381526020019081526020016000206002018054600181600116156101000203166002900480601f016020809104026020016040519081016040528092919081815260200182805460018160011615610100020316600290048015613f3c5780601f10613f1157610100808354040283529160200191613f3c565b820191906000526020600020905b815481529060010190602001808311613f1f57829003601f168201915b50505050509050919050565b336000809054906101000a900473ffffffffffffffffffffffffffffffffffffffff1673ffffffffffffffffffffffffffffffffffffffff168173ffffffffffffffffffffffffffffffffffffffff1614151561400d576040517f08c379a000000000000000000000000000000000000000000000000000000000815260040180806020018281038252601c8152602001807f43616c6c6572206973206e6f7420636f6e7472616374206f776e65720000000081525060200191505060405180910390fd5b6000809054906101000a900473ffffffffffffffffffffffffffffffffffffffff1673ffffffffffffffffffffffffffffffffffffffff163373ffffffffffffffffffffffffffffffffffffffff161415156140d1576040517f08c379a000000000000000000000000000000000000000000000000000000000815260040180806020018281038252601c8152602001807f43616c6c6572206973206e6f7420636f6e7472616374206f776e65720000000081525060200191505060405180910390fd5b6006548210151561414a576040517f08c379a00000000000000000000000000000000000000000000000000000000081526004018080602001828103825260128152602001807f496e76616c69642063686172697479206964000000000000000000000000000081525060200191505060405180910390fd5b6000600281111561415757fe5b6002600084815260200190815260200160002060070160009054906101000a900460ff16600281111561418657fe5b141515614221576040517f08c379a00000000000000000000000000000000000000000000000000000000081526004018080602001828103825260258152602001807f4368617269747920686173206265656e207665726966696564206f722072656a81526020017f656374656400000000000000000000000000000000000000000000000000000081525060400191505060405180910390fd5b600015156001600084815260200190815260200160002060009054906101000a900460ff1615151415156142bd576040517f08c379a00000000000000000000000000000000000000000000000000000000081526004018080602001828103825260198152602001807f4368617269747920686173206265656e2076657269666965640000000000000081525060200191505060405180910390fd5b600280600084815260200190815260200160002060070160006101000a81548160ff021916908360028111156142ef57fe5b02179055507f96c57c4107d5e1b286da221e7c1bfebf23c6bb63fe29777a22645ca9ff8ef04a826040518082815260200191505060405180910390a15050565b60606000809054906101000a900473ffffffffffffffffffffffffffffffffffffffff1673ffffffffffffffffffffffffffffffffffffffff168273ffffffffffffffffffffffffffffffffffffffff1614156143c3576040805190810160405280600881526020017f434f4e54524143540000000000000000000000000000000000000000000000008152509050614492565b60011515600560008473ffffffffffffffffffffffffffffffffffffffff1673ffffffffffffffffffffffffffffffffffffffff16815260200190815260200160002060009054906101000a900460ff1615151415614459576040805190810160405280600c81526020017f434841524954594f574e455200000000000000000000000000000000000000008152509050614492565b6040805190810160405280600581526020017f444f4e4f5200000000000000000000000000000000000000000000000000000081525090505b919050565b600060065482101515614512576040517f08c379a00000000000000000000000000000000000000000000000000000000081526004018080602001828103825260128152602001807f496e76616c69642063686172697479206964000000000000000000000000000081525060200191505060405180910390fd5b6002600083815260200190815260200160002060070160009054906101000a900460ff169050919050565b600954821015156145b6576040517f08c379a00000000000000000000000000000000000000000000000000000000081526004018080602001828103825260138152602001807f496e76616c69642063616d706169676e2069640000000000000000000000000081525060200191505060405180910390fd5b60008160086000858152602001908152602001600020600501540190508060086000858152602001908152602001600020600501819055507fdccc5359108539a6edac03c5abafcdf18642f761cd87a8bd181ff92fbc6121b3816040518082815260200191505060405180910390a1505050565b606060011515600560008473ffffffffffffffffffffffffffffffffffffffff1673ffffffffffffffffffffffffffffffffffffffff16815260200190815260200160002060009054906101000a900460ff1615151415156146f4576040517f08c379a00000000000000000000000000000000000000000000000000000000081526004018080602001828103825260208152602001807f41646472657373206e6f74206f776e6572206f6620616e79206368617269747981525060200191505060405180910390fd5b6000600360008473ffffffffffffffffffffffffffffffffffffffff1673ffffffffffffffffffffffffffffffffffffffff168152602001908152602001600020549050600260008281526020019081526020016000206002018054600181600116156101000203166002900480601f0160208091040260200160405190810160405280929190818152602001828054600181600116156101000203166002900480156147e25780601f106147b7576101008083540402835291602001916147e2565b820191906000526020600020905b8154815290600101906020018083116147c557829003601f168201915b5050505050915050919050565b60006009548210151561486a576040517f08c379a00000000000000000000000000000000000000000000000000000000081526004018080602001828103825260138152602001807f496e76616c69642063616d706169676e2069640000000000000000000000000081525060200191505060405180910390fd5b60086000838152602001908152602001600020600701549050919050565b606060011515600560008473ffffffffffffffffffffffffffffffffffffffff1673ffffffffffffffffffffffffffffffffffffffff16815260200190815260200160002060009054906101000a900460ff161515141515614952576040517f08c379a00000000000000000000000000000000000000000000000000000000081526004018080602001828103825260208152602001807f41646472657373206e6f74206f776e6572206f6620616e79206368617269747981525060200191505060405180910390fd5b6000600360008473ffffffffffffffffffffffffffffffffffffffff1673ffffffffffffffffffffffffffffffffffffffff168152602001908152602001600020549050600260008281526020019081526020016000206001018054600181600116156101000203166002900480601f016020809104026020016040519081016040528092919081815260200182805460018160011615610100020316600290048015614a405780601f10614a1557610100808354040283529160200191614a40565b820191906000526020600020905b815481529060010190602001808311614a2357829003601f168201915b5050505050915050919050565b606060011515600560008473ffffffffffffffffffffffffffffffffffffffff1673ffffffffffffffffffffffffffffffffffffffff16815260200190815260200160002060009054906101000a900460ff161515141515614b17576040517f08c379a00000000000000000000000000000000000000000000000000000000081526004018080602001828103825260208152602001807f41646472657373206e6f74206f776e6572206f6620616e79206368617269747981525060200191505060405180910390fd5b6000600360008473ffffffffffffffffffffffffffffffffffffffff1673ffffffffffffffffffffffffffffffffffffffff168152602001908152602001600020549050600260008281526020019081526020016000206004018054600181600116156101000203166002900480601f016020809104026020016040519081016040528092919081815260200182805460018160011615610100020316600290048015614c055780601f10614bda57610100808354040283529160200191614c05565b820191906000526020600020905b815481529060010190602001808311614be857829003601f168201915b5050505050915050919050565b600060011515600560008473ffffffffffffffffffffffffffffffffffffffff1673ffffffffffffffffffffffffffffffffffffffff16815260200190815260200160002060009054906101000a900460ff161515141515614cdc576040517f08c379a00000000000000000000000000000000000000000000000000000000081526004018080602001828103825260208152602001807f41646472657373206e6f74206f776e6572206f6620616e79206368617269747981525060200191505060405180910390fd5b6000600360008473ffffffffffffffffffffffffffffffffffffffff1673ffffffffffffffffffffffffffffffffffffffff1681526020019081526020016000205490506002600082815260200190815260200160002060070160009054906101000a900460ff16915050919050565b3360016000600360008473ffffffffffffffffffffffffffffffffffffffff1673ffffffffffffffffffffffffffffffffffffffff16815260200190815260200160002054815260200190815260200160002060009054906101000a900460ff161515614e21576040517f08c379a000000000000000000000000000000000000000000000000000000000815260040180806020018281038252601d8152602001807f43616c6c6572206973206e6f7420612076616c6964206368617269747900000081525060200191505060405180910390fd5b60095482101515614e9a576040517f08c379a00000000000000000000000000000000000000000000000000000000081526004018080602001828103825260138152602001807f496e76616c69642063616d706169676e2069640000000000000000000000000081525060200191505060405180910390fd5b6007600083815260200190815260200160002060009054906101000a900460ff161515614f2f576040517f08c379a00000000000000000000000000000000000000000000000000000000081526004018080602001828103825260178152602001807f43616d706169676e206973206e6f74206f6e676f696e6700000000000000000081525060200191505060405180910390fd5b600260006008600085815260200190815260200160002060000154815260200190815260200160002060000160009054906101000a900473ffffffffffffffffffffffffffffffffffffffff1673ffffffffffffffffffffffffffffffffffffffff163373ffffffffffffffffffffffffffffffffffffffff16148061500157506000809054906101000a900473ffffffffffffffffffffffffffffffffffffffff1673ffffffffffffffffffffffffffffffffffffffff163373ffffffffffffffffffffffffffffffffffffffff16145b151561509b576040517f08c379a000000000000000000000000000000000000000000000000000000000815260040180806020018281038252602b8152602001807f43616c6c6572206973206e6f7420617574686f72697a656420666f722074686981526020017f73206f7065726174696f6e00000000000000000000000000000000000000000081525060400191505060405180910390fd5b60016008600084815260200190815260200160002060090160006101000a81548160ff021916908360018111156150ce57fe5b021790555060006007600084815260200190815260200160002060006101000a81548160ff0219169083151502179055507f8d0449d6fed7183f55f431e23867be7d8553beb7dc2e0844821c9c951a59ca52826040518082815260200191505060405180910390a15050565b6000806000905060008090505b6006548110156151a9576001600281111561515e57fe5b6002600083815260200190815260200160002060070160009054906101000a900460ff16600281111561518d57fe5b141561519c5781806001019250505b8080600101915050615147565b508091505090565b60006006548210151561522c576040517f08c379a00000000000000000000000000000000000000000000000000000000081526004018080602001828103825260128152602001807f496e76616c69642063686172697479206964000000000000000000000000000081525060200191505060405180910390fd5b6002600083815260200190815260200160002060000160009054906101000a900473ffffffffffffffffffffffffffffffffffffffff169050919050565b600954811015156152e3576040517f08c379a00000000000000000000000000000000000000000000000000000000081526004018080602001828103825260138152602001807f496e76616c69642063616d706169676e2069640000000000000000000000000081525060200191505060405180910390fd5b6000600160086000848152602001908152602001600020600601540190508060086000848152602001908152602001600020600601819055507f9c80f0e1f03145d2a9703bfa3a9b71624ac4aa74a383648a0dcd84a303a622ec816040518082815260200191505060405180910390a15050565b606060011515600560008473ffffffffffffffffffffffffffffffffffffffff1673ffffffffffffffffffffffffffffffffffffffff16815260200190815260200160002060009054906101000a900460ff161515141515615421576040517f08c379a00000000000000000000000000000000000000000000000000000000081526004018080602001828103825260208152602001807f41646472657373206e6f74206f776e6572206f6620616e79206368617269747981525060200191505060405180910390fd5b6000600360008473ffffffffffffffffffffffffffffffffffffffff1673ffffffffffffffffffffffffffffffffffffffff168152602001908152602001600020549050600260008281526020019081526020016000206005018054600181600116156101000203166002900480601f01602080910402602001604051908101604052809291908181526020018280546001816001161561010002031660029004801561550f5780601f106154e45761010080835404028352916020019161550f565b820191906000526020600020905b8154815290600101906020018083116154f257829003601f168201915b5050505050915050919050565b600060095482101515615597576040517f08c379a00000000000000000000000000000000000000000000000000000000081526004018080602001828103825260138152602001807f496e76616c69642063616d706169676e2069640000000000000000000000000081525060200191505060405180910390fd5b60086000838152602001908152602001600020600501549050919050565b600060095482101515615630576040517f08c379a00000000000000000000000000000000000000000000000000000000081526004018080602001828103825260138152602001807f496e76616c69642063616d706169676e2069640000000000000000000000000081525060200191505060405180910390fd5b60018081111561563c57fe5b6008600084815260200190815260200160002060090160009054906101000a900460ff16600181111561566b57fe5b141561567a576001905061567f565b600090505b919050565b6000600954821015156156ff576040517f08c379a00000000000000000000000000000000000000000000000000000000081526004018080602001828103825260138152602001807f496e76616c69642063616d706169676e2069640000000000000000000000000081525060200191505060405180910390fd5b60086000838152602001908152602001600020600801549050919050565b61010060405190810160405280600073ffffffffffffffffffffffffffffffffffffffff1681526020016060815260200160608152602001606081526020016060815260200160608152602001606081526020016000600281111561577e57fe5b81525090565b828054600181600116156101000203166002900490600052602060002090601f016020900481019282601f106157c557805160ff19168380011785556157f3565b828001600101855582156157f3579182015b828111156157f25782518255916020019190600101906157d7565b5b50905061580091906158e3565b5090565b610140604051908101604052806000815260200160608152602001606081526020016060815260200160008152602001600081526020016000815260200160008152602001600081526020016000600181111561585d57fe5b81525090565b828054600181600116156101000203166002900490600052602060002090601f016020900481019282601f106158a457805160ff19168380011785556158d2565b828001600101855582156158d2579182015b828111156158d15782518255916020019190600101906158b6565b5b5090506158df91906158e3565b5090565b61590591905b808211156159015760008160009055506001016158e9565b5090565b9056fea165627a7a7230582072172cf83e8cb0194268ee122d496434ac554c5af4d25df311139dacb6cfa90a0029",
  "source": "pragma solidity ^0.5.0;\n\ncontract Charity {\n    enum CharityStatus {UNVERIFIED, VERIFIED, REJECTED}\n\n    enum CampaignStatus {ONGOING, ENDED}\n\n    struct charity {\n        address charityOwner;\n        string charityName;\n        string charityAddress;\n        string contactNumber;\n        string description;\n        string pictureURL;\n        string verificationLink;\n        CharityStatus charityStatus;\n    }\n\n    struct campaign {\n        uint256 charityId;\n        string campaignName;\n        string description;\n        string pictureURL;\n        uint256 targetDonation;\n        uint256 currentDonation;\n        uint256 noOfDonors;\n        uint256 startDate;\n        uint256 endDate;\n        CampaignStatus campaignStatus;\n    }\n\n    address contractOwner = msg.sender;\n    //uint[] charitiesPendingVerification;\n    mapping(uint256 => bool) isVerifiedCharity;\n    mapping(uint256 => charity) charities;\n    mapping(address => uint256) charityAddressIdMap;\n    mapping(address => charity) charityAddressMap;\n    mapping(address => bool) charityOwnerRegistered;\n    uint256 noOfCharities = 0;\n\n    //uint[] ongoingCampaigns;\n    mapping(uint256 => bool) isOngoingCampaign;\n    mapping(uint256 => campaign) campaigns;\n    uint256 noOfCampaigns = 0;\n\n    event charityRegistered(uint256 charityId);\n    event charityVerified(uint256 charityId);\n    event charityRejected(uint256 charityId);\n    event charityRevoked(uint256 charityId);\n    event campaignCreated(uint256 charityId, uint256 campaignId);\n    event campaignEnded(uint256 campaignId);\n    event updateCurrentDonation(uint256 newAmount);\n    event updateCampaignDonors(uint256 newNumber);\n\n    modifier onlyOwner(address caller) {\n        require(caller == contractOwner, \"Caller is not contract owner\");\n        _;\n    }\n\n    // This will be the modifier that checks whether the function call is done by the Charity itself.\n    modifier onlyVerifiedCharity(address caller) {\n        require(\n            isVerifiedCharity[charityAddressIdMap[caller]],\n            \"Caller is not a valid charity\"\n        );\n        _;\n    }\n\n    /*\n     * This will be the function that check the address type\n     * Parameters of this function will include address inputAddress\n     * This function assumes all input address are either contract, charity, or donor\n     */\n    function checkAddressType(address inputAddress)\n        public\n        view\n        returns (string memory)\n    {\n        if (inputAddress == contractOwner) {\n            return \"CONTRACT\";\n        } else if (charityOwnerRegistered[inputAddress] == true) {\n            return \"CHARITYOWNER\";\n        } else {\n            return \"DONOR\";\n        }\n    }\n\n    function registerCharity(\n        string memory charityName,\n        string memory charityAddress,\n        string memory contactNumber,\n        string memory description,\n        string memory pictureURL\n    ) public returns (uint256 charityId) {\n        /*require(charityName != \"Charity name cannot be empty\");\n    require(charityAddress != \"Charity address cannot be empty\");\n    require(contactNumber != \"Charity number cannot be empty\");\n    require(description != \"Description cannot be empty\");\n    require(pictureURL != \"Picture URL cannot be empty\");*/\n        require(\n            charityOwnerRegistered[msg.sender] == false,\n            \"This address has registered another charity already\"\n        );\n\n        charityId = noOfCharities++;\n        charity memory newCharity =\n            charity(\n                msg.sender,\n                charityName,\n                charityAddress,\n                contactNumber,\n                description,\n                pictureURL,\n                \"\",\n                CharityStatus.UNVERIFIED\n            );\n        charities[charityId] = newCharity;\n        charityAddressIdMap[msg.sender] = charityId;\n        isVerifiedCharity[charityId] = false;\n        charityOwnerRegistered[msg.sender] = true;\n        emit charityRegistered(charityId);\n        // charitiesPendingVerification.push(charityId);\n        return charityId;\n    }\n\n    function verifyCharity(uint256 charityId, string memory verificationLink)\n        public\n        onlyOwner(msg.sender)\n    {\n        require(msg.sender == contractOwner, \"Caller is not contract owner\");\n        require(charityId < noOfCharities, \"Invalid charity id\");\n        require(\n            charities[charityId].charityStatus == CharityStatus.UNVERIFIED,\n            \"Charity has been verified or rejected\"\n        );\n        require(\n            isVerifiedCharity[charityId] == false,\n            \"Charity has been verified\"\n        );\n\n        charities[charityId].charityStatus = CharityStatus.VERIFIED;\n        charities[charityId].verificationLink = verificationLink;\n        isVerifiedCharity[charityId] = true;\n        emit charityVerified(charityId);\n        // remove charity from charitiesPendingVerification[]\n    }\n\n    function rejectCharity(uint256 charityId) public onlyOwner(msg.sender) {\n        require(msg.sender == contractOwner, \"Caller is not contract owner\");\n        require(charityId < noOfCharities, \"Invalid charity id\");\n        require(\n            charities[charityId].charityStatus == CharityStatus.UNVERIFIED,\n            \"Charity has been verified or rejected\"\n        );\n        require(\n            isVerifiedCharity[charityId] == false,\n            \"Charity has been verified\"\n        );\n\n        charities[charityId].charityStatus = CharityStatus.REJECTED;\n        emit charityRejected(charityId);\n        // remove charity from charitiesPendingVerification[]\n    }\n\n    function revokeCharity(uint256 charityId) public onlyOwner(msg.sender) {\n        require(msg.sender == contractOwner, \"Caller is not contract owner\");\n        require(charityId < noOfCharities, \"Invalid charity id\");\n        require(\n            charities[charityId].charityStatus == CharityStatus.VERIFIED,\n            \"Charity is not a verified charity\"\n        );\n        require(\n            isVerifiedCharity[charityId] == true,\n            \"Charity has been verified\"\n        );\n\n        charities[charityId].charityStatus = CharityStatus.REJECTED;\n        emit charityRevoked(charityId);\n    }\n\n    /*\n     * This will be the function that charities call to create a campaign.\n     * Parameters of this function will include uint targetDonation (of the campaign), uint startDate (of the campaign), uint endDate (of the campaign)\n     */\n    function createCampaign(\n        string memory campaignName,\n        string memory description,\n        string memory pictureURL,\n        uint256 targetDonation,\n        uint256 startDate,\n        uint256 endDate\n    ) public onlyVerifiedCharity(msg.sender) returns (uint256 campaignId) {\n        /*require(campaignName != \"Charity name cannot be empty\");\n    require(description != \"Description cannot be empty\");\n    require(pictureURL != \"Picture URL cannot be empty\");\n    require(targetDonation > 0, \"Target donation must be larger than 0\");\n    require(startDate < endDate, \"Start date must be earlier than end date\");*/\n\n        campaignId = noOfCampaigns++;\n        uint256 charityId = charityAddressIdMap[msg.sender];\n        campaign memory newCampaign =\n            campaign(\n                charityId,\n                campaignName,\n                description,\n                pictureURL,\n                targetDonation,\n                0,\n                0,\n                startDate,\n                endDate,\n                CampaignStatus.ONGOING\n            );\n        campaigns[campaignId] = newCampaign;\n        // ongoingCampaigns.push(campaignId);\n        isOngoingCampaign[campaignId] = true;\n        emit campaignCreated(charityId, campaignId);\n        return campaignId;\n    }\n\n    /*\n     *\n     * This will be the function that charities call to end an ongoing campaign.\n     * Parameters of this function will include uint campaignId\n     */\n    function endCampaign(uint256 campaignId)\n        public\n        onlyVerifiedCharity(msg.sender)\n    {\n        require(campaignId < noOfCampaigns, \"Invalid campaign id\");\n        require(isOngoingCampaign[campaignId], \"Campaign is not ongoing\");\n        require(\n            msg.sender ==\n                charities[campaigns[campaignId].charityId].charityOwner ||\n                msg.sender == contractOwner,\n            \"Caller is not authorized for this operation\"\n        );\n\n        campaigns[campaignId].campaignStatus = CampaignStatus.ENDED;\n        isOngoingCampaign[campaignId] = false;\n        emit campaignEnded(campaignId);\n        // remove campaign from ongoingCampaigns[]\n    }\n\n    /*\n     * This will be the getter function that everyone can call to check the charity address.\n     * Parameters of this function will include uint charityId\n     */\n    function getCharityOwner(uint256 charityId) public view returns (address) {\n        require(charityId < noOfCharities, \"Invalid charity id\");\n        return charities[charityId].charityOwner;\n    }\n\n    /*\n     * This will be the getter function that everyone can call to check the charity id.\n     * Parameters of this function will include address inputAddress\n     */\n    function getCharityIdByAddress(address inputAddress)\n        public\n        view\n        returns (uint256)\n    {\n        require(\n            charityOwnerRegistered[inputAddress] == true,\n            \"Address not owner of any charity\"\n        );\n        uint256 charityIdByAddress = charityAddressIdMap[inputAddress];\n        return charityIdByAddress;\n    }\n\n    /*\n     * This will be the getter function that everyone can call to check the charity name.\n     * Parameters of this function will include uint charityId\n     */\n    function getCharityName(uint256 charityId)\n        public\n        view\n        returns (string memory)\n    {\n        require(charityId < noOfCharities, \"Invalid charity id\");\n        return charities[charityId].charityName;\n    }\n\n    /*\n     * This will be the getter function that everyone can call to check the charity name.\n     * Parameters of this function will include address inputAddress\n     */\n    function getCharityNameByAddress(address inputAddress)\n        public\n        view\n        returns (string memory)\n    {\n        require(\n            charityOwnerRegistered[inputAddress] == true,\n            \"Address not owner of any charity\"\n        );\n        uint256 charityIdByAddress = charityAddressIdMap[inputAddress];\n        return charities[charityIdByAddress].charityName;\n    }\n\n    /*\n     * This will be the getter function that everyone can call to check the charity pictureURL.\n     * Parameters of this function will include uint charityId\n     */\n    function getCharityPictureURL(uint256 charityId)\n        public\n        view\n        returns (string memory)\n    {\n        require(charityId < noOfCharities, \"Invalid charity id\");\n        return charities[charityId].pictureURL;\n    }\n\n    /*\n     * This will be the getter function that everyone can call to check the charity pictureURL.\n     * Parameters of this function will include uint charityId\n     */\n    function getCharityPictureURLByAddress(address inputAddress)\n        public\n        view\n        returns (string memory)\n    {\n        require(\n            charityOwnerRegistered[inputAddress] == true,\n            \"Address not owner of any charity\"\n        );\n        uint256 charityIdByAddress = charityAddressIdMap[inputAddress];\n        return charities[charityIdByAddress].pictureURL;\n    }\n\n    /*\n     * This will be the getter function that everyone can call to check the charity description.\n     * Parameters of this function will include uint charityId\n     */\n    function getCharityDescription(uint256 charityId)\n        public\n        view\n        returns (string memory)\n    {\n        require(charityId < noOfCharities, \"Invalid charity id\");\n        return charities[charityId].description;\n    }\n\n    /*\n     * This will be the getter function that everyone can call to check the charity description.\n     * Parameters of this function will include address inputAddress\n     */\n    function getCharityDescriptionByAddress(address inputAddress)\n        public\n        view\n        returns (string memory)\n    {\n        require(\n            charityOwnerRegistered[inputAddress] == true,\n            \"Address not owner of any charity\"\n        );\n        uint256 charityIdByAddress = charityAddressIdMap[inputAddress];\n        return charities[charityIdByAddress].description;\n    }\n\n    /*\n     * This will be the getter function that everyone can call to check the charity status.\n     * Parameters of this function will include uint charityId\n     */\n    function getCharityStatus(uint256 charityId)\n        public\n        view\n        returns (CharityStatus)\n    {\n        require(charityId < noOfCharities, \"Invalid charity id\");\n        return charities[charityId].charityStatus;\n    }\n\n    /*\n     * This will be the getter function that everyone can call to check the charity status.\n     * Parameters of this function will include address inputAddress\n     */\n    function getCharityStatusByAddress(address inputAddress)\n        public\n        view\n        returns (CharityStatus)\n    {\n        require(\n            charityOwnerRegistered[inputAddress] == true,\n            \"Address not owner of any charity\"\n        );\n        uint256 charityIdByAddress = charityAddressIdMap[inputAddress];\n        return charities[charityIdByAddress].charityStatus;\n    }\n\n    /*\n     * This will be the getter function that everyone can call to get the charity contact number.\n     * Parameters of this function will include uint charityId\n     */\n    function getCharityContactNumber(uint256 charityId)\n        public\n        view\n        returns (string memory)\n    {\n        require(charityId < noOfCharities, \"Invalid charity id\");\n        return charities[charityId].contactNumber;\n    }\n\n    /*\n     * This will be the getter function that everyone can call to get the charity contact number.\n     * Parameters of this function will include address inputAddress\n     */\n    function getCharityContactNumberByAddress(address inputAddress)\n        public\n        view\n        returns (string memory)\n    {\n        require(\n            charityOwnerRegistered[inputAddress] == true,\n            \"Address not owner of any charity\"\n        );\n        uint256 charityIdByAddress = charityAddressIdMap[inputAddress];\n        return charities[charityIdByAddress].contactNumber;\n    }\n\n    /*\n     * This will be the getter function that everyone can call to get the charity contact address.\n     * Parameters of this function will include uint charityId\n     */\n    function getCharityContactAddress(uint256 charityId)\n        public\n        view\n        returns (string memory)\n    {\n        require(charityId < noOfCharities, \"Invalid charity id\");\n        return charities[charityId].charityAddress;\n    }\n\n    /*\n     * This will be the getter function that everyone can call to get the charity contact address.\n     * Parameters of this function will include address inputAddress\n     */\n    function getCharityContactAddressByAddress(address inputAddress)\n        public\n        view\n        returns (string memory)\n    {\n        require(\n            charityOwnerRegistered[inputAddress] == true,\n            \"Address not owner of any charity\"\n        );\n        uint256 charityIdByAddress = charityAddressIdMap[inputAddress];\n        return charities[charityIdByAddress].charityAddress;\n    }\n\n    /*\n     * This will be the getter function that everyone can call to get the charity verification Link.\n     * Parameters of this function will include uint charityId\n     */\n    function getCharityVerificationLink(uint256 charityId)\n        public\n        view\n        returns (string memory)\n    {\n        require(charityId < noOfCharities, \"Invalid charity id\");\n        return charities[charityId].verificationLink;\n    }\n\n    /*\n     * This will be the getter function that everyone can call to get the charity verification Link.\n     * Parameters of this function will include address inputAddress\n     */\n    function getCharityVerificationLinkByAddress(address inputAddress)\n        public\n        view\n        returns (string memory)\n    {\n        require(\n            charityOwnerRegistered[inputAddress] == true,\n            \"Address not owner of any charity\"\n        );\n        uint256 charityIdByAddress = charityAddressIdMap[inputAddress];\n        return charities[charityIdByAddress].verificationLink;\n    }\n\n    /*\n     * This will be the getter function that everyone can call to get the total amounts of the charities.\n     * There will be no parameters for this function\n     */\n    function getNoOfCharities() public view returns (uint256) {\n        return noOfCharities;\n    }\n\n    /*\n     * This will be the getter function that everyone can call to get the total amounts of verified charities\n     * There will be no parameters for this function\n     */\n    function getVerifiedCharityAmount() public view returns (uint256) {\n        uint256 noOfVerifiedCharities = 0;\n        for (uint256 i = 0; i < noOfCharities; i++) {\n            if (charities[i].charityStatus == CharityStatus.VERIFIED) {\n                noOfVerifiedCharities++;\n            }\n        }\n        return noOfVerifiedCharities;\n    }\n\n    /*\n     * This will be the getter function that everyone can call to get the total amounts of unverified charities\n     * There will be no parameters for this function\n     */\n    function getUnverifiedCharityAmount() public view returns (uint256) {\n        uint256 noOfUnverifiedCharities = 0;\n        for (uint256 i = 0; i < noOfCharities; i++) {\n            if (charities[i].charityStatus == CharityStatus.UNVERIFIED) {\n                noOfUnverifiedCharities++;\n            }\n        }\n        return noOfUnverifiedCharities;\n    }\n\n    /*\n     * This will be the getter function that everyone can call to get the total amounts of rejected charities\n     * There will be no parameters for this function\n     */\n    function getRejectedCharityAmount() public view returns (uint256) {\n        uint256 noOfRejectedCharities = 0;\n        for (uint256 i = 0; i < noOfCharities; i++) {\n            if (charities[i].charityStatus == CharityStatus.REJECTED) {\n                noOfRejectedCharities++;\n            }\n        }\n        return noOfRejectedCharities;\n    }\n\n    /*\n     * This will be the function that everyone can call to get the total amounts of campaigns hold by the given charities\n     * Parameters of this function will include uint charityId\n     */\n    function getCampaignAmountByCharity(uint256 charityId)\n        public\n        view\n        returns (uint256)\n    {\n        uint256 noOfCampaignByCharity = 0;\n        for (uint256 i = 0; i < noOfCampaigns; i++) {\n            if (campaigns[i].charityId == charityId) {\n                noOfCampaignByCharity++;\n            }\n        }\n        return noOfCampaignByCharity;\n    }\n\n    /*\n     * This will be the function that everyone can call to get the total amounts of active campaigns hold by the given charities\n     * Parameters of this function will include uint charityId\n     */\n    function getActiveCampaignAmountByCharity(uint256 charityId)\n        public\n        view\n        returns (uint256)\n    {\n        uint256 noOfActiveCampaignByCharity = 0;\n        for (uint256 i = 0; i < noOfCampaigns; i++) {\n            if (\n                campaigns[i].charityId == charityId &&\n                isOngoingCampaign[i] == true\n            ) {\n                noOfActiveCampaignByCharity++;\n            }\n        }\n        return noOfActiveCampaignByCharity;\n    }\n\n    /*\n     * This will be the function that everyone can call to get the total amounts of ended campaigns hold by the given charities\n     * Parameters of this function will include uint charityId\n     */\n    function getEndedCampaignAmountByCharity(uint256 charityId)\n        public\n        view\n        returns (uint256)\n    {\n        uint256 noOfEndedCampaignByCharity = 0;\n        for (uint256 i = 0; i < noOfCampaigns; i++) {\n            if (\n                campaigns[i].charityId == charityId &&\n                isOngoingCampaign[i] == false\n            ) {\n                noOfEndedCampaignByCharity++;\n            }\n        }\n        return noOfEndedCampaignByCharity;\n    }\n\n    /*\n     * This will be the getter function that everyone can call to check the campaign's charityId.\n     * Parameters of this function will include uint campaignId\n     */\n    function getCampaignCharity(uint256 campaignId)\n        public\n        view\n        returns (uint256)\n    {\n        require(campaignId < noOfCampaigns, \"Invalid campaign id\");\n        return campaigns[campaignId].charityId;\n    }\n\n    /*\n     * This will be the getter function that everyone can call to check the campaign name.\n     * Parameters of this function will include uint campaignId\n     */\n    function getCampaignName(uint256 campaignId)\n        public\n        view\n        returns (string memory)\n    {\n        require(campaignId < noOfCampaigns, \"Invalid campaign id\");\n        return campaigns[campaignId].campaignName;\n    }\n\n    /*\n     * This will be the getter function that everyone can call to check the campaign description.\n     * Parameters of this function will include uint campaignId\n     */\n    function getCampaignDescription(uint256 campaignId)\n        public\n        view\n        returns (string memory)\n    {\n        require(campaignId < noOfCampaigns, \"Invalid campaign id\");\n        return campaigns[campaignId].description;\n    }\n\n    /*\n     * This will be the getter function that everyone can call to check the campaign pictureURL.\n     * Parameters of this function will include uint campaignId\n     */\n    function getCampaignPictureURL(uint256 campaignId)\n        public\n        view\n        returns (string memory)\n    {\n        require(campaignId < noOfCampaigns, \"Invalid campaign id\");\n        return campaigns[campaignId].pictureURL;\n    }\n\n    /*\n     * This will be the getter function that everyone can call to check the campaign targetDonation.\n     * Parameters of this function will include uint campaignId\n     */\n    function getCampaignTargetDonation(uint256 campaignId)\n        public\n        view\n        returns (uint256)\n    {\n        require(campaignId < noOfCampaigns, \"Invalid campaign id\");\n        return campaigns[campaignId].targetDonation;\n    }\n\n    /*\n     * This will be the getter function that everyone can call to check the campaign currentDonation.\n     * Parameters of this function will include uint campaignId\n     */\n    function getCampaignCurrentDonation(uint256 campaignId)\n        public\n        view\n        returns (uint256)\n    {\n        require(campaignId < noOfCampaigns, \"Invalid campaign id\");\n        return campaigns[campaignId].currentDonation;\n    }\n\n    /*\n     * This will be the getter function that everyone can call to check the campaign noOfDonors.\n     * Parameters of this function will include uint campaignId\n     */\n    function getCampaignNoOfDonors(uint256 campaignId)\n        public\n        view\n        returns (uint256)\n    {\n        require(campaignId < noOfCampaigns, \"Invalid campaign id\");\n        return campaigns[campaignId].noOfDonors;\n    }\n\n    /*\n     * This will be the getter function that everyone can call to check the campaign startDate.\n     * Parameters of this function will include uint campaignId\n     */\n    function getCampaignStartDate(uint256 campaignId)\n        public\n        view\n        returns (uint256)\n    {\n        require(campaignId < noOfCampaigns, \"Invalid campaign id\");\n        return campaigns[campaignId].startDate;\n    }\n\n    /*\n     * This will be the getter function that everyone can call to check the campaign endDate.\n     * Parameters of this function will include uint campaignId\n     */\n    function getCampaignEndDate(uint256 campaignId)\n        public\n        view\n        returns (uint256)\n    {\n        require(campaignId < noOfCampaigns, \"Invalid campaign id\");\n        return campaigns[campaignId].endDate;\n    }\n\n    /*\n     * This will be the getter function that everyone can call to check the campaign status.\n     * Parameters of this function will include uint campaignId\n     */\n    function getCampaignStatus(uint256 campaignId)\n        public\n        view\n        returns (CampaignStatus)\n    {\n        require(campaignId < noOfCampaigns, \"Invalid campaign id\");\n        return campaigns[campaignId].campaignStatus;\n    }\n\n    /*\n     * This will be the getter function that everyone can call to get the total amounts of the campaigns.\n     * There will be no parameters fot this function\n     */\n    function getNoOfCampaigns() public view returns (uint256) {\n        return noOfCampaigns;\n    }\n\n    // boolean to check campaign status\n    function isStatusComplete(uint256 campaignId) public view returns (bool) {\n        require(campaignId < noOfCampaigns, \"Invalid campaign id\");\n        if (campaigns[campaignId].campaignStatus == CampaignStatus.ENDED) {\n            return true;\n        }\n        return false;\n    }\n\n    // boolean to check if campaign is valid\n    function checkValidCampaign(uint256 campaignId) public view returns (bool) {\n        if (campaignId < noOfCampaigns) {\n            return true;\n        }\n        return false;\n    }\n\n    /*\n     * This will be the function that updates the campaign's currentDonation\n     * Parameters of this function will include uint campaignId and uint newDonation\n     */\n    function updateCampaignCurrentDonation(\n        uint256 campaignId,\n        uint256 newDonation\n    ) public {\n        require(campaignId < noOfCampaigns, \"Invalid campaign id\");\n        uint256 newAmount = campaigns[campaignId].currentDonation + newDonation;\n        campaigns[campaignId].currentDonation = newAmount;\n        emit updateCurrentDonation(newAmount);\n    }\n\n    /*\n     * This will be the function that updates the campaign's noOfDonors\n     * Parameters of this function will include uint campaignId\n     */\n    function addCampaignDonor(uint256 campaignId) public {\n        require(campaignId < noOfCampaigns, \"Invalid campaign id\");\n        uint256 newNumber = campaigns[campaignId].noOfDonors + 1;\n        campaigns[campaignId].noOfDonors = newNumber;\n        emit updateCampaignDonors(newNumber);\n    }\n\n    /*\n     * This will be the function to get contract's owner\n     * There will be no parameters for this function\n     */\n    function getContractOwner() public view returns (address) {\n        return contractOwner;\n    }\n}\n",
  "sourcePath": "/Users/hawayo/Desktop/sharity/contracts/Charity.sol",
  "compiler": {
    "name": "solc",
    "version": "0.5.0+commit.1d4f565a.Emscripten.clang"
  },
  "schemaVersion": "3.3.3",
  "updatedAt": "2021-04-09T00:19:28.818Z",
  "networkType": "ethereum",
  "devdoc": {
    "methods": {}
  },
  "userdoc": {
    "methods": {}
  }
}