{
  "contractName": "Charity",
  "abi": [
    {
      "anonymous": false,
      "inputs": [
        {
          "indexed": false,
          "name": "charityId",
          "type": "uint256"
        }
      ],
      "name": "charityRegistered",
      "type": "event"
    },
    {
      "anonymous": false,
      "inputs": [
        {
          "indexed": false,
          "name": "charityId",
          "type": "uint256"
        }
      ],
      "name": "charityVerified",
      "type": "event"
    },
    {
      "anonymous": false,
      "inputs": [
        {
          "indexed": false,
          "name": "charityId",
          "type": "uint256"
        }
      ],
      "name": "charityRejected",
      "type": "event"
    },
    {
      "anonymous": false,
      "inputs": [
        {
          "indexed": false,
          "name": "charityId",
          "type": "uint256"
        }
      ],
      "name": "charityRevoked",
      "type": "event"
    },
    {
      "anonymous": false,
      "inputs": [
        {
          "indexed": false,
          "name": "charityId",
          "type": "uint256"
        },
        {
          "indexed": false,
          "name": "campaignId",
          "type": "uint256"
        }
      ],
      "name": "campaignCreated",
      "type": "event"
    },
    {
      "anonymous": false,
      "inputs": [
        {
          "indexed": false,
          "name": "campaignId",
          "type": "uint256"
        }
      ],
      "name": "campaignEnded",
      "type": "event"
    },
    {
      "anonymous": false,
      "inputs": [
        {
          "indexed": false,
          "name": "newAmount",
          "type": "uint256"
        }
      ],
      "name": "updateCurrentDonation",
      "type": "event"
    },
    {
      "anonymous": false,
      "inputs": [
        {
          "indexed": false,
          "name": "newNumber",
          "type": "uint256"
        }
      ],
      "name": "updateCampaignDonors",
      "type": "event"
    },
    {
      "constant": false,
      "inputs": [
        {
          "name": "charityName",
          "type": "bytes"
        },
        {
          "name": "charityAddress",
          "type": "bytes"
        },
        {
          "name": "contactNumber",
          "type": "bytes"
        },
        {
          "name": "description",
          "type": "bytes"
        },
        {
          "name": "pictureURL",
          "type": "bytes"
        }
      ],
      "name": "registerCharity",
      "outputs": [
        {
          "name": "charityId",
          "type": "uint256"
        }
      ],
      "payable": false,
      "stateMutability": "nonpayable",
      "type": "function"
    },
    {
      "constant": false,
      "inputs": [
        {
          "name": "charityId",
          "type": "uint256"
        }
      ],
      "name": "verifyCharity",
      "outputs": [],
      "payable": false,
      "stateMutability": "nonpayable",
      "type": "function"
    },
    {
      "constant": false,
      "inputs": [
        {
          "name": "charityId",
          "type": "uint256"
        }
      ],
      "name": "rejectCharity",
      "outputs": [],
      "payable": false,
      "stateMutability": "nonpayable",
      "type": "function"
    },
    {
      "constant": false,
      "inputs": [
        {
          "name": "charityId",
          "type": "uint256"
        }
      ],
      "name": "revokeCharity",
      "outputs": [],
      "payable": false,
      "stateMutability": "nonpayable",
      "type": "function"
    },
    {
      "constant": false,
      "inputs": [
        {
          "name": "campaignName",
          "type": "bytes"
        },
        {
          "name": "description",
          "type": "bytes"
        },
        {
          "name": "pictureURL",
          "type": "bytes"
        },
        {
          "name": "targetDonation",
          "type": "uint256"
        },
        {
          "name": "startDate",
          "type": "uint256"
        },
        {
          "name": "endDate",
          "type": "uint256"
        }
      ],
      "name": "createCampaign",
      "outputs": [
        {
          "name": "campaignId",
          "type": "uint256"
        }
      ],
      "payable": false,
      "stateMutability": "nonpayable",
      "type": "function"
    },
    {
      "constant": false,
      "inputs": [
        {
          "name": "campaignId",
          "type": "uint256"
        }
      ],
      "name": "endCampaign",
      "outputs": [],
      "payable": false,
      "stateMutability": "nonpayable",
      "type": "function"
    },
    {
      "constant": true,
      "inputs": [
        {
          "name": "charityId",
          "type": "uint256"
        }
      ],
      "name": "getCharityOwner",
      "outputs": [
        {
          "name": "",
          "type": "address"
        }
      ],
      "payable": false,
      "stateMutability": "view",
      "type": "function"
    },
    {
      "constant": true,
      "inputs": [
        {
          "name": "charityId",
          "type": "uint256"
        }
      ],
      "name": "getCharityName",
      "outputs": [
        {
          "name": "",
          "type": "bytes"
        }
      ],
      "payable": false,
      "stateMutability": "view",
      "type": "function"
    },
    {
      "constant": true,
      "inputs": [
        {
          "name": "charityId",
          "type": "uint256"
        }
      ],
      "name": "getCharityPictureURL",
      "outputs": [
        {
          "name": "",
          "type": "bytes"
        }
      ],
      "payable": false,
      "stateMutability": "view",
      "type": "function"
    },
    {
      "constant": true,
      "inputs": [
        {
          "name": "charityId",
          "type": "uint256"
        }
      ],
      "name": "getCharityDescription",
      "outputs": [
        {
          "name": "",
          "type": "bytes"
        }
      ],
      "payable": false,
      "stateMutability": "view",
      "type": "function"
    },
    {
      "constant": true,
      "inputs": [
        {
          "name": "charityId",
          "type": "uint256"
        }
      ],
      "name": "getCharityStatus",
      "outputs": [
        {
          "name": "",
          "type": "uint8"
        }
      ],
      "payable": false,
      "stateMutability": "view",
      "type": "function"
    },
    {
      "constant": true,
      "inputs": [],
      "name": "getNoOfCharities",
      "outputs": [
        {
          "name": "",
          "type": "uint256"
        }
      ],
      "payable": false,
      "stateMutability": "view",
      "type": "function"
    },
    {
      "constant": true,
      "inputs": [],
      "name": "getVerifiedCharityAmount",
      "outputs": [
        {
          "name": "",
          "type": "uint256"
        }
      ],
      "payable": false,
      "stateMutability": "view",
      "type": "function"
    },
    {
      "constant": true,
      "inputs": [],
      "name": "getUnverifiedCharityAmount",
      "outputs": [
        {
          "name": "",
          "type": "uint256"
        }
      ],
      "payable": false,
      "stateMutability": "view",
      "type": "function"
    },
    {
      "constant": true,
      "inputs": [],
      "name": "getRejectedCharityAmount",
      "outputs": [
        {
          "name": "",
          "type": "uint256"
        }
      ],
      "payable": false,
      "stateMutability": "view",
      "type": "function"
    },
    {
      "constant": true,
      "inputs": [
        {
          "name": "charityId",
          "type": "uint256"
        }
      ],
      "name": "getCampaignAmountByCharity",
      "outputs": [
        {
          "name": "",
          "type": "uint256"
        }
      ],
      "payable": false,
      "stateMutability": "view",
      "type": "function"
    },
    {
      "constant": true,
      "inputs": [
        {
          "name": "charityId",
          "type": "uint256"
        }
      ],
      "name": "getActiveCampaignAmountByCharity",
      "outputs": [
        {
          "name": "",
          "type": "uint256"
        }
      ],
      "payable": false,
      "stateMutability": "view",
      "type": "function"
    },
    {
      "constant": true,
      "inputs": [
        {
          "name": "charityId",
          "type": "uint256"
        }
      ],
      "name": "getEndedCampaignAmountByCharity",
      "outputs": [
        {
          "name": "",
          "type": "uint256"
        }
      ],
      "payable": false,
      "stateMutability": "view",
      "type": "function"
    },
    {
      "constant": true,
      "inputs": [
        {
          "name": "campaignId",
          "type": "uint256"
        }
      ],
      "name": "getCampaignCharity",
      "outputs": [
        {
          "name": "",
          "type": "uint256"
        }
      ],
      "payable": false,
      "stateMutability": "view",
      "type": "function"
    },
    {
      "constant": true,
      "inputs": [
        {
          "name": "campaignId",
          "type": "uint256"
        }
      ],
      "name": "getCampaignName",
      "outputs": [
        {
          "name": "",
          "type": "bytes"
        }
      ],
      "payable": false,
      "stateMutability": "view",
      "type": "function"
    },
    {
      "constant": true,
      "inputs": [
        {
          "name": "campaignId",
          "type": "uint256"
        }
      ],
      "name": "getCampaignDescription",
      "outputs": [
        {
          "name": "",
          "type": "bytes"
        }
      ],
      "payable": false,
      "stateMutability": "view",
      "type": "function"
    },
    {
      "constant": true,
      "inputs": [
        {
          "name": "campaignId",
          "type": "uint256"
        }
      ],
      "name": "getCampaignPictureURL",
      "outputs": [
        {
          "name": "",
          "type": "bytes"
        }
      ],
      "payable": false,
      "stateMutability": "view",
      "type": "function"
    },
    {
      "constant": true,
      "inputs": [
        {
          "name": "campaignId",
          "type": "uint256"
        }
      ],
      "name": "getCampaignTargetDonation",
      "outputs": [
        {
          "name": "",
          "type": "uint256"
        }
      ],
      "payable": false,
      "stateMutability": "view",
      "type": "function"
    },
    {
      "constant": true,
      "inputs": [
        {
          "name": "campaignId",
          "type": "uint256"
        }
      ],
      "name": "getCampaignCurrentDonation",
      "outputs": [
        {
          "name": "",
          "type": "uint256"
        }
      ],
      "payable": false,
      "stateMutability": "view",
      "type": "function"
    },
    {
      "constant": true,
      "inputs": [
        {
          "name": "campaignId",
          "type": "uint256"
        }
      ],
      "name": "getCampaignNoOfDonors",
      "outputs": [
        {
          "name": "",
          "type": "uint256"
        }
      ],
      "payable": false,
      "stateMutability": "view",
      "type": "function"
    },
    {
      "constant": true,
      "inputs": [
        {
          "name": "campaignId",
          "type": "uint256"
        }
      ],
      "name": "getCampaignStartDate",
      "outputs": [
        {
          "name": "",
          "type": "uint256"
        }
      ],
      "payable": false,
      "stateMutability": "view",
      "type": "function"
    },
    {
      "constant": true,
      "inputs": [
        {
          "name": "campaignId",
          "type": "uint256"
        }
      ],
      "name": "getCampaignEndDate",
      "outputs": [
        {
          "name": "",
          "type": "uint256"
        }
      ],
      "payable": false,
      "stateMutability": "view",
      "type": "function"
    },
    {
      "constant": true,
      "inputs": [
        {
          "name": "campaignId",
          "type": "uint256"
        }
      ],
      "name": "getCampaignStatus",
      "outputs": [
        {
          "name": "",
          "type": "uint8"
        }
      ],
      "payable": false,
      "stateMutability": "view",
      "type": "function"
    },
    {
      "constant": true,
      "inputs": [],
      "name": "getNoOfCampaigns",
      "outputs": [
        {
          "name": "",
          "type": "uint256"
        }
      ],
      "payable": false,
      "stateMutability": "view",
      "type": "function"
    },
    {
      "constant": true,
      "inputs": [
        {
          "name": "campaignId",
          "type": "uint256"
        }
      ],
      "name": "isStatusComplete",
      "outputs": [
        {
          "name": "",
          "type": "bool"
        }
      ],
      "payable": false,
      "stateMutability": "view",
      "type": "function"
    },
    {
      "constant": true,
      "inputs": [
        {
          "name": "campaignId",
          "type": "uint256"
        }
      ],
      "name": "checkValidCampaign",
      "outputs": [
        {
          "name": "",
          "type": "bool"
        }
      ],
      "payable": false,
      "stateMutability": "view",
      "type": "function"
    },
    {
      "constant": false,
      "inputs": [
        {
          "name": "campaignId",
          "type": "uint256"
        },
        {
          "name": "newDonation",
          "type": "uint256"
        }
      ],
      "name": "updateCampaignCurrentDonation",
      "outputs": [],
      "payable": false,
      "stateMutability": "nonpayable",
      "type": "function"
    },
    {
      "constant": false,
      "inputs": [
        {
          "name": "campaignId",
          "type": "uint256"
        }
      ],
      "name": "addCampaignDonor",
      "outputs": [],
      "payable": false,
      "stateMutability": "nonpayable",
      "type": "function"
    },
    {
      "constant": true,
      "inputs": [],
      "name": "getContractOwner",
      "outputs": [
        {
          "name": "",
          "type": "address"
        }
      ],
      "payable": false,
      "stateMutability": "view",
      "type": "function"
    }
  ],
  "bytecode": "0x6080604052336000806101000a81548173ffffffffffffffffffffffffffffffffffffffff021916908373ffffffffffffffffffffffffffffffffffffffff1602179055506000600455600060075534801561005a57600080fd5b50613bd28061006a6000396000f3fe6080604052600436106101ab576000357c0100000000000000000000000000000000000000000000000000000000900463ffffffff16806296a1f0146101b0578063068782d2146101db57806306fd7c601461028f5780630749c8ac146102ba5780630bbcf6961461036e57806315f28a27146103a9578063161d3dd1146103f857806332fa180d1461042357806336400a221461044e5780633ffe888f14610676578063442890d5146106c557806354ee0d361461071c57806355fb8f531461076b57806357d65eac1461081f5780635a102275146108725780636c19e0041461092657806374eb57381461098357806376e77d34146109d25780637ede52fc14610a2157806395657f7e14610ad5578063960bb88714610b895780639eaec80314610bd8578063a16fd1d014610c13578063a6af939a14610c70578063b0de901014610cb5578063bc4465da14610cf0578063ce269af814610d3f578063dd0408ae14611077578063ddf13176146110b2578063e317526a146110dd578063ea79c20014611158578063f1c4bfac14611193578063f6b54898146111e2578063fb99932f14611235575b600080fd5b3480156101bc57600080fd5b506101c5611284565b6040518082815260200191505060405180910390f35b3480156101e757600080fd5b50610214600480360360208110156101fe57600080fd5b81019080803590602001909291905050506112fa565b6040518080602001828103825283818151815260200191508051906020019080838360005b83811015610254578082015181840152602081019050610239565b50505050905090810190601f1680156102815780820380516001836020036101000a031916815260200191505b509250505060405180910390f35b34801561029b57600080fd5b506102a461142b565b6040518082815260200191505060405180910390f35b3480156102c657600080fd5b506102f3600480360360208110156102dd57600080fd5b81019080803590602001909291905050506114a2565b6040518080602001828103825283818151815260200191508051906020019080838360005b83811015610333578082015181840152602081019050610318565b50505050905090810190601f1680156103605780820380516001836020036101000a031916815260200191505b509250505060405180910390f35b34801561037a57600080fd5b506103a76004803603602081101561039157600080fd5b81019080803590602001909291905050506115d3565b005b3480156103b557600080fd5b506103e2600480360360208110156103cc57600080fd5b81019080803590602001909291905050506119ba565b6040518082815260200191505060405180910390f35b34801561040457600080fd5b5061040d611a53565b6040518082815260200191505060405180910390f35b34801561042f57600080fd5b50610438611a5d565b6040518082815260200191505060405180910390f35b34801561045a57600080fd5b50610660600480360360c081101561047157600080fd5b810190808035906020019064010000000081111561048e57600080fd5b8201836020820111156104a057600080fd5b803590602001918460018302840111640100000000831117156104c257600080fd5b91908080601f016020809104026020016040519081016040528093929190818152602001838380828437600081840152601f19601f8201169050808301925050505050505091929192908035906020019064010000000081111561052557600080fd5b82018360208201111561053757600080fd5b8035906020019184600183028401116401000000008311171561055957600080fd5b91908080601f016020809104026020016040519081016040528093929190818152602001838380828437600081840152601f19601f820116905080830192505050505050509192919290803590602001906401000000008111156105bc57600080fd5b8201836020820111156105ce57600080fd5b803590602001918460018302840111640100000000831117156105f057600080fd5b91908080601f016020809104026020016040519081016040528093929190818152602001838380828437600081840152601f19601f820116905080830192505050505050509192919290803590602001909291908035906020019092919080359060200190929190505050611a67565b6040518082815260200191505060405180910390f35b34801561068257600080fd5b506106af6004803603602081101561069957600080fd5b8101908080359060200190929190505050611d44565b6040518082815260200191505060405180910390f35b3480156106d157600080fd5b506106da611ddd565b604051808273ffffffffffffffffffffffffffffffffffffffff1673ffffffffffffffffffffffffffffffffffffffff16815260200191505060405180910390f35b34801561072857600080fd5b506107556004803603602081101561073f57600080fd5b8101908080359060200190929190505050611e06565b6040518082815260200191505060405180910390f35b34801561077757600080fd5b506107a46004803603602081101561078e57600080fd5b8101908080359060200190929190505050611e8b565b6040518080602001828103825283818151815260200191508051906020019080838360005b838110156107e45780820151818401526020810190506107c9565b50505050905090810190601f1680156108115780820380516001836020036101000a031916815260200191505b509250505060405180910390f35b34801561082b57600080fd5b506108586004803603602081101561084257600080fd5b8101908080359060200190929190505050611fbc565b604051808215151515815260200191505060405180910390f35b34801561087e57600080fd5b506108ab6004803603602081101561089557600080fd5b8101908080359060200190929190505050611fdb565b6040518080602001828103825283818151815260200191508051906020019080838360005b838110156108eb5780820151818401526020810190506108d0565b50505050905090810190601f1680156109185780820380516001836020036101000a031916815260200191505b509250505060405180910390f35b34801561093257600080fd5b5061095f6004803603602081101561094957600080fd5b810190808035906020019092919050505061210c565b6040518082600181111561096f57fe5b60ff16815260200191505060405180910390f35b34801561098f57600080fd5b506109bc600480360360208110156109a657600080fd5b81019080803590602001909291905050506121b2565b6040518082815260200191505060405180910390f35b3480156109de57600080fd5b50610a0b600480360360208110156109f557600080fd5b810190808035906020019092919050505061224b565b6040518082815260200191505060405180910390f35b348015610a2d57600080fd5b50610a5a60048036036020811015610a4457600080fd5b81019080803590602001909291905050506122d0565b6040518080602001828103825283818151815260200191508051906020019080838360005b83811015610a9a578082015181840152602081019050610a7f565b50505050905090810190601f168015610ac75780820380516001836020036101000a031916815260200191505b509250505060405180910390f35b348015610ae157600080fd5b50610b0e60048036036020811015610af857600080fd5b8101908080359060200190929190505050612401565b6040518080602001828103825283818151815260200191508051906020019080838360005b83811015610b4e578082015181840152602081019050610b33565b50505050905090810190601f168015610b7b5780820380516001836020036101000a031916815260200191505b509250505060405180910390f35b348015610b9557600080fd5b50610bc260048036036020811015610bac57600080fd5b8101908080359060200190929190505050612532565b6040518082815260200191505060405180910390f35b348015610be457600080fd5b50610c1160048036036020811015610bfb57600080fd5b8101908080359060200190929190505050612587565b005b348015610c1f57600080fd5b50610c4c60048036036020811015610c3657600080fd5b810190808035906020019092919050505061296e565b60405180826002811115610c5c57fe5b60ff16815260200191505060405180910390f35b348015610c7c57600080fd5b50610cb360048036036040811015610c9357600080fd5b810190808035906020019092919080359060200190929190505050612a14565b005b348015610cc157600080fd5b50610cee60048036036020811015610cd857600080fd5b8101908080359060200190929190505050612b01565b005b348015610cfc57600080fd5b50610d2960048036036020811015610d1357600080fd5b8101908080359060200190929190505050612f14565b6040518082815260200191505060405180910390f35b348015610d4b57600080fd5b50611061600480360360a0811015610d6257600080fd5b8101908080359060200190640100000000811115610d7f57600080fd5b820183602082011115610d9157600080fd5b80359060200191846001830284011164010000000083111715610db357600080fd5b91908080601f016020809104026020016040519081016040528093929190818152602001838380828437600081840152601f19601f82011690508083019250505050505050919291929080359060200190640100000000811115610e1657600080fd5b820183602082011115610e2857600080fd5b80359060200191846001830284011164010000000083111715610e4a57600080fd5b91908080601f016020809104026020016040519081016040528093929190818152602001838380828437600081840152601f19601f82011690508083019250505050505050919291929080359060200190640100000000811115610ead57600080fd5b820183602082011115610ebf57600080fd5b80359060200191846001830284011164010000000083111715610ee157600080fd5b91908080601f016020809104026020016040519081016040528093929190818152602001838380828437600081840152601f19601f82011690508083019250505050505050919291929080359060200190640100000000811115610f4457600080fd5b820183602082011115610f5657600080fd5b80359060200191846001830284011164010000000083111715610f7857600080fd5b91908080601f016020809104026020016040519081016040528093929190818152602001838380828437600081840152601f19601f82011690508083019250505050505050919291929080359060200190640100000000811115610fdb57600080fd5b820183602082011115610fed57600080fd5b8035906020019184600183028401116401000000008311171561100f57600080fd5b91908080601f016020809104026020016040519081016040528093929190818152602001838380828437600081840152601f19601f820116905080830192505050505050509192919290505050612fad565b6040518082815260200191505060405180910390f35b34801561108357600080fd5b506110b06004803603602081101561109a57600080fd5b81019080803590602001909291905050506131ee565b005b3480156110be57600080fd5b506110c7613625565b6040518082815260200191505060405180910390f35b3480156110e957600080fd5b506111166004803603602081101561110057600080fd5b810190808035906020019092919050505061369c565b604051808273ffffffffffffffffffffffffffffffffffffffff1673ffffffffffffffffffffffffffffffffffffffff16815260200191505060405180910390f35b34801561116457600080fd5b506111916004803603602081101561117b57600080fd5b8101908080359060200190929190505050613755565b005b34801561119f57600080fd5b506111cc600480360360208110156111b657600080fd5b8101908080359060200190929190505050613842565b6040518082815260200191505060405180910390f35b3480156111ee57600080fd5b5061121b6004803603602081101561120557600080fd5b81019080803590602001909291905050506138db565b604051808215151515815260200191505060405180910390f35b34801561124157600080fd5b5061126e6004803603602081101561125857600080fd5b81019080803590602001909291905050506139aa565b6040518082815260200191505060405180910390f35b6000806000905060008090505b6004548110156112f2576002808111156112a757fe5b6002600083815260200190815260200160002060060160009054906101000a900460ff1660028111156112d657fe5b14156112e55781806001019250505b8080600101915050611291565b508091505090565b606060075482101515611375576040517f08c379a00000000000000000000000000000000000000000000000000000000081526004018080602001828103825260138152602001807f496e76616c69642063616d706169676e2069640000000000000000000000000081525060200191505060405180910390fd5b600660008381526020019081526020016000206002018054600181600116156101000203166002900480601f01602080910402602001604051908101604052809291908181526020018280546001816001161561010002031660029004801561141f5780601f106113f45761010080835404028352916020019161141f565b820191906000526020600020905b81548152906001019060200180831161140257829003601f168201915b50505050509050919050565b6000806000905060008090505b60045481101561149a576000600281111561144f57fe5b6002600083815260200190815260200160002060060160009054906101000a900460ff16600281111561147e57fe5b141561148d5781806001019250505b8080600101915050611438565b508091505090565b60606004548210151561151d576040517f08c379a00000000000000000000000000000000000000000000000000000000081526004018080602001828103825260128152602001807f496e76616c69642063686172697479206964000000000000000000000000000081525060200191505060405180910390fd5b600260008381526020019081526020016000206005018054600181600116156101000203166002900480601f0160208091040260200160405190810160405280929190818152602001828054600181600116156101000203166002900480156115c75780601f1061159c576101008083540402835291602001916115c7565b820191906000526020600020905b8154815290600101906020018083116115aa57829003601f168201915b50505050509050919050565b336000809054906101000a900473ffffffffffffffffffffffffffffffffffffffff1673ffffffffffffffffffffffffffffffffffffffff168173ffffffffffffffffffffffffffffffffffffffff16141515611698576040517f08c379a000000000000000000000000000000000000000000000000000000000815260040180806020018281038252601c8152602001807f43616c6c6572206973206e6f7420636f6e7472616374206f776e65720000000081525060200191505060405180910390fd5b6000809054906101000a900473ffffffffffffffffffffffffffffffffffffffff1673ffffffffffffffffffffffffffffffffffffffff163373ffffffffffffffffffffffffffffffffffffffff1614151561175c576040517f08c379a000000000000000000000000000000000000000000000000000000000815260040180806020018281038252601c8152602001807f43616c6c6572206973206e6f7420636f6e7472616374206f776e65720000000081525060200191505060405180910390fd5b600454821015156117d5576040517f08c379a00000000000000000000000000000000000000000000000000000000081526004018080602001828103825260128152602001807f496e76616c69642063686172697479206964000000000000000000000000000081525060200191505060405180910390fd5b600160028111156117e257fe5b6002600084815260200190815260200160002060060160009054906101000a900460ff16600281111561181157fe5b1415156118ac576040517f08c379a00000000000000000000000000000000000000000000000000000000081526004018080602001828103825260218152602001807f43686172697479206973206e6f7420612076657269666965642063686172697481526020017f790000000000000000000000000000000000000000000000000000000000000081525060400191505060405180910390fd5b600115156001600084815260200190815260200160002060009054906101000a900460ff161515141515611948576040517f08c379a00000000000000000000000000000000000000000000000000000000081526004018080602001828103825260198152602001807f4368617269747920686173206265656e2076657269666965640000000000000081525060200191505060405180910390fd5b600280600084815260200190815260200160002060060160006101000a81548160ff0219169083600281111561197a57fe5b02179055507f0c3e8a5dc7b4dae9b9bacc0f229ddf9e8ff1a86a106b83477dfe72f4cda87f71826040518082815260200191505060405180910390a15050565b600060075482101515611a35576040517f08c379a00000000000000000000000000000000000000000000000000000000081526004018080602001828103825260138152602001807f496e76616c69642063616d706169676e2069640000000000000000000000000081525060200191505060405180910390fd5b60066000838152602001908152602001600020600401549050919050565b6000600754905090565b6000600454905090565b60003360016000600360008473ffffffffffffffffffffffffffffffffffffffff1673ffffffffffffffffffffffffffffffffffffffff16815260200190815260200160002054815260200190815260200160002060009054906101000a900460ff161515611b3e576040517f08c379a000000000000000000000000000000000000000000000000000000000815260040180806020018281038252601d8152602001807f43616c6c6572206973206e6f7420612076616c6964206368617269747900000081525060200191505060405180910390fd5b600760008154809291906001019190505591506000600360003373ffffffffffffffffffffffffffffffffffffffff1673ffffffffffffffffffffffffffffffffffffffff168152602001908152602001600020549050611b9d613a43565b610140604051908101604052808381526020018b81526020018a8152602001898152602001888152602001600081526020016000815260200187815260200186815260200160006001811115611bef57fe5b81525090508060066000868152602001908152602001600020600082015181600001556020820151816001019080519060200190611c2e929190613aa2565b506040820151816002019080519060200190611c4b929190613aa2565b506060820151816003019080519060200190611c68929190613aa2565b506080820151816004015560a0820151816005015560c0820151816006015560e0820151816007015561010082015181600801556101208201518160090160006101000a81548160ff02191690836001811115611cc157fe5b021790555090505060016005600086815260200190815260200160002060006101000a81548160ff0219169083151502179055507f43ff46a4179f4c55f80d6329f38d2f16f0f6fad7f2e689fe51362d0ee5cd05b58285604051808381526020018281526020019250505060405180910390a18393505050509695505050505050565b600060075482101515611dbf576040517f08c379a00000000000000000000000000000000000000000000000000000000081526004018080602001828103825260138152602001807f496e76616c69642063616d706169676e2069640000000000000000000000000081525060200191505060405180910390fd5b60066000838152602001908152602001600020600601549050919050565b60008060009054906101000a900473ffffffffffffffffffffffffffffffffffffffff16905090565b6000806000905060008090505b600754811015611e8157836006600083815260200190815260200160002060000154148015611e665750600015156005600083815260200190815260200160002060009054906101000a900460ff161515145b15611e745781806001019250505b8080600101915050611e13565b5080915050919050565b606060075482101515611f06576040517f08c379a00000000000000000000000000000000000000000000000000000000081526004018080602001828103825260138152602001807f496e76616c69642063616d706169676e2069640000000000000000000000000081525060200191505060405180910390fd5b600660008381526020019081526020016000206003018054600181600116156101000203166002900480601f016020809104026020016040519081016040528092919081815260200182805460018160011615610100020316600290048015611fb05780601f10611f8557610100808354040283529160200191611fb0565b820191906000526020600020905b815481529060010190602001808311611f9357829003601f168201915b50505050509050919050565b6000600754821015611fd15760019050611fd6565b600090505b919050565b606060075482101515612056576040517f08c379a00000000000000000000000000000000000000000000000000000000081526004018080602001828103825260138152602001807f496e76616c69642063616d706169676e2069640000000000000000000000000081525060200191505060405180910390fd5b600660008381526020019081526020016000206001018054600181600116156101000203166002900480601f0160208091040260200160405190810160405280929190818152602001828054600181600116156101000203166002900480156121005780601f106120d557610100808354040283529160200191612100565b820191906000526020600020905b8154815290600101906020018083116120e357829003601f168201915b50505050509050919050565b600060075482101515612187576040517f08c379a00000000000000000000000000000000000000000000000000000000081526004018080602001828103825260138152602001807f496e76616c69642063616d706169676e2069640000000000000000000000000081525060200191505060405180910390fd5b6006600083815260200190815260200160002060090160009054906101000a900460ff169050919050565b60006007548210151561222d576040517f08c379a00000000000000000000000000000000000000000000000000000000081526004018080602001828103825260138152602001807f496e76616c69642063616d706169676e2069640000000000000000000000000081525060200191505060405180910390fd5b60066000838152602001908152602001600020600001549050919050565b6000806000905060008090505b6007548110156122c6578360066000838152602001908152602001600020600001541480156122ab5750600115156005600083815260200190815260200160002060009054906101000a900460ff161515145b156122b95781806001019250505b8080600101915050612258565b5080915050919050565b60606004548210151561234b576040517f08c379a00000000000000000000000000000000000000000000000000000000081526004018080602001828103825260128152602001807f496e76616c69642063686172697479206964000000000000000000000000000081525060200191505060405180910390fd5b600260008381526020019081526020016000206001018054600181600116156101000203166002900480601f0160208091040260200160405190810160405280929190818152602001828054600181600116156101000203166002900480156123f55780601f106123ca576101008083540402835291602001916123f5565b820191906000526020600020905b8154815290600101906020018083116123d857829003601f168201915b50505050509050919050565b60606004548210151561247c576040517f08c379a00000000000000000000000000000000000000000000000000000000081526004018080602001828103825260128152602001807f496e76616c69642063686172697479206964000000000000000000000000000081525060200191505060405180910390fd5b600260008381526020019081526020016000206004018054600181600116156101000203166002900480601f0160208091040260200160405190810160405280929190818152602001828054600181600116156101000203166002900480156125265780601f106124fb57610100808354040283529160200191612526565b820191906000526020600020905b81548152906001019060200180831161250957829003601f168201915b50505050509050919050565b6000806000905060008090505b60075481101561257d5783600660008381526020019081526020016000206000015414156125705781806001019250505b808060010191505061253f565b5080915050919050565b336000809054906101000a900473ffffffffffffffffffffffffffffffffffffffff1673ffffffffffffffffffffffffffffffffffffffff168173ffffffffffffffffffffffffffffffffffffffff1614151561264c576040517f08c379a000000000000000000000000000000000000000000000000000000000815260040180806020018281038252601c8152602001807f43616c6c6572206973206e6f7420636f6e7472616374206f776e65720000000081525060200191505060405180910390fd5b6000809054906101000a900473ffffffffffffffffffffffffffffffffffffffff1673ffffffffffffffffffffffffffffffffffffffff163373ffffffffffffffffffffffffffffffffffffffff16141515612710576040517f08c379a000000000000000000000000000000000000000000000000000000000815260040180806020018281038252601c8152602001807f43616c6c6572206973206e6f7420636f6e7472616374206f776e65720000000081525060200191505060405180910390fd5b60045482101515612789576040517f08c379a00000000000000000000000000000000000000000000000000000000081526004018080602001828103825260128152602001807f496e76616c69642063686172697479206964000000000000000000000000000081525060200191505060405180910390fd5b6000600281111561279657fe5b6002600084815260200190815260200160002060060160009054906101000a900460ff1660028111156127c557fe5b141515612860576040517f08c379a00000000000000000000000000000000000000000000000000000000081526004018080602001828103825260258152602001807f4368617269747920686173206265656e207665726966696564206f722072656a81526020017f656374656400000000000000000000000000000000000000000000000000000081525060400191505060405180910390fd5b600015156001600084815260200190815260200160002060009054906101000a900460ff1615151415156128fc576040517f08c379a00000000000000000000000000000000000000000000000000000000081526004018080602001828103825260198152602001807f4368617269747920686173206265656e2076657269666965640000000000000081525060200191505060405180910390fd5b600280600084815260200190815260200160002060060160006101000a81548160ff0219169083600281111561292e57fe5b02179055507f96c57c4107d5e1b286da221e7c1bfebf23c6bb63fe29777a22645ca9ff8ef04a826040518082815260200191505060405180910390a15050565b6000600454821015156129e9576040517f08c379a00000000000000000000000000000000000000000000000000000000081526004018080602001828103825260128152602001807f496e76616c69642063686172697479206964000000000000000000000000000081525060200191505060405180910390fd5b6002600083815260200190815260200160002060060160009054906101000a900460ff169050919050565b60075482101515612a8d576040517f08c379a00000000000000000000000000000000000000000000000000000000081526004018080602001828103825260138152602001807f496e76616c69642063616d706169676e2069640000000000000000000000000081525060200191505060405180910390fd5b60008160066000858152602001908152602001600020600501540190508060066000858152602001908152602001600020600501819055507fdccc5359108539a6edac03c5abafcdf18642f761cd87a8bd181ff92fbc6121b3816040518082815260200191505060405180910390a1505050565b336000809054906101000a900473ffffffffffffffffffffffffffffffffffffffff1673ffffffffffffffffffffffffffffffffffffffff168173ffffffffffffffffffffffffffffffffffffffff16141515612bc6576040517f08c379a000000000000000000000000000000000000000000000000000000000815260040180806020018281038252601c8152602001807f43616c6c6572206973206e6f7420636f6e7472616374206f776e65720000000081525060200191505060405180910390fd5b6000809054906101000a900473ffffffffffffffffffffffffffffffffffffffff1673ffffffffffffffffffffffffffffffffffffffff163373ffffffffffffffffffffffffffffffffffffffff16141515612c8a576040517f08c379a000000000000000000000000000000000000000000000000000000000815260040180806020018281038252601c8152602001807f43616c6c6572206973206e6f7420636f6e7472616374206f776e65720000000081525060200191505060405180910390fd5b60045482101515612d03576040517f08c379a00000000000000000000000000000000000000000000000000000000081526004018080602001828103825260128152602001807f496e76616c69642063686172697479206964000000000000000000000000000081525060200191505060405180910390fd5b60006002811115612d1057fe5b6002600084815260200190815260200160002060060160009054906101000a900460ff166002811115612d3f57fe5b141515612dda576040517f08c379a00000000000000000000000000000000000000000000000000000000081526004018080602001828103825260258152602001807f4368617269747920686173206265656e207665726966696564206f722072656a81526020017f656374656400000000000000000000000000000000000000000000000000000081525060400191505060405180910390fd5b600015156001600084815260200190815260200160002060009054906101000a900460ff161515141515612e76576040517f08c379a00000000000000000000000000000000000000000000000000000000081526004018080602001828103825260198152602001807f4368617269747920686173206265656e2076657269666965640000000000000081525060200191505060405180910390fd5b60016002600084815260200190815260200160002060060160006101000a81548160ff02191690836002811115612ea957fe5b0217905550600180600084815260200190815260200160002060006101000a81548160ff0219169083151502179055507ffb6ca19fa7c8eeb83b0f44c69164632fc81e6e1b17e2021cf8a905981f3babc2826040518082815260200191505060405180910390a15050565b600060075482101515612f8f576040517f08c379a00000000000000000000000000000000000000000000000000000000081526004018080602001828103825260138152602001807f496e76616c69642063616d706169676e2069640000000000000000000000000081525060200191505060405180910390fd5b60066000838152602001908152602001600020600701549050919050565b600060046000815480929190600101919050559050612fca613b22565b60e0604051908101604052803373ffffffffffffffffffffffffffffffffffffffff1681526020018881526020018781526020018681526020018581526020018481526020016000600281111561301d57fe5b8152509050806002600084815260200190815260200160002060008201518160000160006101000a81548173ffffffffffffffffffffffffffffffffffffffff021916908373ffffffffffffffffffffffffffffffffffffffff1602179055506020820151816001019080519060200190613099929190613aa2565b5060408201518160020190805190602001906130b6929190613aa2565b5060608201518160030190805190602001906130d3929190613aa2565b5060808201518160040190805190602001906130f0929190613aa2565b5060a082015181600501908051906020019061310d929190613aa2565b5060c08201518160060160006101000a81548160ff0219169083600281111561313257fe5b021790555090505081600360003373ffffffffffffffffffffffffffffffffffffffff1673ffffffffffffffffffffffffffffffffffffffff1681526020019081526020016000208190555060006001600084815260200190815260200160002060006101000a81548160ff0219169083151502179055507f2818bce8f12afdd5c38fb751b1b8b1ce1580ad9686c8ac779489a38df94a6600826040518082815260200191505060405180910390a18191505095945050505050565b3360016000600360008473ffffffffffffffffffffffffffffffffffffffff1673ffffffffffffffffffffffffffffffffffffffff16815260200190815260200160002054815260200190815260200160002060009054906101000a900460ff1615156132c3576040517f08c379a000000000000000000000000000000000000000000000000000000000815260040180806020018281038252601d8152602001807f43616c6c6572206973206e6f7420612076616c6964206368617269747900000081525060200191505060405180910390fd5b336000809054906101000a900473ffffffffffffffffffffffffffffffffffffffff1673ffffffffffffffffffffffffffffffffffffffff168173ffffffffffffffffffffffffffffffffffffffff16141515613388576040517f08c379a000000000000000000000000000000000000000000000000000000000815260040180806020018281038252601c8152602001807f43616c6c6572206973206e6f7420636f6e7472616374206f776e65720000000081525060200191505060405180910390fd5b60075483101515613401576040517f08c379a00000000000000000000000000000000000000000000000000000000081526004018080602001828103825260138152602001807f496e76616c69642063616d706169676e2069640000000000000000000000000081525060200191505060405180910390fd5b6005600084815260200190815260200160002060009054906101000a900460ff161515613496576040517f08c379a00000000000000000000000000000000000000000000000000000000081526004018080602001828103825260178152602001807f43616d706169676e206973206e6f74206f6e676f696e6700000000000000000081525060200191505060405180910390fd5b600260006006600086815260200190815260200160002060000154815260200190815260200160002060000160009054906101000a900473ffffffffffffffffffffffffffffffffffffffff1673ffffffffffffffffffffffffffffffffffffffff163373ffffffffffffffffffffffffffffffffffffffff16141515613585576040517f08c379a000000000000000000000000000000000000000000000000000000000815260040180806020018281038252601e8152602001807f43616c6c6572206973206e6f74206f776e6572206f662063686172697479000081525060200191505060405180910390fd5b60016006600085815260200190815260200160002060090160006101000a81548160ff021916908360018111156135b857fe5b021790555060006005600085815260200190815260200160002060006101000a81548160ff0219169083151502179055507f8d0449d6fed7183f55f431e23867be7d8553beb7dc2e0844821c9c951a59ca52836040518082815260200191505060405180910390a1505050565b6000806000905060008090505b600454811015613694576001600281111561364957fe5b6002600083815260200190815260200160002060060160009054906101000a900460ff16600281111561367857fe5b14156136875781806001019250505b8080600101915050613632565b508091505090565b600060045482101515613717576040517f08c379a00000000000000000000000000000000000000000000000000000000081526004018080602001828103825260128152602001807f496e76616c69642063686172697479206964000000000000000000000000000081525060200191505060405180910390fd5b6002600083815260200190815260200160002060000160009054906101000a900473ffffffffffffffffffffffffffffffffffffffff169050919050565b600754811015156137ce576040517f08c379a00000000000000000000000000000000000000000000000000000000081526004018080602001828103825260138152602001807f496e76616c69642063616d706169676e2069640000000000000000000000000081525060200191505060405180910390fd5b6000600160066000848152602001908152602001600020600601540190508060066000848152602001908152602001600020600601819055507f9c80f0e1f03145d2a9703bfa3a9b71624ac4aa74a383648a0dcd84a303a622ec816040518082815260200191505060405180910390a15050565b6000600754821015156138bd576040517f08c379a00000000000000000000000000000000000000000000000000000000081526004018080602001828103825260138152602001807f496e76616c69642063616d706169676e2069640000000000000000000000000081525060200191505060405180910390fd5b60066000838152602001908152602001600020600501549050919050565b600060075482101515613956576040517f08c379a00000000000000000000000000000000000000000000000000000000081526004018080602001828103825260138152602001807f496e76616c69642063616d706169676e2069640000000000000000000000000081525060200191505060405180910390fd5b60018081111561396257fe5b6006600084815260200190815260200160002060090160009054906101000a900460ff16600181111561399157fe5b14156139a057600190506139a5565b600090505b919050565b600060075482101515613a25576040517f08c379a00000000000000000000000000000000000000000000000000000000081526004018080602001828103825260138152602001807f496e76616c69642063616d706169676e2069640000000000000000000000000081525060200191505060405180910390fd5b60066000838152602001908152602001600020600801549050919050565b6101406040519081016040528060008152602001606081526020016060815260200160608152602001600081526020016000815260200160008152602001600081526020016000815260200160006001811115613a9c57fe5b81525090565b828054600181600116156101000203166002900490600052602060002090601f016020900481019282601f10613ae357805160ff1916838001178555613b11565b82800160010185558215613b11579182015b82811115613b10578251825591602001919060010190613af5565b5b509050613b1e9190613b81565b5090565b60e060405190810160405280600073ffffffffffffffffffffffffffffffffffffffff168152602001606081526020016060815260200160608152602001606081526020016060815260200160006002811115613b7b57fe5b81525090565b613ba391905b80821115613b9f576000816000905550600101613b87565b5090565b9056fea165627a7a72305820c19ca98c2af3d2c37258433b52fa7a6b4b7050f34fbd6452a01ac9accd1722e80029",
  "source": "pragma solidity ^0.5.0;\n\ncontract Charity {\n\n  enum CharityStatus {\n    UNVERIFIED, VERIFIED, REJECTED\n  }\n\n  enum CampaignStatus {\n    ONGOING, ENDED\n  }\n\n  struct charity {\n    address charityOwner;\n    bytes charityName;\n    bytes charityAddress;\n    bytes contactNumber;\n    bytes description;\n    bytes pictureURL;\n    CharityStatus charityStatus;\n  }\n\n  struct campaign {\n    uint charityId;\n    bytes campaignName;\n    bytes description;\n    bytes pictureURL;\n    uint targetDonation;\n    uint currentDonation;\n    uint noOfDonors;\n    uint startDate;\n    uint endDate;\n    CampaignStatus campaignStatus;\n  }\n\n  address contractOwner = msg.sender;\n  //uint[] charitiesPendingVerification;\n  mapping(uint => bool) isVerifiedCharity;\n  mapping(uint => charity) charities;\n  mapping(address => uint) charityAddressMap;\n  uint noOfCharities = 0;\n\n  //uint[] ongoingCampaigns;\n  mapping(uint => bool) isOngoingCampaign;\n  mapping(uint => campaign) campaigns;\n  uint noOfCampaigns = 0;\n\n  event charityRegistered (uint charityId);\n  event charityVerified (uint charityId);\n  event charityRejected (uint charityId);\n  event charityRevoked (uint charityId);\n  event campaignCreated(uint charityId, uint campaignId);\n  event campaignEnded(uint campaignId);\n  event updateCurrentDonation(uint newAmount);\n  event updateCampaignDonors(uint newNumber);\n\n\n  modifier onlyOwner(address caller) {\n    require(caller == contractOwner, \"Caller is not contract owner\");\n    _;\n  }\n\n\n  // This will be the modifier that checks whether the function call is done by the Charity itself.\n  modifier onlyVerifiedCharity(address caller) {\n    require(isVerifiedCharity[charityAddressMap[caller]], \"Caller is not a valid charity\");\n    _;\n  }\n\n  function registerCharity(bytes memory charityName, bytes memory charityAddress, bytes memory contactNumber, bytes memory description, bytes memory pictureURL) public returns (uint charityId) {\n    /*require(charityName != \"Charity name cannot be empty\");\n    require(charityAddress != \"Charity address cannot be empty\");\n    require(contactNumber != \"Charity number cannot be empty\");\n    require(description != \"Description cannot be empty\");\n    require(pictureURL != \"Picture URL cannot be empty\");*/\n\n    charityId = noOfCharities++;\n    charity memory newCharity = charity(msg.sender, charityName, charityAddress, contactNumber, description, pictureURL, CharityStatus.UNVERIFIED);\n    charities[charityId] = newCharity;\n    charityAddressMap[msg.sender] = charityId;\n    isVerifiedCharity[charityId] = false;\n    emit charityRegistered(charityId);\n    // charitiesPendingVerification.push(charityId);\n    return charityId;\n  }\n\n  function verifyCharity(uint charityId) public onlyOwner(msg.sender) {\n    require(msg.sender == contractOwner, \"Caller is not contract owner\");\n    require(charityId < noOfCharities, \"Invalid charity id\");\n    require(charities[charityId].charityStatus == CharityStatus.UNVERIFIED, \"Charity has been verified or rejected\");\n    require(isVerifiedCharity[charityId] == false, \"Charity has been verified\");\n\n    charities[charityId].charityStatus = CharityStatus.VERIFIED;\n    isVerifiedCharity[charityId] = true;\n    emit charityVerified(charityId);\n    // remove charity from charitiesPendingVerification[]\n  }\n\n  function rejectCharity(uint charityId) public onlyOwner(msg.sender) {\n    require(msg.sender == contractOwner, \"Caller is not contract owner\");\n    require(charityId < noOfCharities, \"Invalid charity id\");\n    require(charities[charityId].charityStatus == CharityStatus.UNVERIFIED, \"Charity has been verified or rejected\");\n    require(isVerifiedCharity[charityId] == false, \"Charity has been verified\");\n\n    charities[charityId].charityStatus = CharityStatus.REJECTED;\n    emit charityRejected(charityId);\n    // remove charity from charitiesPendingVerification[]\n  }\n\n  function revokeCharity(uint charityId) public onlyOwner(msg.sender) {\n    require(msg.sender == contractOwner, \"Caller is not contract owner\");\n    require(charityId < noOfCharities, \"Invalid charity id\");\n    require(charities[charityId].charityStatus == CharityStatus.VERIFIED, \"Charity is not a verified charity\");\n    require(isVerifiedCharity[charityId] == true, \"Charity has been verified\");\n\n    charities[charityId].charityStatus = CharityStatus.REJECTED;\n    emit charityRevoked(charityId);\n  }\n\n  /*\n  * This will be the function that charities call to create a campaign.\n  * Parameters of this function will include uint targetDonation (of the campaign), uint startDate (of the campaign), uint endDate (of the campaign)\n  */\n  function createCampaign(bytes memory campaignName, bytes memory description, bytes memory pictureURL, uint targetDonation, uint startDate, uint endDate) public onlyVerifiedCharity(msg.sender) returns (uint campaignId) {\n    /*require(campaignName != \"Charity name cannot be empty\");\n    require(description != \"Description cannot be empty\");\n    require(pictureURL != \"Picture URL cannot be empty\");\n    require(targetDonation > 0, \"Target donation must be larger than 0\");\n    require(startDate < endDate, \"Start date must be earlier than end date\");*/\n\n    campaignId = noOfCampaigns++;\n    uint charityId = charityAddressMap[msg.sender];\n    campaign memory newCampaign = campaign(charityId, campaignName, description, pictureURL, targetDonation, 0, 0, startDate, endDate, CampaignStatus.ONGOING);\n    campaigns[campaignId] = newCampaign;\n    // ongoingCampaigns.push(campaignId);\n    isOngoingCampaign[campaignId] = true;\n    emit campaignCreated(charityId, campaignId);\n    return campaignId;\n  }\n\n  /*\n  *\n  * This will be the function that charities call to end an ongoing campaign.\n  * Parameters of this function will include uint campaignId\n  */\n  function endCampaign(uint campaignId) public onlyVerifiedCharity(msg.sender) onlyOwner(msg.sender) {\n    require(campaignId < noOfCampaigns, \"Invalid campaign id\");\n    require(isOngoingCampaign[campaignId], \"Campaign is not ongoing\");\n    require(msg.sender == charities[campaigns[campaignId].charityId].charityOwner, \"Caller is not owner of charity\");\n\n    campaigns[campaignId].campaignStatus = CampaignStatus.ENDED;\n    isOngoingCampaign[campaignId] = false;\n    emit campaignEnded(campaignId);\n    // remove campaign from ongoingCampaigns[]\n  }\n\n  /*\n  * This will be the getter function that everyone can call to check the charity address.\n  * Parameters of this function will include uint charityId\n  */\n  function getCharityOwner(uint charityId) public view returns (address) {\n    require(charityId < noOfCharities, \"Invalid charity id\");\n    return charities[charityId].charityOwner;\n  }\n\n  /*\n  * This will be the getter function that everyone can call to check the charity name.\n  * Parameters of this function will include uint charityId\n  */\n  function getCharityName(uint charityId) public view returns (bytes memory) {\n    require(charityId < noOfCharities, \"Invalid charity id\");\n    return charities[charityId].charityName;\n  }\n\n  /*\n  * This will be the getter function that everyone can call to check the charity pictureURL.\n  * Parameters of this function will include uint charityId\n  */\n  function getCharityPictureURL(uint charityId) public view returns (bytes memory) {\n    require(charityId < noOfCharities, \"Invalid charity id\");\n    return charities[charityId].pictureURL;\n  }\n\n  /*\n  * This will be the getter function that everyone can call to check the charity description.\n  * Parameters of this function will include uint charityId\n  */\n  function getCharityDescription(uint charityId) public view returns (bytes memory) {\n    require(charityId < noOfCharities, \"Invalid charity id\");\n    return charities[charityId].description;\n  }\n\n  /*\n  * This will be the getter function that everyone can call to check the charity status.\n  * Parameters of this function will include uint charityId\n  */\n  function getCharityStatus(uint charityId) public view returns (CharityStatus) {\n    require(charityId < noOfCharities, \"Invalid charity id\");\n    return charities[charityId].charityStatus;\n  }\n\n  /* \n  * This will be the getter function that everyone can call to get the total amounts of the charities.\n  * There will be no parameters for this function\n  */\n  function getNoOfCharities() public view returns (uint) {\n    return noOfCharities;\n  }\n\n  /*\n  * This will be the getter function that everyone can call to get the total amounts of verified charities\n  * There will be no parameters for this function\n  */\n  function getVerifiedCharityAmount() public view returns (uint) {\n    uint noOfVerifiedCharities = 0;\n    for (uint i = 0; i < noOfCharities; i++) {\n      if (charities[i].charityStatus == CharityStatus.VERIFIED) {\n        noOfVerifiedCharities++;\n      }\n    }\n    return noOfVerifiedCharities;\n  }\n\n  /*\n  * This will be the getter function that everyone can call to get the total amounts of unverified charities\n  * There will be no parameters for this function\n  */\n  function getUnverifiedCharityAmount() public view returns (uint) {\n    uint noOfUnverifiedCharities = 0;\n    for (uint i = 0; i < noOfCharities; i++) {\n      if (charities[i].charityStatus == CharityStatus.UNVERIFIED) {\n        noOfUnverifiedCharities++;\n      }\n    }\n    return noOfUnverifiedCharities;\n  }\n\n  /*\n  * This will be the getter function that everyone can call to get the total amounts of rejected charities\n  * There will be no parameters for this function\n  */\n  function getRejectedCharityAmount() public view returns (uint) {\n    uint noOfRejectedCharities = 0;\n    for (uint i = 0; i < noOfCharities; i++) {\n      if (charities[i].charityStatus == CharityStatus.REJECTED) {\n        noOfRejectedCharities++;\n      }\n    }\n    return noOfRejectedCharities;\n  }\n\n  /*\n  * This will be the function that everyone can call to get the total amounts of campaigns hold by the given charities\n  * Parameters of this function will include uint charityId\n  */\n  function getCampaignAmountByCharity(uint charityId) public view returns (uint) {\n    uint noOfCampaignByCharity = 0;\n    for (uint i = 0; i < noOfCampaigns; i++) {\n      if (campaigns[i].charityId == charityId) {\n        noOfCampaignByCharity++;\n      }\n    }\n    return noOfCampaignByCharity;\n  }\n\n  /*\n  * This will be the function that everyone can call to get the total amounts of active campaigns hold by the given charities\n  * Parameters of this function will include uint charityId\n  */\n  function getActiveCampaignAmountByCharity(uint charityId) public view returns (uint) {\n    uint noOfActiveCampaignByCharity = 0;\n    for (uint i = 0; i < noOfCampaigns; i++) {\n      if (campaigns[i].charityId == charityId && isOngoingCampaign[i] == true) {\n        noOfActiveCampaignByCharity++;\n      }\n    }\n    return noOfActiveCampaignByCharity;\n  }\n\n  /*\n  * This will be the function that everyone can call to get the total amounts of ended campaigns hold by the given charities\n  * Parameters of this function will include uint charityId\n  */\n  function getEndedCampaignAmountByCharity(uint charityId) public view returns (uint) {\n    uint noOfEndedCampaignByCharity = 0;\n    for (uint i = 0; i < noOfCampaigns; i++) {\n      if (campaigns[i].charityId == charityId && isOngoingCampaign[i] == false) {\n        noOfEndedCampaignByCharity++;\n      }\n    }\n    return noOfEndedCampaignByCharity;\n  }\n\n  /*\n  * This will be the getter function that everyone can call to check the campaign's charityId.\n  * Parameters of this function will include uint campaignId\n  */\n  function getCampaignCharity(uint campaignId) public view returns (uint) {\n    require(campaignId < noOfCampaigns, \"Invalid campaign id\");\n    return campaigns[campaignId].charityId;\n  }\n\n  /*\n  * This will be the getter function that everyone can call to check the campaign name.\n  * Parameters of this function will include uint campaignId\n  */\n  function getCampaignName(uint campaignId) public view returns (bytes memory) {\n    require(campaignId < noOfCampaigns, \"Invalid campaign id\");\n    return campaigns[campaignId].campaignName;\n  }\n\n  /*\n  * This will be the getter function that everyone can call to check the campaign description.\n  * Parameters of this function will include uint campaignId\n  */\n  function getCampaignDescription(uint campaignId) public view returns (bytes memory) {\n    require(campaignId < noOfCampaigns, \"Invalid campaign id\");\n    return campaigns[campaignId].description;\n  }\n\n  /*\n  * This will be the getter function that everyone can call to check the campaign pictureURL.\n  * Parameters of this function will include uint campaignId\n  */\n  function getCampaignPictureURL(uint campaignId) public view returns (bytes memory) {\n    require(campaignId < noOfCampaigns, \"Invalid campaign id\");\n    return campaigns[campaignId].pictureURL;\n  }\n\n  /*\n  * This will be the getter function that everyone can call to check the campaign targetDonation.\n  * Parameters of this function will include uint campaignId\n  */\n  function getCampaignTargetDonation(uint campaignId) public view returns (uint) {\n    require(campaignId < noOfCampaigns, \"Invalid campaign id\");\n    return campaigns[campaignId].targetDonation;\n  }\n\n  /*\n  * This will be the getter function that everyone can call to check the campaign currentDonation.\n  * Parameters of this function will include uint campaignId\n  */\n  function getCampaignCurrentDonation(uint campaignId) public view returns (uint) {\n    require(campaignId < noOfCampaigns, \"Invalid campaign id\");\n    return campaigns[campaignId].currentDonation;\n  }\n\n  /*\n  * This will be the getter function that everyone can call to check the campaign noOfDonors.\n  * Parameters of this function will include uint campaignId\n  */\n  function getCampaignNoOfDonors(uint campaignId) public view returns (uint) {\n    require(campaignId < noOfCampaigns, \"Invalid campaign id\");\n    return campaigns[campaignId].noOfDonors;\n  }\n\n  /*\n  * This will be the getter function that everyone can call to check the campaign startDate.\n  * Parameters of this function will include uint campaignId\n  */\n  function getCampaignStartDate(uint campaignId) public view returns (uint) {\n    require(campaignId < noOfCampaigns, \"Invalid campaign id\");\n    return campaigns[campaignId].startDate;\n  }\n\n  /*\n  * This will be the getter function that everyone can call to check the campaign endDate.\n  * Parameters of this function will include uint campaignId\n  */\n  function getCampaignEndDate(uint campaignId) public view returns (uint) {\n    require(campaignId < noOfCampaigns, \"Invalid campaign id\");\n    return campaigns[campaignId].endDate;\n  }\n\n  /*\n  * This will be the getter function that everyone can call to check the campaign status.\n  * Parameters of this function will include uint campaignId\n  */\n  function getCampaignStatus(uint campaignId) public view returns (CampaignStatus) {\n    require(campaignId < noOfCampaigns, \"Invalid campaign id\");\n    return campaigns[campaignId].campaignStatus;\n  }\n\n  /* \n  * This will be the getter function that everyone can call to get the total amounts of the campaigns.\n  * There will be no parameters fot this function\n  */\n  function getNoOfCampaigns() public view returns (uint) {\n    return noOfCampaigns;\n  }\n  \n  // boolean to check campaign status\n  function isStatusComplete(uint campaignId) public view returns (bool) {\n    require(campaignId < noOfCampaigns, \"Invalid campaign id\");\n    if(campaigns[campaignId].campaignStatus == CampaignStatus.ENDED) {\n        return true;\n    }\n    return false;\n  }\n  \n  // boolean to check if campaign is valid\n  function checkValidCampaign(uint campaignId) public view returns (bool) {\n      if(campaignId < noOfCampaigns) {\n          return true;\n      }\n      return false;\n  }\n    \n  /*\n  * This will be the function that updates the campaign's currentDonation\n  * Parameters of this function will include uint campaignId and uint newDonation\n  */\n  function updateCampaignCurrentDonation(uint campaignId, uint newDonation) public {\n      require(campaignId < noOfCampaigns, \"Invalid campaign id\");\n      uint newAmount = campaigns[campaignId].currentDonation + newDonation;\n      campaigns[campaignId].currentDonation = newAmount;\n      emit updateCurrentDonation(newAmount);\n  }\n  \n  /*\n  * This will be the function that updates the campaign's noOfDonors\n  * Parameters of this function will include uint campaignId\n  */\n  function addCampaignDonor(uint campaignId) public {\n      require(campaignId < noOfCampaigns, \"Invalid campaign id\");\n      uint newNumber = campaigns[campaignId].noOfDonors + 1;\n      campaigns[campaignId].noOfDonors = newNumber;\n      emit updateCampaignDonors(newNumber);\n  }\n\n  /*\n  * This will be the function to get contract's owner\n  * There will be no parameters for this function\n  */\n  function getContractOwner() public view returns (address) {\n    return contractOwner;\n  }\n\n}",
  "sourcePath": "/Users/hawayo/Desktop/sharity/contracts/Charity.sol",
  "compiler": {
    "name": "solc",
    "version": "0.5.0+commit.1d4f565a.Emscripten.clang"
  },
  "schemaVersion": "3.3.3",
  "updatedAt": "2021-03-30T08:10:22.295Z",
  "networkType": "ethereum",
  "devdoc": {
    "methods": {}
  },
  "userdoc": {
    "methods": {}
  }
}