{
  "contractName": "Charity",
  "abi": [
    {
      "anonymous": false,
      "inputs": [
        {
          "indexed": false,
          "name": "charityId",
          "type": "uint256"
        }
      ],
      "name": "charityRegistered",
      "type": "event"
    },
    {
      "anonymous": false,
      "inputs": [
        {
          "indexed": false,
          "name": "charityId",
          "type": "uint256"
        }
      ],
      "name": "charityVerified",
      "type": "event"
    },
    {
      "anonymous": false,
      "inputs": [
        {
          "indexed": false,
          "name": "charityId",
          "type": "uint256"
        }
      ],
      "name": "charityRejected",
      "type": "event"
    },
    {
      "anonymous": false,
      "inputs": [
        {
          "indexed": false,
          "name": "charityId",
          "type": "uint256"
        }
      ],
      "name": "charityRevoked",
      "type": "event"
    },
    {
      "anonymous": false,
      "inputs": [
        {
          "indexed": false,
          "name": "charityId",
          "type": "uint256"
        },
        {
          "indexed": false,
          "name": "campaignId",
          "type": "uint256"
        }
      ],
      "name": "campaignCreated",
      "type": "event"
    },
    {
      "anonymous": false,
      "inputs": [
        {
          "indexed": false,
          "name": "campaignId",
          "type": "uint256"
        }
      ],
      "name": "campaignEnded",
      "type": "event"
    },
    {
      "anonymous": false,
      "inputs": [
        {
          "indexed": false,
          "name": "newAmount",
          "type": "uint256"
        }
      ],
      "name": "updateCurrentDonation",
      "type": "event"
    },
    {
      "anonymous": false,
      "inputs": [
        {
          "indexed": false,
          "name": "newNumber",
          "type": "uint256"
        }
      ],
      "name": "updateCampaignDonors",
      "type": "event"
    },
    {
      "constant": false,
      "inputs": [
        {
          "name": "charityName",
          "type": "bytes"
        },
        {
          "name": "charityAddress",
          "type": "bytes"
        },
        {
          "name": "contactNumber",
          "type": "bytes"
        },
        {
          "name": "description",
          "type": "bytes"
        },
        {
          "name": "pictureURL",
          "type": "bytes"
        }
      ],
      "name": "registerCharity",
      "outputs": [
        {
          "name": "charityId",
          "type": "uint256"
        }
      ],
      "payable": false,
      "stateMutability": "nonpayable",
      "type": "function"
    },
    {
      "constant": false,
      "inputs": [
        {
          "name": "charityId",
          "type": "uint256"
        }
      ],
      "name": "verifyCharity",
      "outputs": [],
      "payable": false,
      "stateMutability": "nonpayable",
      "type": "function"
    },
    {
      "constant": false,
      "inputs": [
        {
          "name": "charityId",
          "type": "uint256"
        }
      ],
      "name": "rejectCharity",
      "outputs": [],
      "payable": false,
      "stateMutability": "nonpayable",
      "type": "function"
    },
    {
      "constant": false,
      "inputs": [
        {
          "name": "charityId",
          "type": "uint256"
        }
      ],
      "name": "revokeCharity",
      "outputs": [],
      "payable": false,
      "stateMutability": "nonpayable",
      "type": "function"
    },
    {
      "constant": false,
      "inputs": [
        {
          "name": "campaignName",
          "type": "bytes"
        },
        {
          "name": "description",
          "type": "bytes"
        },
        {
          "name": "pictureURL",
          "type": "bytes"
        },
        {
          "name": "targetDonation",
          "type": "uint256"
        },
        {
          "name": "startDate",
          "type": "uint256"
        },
        {
          "name": "endDate",
          "type": "uint256"
        }
      ],
      "name": "createCampaign",
      "outputs": [
        {
          "name": "campaignId",
          "type": "uint256"
        }
      ],
      "payable": false,
      "stateMutability": "nonpayable",
      "type": "function"
    },
    {
      "constant": false,
      "inputs": [
        {
          "name": "campaignId",
          "type": "uint256"
        }
      ],
      "name": "endCampaign",
      "outputs": [],
      "payable": false,
      "stateMutability": "nonpayable",
      "type": "function"
    },
    {
      "constant": true,
      "inputs": [
        {
          "name": "charityId",
          "type": "uint256"
        }
      ],
      "name": "getCharityOwner",
      "outputs": [
        {
          "name": "",
          "type": "address"
        }
      ],
      "payable": false,
      "stateMutability": "view",
      "type": "function"
    },
    {
      "constant": true,
      "inputs": [
        {
          "name": "charityId",
          "type": "uint256"
        }
      ],
      "name": "getCharityName",
      "outputs": [
        {
          "name": "",
          "type": "bytes"
        }
      ],
      "payable": false,
      "stateMutability": "view",
      "type": "function"
    },
    {
      "constant": true,
      "inputs": [
        {
          "name": "charityId",
          "type": "uint256"
        }
      ],
      "name": "getCharityPictureURL",
      "outputs": [
        {
          "name": "",
          "type": "bytes"
        }
      ],
      "payable": false,
      "stateMutability": "view",
      "type": "function"
    },
    {
      "constant": true,
      "inputs": [
        {
          "name": "charityId",
          "type": "uint256"
        }
      ],
      "name": "getCharityDescription",
      "outputs": [
        {
          "name": "",
          "type": "bytes"
        }
      ],
      "payable": false,
      "stateMutability": "view",
      "type": "function"
    },
    {
      "constant": true,
      "inputs": [
        {
          "name": "charityId",
          "type": "uint256"
        }
      ],
      "name": "getCharityStatus",
      "outputs": [
        {
          "name": "",
          "type": "uint8"
        }
      ],
      "payable": false,
      "stateMutability": "view",
      "type": "function"
    },
    {
      "constant": true,
      "inputs": [
        {
          "name": "charityId",
          "type": "uint256"
        }
      ],
      "name": "getCharityContactNumber",
      "outputs": [
        {
          "name": "",
          "type": "bytes"
        }
      ],
      "payable": false,
      "stateMutability": "view",
      "type": "function"
    },
    {
      "constant": true,
      "inputs": [
        {
          "name": "charityId",
          "type": "uint256"
        }
      ],
      "name": "getCharityContactAddress",
      "outputs": [
        {
          "name": "",
          "type": "bytes"
        }
      ],
      "payable": false,
      "stateMutability": "view",
      "type": "function"
    },
    {
      "constant": true,
      "inputs": [],
      "name": "getNoOfCharities",
      "outputs": [
        {
          "name": "",
          "type": "uint256"
        }
      ],
      "payable": false,
      "stateMutability": "view",
      "type": "function"
    },
    {
      "constant": true,
      "inputs": [],
      "name": "getVerifiedCharityAmount",
      "outputs": [
        {
          "name": "",
          "type": "uint256"
        }
      ],
      "payable": false,
      "stateMutability": "view",
      "type": "function"
    },
    {
      "constant": true,
      "inputs": [],
      "name": "getUnverifiedCharityAmount",
      "outputs": [
        {
          "name": "",
          "type": "uint256"
        }
      ],
      "payable": false,
      "stateMutability": "view",
      "type": "function"
    },
    {
      "constant": true,
      "inputs": [],
      "name": "getRejectedCharityAmount",
      "outputs": [
        {
          "name": "",
          "type": "uint256"
        }
      ],
      "payable": false,
      "stateMutability": "view",
      "type": "function"
    },
    {
      "constant": true,
      "inputs": [
        {
          "name": "charityId",
          "type": "uint256"
        }
      ],
      "name": "getCampaignAmountByCharity",
      "outputs": [
        {
          "name": "",
          "type": "uint256"
        }
      ],
      "payable": false,
      "stateMutability": "view",
      "type": "function"
    },
    {
      "constant": true,
      "inputs": [
        {
          "name": "charityId",
          "type": "uint256"
        }
      ],
      "name": "getActiveCampaignAmountByCharity",
      "outputs": [
        {
          "name": "",
          "type": "uint256"
        }
      ],
      "payable": false,
      "stateMutability": "view",
      "type": "function"
    },
    {
      "constant": true,
      "inputs": [
        {
          "name": "charityId",
          "type": "uint256"
        }
      ],
      "name": "getEndedCampaignAmountByCharity",
      "outputs": [
        {
          "name": "",
          "type": "uint256"
        }
      ],
      "payable": false,
      "stateMutability": "view",
      "type": "function"
    },
    {
      "constant": true,
      "inputs": [
        {
          "name": "campaignId",
          "type": "uint256"
        }
      ],
      "name": "getCampaignCharity",
      "outputs": [
        {
          "name": "",
          "type": "uint256"
        }
      ],
      "payable": false,
      "stateMutability": "view",
      "type": "function"
    },
    {
      "constant": true,
      "inputs": [
        {
          "name": "campaignId",
          "type": "uint256"
        }
      ],
      "name": "getCampaignName",
      "outputs": [
        {
          "name": "",
          "type": "bytes"
        }
      ],
      "payable": false,
      "stateMutability": "view",
      "type": "function"
    },
    {
      "constant": true,
      "inputs": [
        {
          "name": "campaignId",
          "type": "uint256"
        }
      ],
      "name": "getCampaignDescription",
      "outputs": [
        {
          "name": "",
          "type": "bytes"
        }
      ],
      "payable": false,
      "stateMutability": "view",
      "type": "function"
    },
    {
      "constant": true,
      "inputs": [
        {
          "name": "campaignId",
          "type": "uint256"
        }
      ],
      "name": "getCampaignPictureURL",
      "outputs": [
        {
          "name": "",
          "type": "bytes"
        }
      ],
      "payable": false,
      "stateMutability": "view",
      "type": "function"
    },
    {
      "constant": true,
      "inputs": [
        {
          "name": "campaignId",
          "type": "uint256"
        }
      ],
      "name": "getCampaignTargetDonation",
      "outputs": [
        {
          "name": "",
          "type": "uint256"
        }
      ],
      "payable": false,
      "stateMutability": "view",
      "type": "function"
    },
    {
      "constant": true,
      "inputs": [
        {
          "name": "campaignId",
          "type": "uint256"
        }
      ],
      "name": "getCampaignCurrentDonation",
      "outputs": [
        {
          "name": "",
          "type": "uint256"
        }
      ],
      "payable": false,
      "stateMutability": "view",
      "type": "function"
    },
    {
      "constant": true,
      "inputs": [
        {
          "name": "campaignId",
          "type": "uint256"
        }
      ],
      "name": "getCampaignNoOfDonors",
      "outputs": [
        {
          "name": "",
          "type": "uint256"
        }
      ],
      "payable": false,
      "stateMutability": "view",
      "type": "function"
    },
    {
      "constant": true,
      "inputs": [
        {
          "name": "campaignId",
          "type": "uint256"
        }
      ],
      "name": "getCampaignStartDate",
      "outputs": [
        {
          "name": "",
          "type": "uint256"
        }
      ],
      "payable": false,
      "stateMutability": "view",
      "type": "function"
    },
    {
      "constant": true,
      "inputs": [
        {
          "name": "campaignId",
          "type": "uint256"
        }
      ],
      "name": "getCampaignEndDate",
      "outputs": [
        {
          "name": "",
          "type": "uint256"
        }
      ],
      "payable": false,
      "stateMutability": "view",
      "type": "function"
    },
    {
      "constant": true,
      "inputs": [
        {
          "name": "campaignId",
          "type": "uint256"
        }
      ],
      "name": "getCampaignStatus",
      "outputs": [
        {
          "name": "",
          "type": "uint8"
        }
      ],
      "payable": false,
      "stateMutability": "view",
      "type": "function"
    },
    {
      "constant": true,
      "inputs": [],
      "name": "getNoOfCampaigns",
      "outputs": [
        {
          "name": "",
          "type": "uint256"
        }
      ],
      "payable": false,
      "stateMutability": "view",
      "type": "function"
    },
    {
      "constant": true,
      "inputs": [
        {
          "name": "campaignId",
          "type": "uint256"
        }
      ],
      "name": "isStatusComplete",
      "outputs": [
        {
          "name": "",
          "type": "bool"
        }
      ],
      "payable": false,
      "stateMutability": "view",
      "type": "function"
    },
    {
      "constant": true,
      "inputs": [
        {
          "name": "campaignId",
          "type": "uint256"
        }
      ],
      "name": "checkValidCampaign",
      "outputs": [
        {
          "name": "",
          "type": "bool"
        }
      ],
      "payable": false,
      "stateMutability": "view",
      "type": "function"
    },
    {
      "constant": false,
      "inputs": [
        {
          "name": "campaignId",
          "type": "uint256"
        },
        {
          "name": "newDonation",
          "type": "uint256"
        }
      ],
      "name": "updateCampaignCurrentDonation",
      "outputs": [],
      "payable": false,
      "stateMutability": "nonpayable",
      "type": "function"
    },
    {
      "constant": false,
      "inputs": [
        {
          "name": "campaignId",
          "type": "uint256"
        }
      ],
      "name": "addCampaignDonor",
      "outputs": [],
      "payable": false,
      "stateMutability": "nonpayable",
      "type": "function"
    },
    {
      "constant": true,
      "inputs": [],
      "name": "getContractOwner",
      "outputs": [
        {
          "name": "",
          "type": "address"
        }
      ],
      "payable": false,
      "stateMutability": "view",
      "type": "function"
    }
  ],
  "bytecode": "0x6080604052336000806101000a81548173ffffffffffffffffffffffffffffffffffffffff021916908373ffffffffffffffffffffffffffffffffffffffff1602179055506000600655600060095534801561005a57600080fd5b506140f78061006a6000396000f3fe6080604052600436106101c1576000357c0100000000000000000000000000000000000000000000000000000000900463ffffffff16806296a1f0146101c6578063068782d2146101f157806306fd7c60146102a55780630749c8ac146102d05780630bbcf6961461038457806315f28a27146103bf578063161d3dd11461040e57806332fa180d1461043957806336400a22146104645780633ffe888f1461068c578063442890d5146106db57806354ee0d361461073257806355fb8f531461078157806357d65eac146108355780635a102275146108885780635e0566a31461093c5780636c19e004146109f057806374eb573814610a4d57806376e77d3414610a9c5780637ede52fc14610aeb57806395657f7e14610b9f578063960bb88714610c53578063980a268814610ca25780639eaec80314610d56578063a16fd1d014610d91578063a6af939a14610dee578063b0de901014610e33578063bc4465da14610e6e578063ce269af814610ebd578063dd0408ae146111f5578063ddf1317614611230578063e317526a1461125b578063ea79c200146112d6578063f1c4bfac14611311578063f6b5489814611360578063fb99932f146113b3575b600080fd5b3480156101d257600080fd5b506101db611402565b6040518082815260200191505060405180910390f35b3480156101fd57600080fd5b5061022a6004803603602081101561021457600080fd5b8101908080359060200190929190505050611478565b6040518080602001828103825283818151815260200191508051906020019080838360005b8381101561026a57808201518184015260208101905061024f565b50505050905090810190601f1680156102975780820380516001836020036101000a031916815260200191505b509250505060405180910390f35b3480156102b157600080fd5b506102ba6115a9565b6040518082815260200191505060405180910390f35b3480156102dc57600080fd5b50610309600480360360208110156102f357600080fd5b8101908080359060200190929190505050611620565b6040518080602001828103825283818151815260200191508051906020019080838360005b8381101561034957808201518184015260208101905061032e565b50505050905090810190601f1680156103765780820380516001836020036101000a031916815260200191505b509250505060405180910390f35b34801561039057600080fd5b506103bd600480360360208110156103a757600080fd5b8101908080359060200190929190505050611751565b005b3480156103cb57600080fd5b506103f8600480360360208110156103e257600080fd5b8101908080359060200190929190505050611b38565b6040518082815260200191505060405180910390f35b34801561041a57600080fd5b50610423611bd1565b6040518082815260200191505060405180910390f35b34801561044557600080fd5b5061044e611bdb565b6040518082815260200191505060405180910390f35b34801561047057600080fd5b50610676600480360360c081101561048757600080fd5b81019080803590602001906401000000008111156104a457600080fd5b8201836020820111156104b657600080fd5b803590602001918460018302840111640100000000831117156104d857600080fd5b91908080601f016020809104026020016040519081016040528093929190818152602001838380828437600081840152601f19601f8201169050808301925050505050505091929192908035906020019064010000000081111561053b57600080fd5b82018360208201111561054d57600080fd5b8035906020019184600183028401116401000000008311171561056f57600080fd5b91908080601f016020809104026020016040519081016040528093929190818152602001838380828437600081840152601f19601f820116905080830192505050505050509192919290803590602001906401000000008111156105d257600080fd5b8201836020820111156105e457600080fd5b8035906020019184600183028401116401000000008311171561060657600080fd5b91908080601f016020809104026020016040519081016040528093929190818152602001838380828437600081840152601f19601f820116905080830192505050505050509192919290803590602001909291908035906020019092919080359060200190929190505050611be5565b6040518082815260200191505060405180910390f35b34801561069857600080fd5b506106c5600480360360208110156106af57600080fd5b8101908080359060200190929190505050611ec2565b6040518082815260200191505060405180910390f35b3480156106e757600080fd5b506106f0611f5b565b604051808273ffffffffffffffffffffffffffffffffffffffff1673ffffffffffffffffffffffffffffffffffffffff16815260200191505060405180910390f35b34801561073e57600080fd5b5061076b6004803603602081101561075557600080fd5b8101908080359060200190929190505050611f84565b6040518082815260200191505060405180910390f35b34801561078d57600080fd5b506107ba600480360360208110156107a457600080fd5b8101908080359060200190929190505050612009565b6040518080602001828103825283818151815260200191508051906020019080838360005b838110156107fa5780820151818401526020810190506107df565b50505050905090810190601f1680156108275780820380516001836020036101000a031916815260200191505b509250505060405180910390f35b34801561084157600080fd5b5061086e6004803603602081101561085857600080fd5b810190808035906020019092919050505061213a565b604051808215151515815260200191505060405180910390f35b34801561089457600080fd5b506108c1600480360360208110156108ab57600080fd5b8101908080359060200190929190505050612159565b6040518080602001828103825283818151815260200191508051906020019080838360005b838110156109015780820151818401526020810190506108e6565b50505050905090810190601f16801561092e5780820380516001836020036101000a031916815260200191505b509250505060405180910390f35b34801561094857600080fd5b506109756004803603602081101561095f57600080fd5b810190808035906020019092919050505061228a565b6040518080602001828103825283818151815260200191508051906020019080838360005b838110156109b557808201518184015260208101905061099a565b50505050905090810190601f1680156109e25780820380516001836020036101000a031916815260200191505b509250505060405180910390f35b3480156109fc57600080fd5b50610a2960048036036020811015610a1357600080fd5b81019080803590602001909291905050506123bb565b60405180826001811115610a3957fe5b60ff16815260200191505060405180910390f35b348015610a5957600080fd5b50610a8660048036036020811015610a7057600080fd5b8101908080359060200190929190505050612461565b6040518082815260200191505060405180910390f35b348015610aa857600080fd5b50610ad560048036036020811015610abf57600080fd5b81019080803590602001909291905050506124fa565b6040518082815260200191505060405180910390f35b348015610af757600080fd5b50610b2460048036036020811015610b0e57600080fd5b810190808035906020019092919050505061257f565b6040518080602001828103825283818151815260200191508051906020019080838360005b83811015610b64578082015181840152602081019050610b49565b50505050905090810190601f168015610b915780820380516001836020036101000a031916815260200191505b509250505060405180910390f35b348015610bab57600080fd5b50610bd860048036036020811015610bc257600080fd5b81019080803590602001909291905050506126b0565b6040518080602001828103825283818151815260200191508051906020019080838360005b83811015610c18578082015181840152602081019050610bfd565b50505050905090810190601f168015610c455780820380516001836020036101000a031916815260200191505b509250505060405180910390f35b348015610c5f57600080fd5b50610c8c60048036036020811015610c7657600080fd5b81019080803590602001909291905050506127e1565b6040518082815260200191505060405180910390f35b348015610cae57600080fd5b50610cdb60048036036020811015610cc557600080fd5b8101908080359060200190929190505050612836565b6040518080602001828103825283818151815260200191508051906020019080838360005b83811015610d1b578082015181840152602081019050610d00565b50505050905090810190601f168015610d485780820380516001836020036101000a031916815260200191505b509250505060405180910390f35b348015610d6257600080fd5b50610d8f60048036036020811015610d7957600080fd5b8101908080359060200190929190505050612967565b005b348015610d9d57600080fd5b50610dca60048036036020811015610db457600080fd5b8101908080359060200190929190505050612d4e565b60405180826002811115610dda57fe5b60ff16815260200191505060405180910390f35b348015610dfa57600080fd5b50610e3160048036036040811015610e1157600080fd5b810190808035906020019092919080359060200190929190505050612df4565b005b348015610e3f57600080fd5b50610e6c60048036036020811015610e5657600080fd5b8101908080359060200190929190505050612ee1565b005b348015610e7a57600080fd5b50610ea760048036036020811015610e9157600080fd5b81019080803590602001909291905050506132f4565b6040518082815260200191505060405180910390f35b348015610ec957600080fd5b506111df600480360360a0811015610ee057600080fd5b8101908080359060200190640100000000811115610efd57600080fd5b820183602082011115610f0f57600080fd5b80359060200191846001830284011164010000000083111715610f3157600080fd5b91908080601f016020809104026020016040519081016040528093929190818152602001838380828437600081840152601f19601f82011690508083019250505050505050919291929080359060200190640100000000811115610f9457600080fd5b820183602082011115610fa657600080fd5b80359060200191846001830284011164010000000083111715610fc857600080fd5b91908080601f016020809104026020016040519081016040528093929190818152602001838380828437600081840152601f19601f8201169050808301925050505050505091929192908035906020019064010000000081111561102b57600080fd5b82018360208201111561103d57600080fd5b8035906020019184600183028401116401000000008311171561105f57600080fd5b91908080601f016020809104026020016040519081016040528093929190818152602001838380828437600081840152601f19601f820116905080830192505050505050509192919290803590602001906401000000008111156110c257600080fd5b8201836020820111156110d457600080fd5b803590602001918460018302840111640100000000831117156110f657600080fd5b91908080601f016020809104026020016040519081016040528093929190818152602001838380828437600081840152601f19601f8201169050808301925050505050505091929192908035906020019064010000000081111561115957600080fd5b82018360208201111561116b57600080fd5b8035906020019184600183028401116401000000008311171561118d57600080fd5b91908080601f016020809104026020016040519081016040528093929190818152602001838380828437600081840152601f19601f82011690508083019250505050505050919291929050505061338d565b6040518082815260200191505060405180910390f35b34801561120157600080fd5b5061122e6004803603602081101561121857600080fd5b8101908080359060200190929190505050613713565b005b34801561123c57600080fd5b50611245613b4a565b6040518082815260200191505060405180910390f35b34801561126757600080fd5b506112946004803603602081101561127e57600080fd5b8101908080359060200190929190505050613bc1565b604051808273ffffffffffffffffffffffffffffffffffffffff1673ffffffffffffffffffffffffffffffffffffffff16815260200191505060405180910390f35b3480156112e257600080fd5b5061130f600480360360208110156112f957600080fd5b8101908080359060200190929190505050613c7a565b005b34801561131d57600080fd5b5061134a6004803603602081101561133457600080fd5b8101908080359060200190929190505050613d67565b6040518082815260200191505060405180910390f35b34801561136c57600080fd5b506113996004803603602081101561138357600080fd5b8101908080359060200190929190505050613e00565b604051808215151515815260200191505060405180910390f35b3480156113bf57600080fd5b506113ec600480360360208110156113d657600080fd5b8101908080359060200190929190505050613ecf565b6040518082815260200191505060405180910390f35b6000806000905060008090505b6006548110156114705760028081111561142557fe5b6002600083815260200190815260200160002060060160009054906101000a900460ff16600281111561145457fe5b14156114635781806001019250505b808060010191505061140f565b508091505090565b6060600954821015156114f3576040517f08c379a00000000000000000000000000000000000000000000000000000000081526004018080602001828103825260138152602001807f496e76616c69642063616d706169676e2069640000000000000000000000000081525060200191505060405180910390fd5b600860008381526020019081526020016000206002018054600181600116156101000203166002900480601f01602080910402602001604051908101604052809291908181526020018280546001816001161561010002031660029004801561159d5780601f106115725761010080835404028352916020019161159d565b820191906000526020600020905b81548152906001019060200180831161158057829003601f168201915b50505050509050919050565b6000806000905060008090505b60065481101561161857600060028111156115cd57fe5b6002600083815260200190815260200160002060060160009054906101000a900460ff1660028111156115fc57fe5b141561160b5781806001019250505b80806001019150506115b6565b508091505090565b60606006548210151561169b576040517f08c379a00000000000000000000000000000000000000000000000000000000081526004018080602001828103825260128152602001807f496e76616c69642063686172697479206964000000000000000000000000000081525060200191505060405180910390fd5b600260008381526020019081526020016000206005018054600181600116156101000203166002900480601f0160208091040260200160405190810160405280929190818152602001828054600181600116156101000203166002900480156117455780601f1061171a57610100808354040283529160200191611745565b820191906000526020600020905b81548152906001019060200180831161172857829003601f168201915b50505050509050919050565b336000809054906101000a900473ffffffffffffffffffffffffffffffffffffffff1673ffffffffffffffffffffffffffffffffffffffff168173ffffffffffffffffffffffffffffffffffffffff16141515611816576040517f08c379a000000000000000000000000000000000000000000000000000000000815260040180806020018281038252601c8152602001807f43616c6c6572206973206e6f7420636f6e7472616374206f776e65720000000081525060200191505060405180910390fd5b6000809054906101000a900473ffffffffffffffffffffffffffffffffffffffff1673ffffffffffffffffffffffffffffffffffffffff163373ffffffffffffffffffffffffffffffffffffffff161415156118da576040517f08c379a000000000000000000000000000000000000000000000000000000000815260040180806020018281038252601c8152602001807f43616c6c6572206973206e6f7420636f6e7472616374206f776e65720000000081525060200191505060405180910390fd5b60065482101515611953576040517f08c379a00000000000000000000000000000000000000000000000000000000081526004018080602001828103825260128152602001807f496e76616c69642063686172697479206964000000000000000000000000000081525060200191505060405180910390fd5b6001600281111561196057fe5b6002600084815260200190815260200160002060060160009054906101000a900460ff16600281111561198f57fe5b141515611a2a576040517f08c379a00000000000000000000000000000000000000000000000000000000081526004018080602001828103825260218152602001807f43686172697479206973206e6f7420612076657269666965642063686172697481526020017f790000000000000000000000000000000000000000000000000000000000000081525060400191505060405180910390fd5b600115156001600084815260200190815260200160002060009054906101000a900460ff161515141515611ac6576040517f08c379a00000000000000000000000000000000000000000000000000000000081526004018080602001828103825260198152602001807f4368617269747920686173206265656e2076657269666965640000000000000081525060200191505060405180910390fd5b600280600084815260200190815260200160002060060160006101000a81548160ff02191690836002811115611af857fe5b02179055507f0c3e8a5dc7b4dae9b9bacc0f229ddf9e8ff1a86a106b83477dfe72f4cda87f71826040518082815260200191505060405180910390a15050565b600060095482101515611bb3576040517f08c379a00000000000000000000000000000000000000000000000000000000081526004018080602001828103825260138152602001807f496e76616c69642063616d706169676e2069640000000000000000000000000081525060200191505060405180910390fd5b60086000838152602001908152602001600020600401549050919050565b6000600954905090565b6000600654905090565b60003360016000600360008473ffffffffffffffffffffffffffffffffffffffff1673ffffffffffffffffffffffffffffffffffffffff16815260200190815260200160002054815260200190815260200160002060009054906101000a900460ff161515611cbc576040517f08c379a000000000000000000000000000000000000000000000000000000000815260040180806020018281038252601d8152602001807f43616c6c6572206973206e6f7420612076616c6964206368617269747900000081525060200191505060405180910390fd5b600960008154809291906001019190505591506000600360003373ffffffffffffffffffffffffffffffffffffffff1673ffffffffffffffffffffffffffffffffffffffff168152602001908152602001600020549050611d1b613f68565b610140604051908101604052808381526020018b81526020018a8152602001898152602001888152602001600081526020016000815260200187815260200186815260200160006001811115611d6d57fe5b81525090508060086000868152602001908152602001600020600082015181600001556020820151816001019080519060200190611dac929190613fc7565b506040820151816002019080519060200190611dc9929190613fc7565b506060820151816003019080519060200190611de6929190613fc7565b506080820151816004015560a0820151816005015560c0820151816006015560e0820151816007015561010082015181600801556101208201518160090160006101000a81548160ff02191690836001811115611e3f57fe5b021790555090505060016007600086815260200190815260200160002060006101000a81548160ff0219169083151502179055507f43ff46a4179f4c55f80d6329f38d2f16f0f6fad7f2e689fe51362d0ee5cd05b58285604051808381526020018281526020019250505060405180910390a18393505050509695505050505050565b600060095482101515611f3d576040517f08c379a00000000000000000000000000000000000000000000000000000000081526004018080602001828103825260138152602001807f496e76616c69642063616d706169676e2069640000000000000000000000000081525060200191505060405180910390fd5b60086000838152602001908152602001600020600601549050919050565b60008060009054906101000a900473ffffffffffffffffffffffffffffffffffffffff16905090565b6000806000905060008090505b600954811015611fff57836008600083815260200190815260200160002060000154148015611fe45750600015156007600083815260200190815260200160002060009054906101000a900460ff161515145b15611ff25781806001019250505b8080600101915050611f91565b5080915050919050565b606060095482101515612084576040517f08c379a00000000000000000000000000000000000000000000000000000000081526004018080602001828103825260138152602001807f496e76616c69642063616d706169676e2069640000000000000000000000000081525060200191505060405180910390fd5b600860008381526020019081526020016000206003018054600181600116156101000203166002900480601f01602080910402602001604051908101604052809291908181526020018280546001816001161561010002031660029004801561212e5780601f106121035761010080835404028352916020019161212e565b820191906000526020600020905b81548152906001019060200180831161211157829003601f168201915b50505050509050919050565b600060095482101561214f5760019050612154565b600090505b919050565b6060600954821015156121d4576040517f08c379a00000000000000000000000000000000000000000000000000000000081526004018080602001828103825260138152602001807f496e76616c69642063616d706169676e2069640000000000000000000000000081525060200191505060405180910390fd5b600860008381526020019081526020016000206001018054600181600116156101000203166002900480601f01602080910402602001604051908101604052809291908181526020018280546001816001161561010002031660029004801561227e5780601f106122535761010080835404028352916020019161227e565b820191906000526020600020905b81548152906001019060200180831161226157829003601f168201915b50505050509050919050565b606060065482101515612305576040517f08c379a00000000000000000000000000000000000000000000000000000000081526004018080602001828103825260128152602001807f496e76616c69642063686172697479206964000000000000000000000000000081525060200191505060405180910390fd5b600260008381526020019081526020016000206003018054600181600116156101000203166002900480601f0160208091040260200160405190810160405280929190818152602001828054600181600116156101000203166002900480156123af5780601f10612384576101008083540402835291602001916123af565b820191906000526020600020905b81548152906001019060200180831161239257829003601f168201915b50505050509050919050565b600060095482101515612436576040517f08c379a00000000000000000000000000000000000000000000000000000000081526004018080602001828103825260138152602001807f496e76616c69642063616d706169676e2069640000000000000000000000000081525060200191505060405180910390fd5b6008600083815260200190815260200160002060090160009054906101000a900460ff169050919050565b6000600954821015156124dc576040517f08c379a00000000000000000000000000000000000000000000000000000000081526004018080602001828103825260138152602001807f496e76616c69642063616d706169676e2069640000000000000000000000000081525060200191505060405180910390fd5b60086000838152602001908152602001600020600001549050919050565b6000806000905060008090505b6009548110156125755783600860008381526020019081526020016000206000015414801561255a5750600115156007600083815260200190815260200160002060009054906101000a900460ff161515145b156125685781806001019250505b8080600101915050612507565b5080915050919050565b6060600654821015156125fa576040517f08c379a00000000000000000000000000000000000000000000000000000000081526004018080602001828103825260128152602001807f496e76616c69642063686172697479206964000000000000000000000000000081525060200191505060405180910390fd5b600260008381526020019081526020016000206001018054600181600116156101000203166002900480601f0160208091040260200160405190810160405280929190818152602001828054600181600116156101000203166002900480156126a45780601f10612679576101008083540402835291602001916126a4565b820191906000526020600020905b81548152906001019060200180831161268757829003601f168201915b50505050509050919050565b60606006548210151561272b576040517f08c379a00000000000000000000000000000000000000000000000000000000081526004018080602001828103825260128152602001807f496e76616c69642063686172697479206964000000000000000000000000000081525060200191505060405180910390fd5b600260008381526020019081526020016000206004018054600181600116156101000203166002900480601f0160208091040260200160405190810160405280929190818152602001828054600181600116156101000203166002900480156127d55780601f106127aa576101008083540402835291602001916127d5565b820191906000526020600020905b8154815290600101906020018083116127b857829003601f168201915b50505050509050919050565b6000806000905060008090505b60095481101561282c57836008600083815260200190815260200160002060000154141561281f5781806001019250505b80806001019150506127ee565b5080915050919050565b6060600654821015156128b1576040517f08c379a00000000000000000000000000000000000000000000000000000000081526004018080602001828103825260128152602001807f496e76616c69642063686172697479206964000000000000000000000000000081525060200191505060405180910390fd5b600260008381526020019081526020016000206002018054600181600116156101000203166002900480601f01602080910402602001604051908101604052809291908181526020018280546001816001161561010002031660029004801561295b5780601f106129305761010080835404028352916020019161295b565b820191906000526020600020905b81548152906001019060200180831161293e57829003601f168201915b50505050509050919050565b336000809054906101000a900473ffffffffffffffffffffffffffffffffffffffff1673ffffffffffffffffffffffffffffffffffffffff168173ffffffffffffffffffffffffffffffffffffffff16141515612a2c576040517f08c379a000000000000000000000000000000000000000000000000000000000815260040180806020018281038252601c8152602001807f43616c6c6572206973206e6f7420636f6e7472616374206f776e65720000000081525060200191505060405180910390fd5b6000809054906101000a900473ffffffffffffffffffffffffffffffffffffffff1673ffffffffffffffffffffffffffffffffffffffff163373ffffffffffffffffffffffffffffffffffffffff16141515612af0576040517f08c379a000000000000000000000000000000000000000000000000000000000815260040180806020018281038252601c8152602001807f43616c6c6572206973206e6f7420636f6e7472616374206f776e65720000000081525060200191505060405180910390fd5b60065482101515612b69576040517f08c379a00000000000000000000000000000000000000000000000000000000081526004018080602001828103825260128152602001807f496e76616c69642063686172697479206964000000000000000000000000000081525060200191505060405180910390fd5b60006002811115612b7657fe5b6002600084815260200190815260200160002060060160009054906101000a900460ff166002811115612ba557fe5b141515612c40576040517f08c379a00000000000000000000000000000000000000000000000000000000081526004018080602001828103825260258152602001807f4368617269747920686173206265656e207665726966696564206f722072656a81526020017f656374656400000000000000000000000000000000000000000000000000000081525060400191505060405180910390fd5b600015156001600084815260200190815260200160002060009054906101000a900460ff161515141515612cdc576040517f08c379a00000000000000000000000000000000000000000000000000000000081526004018080602001828103825260198152602001807f4368617269747920686173206265656e2076657269666965640000000000000081525060200191505060405180910390fd5b600280600084815260200190815260200160002060060160006101000a81548160ff02191690836002811115612d0e57fe5b02179055507f96c57c4107d5e1b286da221e7c1bfebf23c6bb63fe29777a22645ca9ff8ef04a826040518082815260200191505060405180910390a15050565b600060065482101515612dc9576040517f08c379a00000000000000000000000000000000000000000000000000000000081526004018080602001828103825260128152602001807f496e76616c69642063686172697479206964000000000000000000000000000081525060200191505060405180910390fd5b6002600083815260200190815260200160002060060160009054906101000a900460ff169050919050565b60095482101515612e6d576040517f08c379a00000000000000000000000000000000000000000000000000000000081526004018080602001828103825260138152602001807f496e76616c69642063616d706169676e2069640000000000000000000000000081525060200191505060405180910390fd5b60008160086000858152602001908152602001600020600501540190508060086000858152602001908152602001600020600501819055507fdccc5359108539a6edac03c5abafcdf18642f761cd87a8bd181ff92fbc6121b3816040518082815260200191505060405180910390a1505050565b336000809054906101000a900473ffffffffffffffffffffffffffffffffffffffff1673ffffffffffffffffffffffffffffffffffffffff168173ffffffffffffffffffffffffffffffffffffffff16141515612fa6576040517f08c379a000000000000000000000000000000000000000000000000000000000815260040180806020018281038252601c8152602001807f43616c6c6572206973206e6f7420636f6e7472616374206f776e65720000000081525060200191505060405180910390fd5b6000809054906101000a900473ffffffffffffffffffffffffffffffffffffffff1673ffffffffffffffffffffffffffffffffffffffff163373ffffffffffffffffffffffffffffffffffffffff1614151561306a576040517f08c379a000000000000000000000000000000000000000000000000000000000815260040180806020018281038252601c8152602001807f43616c6c6572206973206e6f7420636f6e7472616374206f776e65720000000081525060200191505060405180910390fd5b600654821015156130e3576040517f08c379a00000000000000000000000000000000000000000000000000000000081526004018080602001828103825260128152602001807f496e76616c69642063686172697479206964000000000000000000000000000081525060200191505060405180910390fd5b600060028111156130f057fe5b6002600084815260200190815260200160002060060160009054906101000a900460ff16600281111561311f57fe5b1415156131ba576040517f08c379a00000000000000000000000000000000000000000000000000000000081526004018080602001828103825260258152602001807f4368617269747920686173206265656e207665726966696564206f722072656a81526020017f656374656400000000000000000000000000000000000000000000000000000081525060400191505060405180910390fd5b600015156001600084815260200190815260200160002060009054906101000a900460ff161515141515613256576040517f08c379a00000000000000000000000000000000000000000000000000000000081526004018080602001828103825260198152602001807f4368617269747920686173206265656e2076657269666965640000000000000081525060200191505060405180910390fd5b60016002600084815260200190815260200160002060060160006101000a81548160ff0219169083600281111561328957fe5b0217905550600180600084815260200190815260200160002060006101000a81548160ff0219169083151502179055507ffb6ca19fa7c8eeb83b0f44c69164632fc81e6e1b17e2021cf8a905981f3babc2826040518082815260200191505060405180910390a15050565b60006009548210151561336f576040517f08c379a00000000000000000000000000000000000000000000000000000000081526004018080602001828103825260138152602001807f496e76616c69642063616d706169676e2069640000000000000000000000000081525060200191505060405180910390fd5b60086000838152602001908152602001600020600701549050919050565b6000801515600560003373ffffffffffffffffffffffffffffffffffffffff1673ffffffffffffffffffffffffffffffffffffffff16815260200190815260200160002060009054906101000a900460ff16151514151561347c576040517f08c379a00000000000000000000000000000000000000000000000000000000081526004018080602001828103825260338152602001807f54686973206164647265737320686173207265676973746572656420616e6f7481526020017f686572206368617269747920616c72656164790000000000000000000000000081525060400191505060405180910390fd5b60066000815480929190600101919050559050613497614047565b60e0604051908101604052803373ffffffffffffffffffffffffffffffffffffffff168152602001888152602001878152602001868152602001858152602001848152602001600060028111156134ea57fe5b8152509050806002600084815260200190815260200160002060008201518160000160006101000a81548173ffffffffffffffffffffffffffffffffffffffff021916908373ffffffffffffffffffffffffffffffffffffffff1602179055506020820151816001019080519060200190613566929190613fc7565b506040820151816002019080519060200190613583929190613fc7565b5060608201518160030190805190602001906135a0929190613fc7565b5060808201518160040190805190602001906135bd929190613fc7565b5060a08201518160050190805190602001906135da929190613fc7565b5060c08201518160060160006101000a81548160ff021916908360028111156135ff57fe5b021790555090505081600360003373ffffffffffffffffffffffffffffffffffffffff1673ffffffffffffffffffffffffffffffffffffffff1681526020019081526020016000208190555060006001600084815260200190815260200160002060006101000a81548160ff0219169083151502179055506001600560003373ffffffffffffffffffffffffffffffffffffffff1673ffffffffffffffffffffffffffffffffffffffff16815260200190815260200160002060006101000a81548160ff0219169083151502179055507f2818bce8f12afdd5c38fb751b1b8b1ce1580ad9686c8ac779489a38df94a6600826040518082815260200191505060405180910390a18191505095945050505050565b3360016000600360008473ffffffffffffffffffffffffffffffffffffffff1673ffffffffffffffffffffffffffffffffffffffff16815260200190815260200160002054815260200190815260200160002060009054906101000a900460ff1615156137e8576040517f08c379a000000000000000000000000000000000000000000000000000000000815260040180806020018281038252601d8152602001807f43616c6c6572206973206e6f7420612076616c6964206368617269747900000081525060200191505060405180910390fd5b336000809054906101000a900473ffffffffffffffffffffffffffffffffffffffff1673ffffffffffffffffffffffffffffffffffffffff168173ffffffffffffffffffffffffffffffffffffffff161415156138ad576040517f08c379a000000000000000000000000000000000000000000000000000000000815260040180806020018281038252601c8152602001807f43616c6c6572206973206e6f7420636f6e7472616374206f776e65720000000081525060200191505060405180910390fd5b60095483101515613926576040517f08c379a00000000000000000000000000000000000000000000000000000000081526004018080602001828103825260138152602001807f496e76616c69642063616d706169676e2069640000000000000000000000000081525060200191505060405180910390fd5b6007600084815260200190815260200160002060009054906101000a900460ff1615156139bb576040517f08c379a00000000000000000000000000000000000000000000000000000000081526004018080602001828103825260178152602001807f43616d706169676e206973206e6f74206f6e676f696e6700000000000000000081525060200191505060405180910390fd5b600260006008600086815260200190815260200160002060000154815260200190815260200160002060000160009054906101000a900473ffffffffffffffffffffffffffffffffffffffff1673ffffffffffffffffffffffffffffffffffffffff163373ffffffffffffffffffffffffffffffffffffffff16141515613aaa576040517f08c379a000000000000000000000000000000000000000000000000000000000815260040180806020018281038252601e8152602001807f43616c6c6572206973206e6f74206f776e6572206f662063686172697479000081525060200191505060405180910390fd5b60016008600085815260200190815260200160002060090160006101000a81548160ff02191690836001811115613add57fe5b021790555060006007600085815260200190815260200160002060006101000a81548160ff0219169083151502179055507f8d0449d6fed7183f55f431e23867be7d8553beb7dc2e0844821c9c951a59ca52836040518082815260200191505060405180910390a1505050565b6000806000905060008090505b600654811015613bb95760016002811115613b6e57fe5b6002600083815260200190815260200160002060060160009054906101000a900460ff166002811115613b9d57fe5b1415613bac5781806001019250505b8080600101915050613b57565b508091505090565b600060065482101515613c3c576040517f08c379a00000000000000000000000000000000000000000000000000000000081526004018080602001828103825260128152602001807f496e76616c69642063686172697479206964000000000000000000000000000081525060200191505060405180910390fd5b6002600083815260200190815260200160002060000160009054906101000a900473ffffffffffffffffffffffffffffffffffffffff169050919050565b60095481101515613cf3576040517f08c379a00000000000000000000000000000000000000000000000000000000081526004018080602001828103825260138152602001807f496e76616c69642063616d706169676e2069640000000000000000000000000081525060200191505060405180910390fd5b6000600160086000848152602001908152602001600020600601540190508060086000848152602001908152602001600020600601819055507f9c80f0e1f03145d2a9703bfa3a9b71624ac4aa74a383648a0dcd84a303a622ec816040518082815260200191505060405180910390a15050565b600060095482101515613de2576040517f08c379a00000000000000000000000000000000000000000000000000000000081526004018080602001828103825260138152602001807f496e76616c69642063616d706169676e2069640000000000000000000000000081525060200191505060405180910390fd5b60086000838152602001908152602001600020600501549050919050565b600060095482101515613e7b576040517f08c379a00000000000000000000000000000000000000000000000000000000081526004018080602001828103825260138152602001807f496e76616c69642063616d706169676e2069640000000000000000000000000081525060200191505060405180910390fd5b600180811115613e8757fe5b6008600084815260200190815260200160002060090160009054906101000a900460ff166001811115613eb657fe5b1415613ec55760019050613eca565b600090505b919050565b600060095482101515613f4a576040517f08c379a00000000000000000000000000000000000000000000000000000000081526004018080602001828103825260138152602001807f496e76616c69642063616d706169676e2069640000000000000000000000000081525060200191505060405180910390fd5b60086000838152602001908152602001600020600801549050919050565b6101406040519081016040528060008152602001606081526020016060815260200160608152602001600081526020016000815260200160008152602001600081526020016000815260200160006001811115613fc157fe5b81525090565b828054600181600116156101000203166002900490600052602060002090601f016020900481019282601f1061400857805160ff1916838001178555614036565b82800160010185558215614036579182015b8281111561403557825182559160200191906001019061401a565b5b50905061404391906140a6565b5090565b60e060405190810160405280600073ffffffffffffffffffffffffffffffffffffffff1681526020016060815260200160608152602001606081526020016060815260200160608152602001600060028111156140a057fe5b81525090565b6140c891905b808211156140c45760008160009055506001016140ac565b5090565b9056fea165627a7a7230582073b85307cbbb26f421af05c68d372b5327ee743c1168488d1e7dcfe2c2c4d2bf0029",
  "source": "pragma solidity ^0.5.0;\n\ncontract Charity {\n\n  enum CharityStatus {\n    UNVERIFIED, VERIFIED, REJECTED\n  }\n\n  enum CampaignStatus {\n    ONGOING, ENDED\n  }\n\n  struct charity {\n    address charityOwner;\n    bytes charityName;\n    bytes charityAddress;\n    bytes contactNumber;\n    bytes description;\n    bytes pictureURL;\n    CharityStatus charityStatus;\n  }\n\n  struct campaign {\n    uint charityId;\n    bytes campaignName;\n    bytes description;\n    bytes pictureURL;\n    uint targetDonation;\n    uint currentDonation;\n    uint noOfDonors;\n    uint startDate;\n    uint endDate;\n    CampaignStatus campaignStatus;\n  }\n\n  address contractOwner = msg.sender;\n  //uint[] charitiesPendingVerification;\n  mapping(uint => bool) isVerifiedCharity;\n  mapping(uint => charity) charities;\n  mapping(address => uint) charityAddressIdMap;\n  mapping(address => charity) charityAddressMap;\n  mapping(address => bool) charityOwnerRegistered;\n  uint noOfCharities = 0;\n\n  //uint[] ongoingCampaigns;\n  mapping(uint => bool) isOngoingCampaign;\n  mapping(uint => campaign) campaigns;\n  uint noOfCampaigns = 0;\n\n  event charityRegistered (uint charityId);\n  event charityVerified (uint charityId);\n  event charityRejected (uint charityId);\n  event charityRevoked (uint charityId);\n  event campaignCreated(uint charityId, uint campaignId);\n  event campaignEnded(uint campaignId);\n  event updateCurrentDonation(uint newAmount);\n  event updateCampaignDonors(uint newNumber);\n\n\n  modifier onlyOwner(address caller) {\n    require(caller == contractOwner, \"Caller is not contract owner\");\n    _;\n  }\n\n\n  // This will be the modifier that checks whether the function call is done by the Charity itself.\n  modifier onlyVerifiedCharity(address caller) {\n    require(isVerifiedCharity[charityAddressIdMap[caller]], \"Caller is not a valid charity\");\n    _;\n  }\n\n  function registerCharity(bytes memory charityName, bytes memory charityAddress, bytes memory contactNumber, bytes memory description, bytes memory pictureURL) public returns (uint charityId) {\n    /*require(charityName != \"Charity name cannot be empty\");\n    require(charityAddress != \"Charity address cannot be empty\");\n    require(contactNumber != \"Charity number cannot be empty\");\n    require(description != \"Description cannot be empty\");\n    require(pictureURL != \"Picture URL cannot be empty\");*/\n    require(charityOwnerRegistered[msg.sender] == false, \"This address has registered another charity already\");\n\n    charityId = noOfCharities++;\n    charity memory newCharity = charity(msg.sender, charityName, charityAddress, contactNumber, description, pictureURL, CharityStatus.UNVERIFIED);\n    charities[charityId] = newCharity;\n    charityAddressIdMap[msg.sender] = charityId;\n    isVerifiedCharity[charityId] = false;\n    charityOwnerRegistered[msg.sender] = true;\n    emit charityRegistered(charityId);\n    // charitiesPendingVerification.push(charityId);\n    return charityId;\n  }\n\n  function verifyCharity(uint charityId) public onlyOwner(msg.sender) {\n    require(msg.sender == contractOwner, \"Caller is not contract owner\");\n    require(charityId < noOfCharities, \"Invalid charity id\");\n    require(charities[charityId].charityStatus == CharityStatus.UNVERIFIED, \"Charity has been verified or rejected\");\n    require(isVerifiedCharity[charityId] == false, \"Charity has been verified\");\n\n    charities[charityId].charityStatus = CharityStatus.VERIFIED;\n    isVerifiedCharity[charityId] = true;\n    emit charityVerified(charityId);\n    // remove charity from charitiesPendingVerification[]\n  }\n\n  function rejectCharity(uint charityId) public onlyOwner(msg.sender) {\n    require(msg.sender == contractOwner, \"Caller is not contract owner\");\n    require(charityId < noOfCharities, \"Invalid charity id\");\n    require(charities[charityId].charityStatus == CharityStatus.UNVERIFIED, \"Charity has been verified or rejected\");\n    require(isVerifiedCharity[charityId] == false, \"Charity has been verified\");\n\n    charities[charityId].charityStatus = CharityStatus.REJECTED;\n    emit charityRejected(charityId);\n    // remove charity from charitiesPendingVerification[]\n  }\n\n  function revokeCharity(uint charityId) public onlyOwner(msg.sender) {\n    require(msg.sender == contractOwner, \"Caller is not contract owner\");\n    require(charityId < noOfCharities, \"Invalid charity id\");\n    require(charities[charityId].charityStatus == CharityStatus.VERIFIED, \"Charity is not a verified charity\");\n    require(isVerifiedCharity[charityId] == true, \"Charity has been verified\");\n\n    charities[charityId].charityStatus = CharityStatus.REJECTED;\n    emit charityRevoked(charityId);\n  }\n\n  /*\n  * This will be the function that charities call to create a campaign.\n  * Parameters of this function will include uint targetDonation (of the campaign), uint startDate (of the campaign), uint endDate (of the campaign)\n  */\n  function createCampaign(bytes memory campaignName, bytes memory description, bytes memory pictureURL, uint targetDonation, uint startDate, uint endDate) public onlyVerifiedCharity(msg.sender) returns (uint campaignId) {\n    /*require(campaignName != \"Charity name cannot be empty\");\n    require(description != \"Description cannot be empty\");\n    require(pictureURL != \"Picture URL cannot be empty\");\n    require(targetDonation > 0, \"Target donation must be larger than 0\");\n    require(startDate < endDate, \"Start date must be earlier than end date\");*/\n\n    campaignId = noOfCampaigns++;\n    uint charityId = charityAddressIdMap[msg.sender];\n    campaign memory newCampaign = campaign(charityId, campaignName, description, pictureURL, targetDonation, 0, 0, startDate, endDate, CampaignStatus.ONGOING);\n    campaigns[campaignId] = newCampaign;\n    // ongoingCampaigns.push(campaignId);\n    isOngoingCampaign[campaignId] = true;\n    emit campaignCreated(charityId, campaignId);\n    return campaignId;\n  }\n\n  /*\n  *\n  * This will be the function that charities call to end an ongoing campaign.\n  * Parameters of this function will include uint campaignId\n  */\n  function endCampaign(uint campaignId) public onlyVerifiedCharity(msg.sender) onlyOwner(msg.sender) {\n    require(campaignId < noOfCampaigns, \"Invalid campaign id\");\n    require(isOngoingCampaign[campaignId], \"Campaign is not ongoing\");\n    require(msg.sender == charities[campaigns[campaignId].charityId].charityOwner, \"Caller is not owner of charity\");\n\n    campaigns[campaignId].campaignStatus = CampaignStatus.ENDED;\n    isOngoingCampaign[campaignId] = false;\n    emit campaignEnded(campaignId);\n    // remove campaign from ongoingCampaigns[]\n  }\n\n  /*\n  * This will be the getter function that everyone can call to check the charity address.\n  * Parameters of this function will include uint charityId\n  */\n  function getCharityOwner(uint charityId) public view returns (address) {\n    require(charityId < noOfCharities, \"Invalid charity id\");\n    return charities[charityId].charityOwner;\n  }\n\n  /*\n  * This will be the getter function that everyone can call to check the charity name.\n  * Parameters of this function will include uint charityId\n  */\n  function getCharityName(uint charityId) public view returns (bytes memory) {\n    require(charityId < noOfCharities, \"Invalid charity id\");\n    return charities[charityId].charityName;\n  }\n\n  /*\n  * This will be the getter function that everyone can call to check the charity pictureURL.\n  * Parameters of this function will include uint charityId\n  */\n  function getCharityPictureURL(uint charityId) public view returns (bytes memory) {\n    require(charityId < noOfCharities, \"Invalid charity id\");\n    return charities[charityId].pictureURL;\n  }\n\n  /*\n  * This will be the getter function that everyone can call to check the charity description.\n  * Parameters of this function will include uint charityId\n  */\n  function getCharityDescription(uint charityId) public view returns (bytes memory) {\n    require(charityId < noOfCharities, \"Invalid charity id\");\n    return charities[charityId].description;\n  }\n\n  /*\n  * This will be the getter function that everyone can call to check the charity status.\n  * Parameters of this function will include uint charityId\n  */\n  function getCharityStatus(uint charityId) public view returns (CharityStatus) {\n    require(charityId < noOfCharities, \"Invalid charity id\");\n    return charities[charityId].charityStatus;\n  }\n\n  /*\n  * This will be the getter function that everyone can call to get the charity contact number.\n  * Parameters of this function will include uint charityId\n  */\n  function getCharityContactNumber(uint charityId) public view returns (bytes memory) {\n    require(charityId < noOfCharities, \"Invalid charity id\");\n    return charities[charityId].contactNumber;\n  }\n\n  /*\n  * This will be the getter function that everyone can call to get the charity contact address.\n  * Parameters of this function will include uint charityId\n  */\n  function getCharityContactAddress(uint charityId) public view returns (bytes memory) {\n    require(charityId < noOfCharities, \"Invalid charity id\");\n    return charities[charityId].charityAddress;\n  }\n\n  /* \n  * This will be the getter function that everyone can call to get the total amounts of the charities.\n  * There will be no parameters for this function\n  */\n  function getNoOfCharities() public view returns (uint) {\n    return noOfCharities;\n  }\n\n  /*\n  * This will be the getter function that everyone can call to get the total amounts of verified charities\n  * There will be no parameters for this function\n  */\n  function getVerifiedCharityAmount() public view returns (uint) {\n    uint noOfVerifiedCharities = 0;\n    for (uint i = 0; i < noOfCharities; i++) {\n      if (charities[i].charityStatus == CharityStatus.VERIFIED) {\n        noOfVerifiedCharities++;\n      }\n    }\n    return noOfVerifiedCharities;\n  }\n\n  /*\n  * This will be the getter function that everyone can call to get the total amounts of unverified charities\n  * There will be no parameters for this function\n  */\n  function getUnverifiedCharityAmount() public view returns (uint) {\n    uint noOfUnverifiedCharities = 0;\n    for (uint i = 0; i < noOfCharities; i++) {\n      if (charities[i].charityStatus == CharityStatus.UNVERIFIED) {\n        noOfUnverifiedCharities++;\n      }\n    }\n    return noOfUnverifiedCharities;\n  }\n\n  /*\n  * This will be the getter function that everyone can call to get the total amounts of rejected charities\n  * There will be no parameters for this function\n  */\n  function getRejectedCharityAmount() public view returns (uint) {\n    uint noOfRejectedCharities = 0;\n    for (uint i = 0; i < noOfCharities; i++) {\n      if (charities[i].charityStatus == CharityStatus.REJECTED) {\n        noOfRejectedCharities++;\n      }\n    }\n    return noOfRejectedCharities;\n  }\n\n  /*\n  * This will be the function that everyone can call to get the total amounts of campaigns hold by the given charities\n  * Parameters of this function will include uint charityId\n  */\n  function getCampaignAmountByCharity(uint charityId) public view returns (uint) {\n    uint noOfCampaignByCharity = 0;\n    for (uint i = 0; i < noOfCampaigns; i++) {\n      if (campaigns[i].charityId == charityId) {\n        noOfCampaignByCharity++;\n      }\n    }\n    return noOfCampaignByCharity;\n  }\n\n  /*\n  * This will be the function that everyone can call to get the total amounts of active campaigns hold by the given charities\n  * Parameters of this function will include uint charityId\n  */\n  function getActiveCampaignAmountByCharity(uint charityId) public view returns (uint) {\n    uint noOfActiveCampaignByCharity = 0;\n    for (uint i = 0; i < noOfCampaigns; i++) {\n      if (campaigns[i].charityId == charityId && isOngoingCampaign[i] == true) {\n        noOfActiveCampaignByCharity++;\n      }\n    }\n    return noOfActiveCampaignByCharity;\n  }\n\n  /*\n  * This will be the function that everyone can call to get the total amounts of ended campaigns hold by the given charities\n  * Parameters of this function will include uint charityId\n  */\n  function getEndedCampaignAmountByCharity(uint charityId) public view returns (uint) {\n    uint noOfEndedCampaignByCharity = 0;\n    for (uint i = 0; i < noOfCampaigns; i++) {\n      if (campaigns[i].charityId == charityId && isOngoingCampaign[i] == false) {\n        noOfEndedCampaignByCharity++;\n      }\n    }\n    return noOfEndedCampaignByCharity;\n  }\n\n  /*\n  * This will be the getter function that everyone can call to check the campaign's charityId.\n  * Parameters of this function will include uint campaignId\n  */\n  function getCampaignCharity(uint campaignId) public view returns (uint) {\n    require(campaignId < noOfCampaigns, \"Invalid campaign id\");\n    return campaigns[campaignId].charityId;\n  }\n\n  /*\n  * This will be the getter function that everyone can call to check the campaign name.\n  * Parameters of this function will include uint campaignId\n  */\n  function getCampaignName(uint campaignId) public view returns (bytes memory) {\n    require(campaignId < noOfCampaigns, \"Invalid campaign id\");\n    return campaigns[campaignId].campaignName;\n  }\n\n  /*\n  * This will be the getter function that everyone can call to check the campaign description.\n  * Parameters of this function will include uint campaignId\n  */\n  function getCampaignDescription(uint campaignId) public view returns (bytes memory) {\n    require(campaignId < noOfCampaigns, \"Invalid campaign id\");\n    return campaigns[campaignId].description;\n  }\n\n  /*\n  * This will be the getter function that everyone can call to check the campaign pictureURL.\n  * Parameters of this function will include uint campaignId\n  */\n  function getCampaignPictureURL(uint campaignId) public view returns (bytes memory) {\n    require(campaignId < noOfCampaigns, \"Invalid campaign id\");\n    return campaigns[campaignId].pictureURL;\n  }\n\n  /*\n  * This will be the getter function that everyone can call to check the campaign targetDonation.\n  * Parameters of this function will include uint campaignId\n  */\n  function getCampaignTargetDonation(uint campaignId) public view returns (uint) {\n    require(campaignId < noOfCampaigns, \"Invalid campaign id\");\n    return campaigns[campaignId].targetDonation;\n  }\n\n  /*\n  * This will be the getter function that everyone can call to check the campaign currentDonation.\n  * Parameters of this function will include uint campaignId\n  */\n  function getCampaignCurrentDonation(uint campaignId) public view returns (uint) {\n    require(campaignId < noOfCampaigns, \"Invalid campaign id\");\n    return campaigns[campaignId].currentDonation;\n  }\n\n  /*\n  * This will be the getter function that everyone can call to check the campaign noOfDonors.\n  * Parameters of this function will include uint campaignId\n  */\n  function getCampaignNoOfDonors(uint campaignId) public view returns (uint) {\n    require(campaignId < noOfCampaigns, \"Invalid campaign id\");\n    return campaigns[campaignId].noOfDonors;\n  }\n\n  /*\n  * This will be the getter function that everyone can call to check the campaign startDate.\n  * Parameters of this function will include uint campaignId\n  */\n  function getCampaignStartDate(uint campaignId) public view returns (uint) {\n    require(campaignId < noOfCampaigns, \"Invalid campaign id\");\n    return campaigns[campaignId].startDate;\n  }\n\n  /*\n  * This will be the getter function that everyone can call to check the campaign endDate.\n  * Parameters of this function will include uint campaignId\n  */\n  function getCampaignEndDate(uint campaignId) public view returns (uint) {\n    require(campaignId < noOfCampaigns, \"Invalid campaign id\");\n    return campaigns[campaignId].endDate;\n  }\n\n  /*\n  * This will be the getter function that everyone can call to check the campaign status.\n  * Parameters of this function will include uint campaignId\n  */\n  function getCampaignStatus(uint campaignId) public view returns (CampaignStatus) {\n    require(campaignId < noOfCampaigns, \"Invalid campaign id\");\n    return campaigns[campaignId].campaignStatus;\n  }\n\n  /* \n  * This will be the getter function that everyone can call to get the total amounts of the campaigns.\n  * There will be no parameters fot this function\n  */\n  function getNoOfCampaigns() public view returns (uint) {\n    return noOfCampaigns;\n  }\n  \n  // boolean to check campaign status\n  function isStatusComplete(uint campaignId) public view returns (bool) {\n    require(campaignId < noOfCampaigns, \"Invalid campaign id\");\n    if(campaigns[campaignId].campaignStatus == CampaignStatus.ENDED) {\n        return true;\n    }\n    return false;\n  }\n  \n  // boolean to check if campaign is valid\n  function checkValidCampaign(uint campaignId) public view returns (bool) {\n      if(campaignId < noOfCampaigns) {\n          return true;\n      }\n      return false;\n  }\n    \n  /*\n  * This will be the function that updates the campaign's currentDonation\n  * Parameters of this function will include uint campaignId and uint newDonation\n  */\n  function updateCampaignCurrentDonation(uint campaignId, uint newDonation) public {\n      require(campaignId < noOfCampaigns, \"Invalid campaign id\");\n      uint newAmount = campaigns[campaignId].currentDonation + newDonation;\n      campaigns[campaignId].currentDonation = newAmount;\n      emit updateCurrentDonation(newAmount);\n  }\n  \n  /*\n  * This will be the function that updates the campaign's noOfDonors\n  * Parameters of this function will include uint campaignId\n  */\n  function addCampaignDonor(uint campaignId) public {\n      require(campaignId < noOfCampaigns, \"Invalid campaign id\");\n      uint newNumber = campaigns[campaignId].noOfDonors + 1;\n      campaigns[campaignId].noOfDonors = newNumber;\n      emit updateCampaignDonors(newNumber);\n  }\n\n  /*\n  * This will be the function to get contract's owner\n  * There will be no parameters for this function\n  */\n  function getContractOwner() public view returns (address) {\n    return contractOwner;\n  }\n\n}",
  "sourcePath": "/Users/hawayo/Desktop/sharity/contracts/Charity.sol",
  "compiler": {
    "name": "solc",
    "version": "0.5.0+commit.1d4f565a.Emscripten.clang"
  },
  "schemaVersion": "3.3.3",
  "updatedAt": "2021-03-30T15:55:19.201Z",
  "networkType": "ethereum",
  "devdoc": {
    "methods": {}
  },
  "userdoc": {
    "methods": {}
  }
}