{
  "contractName": "Charity",
  "abi": [
    {
      "anonymous": false,
      "inputs": [
        {
          "indexed": false,
          "name": "charityId",
          "type": "uint256"
        }
      ],
      "name": "charityRegistered",
      "type": "event"
    },
    {
      "anonymous": false,
      "inputs": [
        {
          "indexed": false,
          "name": "charityId",
          "type": "uint256"
        }
      ],
      "name": "charityVerified",
      "type": "event"
    },
    {
      "anonymous": false,
      "inputs": [
        {
          "indexed": false,
          "name": "charityId",
          "type": "uint256"
        }
      ],
      "name": "charityRejected",
      "type": "event"
    },
    {
      "anonymous": false,
      "inputs": [
        {
          "indexed": false,
          "name": "charityId",
          "type": "uint256"
        }
      ],
      "name": "charityRevoked",
      "type": "event"
    },
    {
      "anonymous": false,
      "inputs": [
        {
          "indexed": false,
          "name": "charityId",
          "type": "uint256"
        },
        {
          "indexed": false,
          "name": "campaignId",
          "type": "uint256"
        }
      ],
      "name": "campaignCreated",
      "type": "event"
    },
    {
      "anonymous": false,
      "inputs": [
        {
          "indexed": false,
          "name": "campaignId",
          "type": "uint256"
        }
      ],
      "name": "campaignEnded",
      "type": "event"
    },
    {
      "anonymous": false,
      "inputs": [
        {
          "indexed": false,
          "name": "newAmount",
          "type": "uint256"
        }
      ],
      "name": "updateCurrentDonation",
      "type": "event"
    },
    {
      "anonymous": false,
      "inputs": [
        {
          "indexed": false,
          "name": "newNumber",
          "type": "uint256"
        }
      ],
      "name": "updateCampaignDonors",
      "type": "event"
    },
    {
      "constant": false,
      "inputs": [
        {
          "name": "charityName",
          "type": "bytes32"
        },
        {
          "name": "charityAddress",
          "type": "bytes32"
        },
        {
          "name": "contactNumber",
          "type": "bytes32"
        },
        {
          "name": "description",
          "type": "bytes32"
        },
        {
          "name": "pictureURL",
          "type": "bytes32"
        }
      ],
      "name": "registerCharity",
      "outputs": [
        {
          "name": "charityId",
          "type": "uint256"
        }
      ],
      "payable": false,
      "stateMutability": "nonpayable",
      "type": "function"
    },
    {
      "constant": false,
      "inputs": [
        {
          "name": "charityId",
          "type": "uint256"
        }
      ],
      "name": "verifyCharity",
      "outputs": [],
      "payable": false,
      "stateMutability": "nonpayable",
      "type": "function"
    },
    {
      "constant": false,
      "inputs": [
        {
          "name": "charityId",
          "type": "uint256"
        }
      ],
      "name": "rejectCharity",
      "outputs": [],
      "payable": false,
      "stateMutability": "nonpayable",
      "type": "function"
    },
    {
      "constant": false,
      "inputs": [
        {
          "name": "charityId",
          "type": "uint256"
        }
      ],
      "name": "revokeCharity",
      "outputs": [],
      "payable": false,
      "stateMutability": "nonpayable",
      "type": "function"
    },
    {
      "constant": false,
      "inputs": [
        {
          "name": "campaignName",
          "type": "bytes32"
        },
        {
          "name": "description",
          "type": "bytes32"
        },
        {
          "name": "pictureURL",
          "type": "bytes32"
        },
        {
          "name": "targetDonation",
          "type": "uint256"
        },
        {
          "name": "startDate",
          "type": "uint256"
        },
        {
          "name": "endDate",
          "type": "uint256"
        }
      ],
      "name": "createCampaign",
      "outputs": [
        {
          "name": "campaignId",
          "type": "uint256"
        }
      ],
      "payable": false,
      "stateMutability": "nonpayable",
      "type": "function"
    },
    {
      "constant": false,
      "inputs": [
        {
          "name": "campaignId",
          "type": "uint256"
        }
      ],
      "name": "endCampaign",
      "outputs": [],
      "payable": false,
      "stateMutability": "nonpayable",
      "type": "function"
    },
    {
      "constant": true,
      "inputs": [
        {
          "name": "charityId",
          "type": "uint256"
        }
      ],
      "name": "getCharityOwner",
      "outputs": [
        {
          "name": "",
          "type": "address"
        }
      ],
      "payable": false,
      "stateMutability": "view",
      "type": "function"
    },
    {
      "constant": true,
      "inputs": [
        {
          "name": "charityId",
          "type": "uint256"
        }
      ],
      "name": "getCharityName",
      "outputs": [
        {
          "name": "",
          "type": "bytes32"
        }
      ],
      "payable": false,
      "stateMutability": "view",
      "type": "function"
    },
    {
      "constant": true,
      "inputs": [
        {
          "name": "charityId",
          "type": "uint256"
        }
      ],
      "name": "getCharityPictureURL",
      "outputs": [
        {
          "name": "",
          "type": "bytes32"
        }
      ],
      "payable": false,
      "stateMutability": "view",
      "type": "function"
    },
    {
      "constant": true,
      "inputs": [
        {
          "name": "charityId",
          "type": "uint256"
        }
      ],
      "name": "getCharityDescription",
      "outputs": [
        {
          "name": "",
          "type": "bytes32"
        }
      ],
      "payable": false,
      "stateMutability": "view",
      "type": "function"
    },
    {
      "constant": true,
      "inputs": [
        {
          "name": "charityId",
          "type": "uint256"
        }
      ],
      "name": "getCharityStatus",
      "outputs": [
        {
          "name": "",
          "type": "uint8"
        }
      ],
      "payable": false,
      "stateMutability": "view",
      "type": "function"
    },
    {
      "constant": true,
      "inputs": [
        {
          "name": "campaignId",
          "type": "uint256"
        }
      ],
      "name": "getCampaignCharity",
      "outputs": [
        {
          "name": "",
          "type": "uint256"
        }
      ],
      "payable": false,
      "stateMutability": "view",
      "type": "function"
    },
    {
      "constant": true,
      "inputs": [
        {
          "name": "campaignId",
          "type": "uint256"
        }
      ],
      "name": "getCampaignName",
      "outputs": [
        {
          "name": "",
          "type": "bytes32"
        }
      ],
      "payable": false,
      "stateMutability": "view",
      "type": "function"
    },
    {
      "constant": true,
      "inputs": [
        {
          "name": "campaignId",
          "type": "uint256"
        }
      ],
      "name": "getCampaignDescription",
      "outputs": [
        {
          "name": "",
          "type": "bytes32"
        }
      ],
      "payable": false,
      "stateMutability": "view",
      "type": "function"
    },
    {
      "constant": true,
      "inputs": [
        {
          "name": "campaignId",
          "type": "uint256"
        }
      ],
      "name": "getCampaignPictureURL",
      "outputs": [
        {
          "name": "",
          "type": "bytes32"
        }
      ],
      "payable": false,
      "stateMutability": "view",
      "type": "function"
    },
    {
      "constant": true,
      "inputs": [
        {
          "name": "campaignId",
          "type": "uint256"
        }
      ],
      "name": "getCampaignTargetDonation",
      "outputs": [
        {
          "name": "",
          "type": "uint256"
        }
      ],
      "payable": false,
      "stateMutability": "view",
      "type": "function"
    },
    {
      "constant": true,
      "inputs": [
        {
          "name": "campaignId",
          "type": "uint256"
        }
      ],
      "name": "getCampaignCurrentDonation",
      "outputs": [
        {
          "name": "",
          "type": "uint256"
        }
      ],
      "payable": false,
      "stateMutability": "view",
      "type": "function"
    },
    {
      "constant": true,
      "inputs": [
        {
          "name": "campaignId",
          "type": "uint256"
        }
      ],
      "name": "getCampaignNoOfDonors",
      "outputs": [
        {
          "name": "",
          "type": "uint256"
        }
      ],
      "payable": false,
      "stateMutability": "view",
      "type": "function"
    },
    {
      "constant": true,
      "inputs": [
        {
          "name": "campaignId",
          "type": "uint256"
        }
      ],
      "name": "getCampaignStartDate",
      "outputs": [
        {
          "name": "",
          "type": "uint256"
        }
      ],
      "payable": false,
      "stateMutability": "view",
      "type": "function"
    },
    {
      "constant": true,
      "inputs": [
        {
          "name": "campaignId",
          "type": "uint256"
        }
      ],
      "name": "getCampaignEndDate",
      "outputs": [
        {
          "name": "",
          "type": "uint256"
        }
      ],
      "payable": false,
      "stateMutability": "view",
      "type": "function"
    },
    {
      "constant": true,
      "inputs": [
        {
          "name": "campaignId",
          "type": "uint256"
        }
      ],
      "name": "getCampaignStatus",
      "outputs": [
        {
          "name": "",
          "type": "uint8"
        }
      ],
      "payable": false,
      "stateMutability": "view",
      "type": "function"
    },
    {
      "constant": true,
      "inputs": [
        {
          "name": "campaignId",
          "type": "uint256"
        }
      ],
      "name": "isStatusComplete",
      "outputs": [
        {
          "name": "",
          "type": "bool"
        }
      ],
      "payable": false,
      "stateMutability": "view",
      "type": "function"
    },
    {
      "constant": true,
      "inputs": [
        {
          "name": "campaignId",
          "type": "uint256"
        }
      ],
      "name": "checkValidCampaign",
      "outputs": [
        {
          "name": "",
          "type": "bool"
        }
      ],
      "payable": false,
      "stateMutability": "view",
      "type": "function"
    },
    {
      "constant": false,
      "inputs": [
        {
          "name": "campaignId",
          "type": "uint256"
        },
        {
          "name": "newDonation",
          "type": "uint256"
        }
      ],
      "name": "updateCampaignCurrentDonation",
      "outputs": [],
      "payable": false,
      "stateMutability": "nonpayable",
      "type": "function"
    },
    {
      "constant": false,
      "inputs": [
        {
          "name": "campaignId",
          "type": "uint256"
        }
      ],
      "name": "addCampaignDonor",
      "outputs": [],
      "payable": false,
      "stateMutability": "nonpayable",
      "type": "function"
    }
  ],
  "bytecode": "0x60806040526000600455600060075534801561001a57600080fd5b50612ef38061002a6000396000f3fe608060405260043610610149576000357c0100000000000000000000000000000000000000000000000000000000900463ffffffff168063068782d21461014e5780630749c8ac1461019d5780630bbcf696146101ec57806315f28a27146102275780633ffe888f146102765780635468dfdc146102c557806355fb8f531461034657806357d65eac146103955780635a102275146103e85780636c19e0041461043757806374eb5738146104945780637ede52fc146104e357806382e7e5a61461053257806395657f7e146105a95780639eaec803146105f8578063a16fd1d014610633578063a6af939a14610690578063b0de9010146106d5578063bc4465da14610710578063dd0408ae1461075f578063e317526a1461079a578063ea79c20014610815578063f1c4bfac14610850578063f6b548981461089f578063fb99932f146108f2575b600080fd5b34801561015a57600080fd5b506101876004803603602081101561017157600080fd5b8101908080359060200190929190505050610941565b6040518082815260200191505060405180910390f35b3480156101a957600080fd5b506101d6600480360360208110156101c057600080fd5b81019080803590602001909291905050506109da565b6040518082815260200191505060405180910390f35b3480156101f857600080fd5b506102256004803603602081101561020f57600080fd5b8101908080359060200190929190505050610a73565b005b34801561023357600080fd5b506102606004803603602081101561024a57600080fd5b8101908080359060200190929190505050610ebc565b6040518082815260200191505060405180910390f35b34801561028257600080fd5b506102af6004803603602081101561029957600080fd5b8101908080359060200190929190505050610f55565b6040518082815260200191505060405180910390f35b3480156102d157600080fd5b50610330600480360360c08110156102e857600080fd5b81019080803590602001909291908035906020019092919080359060200190929190803590602001909291908035906020019092919080359060200190929190505050610fee565b6040518082815260200191505060405180910390f35b34801561035257600080fd5b5061037f6004803603602081101561036957600080fd5b8101908080359060200190929190505050611447565b6040518082815260200191505060405180910390f35b3480156103a157600080fd5b506103ce600480360360208110156103b857600080fd5b81019080803590602001909291905050506114e0565b604051808215151515815260200191505060405180910390f35b3480156103f457600080fd5b506104216004803603602081101561040b57600080fd5b81019080803590602001909291905050506114ff565b6040518082815260200191505060405180910390f35b34801561044357600080fd5b506104706004803603602081101561045a57600080fd5b8101908080359060200190929190505050611598565b6040518082600181111561048057fe5b60ff16815260200191505060405180910390f35b3480156104a057600080fd5b506104cd600480360360208110156104b757600080fd5b810190808035906020019092919050505061163e565b6040518082815260200191505060405180910390f35b3480156104ef57600080fd5b5061051c6004803603602081101561050657600080fd5b81019080803590602001909291905050506116d7565b6040518082815260200191505060405180910390f35b34801561053e57600080fd5b50610593600480360360a081101561055557600080fd5b810190808035906020019092919080359060200190929190803590602001909291908035906020019092919080359060200190929190505050611770565b6040518082815260200191505060405180910390f35b3480156105b557600080fd5b506105e2600480360360208110156105cc57600080fd5b8101908080359060200190929190505050611a41565b6040518082815260200191505060405180910390f35b34801561060457600080fd5b506106316004803603602081101561061b57600080fd5b8101908080359060200190929190505050611ada565b005b34801561063f57600080fd5b5061066c6004803603602081101561065657600080fd5b8101908080359060200190929190505050611f23565b6040518082600281111561067c57fe5b60ff16815260200191505060405180910390f35b34801561069c57600080fd5b506106d3600480360360408110156106b357600080fd5b810190808035906020019092919080359060200190929190505050611fc9565b005b3480156106e157600080fd5b5061070e600480360360208110156106f857600080fd5b81019080803590602001909291905050506120b6565b005b34801561071c57600080fd5b506107496004803603602081101561073357600080fd5b810190808035906020019092919050505061258d565b6040518082815260200191505060405180910390f35b34801561076b57600080fd5b506107986004803603602081101561078257600080fd5b8101908080359060200190929190505050612626565b005b3480156107a657600080fd5b506107d3600480360360208110156107bd57600080fd5b8101908080359060200190929190505050612a4a565b604051808273ffffffffffffffffffffffffffffffffffffffff1673ffffffffffffffffffffffffffffffffffffffff16815260200191505060405180910390f35b34801561082157600080fd5b5061084e6004803603602081101561083857600080fd5b8101908080359060200190929190505050612b03565b005b34801561085c57600080fd5b506108896004803603602081101561087357600080fd5b8101908080359060200190929190505050612bf0565b6040518082815260200191505060405180910390f35b3480156108ab57600080fd5b506108d8600480360360208110156108c257600080fd5b8101908080359060200190929190505050612c89565b604051808215151515815260200191505060405180910390f35b3480156108fe57600080fd5b5061092b6004803603602081101561091557600080fd5b8101908080359060200190929190505050612d58565b6040518082815260200191505060405180910390f35b6000600754821015156109bc576040517f08c379a00000000000000000000000000000000000000000000000000000000081526004018080602001828103825260138152602001807f496e76616c69642063616d706169676e2069640000000000000000000000000081525060200191505060405180910390fd5b60066000838152602001908152602001600020600201549050919050565b600060045482101515610a55576040517f08c379a00000000000000000000000000000000000000000000000000000000081526004018080602001828103825260128152602001807f496e76616c69642063686172697479206964000000000000000000000000000081525060200191505060405180910390fd5b60026000838152602001908152602001600020600501549050919050565b336000809054906101000a900473ffffffffffffffffffffffffffffffffffffffff1673ffffffffffffffffffffffffffffffffffffffff168173ffffffffffffffffffffffffffffffffffffffff16141515610b38576040517f08c379a000000000000000000000000000000000000000000000000000000000815260040180806020018281038252601c8152602001807f43616c6c6572206973206e6f7420636f6e7472616374206f776e65720000000081525060200191505060405180910390fd5b6000809054906101000a900473ffffffffffffffffffffffffffffffffffffffff1673ffffffffffffffffffffffffffffffffffffffff163373ffffffffffffffffffffffffffffffffffffffff16141515610bfc576040517f08c379a000000000000000000000000000000000000000000000000000000000815260040180806020018281038252601c8152602001807f43616c6c6572206973206e6f7420636f6e7472616374206f776e65720000000081525060200191505060405180910390fd5b60045482101515610c75576040517f08c379a00000000000000000000000000000000000000000000000000000000081526004018080602001828103825260128152602001807f496e76616c69642063686172697479206964000000000000000000000000000081525060200191505060405180910390fd5b60016002811115610c8257fe5b6002600084815260200190815260200160002060060160009054906101000a900460ff166002811115610cb157fe5b141515610d4c576040517f08c379a00000000000000000000000000000000000000000000000000000000081526004018080602001828103825260218152602001807f43686172697479206973206e6f7420612076657269666965642063686172697481526020017f790000000000000000000000000000000000000000000000000000000000000081525060400191505060405180910390fd5b60011515600160006002600086815260200190815260200160002060000160009054906101000a900473ffffffffffffffffffffffffffffffffffffffff1673ffffffffffffffffffffffffffffffffffffffff1673ffffffffffffffffffffffffffffffffffffffff16815260200190815260200160002060009054906101000a900460ff161515141515610e4a576040517f08c379a00000000000000000000000000000000000000000000000000000000081526004018080602001828103825260198152602001807f4368617269747920686173206265656e2076657269666965640000000000000081525060200191505060405180910390fd5b600280600084815260200190815260200160002060060160006101000a81548160ff02191690836002811115610e7c57fe5b02179055507f0c3e8a5dc7b4dae9b9bacc0f229ddf9e8ff1a86a106b83477dfe72f4cda87f71826040518082815260200191505060405180910390a15050565b600060075482101515610f37576040517f08c379a00000000000000000000000000000000000000000000000000000000081526004018080602001828103825260138152602001807f496e76616c69642063616d706169676e2069640000000000000000000000000081525060200191505060405180910390fd5b60066000838152602001908152602001600020600401549050919050565b600060075482101515610fd0576040517f08c379a00000000000000000000000000000000000000000000000000000000081526004018080602001828103825260138152602001807f496e76616c69642063616d706169676e2069640000000000000000000000000081525060200191505060405180910390fd5b60066000838152602001908152602001600020600601549050919050565b600033600160008273ffffffffffffffffffffffffffffffffffffffff1673ffffffffffffffffffffffffffffffffffffffff16815260200190815260200160002060009054906101000a900460ff1615156110b2576040517f08c379a000000000000000000000000000000000000000000000000000000000815260040180806020018281038252601d8152602001807f43616c6c6572206973206e6f7420612076616c6964206368617269747900000081525060200191505060405180910390fd5b7f43686172697479206e616d652063616e6e6f7420626520656d7074790000000088141515156110e157600080fd5b7f4465736372697074696f6e2063616e6e6f7420626520656d7074790000000000871415151561111057600080fd5b7f506963747572652055524c2063616e6e6f7420626520656d7074790000000000861415151561113f57600080fd5b6000851115156111dd576040517f08c379a00000000000000000000000000000000000000000000000000000000081526004018080602001828103825260258152602001807f54617267657420646f6e6174696f6e206d757374206265206c6172676572207481526020017f68616e203000000000000000000000000000000000000000000000000000000081525060400191505060405180910390fd5b828410151561127a576040517f08c379a00000000000000000000000000000000000000000000000000000000081526004018080602001828103825260288152602001807f53746172742064617465206d757374206265206561726c696572207468616e2081526020017f656e64206461746500000000000000000000000000000000000000000000000081525060400191505060405180910390fd5b600760008154809291906001019190505591506000600360003373ffffffffffffffffffffffffffffffffffffffff1673ffffffffffffffffffffffffffffffffffffffff1681526020019081526020016000205490506112d9612df1565b610140604051908101604052808381526020018b81526020018a815260200189815260200188815260200160008152602001600081526020018781526020018681526020016000600181111561132b57fe5b81525090508060066000868152602001908152602001600020600082015181600001556020820151816001015560408201518160020155606082015181600301556080820151816004015560a0820151816005015560c0820151816006015560e0820151816007015561010082015181600801556101208201518160090160006101000a81548160ff021916908360018111156113c457fe5b021790555090505060016005600086815260200190815260200160002060006101000a81548160ff0219169083151502179055507f43ff46a4179f4c55f80d6329f38d2f16f0f6fad7f2e689fe51362d0ee5cd05b58285604051808381526020018281526020019250505060405180910390a18393505050509695505050505050565b6000600754821015156114c2576040517f08c379a00000000000000000000000000000000000000000000000000000000081526004018080602001828103825260138152602001807f496e76616c69642063616d706169676e2069640000000000000000000000000081525060200191505060405180910390fd5b60066000838152602001908152602001600020600301549050919050565b60006007548210156114f557600190506114fa565b600090505b919050565b60006007548210151561157a576040517f08c379a00000000000000000000000000000000000000000000000000000000081526004018080602001828103825260138152602001807f496e76616c69642063616d706169676e2069640000000000000000000000000081525060200191505060405180910390fd5b60066000838152602001908152602001600020600101549050919050565b600060075482101515611613576040517f08c379a00000000000000000000000000000000000000000000000000000000081526004018080602001828103825260138152602001807f496e76616c69642063616d706169676e2069640000000000000000000000000081525060200191505060405180910390fd5b6006600083815260200190815260200160002060090160009054906101000a900460ff169050919050565b6000600754821015156116b9576040517f08c379a00000000000000000000000000000000000000000000000000000000081526004018080602001828103825260138152602001807f496e76616c69642063616d706169676e2069640000000000000000000000000081525060200191505060405180910390fd5b60066000838152602001908152602001600020600001549050919050565b600060045482101515611752576040517f08c379a00000000000000000000000000000000000000000000000000000000081526004018080602001828103825260128152602001807f496e76616c69642063686172697479206964000000000000000000000000000081525060200191505060405180910390fd5b60026000838152602001908152602001600020600101549050919050565b60007f43686172697479206e616d652063616e6e6f7420626520656d7074790000000086141515156117a157600080fd5b7f4465736372697074696f6e2063616e6e6f7420626520656d707479000000000083141515156117d057600080fd5b7f506963747572652055524c2063616e6e6f7420626520656d707479000000000082141515156117ff57600080fd5b6004600081548092919060010191905055905061181a612e59565b60e0604051908101604052803373ffffffffffffffffffffffffffffffffffffffff1681526020018881526020018781526020018681526020018581526020018481526020016000600281111561186d57fe5b8152509050806002600084815260200190815260200160002060008201518160000160006101000a81548173ffffffffffffffffffffffffffffffffffffffff021916908373ffffffffffffffffffffffffffffffffffffffff1602179055506020820151816001015560408201518160020155606082015181600301556080820151816004015560a0820151816005015560c08201518160060160006101000a81548160ff0219169083600281111561192357fe5b021790555090505081600360003373ffffffffffffffffffffffffffffffffffffffff1673ffffffffffffffffffffffffffffffffffffffff168152602001908152602001600020819055506000600160006002600086815260200190815260200160002060000160009054906101000a900473ffffffffffffffffffffffffffffffffffffffff1673ffffffffffffffffffffffffffffffffffffffff1673ffffffffffffffffffffffffffffffffffffffff16815260200190815260200160002060006101000a81548160ff0219169083151502179055507f2818bce8f12afdd5c38fb751b1b8b1ce1580ad9686c8ac779489a38df94a6600826040518082815260200191505060405180910390a18191505095945050505050565b600060045482101515611abc576040517f08c379a00000000000000000000000000000000000000000000000000000000081526004018080602001828103825260128152602001807f496e76616c69642063686172697479206964000000000000000000000000000081525060200191505060405180910390fd5b60026000838152602001908152602001600020600401549050919050565b336000809054906101000a900473ffffffffffffffffffffffffffffffffffffffff1673ffffffffffffffffffffffffffffffffffffffff168173ffffffffffffffffffffffffffffffffffffffff16141515611b9f576040517f08c379a000000000000000000000000000000000000000000000000000000000815260040180806020018281038252601c8152602001807f43616c6c6572206973206e6f7420636f6e7472616374206f776e65720000000081525060200191505060405180910390fd5b6000809054906101000a900473ffffffffffffffffffffffffffffffffffffffff1673ffffffffffffffffffffffffffffffffffffffff163373ffffffffffffffffffffffffffffffffffffffff16141515611c63576040517f08c379a000000000000000000000000000000000000000000000000000000000815260040180806020018281038252601c8152602001807f43616c6c6572206973206e6f7420636f6e7472616374206f776e65720000000081525060200191505060405180910390fd5b60045482101515611cdc576040517f08c379a00000000000000000000000000000000000000000000000000000000081526004018080602001828103825260128152602001807f496e76616c69642063686172697479206964000000000000000000000000000081525060200191505060405180910390fd5b60006002811115611ce957fe5b6002600084815260200190815260200160002060060160009054906101000a900460ff166002811115611d1857fe5b141515611db3576040517f08c379a00000000000000000000000000000000000000000000000000000000081526004018080602001828103825260258152602001807f4368617269747920686173206265656e207665726966696564206f722072656a81526020017f656374656400000000000000000000000000000000000000000000000000000081525060400191505060405180910390fd5b60001515600160006002600086815260200190815260200160002060000160009054906101000a900473ffffffffffffffffffffffffffffffffffffffff1673ffffffffffffffffffffffffffffffffffffffff1673ffffffffffffffffffffffffffffffffffffffff16815260200190815260200160002060009054906101000a900460ff161515141515611eb1576040517f08c379a00000000000000000000000000000000000000000000000000000000081526004018080602001828103825260198152602001807f4368617269747920686173206265656e2076657269666965640000000000000081525060200191505060405180910390fd5b600280600084815260200190815260200160002060060160006101000a81548160ff02191690836002811115611ee357fe5b02179055507f96c57c4107d5e1b286da221e7c1bfebf23c6bb63fe29777a22645ca9ff8ef04a826040518082815260200191505060405180910390a15050565b600060045482101515611f9e576040517f08c379a00000000000000000000000000000000000000000000000000000000081526004018080602001828103825260128152602001807f496e76616c69642063686172697479206964000000000000000000000000000081525060200191505060405180910390fd5b6002600083815260200190815260200160002060060160009054906101000a900460ff169050919050565b60075482101515612042576040517f08c379a00000000000000000000000000000000000000000000000000000000081526004018080602001828103825260138152602001807f496e76616c69642063616d706169676e2069640000000000000000000000000081525060200191505060405180910390fd5b60008160066000858152602001908152602001600020600501540190508060066000858152602001908152602001600020600501819055507fdccc5359108539a6edac03c5abafcdf18642f761cd87a8bd181ff92fbc6121b3816040518082815260200191505060405180910390a1505050565b336000809054906101000a900473ffffffffffffffffffffffffffffffffffffffff1673ffffffffffffffffffffffffffffffffffffffff168173ffffffffffffffffffffffffffffffffffffffff1614151561217b576040517f08c379a000000000000000000000000000000000000000000000000000000000815260040180806020018281038252601c8152602001807f43616c6c6572206973206e6f7420636f6e7472616374206f776e65720000000081525060200191505060405180910390fd5b6000809054906101000a900473ffffffffffffffffffffffffffffffffffffffff1673ffffffffffffffffffffffffffffffffffffffff163373ffffffffffffffffffffffffffffffffffffffff1614151561223f576040517f08c379a000000000000000000000000000000000000000000000000000000000815260040180806020018281038252601c8152602001807f43616c6c6572206973206e6f7420636f6e7472616374206f776e65720000000081525060200191505060405180910390fd5b600454821015156122b8576040517f08c379a00000000000000000000000000000000000000000000000000000000081526004018080602001828103825260128152602001807f496e76616c69642063686172697479206964000000000000000000000000000081525060200191505060405180910390fd5b600060028111156122c557fe5b6002600084815260200190815260200160002060060160009054906101000a900460ff1660028111156122f457fe5b14151561238f576040517f08c379a00000000000000000000000000000000000000000000000000000000081526004018080602001828103825260258152602001807f4368617269747920686173206265656e207665726966696564206f722072656a81526020017f656374656400000000000000000000000000000000000000000000000000000081525060400191505060405180910390fd5b60001515600160006002600086815260200190815260200160002060000160009054906101000a900473ffffffffffffffffffffffffffffffffffffffff1673ffffffffffffffffffffffffffffffffffffffff1673ffffffffffffffffffffffffffffffffffffffff16815260200190815260200160002060009054906101000a900460ff16151514151561248d576040517f08c379a00000000000000000000000000000000000000000000000000000000081526004018080602001828103825260198152602001807f4368617269747920686173206265656e2076657269666965640000000000000081525060200191505060405180910390fd5b60016002600084815260200190815260200160002060060160006101000a81548160ff021916908360028111156124c057fe5b021790555060018060006002600086815260200190815260200160002060000160009054906101000a900473ffffffffffffffffffffffffffffffffffffffff1673ffffffffffffffffffffffffffffffffffffffff1673ffffffffffffffffffffffffffffffffffffffff16815260200190815260200160002060006101000a81548160ff0219169083151502179055507ffb6ca19fa7c8eeb83b0f44c69164632fc81e6e1b17e2021cf8a905981f3babc2826040518082815260200191505060405180910390a15050565b600060075482101515612608576040517f08c379a00000000000000000000000000000000000000000000000000000000081526004018080602001828103825260138152602001807f496e76616c69642063616d706169676e2069640000000000000000000000000081525060200191505060405180910390fd5b60066000838152602001908152602001600020600701549050919050565b33600160008273ffffffffffffffffffffffffffffffffffffffff1673ffffffffffffffffffffffffffffffffffffffff16815260200190815260200160002060009054906101000a900460ff1615156126e8576040517f08c379a000000000000000000000000000000000000000000000000000000000815260040180806020018281038252601d8152602001807f43616c6c6572206973206e6f7420612076616c6964206368617269747900000081525060200191505060405180910390fd5b336000809054906101000a900473ffffffffffffffffffffffffffffffffffffffff1673ffffffffffffffffffffffffffffffffffffffff168173ffffffffffffffffffffffffffffffffffffffff161415156127ad576040517f08c379a000000000000000000000000000000000000000000000000000000000815260040180806020018281038252601c8152602001807f43616c6c6572206973206e6f7420636f6e7472616374206f776e65720000000081525060200191505060405180910390fd5b60075483101515612826576040517f08c379a00000000000000000000000000000000000000000000000000000000081526004018080602001828103825260138152602001807f496e76616c69642063616d706169676e2069640000000000000000000000000081525060200191505060405180910390fd5b6005600084815260200190815260200160002060009054906101000a900460ff1615156128bb576040517f08c379a00000000000000000000000000000000000000000000000000000000081526004018080602001828103825260178152602001807f43616d706169676e206973206e6f74206f6e676f696e6700000000000000000081525060200191505060405180910390fd5b600260006006600086815260200190815260200160002060000154815260200190815260200160002060000160009054906101000a900473ffffffffffffffffffffffffffffffffffffffff1673ffffffffffffffffffffffffffffffffffffffff163373ffffffffffffffffffffffffffffffffffffffff161415156129aa576040517f08c379a000000000000000000000000000000000000000000000000000000000815260040180806020018281038252601e8152602001807f43616c6c6572206973206e6f74206f776e6572206f662063686172697479000081525060200191505060405180910390fd5b60016006600085815260200190815260200160002060090160006101000a81548160ff021916908360018111156129dd57fe5b021790555060006005600085815260200190815260200160002060006101000a81548160ff0219169083151502179055507f8d0449d6fed7183f55f431e23867be7d8553beb7dc2e0844821c9c951a59ca52836040518082815260200191505060405180910390a1505050565b600060045482101515612ac5576040517f08c379a00000000000000000000000000000000000000000000000000000000081526004018080602001828103825260128152602001807f496e76616c69642063686172697479206964000000000000000000000000000081525060200191505060405180910390fd5b6002600083815260200190815260200160002060000160009054906101000a900473ffffffffffffffffffffffffffffffffffffffff169050919050565b60075481101515612b7c576040517f08c379a00000000000000000000000000000000000000000000000000000000081526004018080602001828103825260138152602001807f496e76616c69642063616d706169676e2069640000000000000000000000000081525060200191505060405180910390fd5b6000600160066000848152602001908152602001600020600601540190508060066000848152602001908152602001600020600601819055507f9c80f0e1f03145d2a9703bfa3a9b71624ac4aa74a383648a0dcd84a303a622ec816040518082815260200191505060405180910390a15050565b600060075482101515612c6b576040517f08c379a00000000000000000000000000000000000000000000000000000000081526004018080602001828103825260138152602001807f496e76616c69642063616d706169676e2069640000000000000000000000000081525060200191505060405180910390fd5b60066000838152602001908152602001600020600501549050919050565b600060075482101515612d04576040517f08c379a00000000000000000000000000000000000000000000000000000000081526004018080602001828103825260138152602001807f496e76616c69642063616d706169676e2069640000000000000000000000000081525060200191505060405180910390fd5b600180811115612d1057fe5b6006600084815260200190815260200160002060090160009054906101000a900460ff166001811115612d3f57fe5b1415612d4e5760019050612d53565b600090505b919050565b600060075482101515612dd3576040517f08c379a00000000000000000000000000000000000000000000000000000000081526004018080602001828103825260138152602001807f496e76616c69642063616d706169676e2069640000000000000000000000000081525060200191505060405180910390fd5b60066000838152602001908152602001600020600801549050919050565b6101406040519081016040528060008152602001600080191681526020016000801916815260200160008019168152602001600081526020016000815260200160008152602001600081526020016000815260200160006001811115612e5357fe5b81525090565b60e060405190810160405280600073ffffffffffffffffffffffffffffffffffffffff168152602001600080191681526020016000801916815260200160008019168152602001600080191681526020016000801916815260200160006002811115612ec157fe5b8152509056fea165627a7a72305820f986071ff7eee0c391851393d3a44e192d19184869b2e2bf60e195744b42554e0029",
  "source": "pragma solidity ^0.5.0;\r\n\r\ncontract Charity {\r\n\r\n  enum CharityStatus {\r\n\t  UNVERIFIED, VERIFIED, REJECTED\r\n  }\r\n\r\n  enum CampaignStatus {\r\n\t  ONGOING, ENDED\r\n  }\r\n\r\n  struct charity {\r\n\t  address charityOwner;\r\n    bytes32 charityName;\r\n    bytes32 charityAddress;\r\n    bytes32 contactNumber;\r\n    bytes32 description;\r\n    bytes32 pictureURL;\r\n    CharityStatus charityStatus;\r\n  }\r\n\r\n  struct campaign {\r\n    uint charityId;\r\n    bytes32 campaignName;\r\n    bytes32 description;\r\n    bytes32 pictureURL;\r\n    uint targetDonation;\r\n    uint currentDonation;\r\n    uint noOfDonors;\r\n    uint startDate;\r\n    uint endDate;\r\n    CampaignStatus campaignStatus;\r\n  }\r\n\r\n  address contractOwner;\r\n  //uint[] charitiesPendingVerification;\r\n  mapping(address => bool) isVerifiedCharity;\r\n  mapping(uint => charity) charities;\r\n  mapping(address => uint) charityAddressMap;\r\n  uint noOfCharities = 0;\r\n\r\n  //uint[] ongoingCampaigns;\r\n  mapping(uint => bool) isOngoingCampaign;\r\n  mapping(uint => campaign) campaigns;\r\n  uint noOfCampaigns = 0;\r\n\r\n  event charityRegistered (uint charityId);\r\n  event charityVerified (uint charityId);\r\n  event charityRejected (uint charityId);\r\n  event charityRevoked (uint charityId);\r\n  event campaignCreated(uint charityId, uint campaignId);\r\n  event campaignEnded(uint campaignId);\r\n  event updateCurrentDonation(uint newAmount);\r\n  event updateCampaignDonors(uint newNumber);\r\n\r\n\r\n  modifier onlyOwner(address caller) {\r\n    require(caller == contractOwner, \"Caller is not contract owner\");\r\n    _;\r\n  }\r\n\r\n\r\n  // This will be the modifier that checks whether the function call is done by the Charity itself.\r\n  modifier onlyVerifiedCharity(address caller) {\r\n    require(isVerifiedCharity[caller], \"Caller is not a valid charity\");\r\n    _;\r\n  }\r\n\r\n  function registerCharity(bytes32 charityName, bytes32 charityAddress, bytes32 contactNumber, bytes32 description, bytes32 pictureURL) public returns (uint charityId) {\r\n    require(charityName != \"Charity name cannot be empty\");\r\n    require(description != \"Description cannot be empty\");\r\n    require(pictureURL != \"Picture URL cannot be empty\");\r\n\r\n    charityId = noOfCharities++;\r\n    charity memory newCharity = charity(msg.sender, charityName, charityAddress, contactNumber, description, pictureURL, CharityStatus.UNVERIFIED);\r\n    charities[charityId] = newCharity;\r\n    charityAddressMap[msg.sender] = charityId;\r\n    isVerifiedCharity[charities[charityId].charityOwner] = false;\r\n    emit charityRegistered(charityId);\r\n    // charitiesPendingVerification.push(charityId);\r\n    return charityId;\r\n  }\r\n\r\n  function verifyCharity(uint charityId) public onlyOwner(msg.sender) {\r\n    require(msg.sender == contractOwner, \"Caller is not contract owner\");\r\n    require(charityId < noOfCharities, \"Invalid charity id\");\r\n    require(charities[charityId].charityStatus == CharityStatus.UNVERIFIED, \"Charity has been verified or rejected\");\r\n    require(isVerifiedCharity[charities[charityId].charityOwner] == false, \"Charity has been verified\");\r\n\r\n    charities[charityId].charityStatus = CharityStatus.VERIFIED;\r\n    isVerifiedCharity[charities[charityId].charityOwner] = true;\r\n    emit charityVerified(charityId);\r\n    // remove charity from charitiesPendingVerification[]\r\n  }\r\n\r\n  function rejectCharity(uint charityId) public onlyOwner(msg.sender) {\r\n    require(msg.sender == contractOwner, \"Caller is not contract owner\");\r\n    require(charityId < noOfCharities, \"Invalid charity id\");\r\n    require(charities[charityId].charityStatus == CharityStatus.UNVERIFIED, \"Charity has been verified or rejected\");\r\n    require(isVerifiedCharity[charities[charityId].charityOwner] == false, \"Charity has been verified\");\r\n\r\n    charities[charityId].charityStatus = CharityStatus.REJECTED;\r\n    emit charityRejected(charityId);\r\n    // remove charity from charitiesPendingVerification[]\r\n  }\r\n\r\n  function revokeCharity(uint charityId) public onlyOwner(msg.sender) {\r\n    require(msg.sender == contractOwner, \"Caller is not contract owner\");\r\n    require(charityId < noOfCharities, \"Invalid charity id\");\r\n    require(charities[charityId].charityStatus == CharityStatus.VERIFIED, \"Charity is not a verified charity\");\r\n    require(isVerifiedCharity[charities[charityId].charityOwner] == true, \"Charity has been verified\");\r\n\r\n    charities[charityId].charityStatus = CharityStatus.REJECTED;\r\n    emit charityRevoked(charityId);\r\n  }\r\n\r\n  /*\r\n  * This will be the function that charities call to create a campaign.\r\n  * Parameters of this function will include uint targetDonation (of the campaign), uint startDate (of the campaign), uint endDate (of the campaign)\r\n  */\r\n  function createCampaign(bytes32 campaignName, bytes32 description, bytes32 pictureURL, uint targetDonation, uint startDate, uint endDate) public onlyVerifiedCharity(msg.sender) returns (uint campaignId) {\r\n    require(campaignName != \"Charity name cannot be empty\");\r\n    require(description != \"Description cannot be empty\");\r\n    require(pictureURL != \"Picture URL cannot be empty\");\r\n    require(targetDonation > 0, \"Target donation must be larger than 0\");\r\n    require(startDate < endDate, \"Start date must be earlier than end date\");\r\n\r\n    campaignId = noOfCampaigns++;\r\n    uint charityId = charityAddressMap[msg.sender];\r\n    campaign memory newCampaign = campaign(charityId, campaignName, description, pictureURL, targetDonation, 0, 0, startDate, endDate, CampaignStatus.ONGOING);\r\n    campaigns[campaignId] = newCampaign;\r\n    // ongoingCampaigns.push(campaignId);\r\n    isOngoingCampaign[campaignId] = true;\r\n    emit campaignCreated(charityId, campaignId);\r\n    return campaignId;\r\n  }\r\n\r\n  /*\r\n  *\r\n  * This will be the function that charities call to end an ongoing campaign.\r\n  * Parameters of this function will include uint campaignId\r\n  */\r\n  function endCampaign(uint campaignId) public onlyVerifiedCharity(msg.sender) onlyOwner(msg.sender) {\r\n    require(campaignId < noOfCampaigns, \"Invalid campaign id\");\r\n    require(isOngoingCampaign[campaignId], \"Campaign is not ongoing\");\r\n    require(msg.sender == charities[campaigns[campaignId].charityId].charityOwner, \"Caller is not owner of charity\");\r\n\r\n    campaigns[campaignId].campaignStatus = CampaignStatus.ENDED;\r\n    isOngoingCampaign[campaignId] = false;\r\n    emit campaignEnded(campaignId);\r\n    // remove campaign from ongoingCampaigns[]\r\n  }\r\n\r\n  /*\r\n  * This will be the getter function that everyone can call to check the charity address.\r\n  * Parameters of this function will include uint charityId\r\n  */\r\n  function getCharityOwner(uint charityId) public view returns (address) {\r\n    require(charityId < noOfCharities, \"Invalid charity id\");\r\n    return charities[charityId].charityOwner;\r\n  }\r\n\r\n  /*\r\n  * This will be the getter function that everyone can call to check the charity name.\r\n  * Parameters of this function will include uint charityId\r\n  */\r\n  function getCharityName(uint charityId) public view returns (bytes32) {\r\n    require(charityId < noOfCharities, \"Invalid charity id\");\r\n    return charities[charityId].charityName;\r\n  }\r\n\r\n  /*\r\n  * This will be the getter function that everyone can call to check the charity pictureURL.\r\n  * Parameters of this function will include uint charityId\r\n  */\r\n  function getCharityPictureURL(uint charityId) public view returns (bytes32) {\r\n    require(charityId < noOfCharities, \"Invalid charity id\");\r\n    return charities[charityId].pictureURL;\r\n  }\r\n\r\n  /*\r\n  * This will be the getter function that everyone can call to check the charity description.\r\n  * Parameters of this function will include uint charityId\r\n  */\r\n  function getCharityDescription(uint charityId) public view returns (bytes32) {\r\n    require(charityId < noOfCharities, \"Invalid charity id\");\r\n    return charities[charityId].description;\r\n  }\r\n\r\n  /*\r\n  * This will be the getter function that everyone can call to check the charity status.\r\n  * Parameters of this function will include uint charityId\r\n  */\r\n  function getCharityStatus(uint charityId) public view returns (CharityStatus) {\r\n    require(charityId < noOfCharities, \"Invalid charity id\");\r\n    return charities[charityId].charityStatus;\r\n  }\r\n\r\n  /*\r\n  * This will be the getter function that everyone can call to check the campaign's charityId.\r\n  * Parameters of this function will include uint campaignId\r\n  */\r\n  function getCampaignCharity(uint campaignId) public view returns (uint) {\r\n    require(campaignId < noOfCampaigns, \"Invalid campaign id\");\r\n    return campaigns[campaignId].charityId;\r\n  }\r\n\r\n  /*\r\n  * This will be the getter function that everyone can call to check the campaign name.\r\n  * Parameters of this function will include uint campaignId\r\n  */\r\n  function getCampaignName(uint campaignId) public view returns (bytes32) {\r\n    require(campaignId < noOfCampaigns, \"Invalid campaign id\");\r\n    return campaigns[campaignId].campaignName;\r\n  }\r\n\r\n  /*\r\n  * This will be the getter function that everyone can call to check the campaign description.\r\n  * Parameters of this function will include uint campaignId\r\n  */\r\n  function getCampaignDescription(uint campaignId) public view returns (bytes32) {\r\n    require(campaignId < noOfCampaigns, \"Invalid campaign id\");\r\n    return campaigns[campaignId].description;\r\n  }\r\n\r\n  /*\r\n  * This will be the getter function that everyone can call to check the campaign pictureURL.\r\n  * Parameters of this function will include uint campaignId\r\n  */\r\n  function getCampaignPictureURL(uint campaignId) public view returns (bytes32) {\r\n    require(campaignId < noOfCampaigns, \"Invalid campaign id\");\r\n    return campaigns[campaignId].pictureURL;\r\n  }\r\n\r\n  /*\r\n  * This will be the getter function that everyone can call to check the campaign targetDonation.\r\n  * Parameters of this function will include uint campaignId\r\n  */\r\n  function getCampaignTargetDonation(uint campaignId) public view returns (uint) {\r\n    require(campaignId < noOfCampaigns, \"Invalid campaign id\");\r\n    return campaigns[campaignId].targetDonation;\r\n  }\r\n\r\n  /*\r\n  * This will be the getter function that everyone can call to check the campaign currentDonation.\r\n  * Parameters of this function will include uint campaignId\r\n  */\r\n  function getCampaignCurrentDonation(uint campaignId) public view returns (uint) {\r\n    require(campaignId < noOfCampaigns, \"Invalid campaign id\");\r\n    return campaigns[campaignId].currentDonation;\r\n  }\r\n\r\n  /*\r\n  * This will be the getter function that everyone can call to check the campaign noOfDonors.\r\n  * Parameters of this function will include uint campaignId\r\n  */\r\n  function getCampaignNoOfDonors(uint campaignId) public view returns (uint) {\r\n    require(campaignId < noOfCampaigns, \"Invalid campaign id\");\r\n    return campaigns[campaignId].noOfDonors;\r\n  }\r\n\r\n  /*\r\n  * This will be the getter function that everyone can call to check the campaign startDate.\r\n  * Parameters of this function will include uint campaignId\r\n  */\r\n  function getCampaignStartDate(uint campaignId) public view returns (uint) {\r\n    require(campaignId < noOfCampaigns, \"Invalid campaign id\");\r\n    return campaigns[campaignId].startDate;\r\n  }\r\n\r\n  /*\r\n  * This will be the getter function that everyone can call to check the campaign endDate.\r\n  * Parameters of this function will include uint campaignId\r\n  */\r\n  function getCampaignEndDate(uint campaignId) public view returns (uint) {\r\n    require(campaignId < noOfCampaigns, \"Invalid campaign id\");\r\n    return campaigns[campaignId].endDate;\r\n  }\r\n\r\n  /*\r\n  * This will be the getter function that everyone can call to check the campaign status.\r\n  * Parameters of this function will include uint campaignId\r\n  */\r\n  function getCampaignStatus(uint campaignId) public view returns (CampaignStatus) {\r\n    require(campaignId < noOfCampaigns, \"Invalid campaign id\");\r\n    return campaigns[campaignId].campaignStatus;\r\n  }\r\n  \r\n  // boolean to check campaign status\r\n  function isStatusComplete(uint campaignId) public view returns (bool) {\r\n    require(campaignId < noOfCampaigns, \"Invalid campaign id\");\r\n    if(campaigns[campaignId].campaignStatus == CampaignStatus.ENDED) {\r\n        return true;\r\n    }\r\n    return false;\r\n  }\r\n  \r\n  // boolean to check if campaign is valid\r\n  function checkValidCampaign(uint campaignId) public view returns (bool) {\r\n      if(campaignId < noOfCampaigns) {\r\n          return true;\r\n      }\r\n      return false;\r\n  }\r\n    \r\n  /*\r\n  * This will be the function that updates the campaign's currentDonation\r\n  * Parameters of this function will include uint campaignId and uint newDonation\r\n  */\r\n  function updateCampaignCurrentDonation(uint campaignId, uint newDonation) public {\r\n      require(campaignId < noOfCampaigns, \"Invalid campaign id\");\r\n      uint newAmount = campaigns[campaignId].currentDonation + newDonation;\r\n      campaigns[campaignId].currentDonation = newAmount;\r\n      emit updateCurrentDonation(newAmount);\r\n  }\r\n  \r\n  /*\r\n  * This will be the function that updates the campaign's noOfDonors\r\n  * Parameters of this function will include uint campaignId\r\n  */\r\n  function addCampaignDonor(uint campaignId) public {\r\n      require(campaignId < noOfCampaigns, \"Invalid campaign id\");\r\n      uint newNumber = campaigns[campaignId].noOfDonors + 1;\r\n      campaigns[campaignId].noOfDonors = newNumber;\r\n      emit updateCampaignDonors(newNumber);\r\n  }\r\n\r\n}",
  "sourcePath": "C:/Users/user/Downloads/IS4302/Project/sharity/contracts/Charity.sol",
  "compiler": {
    "name": "solc",
    "version": "0.5.0+commit.1d4f565a.Emscripten.clang"
  },
  "schemaVersion": "3.3.3",
  "updatedAt": "2021-03-19T10:38:01.656Z",
  "devdoc": {
    "methods": {}
  },
  "userdoc": {
    "methods": {}
  }
}