{
  "contractName": "Charity",
  "abi": [
    {
      "anonymous": false,
      "inputs": [
        {
          "indexed": false,
          "name": "charityId",
          "type": "uint256"
        }
      ],
      "name": "charityRegistered",
      "type": "event"
    },
    {
      "anonymous": false,
      "inputs": [
        {
          "indexed": false,
          "name": "charityId",
          "type": "uint256"
        }
      ],
      "name": "charityVerified",
      "type": "event"
    },
    {
      "anonymous": false,
      "inputs": [
        {
          "indexed": false,
          "name": "charityId",
          "type": "uint256"
        }
      ],
      "name": "charityRejected",
      "type": "event"
    },
    {
      "anonymous": false,
      "inputs": [
        {
          "indexed": false,
          "name": "charityId",
          "type": "uint256"
        }
      ],
      "name": "charityRevoked",
      "type": "event"
    },
    {
      "anonymous": false,
      "inputs": [
        {
          "indexed": false,
          "name": "charityId",
          "type": "uint256"
        },
        {
          "indexed": false,
          "name": "campaignId",
          "type": "uint256"
        }
      ],
      "name": "campaignCreated",
      "type": "event"
    },
    {
      "anonymous": false,
      "inputs": [
        {
          "indexed": false,
          "name": "campaignId",
          "type": "uint256"
        }
      ],
      "name": "campaignEnded",
      "type": "event"
    },
    {
      "anonymous": false,
      "inputs": [
        {
          "indexed": false,
          "name": "newAmount",
          "type": "uint256"
        }
      ],
      "name": "updateCurrentDonation",
      "type": "event"
    },
    {
      "anonymous": false,
      "inputs": [
        {
          "indexed": false,
          "name": "newNumber",
          "type": "uint256"
        }
      ],
      "name": "updateCampaignDonors",
      "type": "event"
    },
    {
      "constant": true,
      "inputs": [
        {
          "name": "inputAddress",
          "type": "address"
        }
      ],
      "name": "checkAddressType",
      "outputs": [
        {
          "name": "",
          "type": "string"
        }
      ],
      "payable": false,
      "stateMutability": "view",
      "type": "function"
    },
    {
      "constant": false,
      "inputs": [
        {
          "name": "charityName",
          "type": "string"
        },
        {
          "name": "charityAddress",
          "type": "string"
        },
        {
          "name": "contactNumber",
          "type": "string"
        },
        {
          "name": "description",
          "type": "string"
        },
        {
          "name": "pictureURL",
          "type": "string"
        }
      ],
      "name": "registerCharity",
      "outputs": [
        {
          "name": "charityId",
          "type": "uint256"
        }
      ],
      "payable": false,
      "stateMutability": "nonpayable",
      "type": "function"
    },
    {
      "constant": false,
      "inputs": [
        {
          "name": "charityId",
          "type": "uint256"
        },
        {
          "name": "verificationLink",
          "type": "string"
        }
      ],
      "name": "verifyCharity",
      "outputs": [],
      "payable": false,
      "stateMutability": "nonpayable",
      "type": "function"
    },
    {
      "constant": false,
      "inputs": [
        {
          "name": "charityId",
          "type": "uint256"
        }
      ],
      "name": "rejectCharity",
      "outputs": [],
      "payable": false,
      "stateMutability": "nonpayable",
      "type": "function"
    },
    {
      "constant": false,
      "inputs": [
        {
          "name": "charityId",
          "type": "uint256"
        }
      ],
      "name": "revokeCharity",
      "outputs": [],
      "payable": false,
      "stateMutability": "nonpayable",
      "type": "function"
    },
    {
      "constant": false,
      "inputs": [
        {
          "name": "campaignName",
          "type": "string"
        },
        {
          "name": "description",
          "type": "string"
        },
        {
          "name": "pictureURL",
          "type": "string"
        },
        {
          "name": "targetDonation",
          "type": "uint256"
        },
        {
          "name": "startDate",
          "type": "uint256"
        },
        {
          "name": "endDate",
          "type": "uint256"
        }
      ],
      "name": "createCampaign",
      "outputs": [
        {
          "name": "campaignId",
          "type": "uint256"
        }
      ],
      "payable": false,
      "stateMutability": "nonpayable",
      "type": "function"
    },
    {
      "constant": false,
      "inputs": [
        {
          "name": "campaignId",
          "type": "uint256"
        }
      ],
      "name": "endCampaign",
      "outputs": [],
      "payable": false,
      "stateMutability": "nonpayable",
      "type": "function"
    },
    {
      "constant": true,
      "inputs": [
        {
          "name": "charityId",
          "type": "uint256"
        }
      ],
      "name": "getCharityOwner",
      "outputs": [
        {
          "name": "",
          "type": "address"
        }
      ],
      "payable": false,
      "stateMutability": "view",
      "type": "function"
    },
    {
      "constant": true,
      "inputs": [
        {
          "name": "inputAddress",
          "type": "address"
        }
      ],
      "name": "getCharityIdByAddress",
      "outputs": [
        {
          "name": "",
          "type": "uint256"
        }
      ],
      "payable": false,
      "stateMutability": "view",
      "type": "function"
    },
    {
      "constant": true,
      "inputs": [
        {
          "name": "charityId",
          "type": "uint256"
        }
      ],
      "name": "getCharityName",
      "outputs": [
        {
          "name": "",
          "type": "string"
        }
      ],
      "payable": false,
      "stateMutability": "view",
      "type": "function"
    },
    {
      "constant": true,
      "inputs": [
        {
          "name": "inputAddress",
          "type": "address"
        }
      ],
      "name": "getCharityNameByAddress",
      "outputs": [
        {
          "name": "",
          "type": "string"
        }
      ],
      "payable": false,
      "stateMutability": "view",
      "type": "function"
    },
    {
      "constant": true,
      "inputs": [
        {
          "name": "charityId",
          "type": "uint256"
        }
      ],
      "name": "getCharityPictureURL",
      "outputs": [
        {
          "name": "",
          "type": "string"
        }
      ],
      "payable": false,
      "stateMutability": "view",
      "type": "function"
    },
    {
      "constant": true,
      "inputs": [
        {
          "name": "inputAddress",
          "type": "address"
        }
      ],
      "name": "getCharityPictureURLByAddress",
      "outputs": [
        {
          "name": "",
          "type": "string"
        }
      ],
      "payable": false,
      "stateMutability": "view",
      "type": "function"
    },
    {
      "constant": true,
      "inputs": [
        {
          "name": "charityId",
          "type": "uint256"
        }
      ],
      "name": "getCharityDescription",
      "outputs": [
        {
          "name": "",
          "type": "string"
        }
      ],
      "payable": false,
      "stateMutability": "view",
      "type": "function"
    },
    {
      "constant": true,
      "inputs": [
        {
          "name": "inputAddress",
          "type": "address"
        }
      ],
      "name": "getCharityDescriptionByAddress",
      "outputs": [
        {
          "name": "",
          "type": "string"
        }
      ],
      "payable": false,
      "stateMutability": "view",
      "type": "function"
    },
    {
      "constant": true,
      "inputs": [
        {
          "name": "charityId",
          "type": "uint256"
        }
      ],
      "name": "getCharityStatus",
      "outputs": [
        {
          "name": "",
          "type": "uint8"
        }
      ],
      "payable": false,
      "stateMutability": "view",
      "type": "function"
    },
    {
      "constant": true,
      "inputs": [
        {
          "name": "inputAddress",
          "type": "address"
        }
      ],
      "name": "getCharityStatusByAddress",
      "outputs": [
        {
          "name": "",
          "type": "uint8"
        }
      ],
      "payable": false,
      "stateMutability": "view",
      "type": "function"
    },
    {
      "constant": true,
      "inputs": [
        {
          "name": "charityId",
          "type": "uint256"
        }
      ],
      "name": "getCharityContactNumber",
      "outputs": [
        {
          "name": "",
          "type": "string"
        }
      ],
      "payable": false,
      "stateMutability": "view",
      "type": "function"
    },
    {
      "constant": true,
      "inputs": [
        {
          "name": "inputAddress",
          "type": "address"
        }
      ],
      "name": "getCharityContactNumberByAddress",
      "outputs": [
        {
          "name": "",
          "type": "string"
        }
      ],
      "payable": false,
      "stateMutability": "view",
      "type": "function"
    },
    {
      "constant": true,
      "inputs": [
        {
          "name": "charityId",
          "type": "uint256"
        }
      ],
      "name": "getCharityContactAddress",
      "outputs": [
        {
          "name": "",
          "type": "string"
        }
      ],
      "payable": false,
      "stateMutability": "view",
      "type": "function"
    },
    {
      "constant": true,
      "inputs": [
        {
          "name": "inputAddress",
          "type": "address"
        }
      ],
      "name": "getCharityContactAddressByAddress",
      "outputs": [
        {
          "name": "",
          "type": "string"
        }
      ],
      "payable": false,
      "stateMutability": "view",
      "type": "function"
    },
    {
      "constant": true,
      "inputs": [
        {
          "name": "charityId",
          "type": "uint256"
        }
      ],
      "name": "getCharityVerificationLink",
      "outputs": [
        {
          "name": "",
          "type": "string"
        }
      ],
      "payable": false,
      "stateMutability": "view",
      "type": "function"
    },
    {
      "constant": true,
      "inputs": [
        {
          "name": "inputAddress",
          "type": "address"
        }
      ],
      "name": "getCharityVerificationLinkByAddress",
      "outputs": [
        {
          "name": "",
          "type": "string"
        }
      ],
      "payable": false,
      "stateMutability": "view",
      "type": "function"
    },
    {
      "constant": true,
      "inputs": [],
      "name": "getNoOfCharities",
      "outputs": [
        {
          "name": "",
          "type": "uint256"
        }
      ],
      "payable": false,
      "stateMutability": "view",
      "type": "function"
    },
    {
      "constant": true,
      "inputs": [],
      "name": "getVerifiedCharityAmount",
      "outputs": [
        {
          "name": "",
          "type": "uint256"
        }
      ],
      "payable": false,
      "stateMutability": "view",
      "type": "function"
    },
    {
      "constant": true,
      "inputs": [],
      "name": "getUnverifiedCharityAmount",
      "outputs": [
        {
          "name": "",
          "type": "uint256"
        }
      ],
      "payable": false,
      "stateMutability": "view",
      "type": "function"
    },
    {
      "constant": true,
      "inputs": [],
      "name": "getRejectedCharityAmount",
      "outputs": [
        {
          "name": "",
          "type": "uint256"
        }
      ],
      "payable": false,
      "stateMutability": "view",
      "type": "function"
    },
    {
      "constant": true,
      "inputs": [
        {
          "name": "charityId",
          "type": "uint256"
        }
      ],
      "name": "getCampaignAmountByCharity",
      "outputs": [
        {
          "name": "",
          "type": "uint256"
        }
      ],
      "payable": false,
      "stateMutability": "view",
      "type": "function"
    },
    {
      "constant": true,
      "inputs": [
        {
          "name": "charityId",
          "type": "uint256"
        }
      ],
      "name": "getActiveCampaignAmountByCharity",
      "outputs": [
        {
          "name": "",
          "type": "uint256"
        }
      ],
      "payable": false,
      "stateMutability": "view",
      "type": "function"
    },
    {
      "constant": true,
      "inputs": [
        {
          "name": "charityId",
          "type": "uint256"
        }
      ],
      "name": "getEndedCampaignAmountByCharity",
      "outputs": [
        {
          "name": "",
          "type": "uint256"
        }
      ],
      "payable": false,
      "stateMutability": "view",
      "type": "function"
    },
    {
      "constant": true,
      "inputs": [
        {
          "name": "campaignId",
          "type": "uint256"
        }
      ],
      "name": "getCampaignCharity",
      "outputs": [
        {
          "name": "",
          "type": "uint256"
        }
      ],
      "payable": false,
      "stateMutability": "view",
      "type": "function"
    },
    {
      "constant": true,
      "inputs": [
        {
          "name": "campaignId",
          "type": "uint256"
        }
      ],
      "name": "getCampaignName",
      "outputs": [
        {
          "name": "",
          "type": "string"
        }
      ],
      "payable": false,
      "stateMutability": "view",
      "type": "function"
    },
    {
      "constant": true,
      "inputs": [
        {
          "name": "campaignId",
          "type": "uint256"
        }
      ],
      "name": "getCampaignDescription",
      "outputs": [
        {
          "name": "",
          "type": "string"
        }
      ],
      "payable": false,
      "stateMutability": "view",
      "type": "function"
    },
    {
      "constant": true,
      "inputs": [
        {
          "name": "campaignId",
          "type": "uint256"
        }
      ],
      "name": "getCampaignPictureURL",
      "outputs": [
        {
          "name": "",
          "type": "string"
        }
      ],
      "payable": false,
      "stateMutability": "view",
      "type": "function"
    },
    {
      "constant": true,
      "inputs": [
        {
          "name": "campaignId",
          "type": "uint256"
        }
      ],
      "name": "getCampaignTargetDonation",
      "outputs": [
        {
          "name": "",
          "type": "uint256"
        }
      ],
      "payable": false,
      "stateMutability": "view",
      "type": "function"
    },
    {
      "constant": true,
      "inputs": [
        {
          "name": "campaignId",
          "type": "uint256"
        }
      ],
      "name": "getCampaignCurrentDonation",
      "outputs": [
        {
          "name": "",
          "type": "uint256"
        }
      ],
      "payable": false,
      "stateMutability": "view",
      "type": "function"
    },
    {
      "constant": true,
      "inputs": [
        {
          "name": "campaignId",
          "type": "uint256"
        }
      ],
      "name": "getCampaignNoOfDonors",
      "outputs": [
        {
          "name": "",
          "type": "uint256"
        }
      ],
      "payable": false,
      "stateMutability": "view",
      "type": "function"
    },
    {
      "constant": true,
      "inputs": [
        {
          "name": "campaignId",
          "type": "uint256"
        }
      ],
      "name": "getCampaignStartDate",
      "outputs": [
        {
          "name": "",
          "type": "uint256"
        }
      ],
      "payable": false,
      "stateMutability": "view",
      "type": "function"
    },
    {
      "constant": true,
      "inputs": [
        {
          "name": "campaignId",
          "type": "uint256"
        }
      ],
      "name": "getCampaignEndDate",
      "outputs": [
        {
          "name": "",
          "type": "uint256"
        }
      ],
      "payable": false,
      "stateMutability": "view",
      "type": "function"
    },
    {
      "constant": true,
      "inputs": [
        {
          "name": "campaignId",
          "type": "uint256"
        }
      ],
      "name": "getCampaignStatus",
      "outputs": [
        {
          "name": "",
          "type": "uint8"
        }
      ],
      "payable": false,
      "stateMutability": "view",
      "type": "function"
    },
    {
      "constant": true,
      "inputs": [],
      "name": "getNoOfCampaigns",
      "outputs": [
        {
          "name": "",
          "type": "uint256"
        }
      ],
      "payable": false,
      "stateMutability": "view",
      "type": "function"
    },
    {
      "constant": true,
      "inputs": [
        {
          "name": "campaignId",
          "type": "uint256"
        }
      ],
      "name": "isStatusComplete",
      "outputs": [
        {
          "name": "",
          "type": "bool"
        }
      ],
      "payable": false,
      "stateMutability": "view",
      "type": "function"
    },
    {
      "constant": true,
      "inputs": [
        {
          "name": "campaignId",
          "type": "uint256"
        }
      ],
      "name": "checkValidCampaign",
      "outputs": [
        {
          "name": "",
          "type": "bool"
        }
      ],
      "payable": false,
      "stateMutability": "view",
      "type": "function"
    },
    {
      "constant": false,
      "inputs": [
        {
          "name": "campaignId",
          "type": "uint256"
        },
        {
          "name": "newDonation",
          "type": "uint256"
        }
      ],
      "name": "updateCampaignCurrentDonation",
      "outputs": [],
      "payable": false,
      "stateMutability": "nonpayable",
      "type": "function"
    },
    {
      "constant": false,
      "inputs": [
        {
          "name": "campaignId",
          "type": "uint256"
        }
      ],
      "name": "addCampaignDonor",
      "outputs": [],
      "payable": false,
      "stateMutability": "nonpayable",
      "type": "function"
    },
    {
      "constant": true,
      "inputs": [],
      "name": "getContractOwner",
      "outputs": [
        {
          "name": "",
          "type": "address"
        }
      ],
      "payable": false,
      "stateMutability": "view",
      "type": "function"
    },
    {
      "constant": true,
      "inputs": [
        {
          "name": "donor",
          "type": "address"
        },
        {
          "name": "charityId",
          "type": "uint256"
        }
      ],
      "name": "checkCharityDonor",
      "outputs": [
        {
          "name": "",
          "type": "bool"
        }
      ],
      "payable": false,
      "stateMutability": "view",
      "type": "function"
    },
    {
      "constant": false,
      "inputs": [
        {
          "name": "donor",
          "type": "address"
        },
        {
          "name": "charityId",
          "type": "uint256"
        }
      ],
      "name": "addCharityDonor",
      "outputs": [],
      "payable": false,
      "stateMutability": "nonpayable",
      "type": "function"
    }
  ],
  "bytecode": "0x6080604052336000806101000a81548173ffffffffffffffffffffffffffffffffffffffff021916908373ffffffffffffffffffffffffffffffffffffffff1602179055506000600655600060095534801561005a57600080fd5b50615c91806200006b6000396000f3fe608060405260043610610244576000357c0100000000000000000000000000000000000000000000000000000000900463ffffffff16806282c0b21461024957806296a1f0146102ae578063068782d2146102d957806306fd7c601461038d5780630749c8ac146103b85780630bbcf6961461046c57806311385636146104a757806312c7d50a1461057157806315f28a27146108a9578063161d3dd1146108f857806327f2b91d1461092357806332fa180d14610b4b5780633ffe888f14610b76578063442890d514610bc55780634e429c0b14610c1c57806354ee0d3614610ce657806355fb8f5314610d3557806357d65eac14610de95780635a10227514610e3c5780635e0566a314610ef057806368b0875614610fa45780636c19e00414610fff5780636dbdfedc1461105c578063709d1e7c1461112e57806374eb5738146111e257806376e77d34146112315780637ede52fc1461128057806395657f7e14611334578063960bb887146113e8578063980a2688146114375780639eaec803146114eb5780639fd852f014611526578063a16fd1d0146115f0578063a6af939a1461164d578063b95c6d3914611692578063bc4465da1461175c578063bd12c9a8146117ab578063c5001c1114611875578063ca032ade1461193f578063dba22957146119b2578063dd0408ae14611a25578063ddf1317614611a60578063e317526a14611a8b578063ea79c20014611b06578063eaa44df214611b41578063f1c4bfac14611c0b578063f6b5489814611c5a578063fb99932f14611cad575b600080fd5b34801561025557600080fd5b506102986004803603602081101561026c57600080fd5b81019080803573ffffffffffffffffffffffffffffffffffffffff169060200190929190505050611cfc565b6040518082815260200191505060405180910390f35b3480156102ba57600080fd5b506102c3611e13565b6040518082815260200191505060405180910390f35b3480156102e557600080fd5b50610312600480360360208110156102fc57600080fd5b8101908080359060200190929190505050611e89565b6040518080602001828103825283818151815260200191508051906020019080838360005b83811015610352578082015181840152602081019050610337565b50505050905090810190601f16801561037f5780820380516001836020036101000a031916815260200191505b509250505060405180910390f35b34801561039957600080fd5b506103a2611fba565b6040518082815260200191505060405180910390f35b3480156103c457600080fd5b506103f1600480360360208110156103db57600080fd5b8101908080359060200190929190505050612031565b6040518080602001828103825283818151815260200191508051906020019080838360005b83811015610431578082015181840152602081019050610416565b50505050905090810190601f16801561045e5780820380516001836020036101000a031916815260200191505b509250505060405180910390f35b34801561047857600080fd5b506104a56004803603602081101561048f57600080fd5b8101908080359060200190929190505050612162565b005b3480156104b357600080fd5b506104f6600480360360208110156104ca57600080fd5b81019080803573ffffffffffffffffffffffffffffffffffffffff169060200190929190505050612549565b6040518080602001828103825283818151815260200191508051906020019080838360005b8381101561053657808201518184015260208101905061051b565b50505050905090810190601f1680156105635780820380516001836020036101000a031916815260200191505b509250505060405180910390f35b34801561057d57600080fd5b50610893600480360360a081101561059457600080fd5b81019080803590602001906401000000008111156105b157600080fd5b8201836020820111156105c357600080fd5b803590602001918460018302840111640100000000831117156105e557600080fd5b91908080601f016020809104026020016040519081016040528093929190818152602001838380828437600081840152601f19601f8201169050808301925050505050505091929192908035906020019064010000000081111561064857600080fd5b82018360208201111561065a57600080fd5b8035906020019184600183028401116401000000008311171561067c57600080fd5b91908080601f016020809104026020016040519081016040528093929190818152602001838380828437600081840152601f19601f820116905080830192505050505050509192919290803590602001906401000000008111156106df57600080fd5b8201836020820111156106f157600080fd5b8035906020019184600183028401116401000000008311171561071357600080fd5b91908080601f016020809104026020016040519081016040528093929190818152602001838380828437600081840152601f19601f8201169050808301925050505050505091929192908035906020019064010000000081111561077657600080fd5b82018360208201111561078857600080fd5b803590602001918460018302840111640100000000831117156107aa57600080fd5b91908080601f016020809104026020016040519081016040528093929190818152602001838380828437600081840152601f19601f8201169050808301925050505050505091929192908035906020019064010000000081111561080d57600080fd5b82018360208201111561081f57600080fd5b8035906020019184600183028401116401000000008311171561084157600080fd5b91908080601f016020809104026020016040519081016040528093929190818152602001838380828437600081840152601f19601f82011690508083019250505050505050919291929050505061270e565b6040518082815260200191505060405180910390f35b3480156108b557600080fd5b506108e2600480360360208110156108cc57600080fd5b8101908080359060200190929190505050612b1c565b6040518082815260200191505060405180910390f35b34801561090457600080fd5b5061090d612bb5565b6040518082815260200191505060405180910390f35b34801561092f57600080fd5b50610b35600480360360c081101561094657600080fd5b810190808035906020019064010000000081111561096357600080fd5b82018360208201111561097557600080fd5b8035906020019184600183028401116401000000008311171561099757600080fd5b91908080601f016020809104026020016040519081016040528093929190818152602001838380828437600081840152601f19601f820116905080830192505050505050509192919290803590602001906401000000008111156109fa57600080fd5b820183602082011115610a0c57600080fd5b80359060200191846001830284011164010000000083111715610a2e57600080fd5b91908080601f016020809104026020016040519081016040528093929190818152602001838380828437600081840152601f19601f82011690508083019250505050505050919291929080359060200190640100000000811115610a9157600080fd5b820183602082011115610aa357600080fd5b80359060200191846001830284011164010000000083111715610ac557600080fd5b91908080601f016020809104026020016040519081016040528093929190818152602001838380828437600081840152601f19601f820116905080830192505050505050509192919290803590602001909291908035906020019092919080359060200190929190505050612bbf565b6040518082815260200191505060405180910390f35b348015610b5757600080fd5b50610b60612e9c565b6040518082815260200191505060405180910390f35b348015610b8257600080fd5b50610baf60048036036020811015610b9957600080fd5b8101908080359060200190929190505050612ea6565b6040518082815260200191505060405180910390f35b348015610bd157600080fd5b50610bda612f3f565b604051808273ffffffffffffffffffffffffffffffffffffffff1673ffffffffffffffffffffffffffffffffffffffff16815260200191505060405180910390f35b348015610c2857600080fd5b50610c6b60048036036020811015610c3f57600080fd5b81019080803573ffffffffffffffffffffffffffffffffffffffff169060200190929190505050612f68565b6040518080602001828103825283818151815260200191508051906020019080838360005b83811015610cab578082015181840152602081019050610c90565b50505050905090810190601f168015610cd85780820380516001836020036101000a031916815260200191505b509250505060405180910390f35b348015610cf257600080fd5b50610d1f60048036036020811015610d0957600080fd5b810190808035906020019092919050505061312d565b6040518082815260200191505060405180910390f35b348015610d4157600080fd5b50610d6e60048036036020811015610d5857600080fd5b81019080803590602001909291905050506131b2565b6040518080602001828103825283818151815260200191508051906020019080838360005b83811015610dae578082015181840152602081019050610d93565b50505050905090810190601f168015610ddb5780820380516001836020036101000a031916815260200191505b509250505060405180910390f35b348015610df557600080fd5b50610e2260048036036020811015610e0c57600080fd5b81019080803590602001909291905050506132e3565b604051808215151515815260200191505060405180910390f35b348015610e4857600080fd5b50610e7560048036036020811015610e5f57600080fd5b8101908080359060200190929190505050613302565b6040518080602001828103825283818151815260200191508051906020019080838360005b83811015610eb5578082015181840152602081019050610e9a565b50505050905090810190601f168015610ee25780820380516001836020036101000a031916815260200191505b509250505060405180910390f35b348015610efc57600080fd5b50610f2960048036036020811015610f1357600080fd5b8101908080359060200190929190505050613433565b6040518080602001828103825283818151815260200191508051906020019080838360005b83811015610f69578082015181840152602081019050610f4e565b50505050905090810190601f168015610f965780820380516001836020036101000a031916815260200191505b509250505060405180910390f35b348015610fb057600080fd5b50610ffd60048036036040811015610fc757600080fd5b81019080803573ffffffffffffffffffffffffffffffffffffffff16906020019092919080359060200190929190505050613564565b005b34801561100b57600080fd5b506110386004803603602081101561102257600080fd5b81019080803590602001909291905050506135e2565b6040518082600181111561104857fe5b60ff16815260200191505060405180910390f35b34801561106857600080fd5b5061112c6004803603604081101561107f57600080fd5b8101908080359060200190929190803590602001906401000000008111156110a657600080fd5b8201836020820111156110b857600080fd5b803590602001918460018302840111640100000000831117156110da57600080fd5b91908080601f016020809104026020016040519081016040528093929190818152602001838380828437600081840152601f19601f820116905080830192505050505050509192919290505050613688565b005b34801561113a57600080fd5b506111676004803603602081101561115157600080fd5b8101908080359060200190929190505050613ac7565b6040518080602001828103825283818151815260200191508051906020019080838360005b838110156111a757808201518184015260208101905061118c565b50505050905090810190601f1680156111d45780820380516001836020036101000a031916815260200191505b509250505060405180910390f35b3480156111ee57600080fd5b5061121b6004803603602081101561120557600080fd5b8101908080359060200190929190505050613bf8565b6040518082815260200191505060405180910390f35b34801561123d57600080fd5b5061126a6004803603602081101561125457600080fd5b8101908080359060200190929190505050613c91565b6040518082815260200191505060405180910390f35b34801561128c57600080fd5b506112b9600480360360208110156112a357600080fd5b8101908080359060200190929190505050613d16565b6040518080602001828103825283818151815260200191508051906020019080838360005b838110156112f95780820151818401526020810190506112de565b50505050905090810190601f1680156113265780820380516001836020036101000a031916815260200191505b509250505060405180910390f35b34801561134057600080fd5b5061136d6004803603602081101561135757600080fd5b8101908080359060200190929190505050613e47565b6040518080602001828103825283818151815260200191508051906020019080838360005b838110156113ad578082015181840152602081019050611392565b50505050905090810190601f1680156113da5780820380516001836020036101000a031916815260200191505b509250505060405180910390f35b3480156113f457600080fd5b506114216004803603602081101561140b57600080fd5b8101908080359060200190929190505050613f78565b6040518082815260200191505060405180910390f35b34801561144357600080fd5b506114706004803603602081101561145a57600080fd5b8101908080359060200190929190505050613fcd565b6040518080602001828103825283818151815260200191508051906020019080838360005b838110156114b0578082015181840152602081019050611495565b50505050905090810190601f1680156114dd5780820380516001836020036101000a031916815260200191505b509250505060405180910390f35b3480156114f757600080fd5b506115246004803603602081101561150e57600080fd5b81019080803590602001909291905050506140fe565b005b34801561153257600080fd5b506115756004803603602081101561154957600080fd5b81019080803573ffffffffffffffffffffffffffffffffffffffff1690602001909291905050506144e5565b6040518080602001828103825283818151815260200191508051906020019080838360005b838110156115b557808201518184015260208101905061159a565b50505050905090810190601f1680156115e25780820380516001836020036101000a031916815260200191505b509250505060405180910390f35b3480156115fc57600080fd5b506116296004803603602081101561161357600080fd5b810190808035906020019092919050505061464d565b6040518082600281111561163957fe5b60ff16815260200191505060405180910390f35b34801561165957600080fd5b506116906004803603604081101561167057600080fd5b8101908080359060200190929190803590602001909291905050506146f3565b005b34801561169e57600080fd5b506116e1600480360360208110156116b557600080fd5b81019080803573ffffffffffffffffffffffffffffffffffffffff1690602001909291905050506147e0565b6040518080602001828103825283818151815260200191508051906020019080838360005b83811015611721578082015181840152602081019050611706565b50505050905090810190601f16801561174e5780820380516001836020036101000a031916815260200191505b509250505060405180910390f35b34801561176857600080fd5b506117956004803603602081101561177f57600080fd5b81019080803590602001909291905050506149a5565b6040518082815260200191505060405180910390f35b3480156117b757600080fd5b506117fa600480360360208110156117ce57600080fd5b81019080803573ffffffffffffffffffffffffffffffffffffffff169060200190929190505050614a3e565b6040518080602001828103825283818151815260200191508051906020019080838360005b8381101561183a57808201518184015260208101905061181f565b50505050905090810190601f1680156118675780820380516001836020036101000a031916815260200191505b509250505060405180910390f35b34801561188157600080fd5b506118c46004803603602081101561189857600080fd5b81019080803573ffffffffffffffffffffffffffffffffffffffff169060200190929190505050614c03565b6040518080602001828103825283818151815260200191508051906020019080838360005b838110156119045780820151818401526020810190506118e9565b50505050905090810190601f1680156119315780820380516001836020036101000a031916815260200191505b509250505060405180910390f35b34801561194b57600080fd5b5061198e6004803603602081101561196257600080fd5b81019080803573ffffffffffffffffffffffffffffffffffffffff169060200190929190505050614dc8565b6040518082600281111561199e57fe5b60ff16815260200191505060405180910390f35b3480156119be57600080fd5b50611a0b600480360360408110156119d557600080fd5b81019080803573ffffffffffffffffffffffffffffffffffffffff16906020019092919080359060200190929190505050614f02565b604051808215151515815260200191505060405180910390f35b348015611a3157600080fd5b50611a5e60048036036020811015611a4857600080fd5b8101908080359060200190929190505050614fd5565b005b348015611a6c57600080fd5b50611a756153c3565b6040518082815260200191505060405180910390f35b348015611a9757600080fd5b50611ac460048036036020811015611aae57600080fd5b810190808035906020019092919050505061543a565b604051808273ffffffffffffffffffffffffffffffffffffffff1673ffffffffffffffffffffffffffffffffffffffff16815260200191505060405180910390f35b348015611b1257600080fd5b50611b3f60048036036020811015611b2957600080fd5b81019080803590602001909291905050506154f3565b005b348015611b4d57600080fd5b50611b9060048036036020811015611b6457600080fd5b81019080803573ffffffffffffffffffffffffffffffffffffffff1690602001909291905050506155e0565b6040518080602001828103825283818151815260200191508051906020019080838360005b83811015611bd0578082015181840152602081019050611bb5565b50505050905090810190601f168015611bfd5780820380516001836020036101000a031916815260200191505b509250505060405180910390f35b348015611c1757600080fd5b50611c4460048036036020811015611c2e57600080fd5b81019080803590602001909291905050506157a5565b6040518082815260200191505060405180910390f35b348015611c6657600080fd5b50611c9360048036036020811015611c7d57600080fd5b810190808035906020019092919050505061583e565b604051808215151515815260200191505060405180910390f35b348015611cb957600080fd5b50611ce660048036036020811015611cd057600080fd5b810190808035906020019092919050505061590d565b6040518082815260200191505060405180910390f35b600060011515600560008473ffffffffffffffffffffffffffffffffffffffff1673ffffffffffffffffffffffffffffffffffffffff16815260200190815260200160002060009054906101000a900460ff161515141515611dc6576040517f08c379a00000000000000000000000000000000000000000000000000000000081526004018080602001828103825260208152602001807f41646472657373206e6f74206f776e6572206f6620616e79206368617269747981525060200191505060405180910390fd5b6000600360008473ffffffffffffffffffffffffffffffffffffffff1673ffffffffffffffffffffffffffffffffffffffff16815260200190815260200160002054905080915050919050565b6000806000905060008090505b600654811015611e8157600280811115611e3657fe5b6002600083815260200190815260200160002060070160009054906101000a900460ff166002811115611e6557fe5b1415611e745781806001019250505b8080600101915050611e20565b508091505090565b606060095482101515611f04576040517f08c379a00000000000000000000000000000000000000000000000000000000081526004018080602001828103825260138152602001807f496e76616c69642063616d706169676e2069640000000000000000000000000081525060200191505060405180910390fd5b600860008381526020019081526020016000206002018054600181600116156101000203166002900480601f016020809104026020016040519081016040528092919081815260200182805460018160011615610100020316600290048015611fae5780601f10611f8357610100808354040283529160200191611fae565b820191906000526020600020905b815481529060010190602001808311611f9157829003601f168201915b50505050509050919050565b6000806000905060008090505b6006548110156120295760006002811115611fde57fe5b6002600083815260200190815260200160002060070160009054906101000a900460ff16600281111561200d57fe5b141561201c5781806001019250505b8080600101915050611fc7565b508091505090565b6060600654821015156120ac576040517f08c379a00000000000000000000000000000000000000000000000000000000081526004018080602001828103825260128152602001807f496e76616c69642063686172697479206964000000000000000000000000000081525060200191505060405180910390fd5b600260008381526020019081526020016000206005018054600181600116156101000203166002900480601f0160208091040260200160405190810160405280929190818152602001828054600181600116156101000203166002900480156121565780601f1061212b57610100808354040283529160200191612156565b820191906000526020600020905b81548152906001019060200180831161213957829003601f168201915b50505050509050919050565b336000809054906101000a900473ffffffffffffffffffffffffffffffffffffffff1673ffffffffffffffffffffffffffffffffffffffff168173ffffffffffffffffffffffffffffffffffffffff16141515612227576040517f08c379a000000000000000000000000000000000000000000000000000000000815260040180806020018281038252601c8152602001807f43616c6c6572206973206e6f7420636f6e7472616374206f776e65720000000081525060200191505060405180910390fd5b6000809054906101000a900473ffffffffffffffffffffffffffffffffffffffff1673ffffffffffffffffffffffffffffffffffffffff163373ffffffffffffffffffffffffffffffffffffffff161415156122eb576040517f08c379a000000000000000000000000000000000000000000000000000000000815260040180806020018281038252601c8152602001807f43616c6c6572206973206e6f7420636f6e7472616374206f776e65720000000081525060200191505060405180910390fd5b60065482101515612364576040517f08c379a00000000000000000000000000000000000000000000000000000000081526004018080602001828103825260128152602001807f496e76616c69642063686172697479206964000000000000000000000000000081525060200191505060405180910390fd5b6001600281111561237157fe5b6002600084815260200190815260200160002060070160009054906101000a900460ff1660028111156123a057fe5b14151561243b576040517f08c379a00000000000000000000000000000000000000000000000000000000081526004018080602001828103825260218152602001807f43686172697479206973206e6f7420612076657269666965642063686172697481526020017f790000000000000000000000000000000000000000000000000000000000000081525060400191505060405180910390fd5b600115156001600084815260200190815260200160002060009054906101000a900460ff1615151415156124d7576040517f08c379a00000000000000000000000000000000000000000000000000000000081526004018080602001828103825260198152602001807f4368617269747920686173206265656e2076657269666965640000000000000081525060200191505060405180910390fd5b600280600084815260200190815260200160002060070160006101000a81548160ff0219169083600281111561250957fe5b02179055507f0c3e8a5dc7b4dae9b9bacc0f229ddf9e8ff1a86a106b83477dfe72f4cda87f71826040518082815260200191505060405180910390a15050565b606060011515600560008473ffffffffffffffffffffffffffffffffffffffff1673ffffffffffffffffffffffffffffffffffffffff16815260200190815260200160002060009054906101000a900460ff161515141515612613576040517f08c379a00000000000000000000000000000000000000000000000000000000081526004018080602001828103825260208152602001807f41646472657373206e6f74206f776e6572206f6620616e79206368617269747981525060200191505060405180910390fd5b6000600360008473ffffffffffffffffffffffffffffffffffffffff1673ffffffffffffffffffffffffffffffffffffffff168152602001908152602001600020549050600260008281526020019081526020016000206006018054600181600116156101000203166002900480601f0160208091040260200160405190810160405280929190818152602001828054600181600116156101000203166002900480156127015780601f106126d657610100808354040283529160200191612701565b820191906000526020600020905b8154815290600101906020018083116126e457829003601f168201915b5050505050915050919050565b6000801515600560003373ffffffffffffffffffffffffffffffffffffffff1673ffffffffffffffffffffffffffffffffffffffff16815260200190815260200160002060009054906101000a900460ff1615151415156127fd576040517f08c379a00000000000000000000000000000000000000000000000000000000081526004018080602001828103825260338152602001807f54686973206164647265737320686173207265676973746572656420616e6f7481526020017f686572206368617269747920616c72656164790000000000000000000000000081525060400191505060405180910390fd5b600660008154809291906001019190505590506128186159a6565b610120604051908101604052803373ffffffffffffffffffffffffffffffffffffffff168152602001888152602001878152602001868152602001858152602001848152602001602060405190810160405280600081525081526020016000600281111561288257fe5b815260200160646040519080825280602002602001820160405280156128b75781602001602082028038833980820191505090505b508152509050806002600084815260200190815260200160002060008201518160000160006101000a81548173ffffffffffffffffffffffffffffffffffffffff021916908373ffffffffffffffffffffffffffffffffffffffff1602179055506020820151816001019080519060200190612934929190615a14565b506040820151816002019080519060200190612951929190615a14565b50606082015181600301908051906020019061296e929190615a14565b50608082015181600401908051906020019061298b929190615a14565b5060a08201518160050190805190602001906129a8929190615a14565b5060c08201518160060190805190602001906129c5929190615a14565b5060e08201518160070160006101000a81548160ff021916908360028111156129ea57fe5b0217905550610100820151816008019080519060200190612a0c929190615a94565b5090505081600360003373ffffffffffffffffffffffffffffffffffffffff1673ffffffffffffffffffffffffffffffffffffffff1681526020019081526020016000208190555060006001600084815260200190815260200160002060006101000a81548160ff0219169083151502179055506001600560003373ffffffffffffffffffffffffffffffffffffffff1673ffffffffffffffffffffffffffffffffffffffff16815260200190815260200160002060006101000a81548160ff0219169083151502179055507f2818bce8f12afdd5c38fb751b1b8b1ce1580ad9686c8ac779489a38df94a6600826040518082815260200191505060405180910390a18191505095945050505050565b600060095482101515612b97576040517f08c379a00000000000000000000000000000000000000000000000000000000081526004018080602001828103825260138152602001807f496e76616c69642063616d706169676e2069640000000000000000000000000081525060200191505060405180910390fd5b60086000838152602001908152602001600020600401549050919050565b6000600954905090565b60003360016000600360008473ffffffffffffffffffffffffffffffffffffffff1673ffffffffffffffffffffffffffffffffffffffff16815260200190815260200160002054815260200190815260200160002060009054906101000a900460ff161515612c96576040517f08c379a000000000000000000000000000000000000000000000000000000000815260040180806020018281038252601d8152602001807f43616c6c6572206973206e6f7420612076616c6964206368617269747900000081525060200191505060405180910390fd5b600960008154809291906001019190505591506000600360003373ffffffffffffffffffffffffffffffffffffffff1673ffffffffffffffffffffffffffffffffffffffff168152602001908152602001600020549050612cf5615b1e565b610140604051908101604052808381526020018b81526020018a8152602001898152602001888152602001600081526020016000815260200187815260200186815260200160006001811115612d4757fe5b81525090508060086000868152602001908152602001600020600082015181600001556020820151816001019080519060200190612d86929190615a14565b506040820151816002019080519060200190612da3929190615a14565b506060820151816003019080519060200190612dc0929190615a14565b506080820151816004015560a0820151816005015560c0820151816006015560e0820151816007015561010082015181600801556101208201518160090160006101000a81548160ff02191690836001811115612e1957fe5b021790555090505060016007600086815260200190815260200160002060006101000a81548160ff0219169083151502179055507f43ff46a4179f4c55f80d6329f38d2f16f0f6fad7f2e689fe51362d0ee5cd05b58285604051808381526020018281526020019250505060405180910390a18393505050509695505050505050565b6000600654905090565b600060095482101515612f21576040517f08c379a00000000000000000000000000000000000000000000000000000000081526004018080602001828103825260138152602001807f496e76616c69642063616d706169676e2069640000000000000000000000000081525060200191505060405180910390fd5b60086000838152602001908152602001600020600601549050919050565b60008060009054906101000a900473ffffffffffffffffffffffffffffffffffffffff16905090565b606060011515600560008473ffffffffffffffffffffffffffffffffffffffff1673ffffffffffffffffffffffffffffffffffffffff16815260200190815260200160002060009054906101000a900460ff161515141515613032576040517f08c379a00000000000000000000000000000000000000000000000000000000081526004018080602001828103825260208152602001807f41646472657373206e6f74206f776e6572206f6620616e79206368617269747981525060200191505060405180910390fd5b6000600360008473ffffffffffffffffffffffffffffffffffffffff1673ffffffffffffffffffffffffffffffffffffffff168152602001908152602001600020549050600260008281526020019081526020016000206003018054600181600116156101000203166002900480601f0160208091040260200160405190810160405280929190818152602001828054600181600116156101000203166002900480156131205780601f106130f557610100808354040283529160200191613120565b820191906000526020600020905b81548152906001019060200180831161310357829003601f168201915b5050505050915050919050565b6000806000905060008090505b6009548110156131a85783600860008381526020019081526020016000206000015414801561318d5750600015156007600083815260200190815260200160002060009054906101000a900460ff161515145b1561319b5781806001019250505b808060010191505061313a565b5080915050919050565b60606009548210151561322d576040517f08c379a00000000000000000000000000000000000000000000000000000000081526004018080602001828103825260138152602001807f496e76616c69642063616d706169676e2069640000000000000000000000000081525060200191505060405180910390fd5b600860008381526020019081526020016000206003018054600181600116156101000203166002900480601f0160208091040260200160405190810160405280929190818152602001828054600181600116156101000203166002900480156132d75780601f106132ac576101008083540402835291602001916132d7565b820191906000526020600020905b8154815290600101906020018083116132ba57829003601f168201915b50505050509050919050565b60006009548210156132f857600190506132fd565b600090505b919050565b60606009548210151561337d576040517f08c379a00000000000000000000000000000000000000000000000000000000081526004018080602001828103825260138152602001807f496e76616c69642063616d706169676e2069640000000000000000000000000081525060200191505060405180910390fd5b600860008381526020019081526020016000206001018054600181600116156101000203166002900480601f0160208091040260200160405190810160405280929190818152602001828054600181600116156101000203166002900480156134275780601f106133fc57610100808354040283529160200191613427565b820191906000526020600020905b81548152906001019060200180831161340a57829003601f168201915b50505050509050919050565b6060600654821015156134ae576040517f08c379a00000000000000000000000000000000000000000000000000000000081526004018080602001828103825260128152602001807f496e76616c69642063686172697479206964000000000000000000000000000081525060200191505060405180910390fd5b600260008381526020019081526020016000206003018054600181600116156101000203166002900480601f0160208091040260200160405190810160405280929190818152602001828054600181600116156101000203166002900480156135585780601f1061352d57610100808354040283529160200191613558565b820191906000526020600020905b81548152906001019060200180831161353b57829003601f168201915b50505050509050919050565b600260008281526020019081526020016000206008018290806001815401808255809150509060018203906000526020600020016000909192909190916101000a81548173ffffffffffffffffffffffffffffffffffffffff021916908373ffffffffffffffffffffffffffffffffffffffff160217905550505050565b60006009548210151561365d576040517f08c379a00000000000000000000000000000000000000000000000000000000081526004018080602001828103825260138152602001807f496e76616c69642063616d706169676e2069640000000000000000000000000081525060200191505060405180910390fd5b6008600083815260200190815260200160002060090160009054906101000a900460ff169050919050565b336000809054906101000a900473ffffffffffffffffffffffffffffffffffffffff1673ffffffffffffffffffffffffffffffffffffffff168173ffffffffffffffffffffffffffffffffffffffff1614151561374d576040517f08c379a000000000000000000000000000000000000000000000000000000000815260040180806020018281038252601c8152602001807f43616c6c6572206973206e6f7420636f6e7472616374206f776e65720000000081525060200191505060405180910390fd5b6000809054906101000a900473ffffffffffffffffffffffffffffffffffffffff1673ffffffffffffffffffffffffffffffffffffffff163373ffffffffffffffffffffffffffffffffffffffff16141515613811576040517f08c379a000000000000000000000000000000000000000000000000000000000815260040180806020018281038252601c8152602001807f43616c6c6572206973206e6f7420636f6e7472616374206f776e65720000000081525060200191505060405180910390fd5b6006548310151561388a576040517f08c379a00000000000000000000000000000000000000000000000000000000081526004018080602001828103825260128152602001807f496e76616c69642063686172697479206964000000000000000000000000000081525060200191505060405180910390fd5b6000600281111561389757fe5b6002600085815260200190815260200160002060070160009054906101000a900460ff1660028111156138c657fe5b141515613961576040517f08c379a00000000000000000000000000000000000000000000000000000000081526004018080602001828103825260258152602001807f4368617269747920686173206265656e207665726966696564206f722072656a81526020017f656374656400000000000000000000000000000000000000000000000000000081525060400191505060405180910390fd5b600015156001600085815260200190815260200160002060009054906101000a900460ff1615151415156139fd576040517f08c379a00000000000000000000000000000000000000000000000000000000081526004018080602001828103825260198152602001807f4368617269747920686173206265656e2076657269666965640000000000000081525060200191505060405180910390fd5b60016002600085815260200190815260200160002060070160006101000a81548160ff02191690836002811115613a3057fe5b021790555081600260008581526020019081526020016000206006019080519060200190613a5f929190615b7d565b50600180600085815260200190815260200160002060006101000a81548160ff0219169083151502179055507ffb6ca19fa7c8eeb83b0f44c69164632fc81e6e1b17e2021cf8a905981f3babc2836040518082815260200191505060405180910390a1505050565b606060065482101515613b42576040517f08c379a00000000000000000000000000000000000000000000000000000000081526004018080602001828103825260128152602001807f496e76616c69642063686172697479206964000000000000000000000000000081525060200191505060405180910390fd5b600260008381526020019081526020016000206006018054600181600116156101000203166002900480601f016020809104026020016040519081016040528092919081815260200182805460018160011615610100020316600290048015613bec5780601f10613bc157610100808354040283529160200191613bec565b820191906000526020600020905b815481529060010190602001808311613bcf57829003601f168201915b50505050509050919050565b600060095482101515613c73576040517f08c379a00000000000000000000000000000000000000000000000000000000081526004018080602001828103825260138152602001807f496e76616c69642063616d706169676e2069640000000000000000000000000081525060200191505060405180910390fd5b60086000838152602001908152602001600020600001549050919050565b6000806000905060008090505b600954811015613d0c57836008600083815260200190815260200160002060000154148015613cf15750600115156007600083815260200190815260200160002060009054906101000a900460ff161515145b15613cff5781806001019250505b8080600101915050613c9e565b5080915050919050565b606060065482101515613d91576040517f08c379a00000000000000000000000000000000000000000000000000000000081526004018080602001828103825260128152602001807f496e76616c69642063686172697479206964000000000000000000000000000081525060200191505060405180910390fd5b600260008381526020019081526020016000206001018054600181600116156101000203166002900480601f016020809104026020016040519081016040528092919081815260200182805460018160011615610100020316600290048015613e3b5780601f10613e1057610100808354040283529160200191613e3b565b820191906000526020600020905b815481529060010190602001808311613e1e57829003601f168201915b50505050509050919050565b606060065482101515613ec2576040517f08c379a00000000000000000000000000000000000000000000000000000000081526004018080602001828103825260128152602001807f496e76616c69642063686172697479206964000000000000000000000000000081525060200191505060405180910390fd5b600260008381526020019081526020016000206004018054600181600116156101000203166002900480601f016020809104026020016040519081016040528092919081815260200182805460018160011615610100020316600290048015613f6c5780601f10613f4157610100808354040283529160200191613f6c565b820191906000526020600020905b815481529060010190602001808311613f4f57829003601f168201915b50505050509050919050565b6000806000905060008090505b600954811015613fc3578360086000838152602001908152602001600020600001541415613fb65781806001019250505b8080600101915050613f85565b5080915050919050565b606060065482101515614048576040517f08c379a00000000000000000000000000000000000000000000000000000000081526004018080602001828103825260128152602001807f496e76616c69642063686172697479206964000000000000000000000000000081525060200191505060405180910390fd5b600260008381526020019081526020016000206002018054600181600116156101000203166002900480601f0160208091040260200160405190810160405280929190818152602001828054600181600116156101000203166002900480156140f25780601f106140c7576101008083540402835291602001916140f2565b820191906000526020600020905b8154815290600101906020018083116140d557829003601f168201915b50505050509050919050565b336000809054906101000a900473ffffffffffffffffffffffffffffffffffffffff1673ffffffffffffffffffffffffffffffffffffffff168173ffffffffffffffffffffffffffffffffffffffff161415156141c3576040517f08c379a000000000000000000000000000000000000000000000000000000000815260040180806020018281038252601c8152602001807f43616c6c6572206973206e6f7420636f6e7472616374206f776e65720000000081525060200191505060405180910390fd5b6000809054906101000a900473ffffffffffffffffffffffffffffffffffffffff1673ffffffffffffffffffffffffffffffffffffffff163373ffffffffffffffffffffffffffffffffffffffff16141515614287576040517f08c379a000000000000000000000000000000000000000000000000000000000815260040180806020018281038252601c8152602001807f43616c6c6572206973206e6f7420636f6e7472616374206f776e65720000000081525060200191505060405180910390fd5b60065482101515614300576040517f08c379a00000000000000000000000000000000000000000000000000000000081526004018080602001828103825260128152602001807f496e76616c69642063686172697479206964000000000000000000000000000081525060200191505060405180910390fd5b6000600281111561430d57fe5b6002600084815260200190815260200160002060070160009054906101000a900460ff16600281111561433c57fe5b1415156143d7576040517f08c379a00000000000000000000000000000000000000000000000000000000081526004018080602001828103825260258152602001807f4368617269747920686173206265656e207665726966696564206f722072656a81526020017f656374656400000000000000000000000000000000000000000000000000000081525060400191505060405180910390fd5b600015156001600084815260200190815260200160002060009054906101000a900460ff161515141515614473576040517f08c379a00000000000000000000000000000000000000000000000000000000081526004018080602001828103825260198152602001807f4368617269747920686173206265656e2076657269666965640000000000000081525060200191505060405180910390fd5b600280600084815260200190815260200160002060070160006101000a81548160ff021916908360028111156144a557fe5b02179055507f96c57c4107d5e1b286da221e7c1bfebf23c6bb63fe29777a22645ca9ff8ef04a826040518082815260200191505060405180910390a15050565b60606000809054906101000a900473ffffffffffffffffffffffffffffffffffffffff1673ffffffffffffffffffffffffffffffffffffffff168273ffffffffffffffffffffffffffffffffffffffff161415614579576040805190810160405280600881526020017f434f4e54524143540000000000000000000000000000000000000000000000008152509050614648565b60011515600560008473ffffffffffffffffffffffffffffffffffffffff1673ffffffffffffffffffffffffffffffffffffffff16815260200190815260200160002060009054906101000a900460ff161515141561460f576040805190810160405280600c81526020017f434841524954594f574e455200000000000000000000000000000000000000008152509050614648565b6040805190810160405280600581526020017f444f4e4f5200000000000000000000000000000000000000000000000000000081525090505b919050565b6000600654821015156146c8576040517f08c379a00000000000000000000000000000000000000000000000000000000081526004018080602001828103825260128152602001807f496e76616c69642063686172697479206964000000000000000000000000000081525060200191505060405180910390fd5b6002600083815260200190815260200160002060070160009054906101000a900460ff169050919050565b6009548210151561476c576040517f08c379a00000000000000000000000000000000000000000000000000000000081526004018080602001828103825260138152602001807f496e76616c69642063616d706169676e2069640000000000000000000000000081525060200191505060405180910390fd5b60008160086000858152602001908152602001600020600501540190508060086000858152602001908152602001600020600501819055507fdccc5359108539a6edac03c5abafcdf18642f761cd87a8bd181ff92fbc6121b3816040518082815260200191505060405180910390a1505050565b606060011515600560008473ffffffffffffffffffffffffffffffffffffffff1673ffffffffffffffffffffffffffffffffffffffff16815260200190815260200160002060009054906101000a900460ff1615151415156148aa576040517f08c379a00000000000000000000000000000000000000000000000000000000081526004018080602001828103825260208152602001807f41646472657373206e6f74206f776e6572206f6620616e79206368617269747981525060200191505060405180910390fd5b6000600360008473ffffffffffffffffffffffffffffffffffffffff1673ffffffffffffffffffffffffffffffffffffffff168152602001908152602001600020549050600260008281526020019081526020016000206002018054600181600116156101000203166002900480601f0160208091040260200160405190810160405280929190818152602001828054600181600116156101000203166002900480156149985780601f1061496d57610100808354040283529160200191614998565b820191906000526020600020905b81548152906001019060200180831161497b57829003601f168201915b5050505050915050919050565b600060095482101515614a20576040517f08c379a00000000000000000000000000000000000000000000000000000000081526004018080602001828103825260138152602001807f496e76616c69642063616d706169676e2069640000000000000000000000000081525060200191505060405180910390fd5b60086000838152602001908152602001600020600701549050919050565b606060011515600560008473ffffffffffffffffffffffffffffffffffffffff1673ffffffffffffffffffffffffffffffffffffffff16815260200190815260200160002060009054906101000a900460ff161515141515614b08576040517f08c379a00000000000000000000000000000000000000000000000000000000081526004018080602001828103825260208152602001807f41646472657373206e6f74206f776e6572206f6620616e79206368617269747981525060200191505060405180910390fd5b6000600360008473ffffffffffffffffffffffffffffffffffffffff1673ffffffffffffffffffffffffffffffffffffffff168152602001908152602001600020549050600260008281526020019081526020016000206001018054600181600116156101000203166002900480601f016020809104026020016040519081016040528092919081815260200182805460018160011615610100020316600290048015614bf65780601f10614bcb57610100808354040283529160200191614bf6565b820191906000526020600020905b815481529060010190602001808311614bd957829003601f168201915b5050505050915050919050565b606060011515600560008473ffffffffffffffffffffffffffffffffffffffff1673ffffffffffffffffffffffffffffffffffffffff16815260200190815260200160002060009054906101000a900460ff161515141515614ccd576040517f08c379a00000000000000000000000000000000000000000000000000000000081526004018080602001828103825260208152602001807f41646472657373206e6f74206f776e6572206f6620616e79206368617269747981525060200191505060405180910390fd5b6000600360008473ffffffffffffffffffffffffffffffffffffffff1673ffffffffffffffffffffffffffffffffffffffff168152602001908152602001600020549050600260008281526020019081526020016000206004018054600181600116156101000203166002900480601f016020809104026020016040519081016040528092919081815260200182805460018160011615610100020316600290048015614dbb5780601f10614d9057610100808354040283529160200191614dbb565b820191906000526020600020905b815481529060010190602001808311614d9e57829003601f168201915b5050505050915050919050565b600060011515600560008473ffffffffffffffffffffffffffffffffffffffff1673ffffffffffffffffffffffffffffffffffffffff16815260200190815260200160002060009054906101000a900460ff161515141515614e92576040517f08c379a00000000000000000000000000000000000000000000000000000000081526004018080602001828103825260208152602001807f41646472657373206e6f74206f776e6572206f6620616e79206368617269747981525060200191505060405180910390fd5b6000600360008473ffffffffffffffffffffffffffffffffffffffff1673ffffffffffffffffffffffffffffffffffffffff1681526020019081526020016000205490506002600082815260200190815260200160002060070160009054906101000a900460ff16915050919050565b6000806002600084815260200190815260200160002060080180549050905060008090505b81811015614fc8578473ffffffffffffffffffffffffffffffffffffffff166002600086815260200190815260200160002060080182815481101515614f6957fe5b9060005260206000200160009054906101000a900473ffffffffffffffffffffffffffffffffffffffff1673ffffffffffffffffffffffffffffffffffffffff161415614fbb57600192505050614fcf565b8080600101915050614f27565b5060009150505b92915050565b3360016000600360008473ffffffffffffffffffffffffffffffffffffffff1673ffffffffffffffffffffffffffffffffffffffff16815260200190815260200160002054815260200190815260200160002060009054906101000a900460ff1615156150aa576040517f08c379a000000000000000000000000000000000000000000000000000000000815260040180806020018281038252601d8152602001807f43616c6c6572206973206e6f7420612076616c6964206368617269747900000081525060200191505060405180910390fd5b60095482101515615123576040517f08c379a00000000000000000000000000000000000000000000000000000000081526004018080602001828103825260138152602001807f496e76616c69642063616d706169676e2069640000000000000000000000000081525060200191505060405180910390fd5b6007600083815260200190815260200160002060009054906101000a900460ff1615156151b8576040517f08c379a00000000000000000000000000000000000000000000000000000000081526004018080602001828103825260178152602001807f43616d706169676e206973206e6f74206f6e676f696e6700000000000000000081525060200191505060405180910390fd5b600260006008600085815260200190815260200160002060000154815260200190815260200160002060000160009054906101000a900473ffffffffffffffffffffffffffffffffffffffff1673ffffffffffffffffffffffffffffffffffffffff163373ffffffffffffffffffffffffffffffffffffffff16148061528a57506000809054906101000a900473ffffffffffffffffffffffffffffffffffffffff1673ffffffffffffffffffffffffffffffffffffffff163373ffffffffffffffffffffffffffffffffffffffff16145b1515615324576040517f08c379a000000000000000000000000000000000000000000000000000000000815260040180806020018281038252602b8152602001807f43616c6c6572206973206e6f7420617574686f72697a656420666f722074686981526020017f73206f7065726174696f6e00000000000000000000000000000000000000000081525060400191505060405180910390fd5b60016008600084815260200190815260200160002060090160006101000a81548160ff0219169083600181111561535757fe5b021790555060006007600084815260200190815260200160002060006101000a81548160ff0219169083151502179055507f8d0449d6fed7183f55f431e23867be7d8553beb7dc2e0844821c9c951a59ca52826040518082815260200191505060405180910390a15050565b6000806000905060008090505b60065481101561543257600160028111156153e757fe5b6002600083815260200190815260200160002060070160009054906101000a900460ff16600281111561541657fe5b14156154255781806001019250505b80806001019150506153d0565b508091505090565b6000600654821015156154b5576040517f08c379a00000000000000000000000000000000000000000000000000000000081526004018080602001828103825260128152602001807f496e76616c69642063686172697479206964000000000000000000000000000081525060200191505060405180910390fd5b6002600083815260200190815260200160002060000160009054906101000a900473ffffffffffffffffffffffffffffffffffffffff169050919050565b6009548110151561556c576040517f08c379a00000000000000000000000000000000000000000000000000000000081526004018080602001828103825260138152602001807f496e76616c69642063616d706169676e2069640000000000000000000000000081525060200191505060405180910390fd5b6000600160086000848152602001908152602001600020600601540190508060086000848152602001908152602001600020600601819055507f9c80f0e1f03145d2a9703bfa3a9b71624ac4aa74a383648a0dcd84a303a622ec816040518082815260200191505060405180910390a15050565b606060011515600560008473ffffffffffffffffffffffffffffffffffffffff1673ffffffffffffffffffffffffffffffffffffffff16815260200190815260200160002060009054906101000a900460ff1615151415156156aa576040517f08c379a00000000000000000000000000000000000000000000000000000000081526004018080602001828103825260208152602001807f41646472657373206e6f74206f776e6572206f6620616e79206368617269747981525060200191505060405180910390fd5b6000600360008473ffffffffffffffffffffffffffffffffffffffff1673ffffffffffffffffffffffffffffffffffffffff168152602001908152602001600020549050600260008281526020019081526020016000206005018054600181600116156101000203166002900480601f0160208091040260200160405190810160405280929190818152602001828054600181600116156101000203166002900480156157985780601f1061576d57610100808354040283529160200191615798565b820191906000526020600020905b81548152906001019060200180831161577b57829003601f168201915b5050505050915050919050565b600060095482101515615820576040517f08c379a00000000000000000000000000000000000000000000000000000000081526004018080602001828103825260138152602001807f496e76616c69642063616d706169676e2069640000000000000000000000000081525060200191505060405180910390fd5b60086000838152602001908152602001600020600501549050919050565b6000600954821015156158b9576040517f08c379a00000000000000000000000000000000000000000000000000000000081526004018080602001828103825260138152602001807f496e76616c69642063616d706169676e2069640000000000000000000000000081525060200191505060405180910390fd5b6001808111156158c557fe5b6008600084815260200190815260200160002060090160009054906101000a900460ff1660018111156158f457fe5b14156159035760019050615908565b600090505b919050565b600060095482101515615988576040517f08c379a00000000000000000000000000000000000000000000000000000000081526004018080602001828103825260138152602001807f496e76616c69642063616d706169676e2069640000000000000000000000000081525060200191505060405180910390fd5b60086000838152602001908152602001600020600801549050919050565b61012060405190810160405280600073ffffffffffffffffffffffffffffffffffffffff16815260200160608152602001606081526020016060815260200160608152602001606081526020016060815260200160006002811115615a0757fe5b8152602001606081525090565b828054600181600116156101000203166002900490600052602060002090601f016020900481019282601f10615a5557805160ff1916838001178555615a83565b82800160010185558215615a83579182015b82811115615a82578251825591602001919060010190615a67565b5b509050615a909190615bfd565b5090565b828054828255906000526020600020908101928215615b0d579160200282015b82811115615b0c5782518260006101000a81548173ffffffffffffffffffffffffffffffffffffffff021916908373ffffffffffffffffffffffffffffffffffffffff16021790555091602001919060010190615ab4565b5b509050615b1a9190615c22565b5090565b6101406040519081016040528060008152602001606081526020016060815260200160608152602001600081526020016000815260200160008152602001600081526020016000815260200160006001811115615b7757fe5b81525090565b828054600181600116156101000203166002900490600052602060002090601f016020900481019282601f10615bbe57805160ff1916838001178555615bec565b82800160010185558215615bec579182015b82811115615beb578251825591602001919060010190615bd0565b5b509050615bf99190615bfd565b5090565b615c1f91905b80821115615c1b576000816000905550600101615c03565b5090565b90565b615c6291905b80821115615c5e57600081816101000a81549073ffffffffffffffffffffffffffffffffffffffff021916905550600101615c28565b5090565b9056fea165627a7a72305820a90882d0bf63851779cb182435637f1907441985d752d527f01290ba5a91c4af0029",
  "source": "pragma solidity ^0.5.0;\r\n\r\ncontract Charity {\r\n    enum CharityStatus {UNVERIFIED, VERIFIED, REJECTED}\r\n\r\n    enum CampaignStatus {ONGOING, ENDED}\r\n\r\n    struct charity {\r\n        address charityOwner;\r\n        string charityName;\r\n        string charityAddress;\r\n        string contactNumber;\r\n        string description;\r\n        string pictureURL;\r\n        string verificationLink;\r\n        CharityStatus charityStatus;\r\n        address[] donors;\r\n    }\r\n\r\n    struct campaign {\r\n        uint256 charityId;\r\n        string campaignName;\r\n        string description;\r\n        string pictureURL;\r\n        uint256 targetDonation;\r\n        uint256 currentDonation;\r\n        uint256 noOfDonors;\r\n        uint256 startDate;\r\n        uint256 endDate;\r\n        CampaignStatus campaignStatus;\r\n    }\r\n\r\n    address contractOwner = msg.sender;\r\n    //uint[] charitiesPendingVerification;\r\n    mapping(uint256 => bool) isVerifiedCharity;\r\n    mapping(uint256 => charity) charities;\r\n    mapping(address => uint256) charityAddressIdMap;\r\n    mapping(address => charity) charityAddressMap;\r\n    mapping(address => bool) charityOwnerRegistered;\r\n    uint256 noOfCharities = 0;\r\n\r\n    //uint[] ongoingCampaigns;\r\n    mapping(uint256 => bool) isOngoingCampaign;\r\n    mapping(uint256 => campaign) campaigns;\r\n    uint256 noOfCampaigns = 0;\r\n\r\n    event charityRegistered(uint256 charityId);\r\n    event charityVerified(uint256 charityId);\r\n    event charityRejected(uint256 charityId);\r\n    event charityRevoked(uint256 charityId);\r\n    event campaignCreated(uint256 charityId, uint256 campaignId);\r\n    event campaignEnded(uint256 campaignId);\r\n    event updateCurrentDonation(uint256 newAmount);\r\n    event updateCampaignDonors(uint256 newNumber);\r\n\r\n    modifier onlyOwner(address caller) {\r\n        require(caller == contractOwner, \"Caller is not contract owner\");\r\n        _;\r\n    }\r\n\r\n    // This will be the modifier that checks whether the function call is done by the Charity itself.\r\n    modifier onlyVerifiedCharity(address caller) {\r\n        require(\r\n            isVerifiedCharity[charityAddressIdMap[caller]],\r\n            \"Caller is not a valid charity\"\r\n        );\r\n        _;\r\n    }\r\n\r\n    /*\r\n     * This will be the function that check the address type\r\n     * Parameters of this function will include address inputAddress\r\n     * This function assumes all input address are either contract, charity, or donor\r\n     */\r\n    function checkAddressType(address inputAddress)\r\n        public\r\n        view\r\n        returns (string memory)\r\n    {\r\n        if (inputAddress == contractOwner) {\r\n            return \"CONTRACT\";\r\n        } else if (charityOwnerRegistered[inputAddress] == true) {\r\n            return \"CHARITYOWNER\";\r\n        } else {\r\n            return \"DONOR\";\r\n        }\r\n    }\r\n\r\n    function registerCharity(\r\n        string memory charityName,\r\n        string memory charityAddress,\r\n        string memory contactNumber,\r\n        string memory description,\r\n        string memory pictureURL\r\n    ) public returns (uint256 charityId) {\r\n        /*require(charityName != \"Charity name cannot be empty\");\r\n    require(charityAddress != \"Charity address cannot be empty\");\r\n    require(contactNumber != \"Charity number cannot be empty\");\r\n    require(description != \"Description cannot be empty\");\r\n    require(pictureURL != \"Picture URL cannot be empty\");*/\r\n        require(\r\n            charityOwnerRegistered[msg.sender] == false,\r\n            \"This address has registered another charity already\"\r\n        );\r\n\r\n        charityId = noOfCharities++;\r\n        charity memory newCharity =\r\n            charity(\r\n                msg.sender,\r\n                charityName,\r\n                charityAddress,\r\n                contactNumber,\r\n                description,\r\n                pictureURL,\r\n                \"\",\r\n                CharityStatus.UNVERIFIED,\r\n                new address[](100)\r\n            );\r\n        charities[charityId] = newCharity;\r\n        charityAddressIdMap[msg.sender] = charityId;\r\n        isVerifiedCharity[charityId] = false;\r\n        charityOwnerRegistered[msg.sender] = true;\r\n        emit charityRegistered(charityId);\r\n        // charitiesPendingVerification.push(charityId);\r\n        return charityId;\r\n    }\r\n\r\n    function verifyCharity(uint256 charityId, string memory verificationLink)\r\n        public\r\n        onlyOwner(msg.sender)\r\n    {\r\n        require(msg.sender == contractOwner, \"Caller is not contract owner\");\r\n        require(charityId < noOfCharities, \"Invalid charity id\");\r\n        require(\r\n            charities[charityId].charityStatus == CharityStatus.UNVERIFIED,\r\n            \"Charity has been verified or rejected\"\r\n        );\r\n        require(\r\n            isVerifiedCharity[charityId] == false,\r\n            \"Charity has been verified\"\r\n        );\r\n\r\n        charities[charityId].charityStatus = CharityStatus.VERIFIED;\r\n        charities[charityId].verificationLink = verificationLink;\r\n        isVerifiedCharity[charityId] = true;\r\n        emit charityVerified(charityId);\r\n        // remove charity from charitiesPendingVerification[]\r\n    }\r\n\r\n    function rejectCharity(uint256 charityId) public onlyOwner(msg.sender) {\r\n        require(msg.sender == contractOwner, \"Caller is not contract owner\");\r\n        require(charityId < noOfCharities, \"Invalid charity id\");\r\n        require(\r\n            charities[charityId].charityStatus == CharityStatus.UNVERIFIED,\r\n            \"Charity has been verified or rejected\"\r\n        );\r\n        require(\r\n            isVerifiedCharity[charityId] == false,\r\n            \"Charity has been verified\"\r\n        );\r\n\r\n        charities[charityId].charityStatus = CharityStatus.REJECTED;\r\n        emit charityRejected(charityId);\r\n        // remove charity from charitiesPendingVerification[]\r\n    }\r\n\r\n    function revokeCharity(uint256 charityId) public onlyOwner(msg.sender) {\r\n        require(msg.sender == contractOwner, \"Caller is not contract owner\");\r\n        require(charityId < noOfCharities, \"Invalid charity id\");\r\n        require(\r\n            charities[charityId].charityStatus == CharityStatus.VERIFIED,\r\n            \"Charity is not a verified charity\"\r\n        );\r\n        require(\r\n            isVerifiedCharity[charityId] == true,\r\n            \"Charity has been verified\"\r\n        );\r\n\r\n        charities[charityId].charityStatus = CharityStatus.REJECTED;\r\n        emit charityRevoked(charityId);\r\n    }\r\n\r\n    /*\r\n     * This will be the function that charities call to create a campaign.\r\n     * Parameters of this function will include uint targetDonation (of the campaign), uint startDate (of the campaign), uint endDate (of the campaign)\r\n     */\r\n    function createCampaign(\r\n        string memory campaignName,\r\n        string memory description,\r\n        string memory pictureURL,\r\n        uint256 targetDonation,\r\n        uint256 startDate,\r\n        uint256 endDate\r\n    ) public onlyVerifiedCharity(msg.sender) returns (uint256 campaignId) {\r\n        /*require(campaignName != \"Charity name cannot be empty\");\r\n    require(description != \"Description cannot be empty\");\r\n    require(pictureURL != \"Picture URL cannot be empty\");\r\n    require(targetDonation > 0, \"Target donation must be larger than 0\");\r\n    require(startDate < endDate, \"Start date must be earlier than end date\");*/\r\n\r\n        campaignId = noOfCampaigns++;\r\n        uint256 charityId = charityAddressIdMap[msg.sender];\r\n        campaign memory newCampaign =\r\n            campaign(\r\n                charityId,\r\n                campaignName,\r\n                description,\r\n                pictureURL,\r\n                targetDonation,\r\n                0,\r\n                0,\r\n                startDate,\r\n                endDate,\r\n                CampaignStatus.ONGOING\r\n            );\r\n        campaigns[campaignId] = newCampaign;\r\n        // ongoingCampaigns.push(campaignId);\r\n        isOngoingCampaign[campaignId] = true;\r\n        emit campaignCreated(charityId, campaignId);\r\n        return campaignId;\r\n    }\r\n\r\n    /*\r\n     *\r\n     * This will be the function that charities call to end an ongoing campaign.\r\n     * Parameters of this function will include uint campaignId\r\n     */\r\n    function endCampaign(uint256 campaignId)\r\n        public\r\n        onlyVerifiedCharity(msg.sender)\r\n    {\r\n        require(campaignId < noOfCampaigns, \"Invalid campaign id\");\r\n        require(isOngoingCampaign[campaignId], \"Campaign is not ongoing\");\r\n        require(\r\n            msg.sender ==\r\n                charities[campaigns[campaignId].charityId].charityOwner ||\r\n                msg.sender == contractOwner,\r\n            \"Caller is not authorized for this operation\"\r\n        );\r\n\r\n        campaigns[campaignId].campaignStatus = CampaignStatus.ENDED;\r\n        isOngoingCampaign[campaignId] = false;\r\n        emit campaignEnded(campaignId);\r\n        // remove campaign from ongoingCampaigns[]\r\n    }\r\n\r\n    /*\r\n     * This will be the getter function that everyone can call to check the charity address.\r\n     * Parameters of this function will include uint charityId\r\n     */\r\n    function getCharityOwner(uint256 charityId) public view returns (address) {\r\n        require(charityId < noOfCharities, \"Invalid charity id\");\r\n        return charities[charityId].charityOwner;\r\n    }\r\n\r\n    /*\r\n     * This will be the getter function that everyone can call to check the charity id.\r\n     * Parameters of this function will include address inputAddress\r\n     */\r\n    function getCharityIdByAddress(address inputAddress)\r\n        public\r\n        view\r\n        returns (uint256)\r\n    {\r\n        require(\r\n            charityOwnerRegistered[inputAddress] == true,\r\n            \"Address not owner of any charity\"\r\n        );\r\n        uint256 charityIdByAddress = charityAddressIdMap[inputAddress];\r\n        return charityIdByAddress;\r\n    }\r\n\r\n    /*\r\n     * This will be the getter function that everyone can call to check the charity name.\r\n     * Parameters of this function will include uint charityId\r\n     */\r\n    function getCharityName(uint256 charityId)\r\n        public\r\n        view\r\n        returns (string memory)\r\n    {\r\n        require(charityId < noOfCharities, \"Invalid charity id\");\r\n        return charities[charityId].charityName;\r\n    }\r\n\r\n    /*\r\n     * This will be the getter function that everyone can call to check the charity name.\r\n     * Parameters of this function will include address inputAddress\r\n     */\r\n    function getCharityNameByAddress(address inputAddress)\r\n        public\r\n        view\r\n        returns (string memory)\r\n    {\r\n        require(\r\n            charityOwnerRegistered[inputAddress] == true,\r\n            \"Address not owner of any charity\"\r\n        );\r\n        uint256 charityIdByAddress = charityAddressIdMap[inputAddress];\r\n        return charities[charityIdByAddress].charityName;\r\n    }\r\n\r\n    /*\r\n     * This will be the getter function that everyone can call to check the charity pictureURL.\r\n     * Parameters of this function will include uint charityId\r\n     */\r\n    function getCharityPictureURL(uint256 charityId)\r\n        public\r\n        view\r\n        returns (string memory)\r\n    {\r\n        require(charityId < noOfCharities, \"Invalid charity id\");\r\n        return charities[charityId].pictureURL;\r\n    }\r\n\r\n    /*\r\n     * This will be the getter function that everyone can call to check the charity pictureURL.\r\n     * Parameters of this function will include uint charityId\r\n     */\r\n    function getCharityPictureURLByAddress(address inputAddress)\r\n        public\r\n        view\r\n        returns (string memory)\r\n    {\r\n        require(\r\n            charityOwnerRegistered[inputAddress] == true,\r\n            \"Address not owner of any charity\"\r\n        );\r\n        uint256 charityIdByAddress = charityAddressIdMap[inputAddress];\r\n        return charities[charityIdByAddress].pictureURL;\r\n    }\r\n\r\n    /*\r\n     * This will be the getter function that everyone can call to check the charity description.\r\n     * Parameters of this function will include uint charityId\r\n     */\r\n    function getCharityDescription(uint256 charityId)\r\n        public\r\n        view\r\n        returns (string memory)\r\n    {\r\n        require(charityId < noOfCharities, \"Invalid charity id\");\r\n        return charities[charityId].description;\r\n    }\r\n\r\n    /*\r\n     * This will be the getter function that everyone can call to check the charity description.\r\n     * Parameters of this function will include address inputAddress\r\n     */\r\n    function getCharityDescriptionByAddress(address inputAddress)\r\n        public\r\n        view\r\n        returns (string memory)\r\n    {\r\n        require(\r\n            charityOwnerRegistered[inputAddress] == true,\r\n            \"Address not owner of any charity\"\r\n        );\r\n        uint256 charityIdByAddress = charityAddressIdMap[inputAddress];\r\n        return charities[charityIdByAddress].description;\r\n    }\r\n\r\n    /*\r\n     * This will be the getter function that everyone can call to check the charity status.\r\n     * Parameters of this function will include uint charityId\r\n     */\r\n    function getCharityStatus(uint256 charityId)\r\n        public\r\n        view\r\n        returns (CharityStatus)\r\n    {\r\n        require(charityId < noOfCharities, \"Invalid charity id\");\r\n        return charities[charityId].charityStatus;\r\n    }\r\n\r\n    /*\r\n     * This will be the getter function that everyone can call to check the charity status.\r\n     * Parameters of this function will include address inputAddress\r\n     */\r\n    function getCharityStatusByAddress(address inputAddress)\r\n        public\r\n        view\r\n        returns (CharityStatus)\r\n    {\r\n        require(\r\n            charityOwnerRegistered[inputAddress] == true,\r\n            \"Address not owner of any charity\"\r\n        );\r\n        uint256 charityIdByAddress = charityAddressIdMap[inputAddress];\r\n        return charities[charityIdByAddress].charityStatus;\r\n    }\r\n\r\n    /*\r\n     * This will be the getter function that everyone can call to get the charity contact number.\r\n     * Parameters of this function will include uint charityId\r\n     */\r\n    function getCharityContactNumber(uint256 charityId)\r\n        public\r\n        view\r\n        returns (string memory)\r\n    {\r\n        require(charityId < noOfCharities, \"Invalid charity id\");\r\n        return charities[charityId].contactNumber;\r\n    }\r\n\r\n    /*\r\n     * This will be the getter function that everyone can call to get the charity contact number.\r\n     * Parameters of this function will include address inputAddress\r\n     */\r\n    function getCharityContactNumberByAddress(address inputAddress)\r\n        public\r\n        view\r\n        returns (string memory)\r\n    {\r\n        require(\r\n            charityOwnerRegistered[inputAddress] == true,\r\n            \"Address not owner of any charity\"\r\n        );\r\n        uint256 charityIdByAddress = charityAddressIdMap[inputAddress];\r\n        return charities[charityIdByAddress].contactNumber;\r\n    }\r\n\r\n    /*\r\n     * This will be the getter function that everyone can call to get the charity contact address.\r\n     * Parameters of this function will include uint charityId\r\n     */\r\n    function getCharityContactAddress(uint256 charityId)\r\n        public\r\n        view\r\n        returns (string memory)\r\n    {\r\n        require(charityId < noOfCharities, \"Invalid charity id\");\r\n        return charities[charityId].charityAddress;\r\n    }\r\n\r\n    /*\r\n     * This will be the getter function that everyone can call to get the charity contact address.\r\n     * Parameters of this function will include address inputAddress\r\n     */\r\n    function getCharityContactAddressByAddress(address inputAddress)\r\n        public\r\n        view\r\n        returns (string memory)\r\n    {\r\n        require(\r\n            charityOwnerRegistered[inputAddress] == true,\r\n            \"Address not owner of any charity\"\r\n        );\r\n        uint256 charityIdByAddress = charityAddressIdMap[inputAddress];\r\n        return charities[charityIdByAddress].charityAddress;\r\n    }\r\n\r\n    /*\r\n     * This will be the getter function that everyone can call to get the charity verification Link.\r\n     * Parameters of this function will include uint charityId\r\n     */\r\n    function getCharityVerificationLink(uint256 charityId)\r\n        public\r\n        view\r\n        returns (string memory)\r\n    {\r\n        require(charityId < noOfCharities, \"Invalid charity id\");\r\n        return charities[charityId].verificationLink;\r\n    }\r\n\r\n    /*\r\n     * This will be the getter function that everyone can call to get the charity verification Link.\r\n     * Parameters of this function will include address inputAddress\r\n     */\r\n    function getCharityVerificationLinkByAddress(address inputAddress)\r\n        public\r\n        view\r\n        returns (string memory)\r\n    {\r\n        require(\r\n            charityOwnerRegistered[inputAddress] == true,\r\n            \"Address not owner of any charity\"\r\n        );\r\n        uint256 charityIdByAddress = charityAddressIdMap[inputAddress];\r\n        return charities[charityIdByAddress].verificationLink;\r\n    }\r\n\r\n    /*\r\n     * This will be the getter function that everyone can call to get the total amounts of the charities.\r\n     * There will be no parameters for this function\r\n     */\r\n    function getNoOfCharities() public view returns (uint256) {\r\n        return noOfCharities;\r\n    }\r\n\r\n    /*\r\n     * This will be the getter function that everyone can call to get the total amounts of verified charities\r\n     * There will be no parameters for this function\r\n     */\r\n    function getVerifiedCharityAmount() public view returns (uint256) {\r\n        uint256 noOfVerifiedCharities = 0;\r\n        for (uint256 i = 0; i < noOfCharities; i++) {\r\n            if (charities[i].charityStatus == CharityStatus.VERIFIED) {\r\n                noOfVerifiedCharities++;\r\n            }\r\n        }\r\n        return noOfVerifiedCharities;\r\n    }\r\n\r\n    /*\r\n     * This will be the getter function that everyone can call to get the total amounts of unverified charities\r\n     * There will be no parameters for this function\r\n     */\r\n    function getUnverifiedCharityAmount() public view returns (uint256) {\r\n        uint256 noOfUnverifiedCharities = 0;\r\n        for (uint256 i = 0; i < noOfCharities; i++) {\r\n            if (charities[i].charityStatus == CharityStatus.UNVERIFIED) {\r\n                noOfUnverifiedCharities++;\r\n            }\r\n        }\r\n        return noOfUnverifiedCharities;\r\n    }\r\n\r\n    /*\r\n     * This will be the getter function that everyone can call to get the total amounts of rejected charities\r\n     * There will be no parameters for this function\r\n     */\r\n    function getRejectedCharityAmount() public view returns (uint256) {\r\n        uint256 noOfRejectedCharities = 0;\r\n        for (uint256 i = 0; i < noOfCharities; i++) {\r\n            if (charities[i].charityStatus == CharityStatus.REJECTED) {\r\n                noOfRejectedCharities++;\r\n            }\r\n        }\r\n        return noOfRejectedCharities;\r\n    }\r\n\r\n    /*\r\n     * This will be the function that everyone can call to get the total amounts of campaigns hold by the given charities\r\n     * Parameters of this function will include uint charityId\r\n     */\r\n    function getCampaignAmountByCharity(uint256 charityId)\r\n        public\r\n        view\r\n        returns (uint256)\r\n    {\r\n        uint256 noOfCampaignByCharity = 0;\r\n        for (uint256 i = 0; i < noOfCampaigns; i++) {\r\n            if (campaigns[i].charityId == charityId) {\r\n                noOfCampaignByCharity++;\r\n            }\r\n        }\r\n        return noOfCampaignByCharity;\r\n    }\r\n\r\n    /*\r\n     * This will be the function that everyone can call to get the total amounts of active campaigns hold by the given charities\r\n     * Parameters of this function will include uint charityId\r\n     */\r\n    function getActiveCampaignAmountByCharity(uint256 charityId)\r\n        public\r\n        view\r\n        returns (uint256)\r\n    {\r\n        uint256 noOfActiveCampaignByCharity = 0;\r\n        for (uint256 i = 0; i < noOfCampaigns; i++) {\r\n            if (\r\n                campaigns[i].charityId == charityId &&\r\n                isOngoingCampaign[i] == true\r\n            ) {\r\n                noOfActiveCampaignByCharity++;\r\n            }\r\n        }\r\n        return noOfActiveCampaignByCharity;\r\n    }\r\n\r\n    /*\r\n     * This will be the function that everyone can call to get the total amounts of ended campaigns hold by the given charities\r\n     * Parameters of this function will include uint charityId\r\n     */\r\n    function getEndedCampaignAmountByCharity(uint256 charityId)\r\n        public\r\n        view\r\n        returns (uint256)\r\n    {\r\n        uint256 noOfEndedCampaignByCharity = 0;\r\n        for (uint256 i = 0; i < noOfCampaigns; i++) {\r\n            if (\r\n                campaigns[i].charityId == charityId &&\r\n                isOngoingCampaign[i] == false\r\n            ) {\r\n                noOfEndedCampaignByCharity++;\r\n            }\r\n        }\r\n        return noOfEndedCampaignByCharity;\r\n    }\r\n\r\n    /*\r\n     * This will be the getter function that everyone can call to check the campaign's charityId.\r\n     * Parameters of this function will include uint campaignId\r\n     */\r\n    function getCampaignCharity(uint256 campaignId)\r\n        public\r\n        view\r\n        returns (uint256)\r\n    {\r\n        require(campaignId < noOfCampaigns, \"Invalid campaign id\");\r\n        return campaigns[campaignId].charityId;\r\n    }\r\n\r\n    /*\r\n     * This will be the getter function that everyone can call to check the campaign name.\r\n     * Parameters of this function will include uint campaignId\r\n     */\r\n    function getCampaignName(uint256 campaignId)\r\n        public\r\n        view\r\n        returns (string memory)\r\n    {\r\n        require(campaignId < noOfCampaigns, \"Invalid campaign id\");\r\n        return campaigns[campaignId].campaignName;\r\n    }\r\n\r\n    /*\r\n     * This will be the getter function that everyone can call to check the campaign description.\r\n     * Parameters of this function will include uint campaignId\r\n     */\r\n    function getCampaignDescription(uint256 campaignId)\r\n        public\r\n        view\r\n        returns (string memory)\r\n    {\r\n        require(campaignId < noOfCampaigns, \"Invalid campaign id\");\r\n        return campaigns[campaignId].description;\r\n    }\r\n\r\n    /*\r\n     * This will be the getter function that everyone can call to check the campaign pictureURL.\r\n     * Parameters of this function will include uint campaignId\r\n     */\r\n    function getCampaignPictureURL(uint256 campaignId)\r\n        public\r\n        view\r\n        returns (string memory)\r\n    {\r\n        require(campaignId < noOfCampaigns, \"Invalid campaign id\");\r\n        return campaigns[campaignId].pictureURL;\r\n    }\r\n\r\n    /*\r\n     * This will be the getter function that everyone can call to check the campaign targetDonation.\r\n     * Parameters of this function will include uint campaignId\r\n     */\r\n    function getCampaignTargetDonation(uint256 campaignId)\r\n        public\r\n        view\r\n        returns (uint256)\r\n    {\r\n        require(campaignId < noOfCampaigns, \"Invalid campaign id\");\r\n        return campaigns[campaignId].targetDonation;\r\n    }\r\n\r\n    /*\r\n     * This will be the getter function that everyone can call to check the campaign currentDonation.\r\n     * Parameters of this function will include uint campaignId\r\n     */\r\n    function getCampaignCurrentDonation(uint256 campaignId)\r\n        public\r\n        view\r\n        returns (uint256)\r\n    {\r\n        require(campaignId < noOfCampaigns, \"Invalid campaign id\");\r\n        return campaigns[campaignId].currentDonation;\r\n    }\r\n\r\n    /*\r\n     * This will be the getter function that everyone can call to check the campaign noOfDonors.\r\n     * Parameters of this function will include uint campaignId\r\n     */\r\n    function getCampaignNoOfDonors(uint256 campaignId)\r\n        public\r\n        view\r\n        returns (uint256)\r\n    {\r\n        require(campaignId < noOfCampaigns, \"Invalid campaign id\");\r\n        return campaigns[campaignId].noOfDonors;\r\n    }\r\n\r\n    /*\r\n     * This will be the getter function that everyone can call to check the campaign startDate.\r\n     * Parameters of this function will include uint campaignId\r\n     */\r\n    function getCampaignStartDate(uint256 campaignId)\r\n        public\r\n        view\r\n        returns (uint256)\r\n    {\r\n        require(campaignId < noOfCampaigns, \"Invalid campaign id\");\r\n        return campaigns[campaignId].startDate;\r\n    }\r\n\r\n    /*\r\n     * This will be the getter function that everyone can call to check the campaign endDate.\r\n     * Parameters of this function will include uint campaignId\r\n     */\r\n    function getCampaignEndDate(uint256 campaignId)\r\n        public\r\n        view\r\n        returns (uint256)\r\n    {\r\n        require(campaignId < noOfCampaigns, \"Invalid campaign id\");\r\n        return campaigns[campaignId].endDate;\r\n    }\r\n\r\n    /*\r\n     * This will be the getter function that everyone can call to check the campaign status.\r\n     * Parameters of this function will include uint campaignId\r\n     */\r\n    function getCampaignStatus(uint256 campaignId)\r\n        public\r\n        view\r\n        returns (CampaignStatus)\r\n    {\r\n        require(campaignId < noOfCampaigns, \"Invalid campaign id\");\r\n        return campaigns[campaignId].campaignStatus;\r\n    }\r\n\r\n    /*\r\n     * This will be the getter function that everyone can call to get the total amounts of the campaigns.\r\n     * There will be no parameters fot this function\r\n     */\r\n    function getNoOfCampaigns() public view returns (uint256) {\r\n        return noOfCampaigns;\r\n    }\r\n\r\n    // boolean to check campaign status\r\n    function isStatusComplete(uint256 campaignId) public view returns (bool) {\r\n        require(campaignId < noOfCampaigns, \"Invalid campaign id\");\r\n        if (campaigns[campaignId].campaignStatus == CampaignStatus.ENDED) {\r\n            return true;\r\n        }\r\n        return false;\r\n    }\r\n\r\n    // boolean to check if campaign is valid\r\n    function checkValidCampaign(uint256 campaignId) public view returns (bool) {\r\n        if (campaignId < noOfCampaigns) {\r\n            return true;\r\n        }\r\n        return false;\r\n    }\r\n\r\n    /*\r\n     * This will be the function that updates the campaign's currentDonation\r\n     * Parameters of this function will include uint campaignId and uint newDonation\r\n     */\r\n    function updateCampaignCurrentDonation(\r\n        uint256 campaignId,\r\n        uint256 newDonation\r\n    ) public {\r\n        require(campaignId < noOfCampaigns, \"Invalid campaign id\");\r\n        uint256 newAmount = campaigns[campaignId].currentDonation + newDonation;\r\n        campaigns[campaignId].currentDonation = newAmount;\r\n        emit updateCurrentDonation(newAmount);\r\n    }\r\n\r\n    /*\r\n     * This will be the function that updates the campaign's noOfDonors\r\n     * Parameters of this function will include uint campaignId\r\n     */\r\n    function addCampaignDonor(uint256 campaignId) public {\r\n        require(campaignId < noOfCampaigns, \"Invalid campaign id\");\r\n        uint256 newNumber = campaigns[campaignId].noOfDonors + 1;\r\n        campaigns[campaignId].noOfDonors = newNumber;\r\n        emit updateCampaignDonors(newNumber);\r\n    }\r\n\r\n    /*\r\n     * This will be the function to get contract's owner\r\n     * There will be no parameters for this function\r\n     */\r\n    function getContractOwner() public view returns (address) {\r\n        return contractOwner;\r\n    }\r\n\r\n    // This will be the function to check if donor has donated to charity before\r\n    function checkCharityDonor(address donor, uint256 charityId) public view returns (bool) {\r\n        uint length = charities[charityId].donors.length;\r\n        for (uint i = 0; i < length; i++) {\r\n            if(charities[charityId].donors[i] == donor) {\r\n                return true;\r\n            }\r\n        }\r\n        return false;\r\n    }\r\n\r\n    // This will be the function to add a new donor to charity\r\n    function addCharityDonor(address donor, uint256 charityId) public {\r\n        charities[charityId].donors.push(donor);\r\n    }\r\n}\r\n",
  "sourcePath": "C:\\Users\\user\\Downloads\\IS4302\\Project\\sharity\\contracts\\Charity.sol",
  "compiler": {
    "name": "solc",
    "version": "0.5.0+commit.1d4f565a.Emscripten.clang"
  },
  "schemaVersion": "3.3.3",
  "updatedAt": "2021-04-09T09:18:32.840Z",
  "devdoc": {
    "methods": {}
  },
  "userdoc": {
    "methods": {}
  }
}