{
  "contractName": "Donation",
  "abi": [
    {
      "inputs": [
        {
          "name": "charityAddress",
          "type": "address"
        }
      ],
      "payable": false,
      "stateMutability": "nonpayable",
      "type": "constructor"
    },
    {
      "anonymous": false,
      "inputs": [
        {
          "indexed": false,
          "name": "newTransactionId",
          "type": "uint256"
        }
      ],
      "name": "donated",
      "type": "event"
    },
    {
      "constant": false,
      "inputs": [
        {
          "name": "campaignId",
          "type": "uint256"
        },
        {
          "name": "amount",
          "type": "uint256"
        },
        {
          "name": "date",
          "type": "uint256"
        }
      ],
      "name": "donate",
      "outputs": [
        {
          "name": "",
          "type": "uint256"
        }
      ],
      "payable": true,
      "stateMutability": "payable",
      "type": "function"
    },
    {
      "constant": true,
      "inputs": [
        {
          "name": "donor",
          "type": "address"
        },
        {
          "name": "index",
          "type": "uint256"
        }
      ],
      "name": "getDonorDonation",
      "outputs": [
        {
          "name": "",
          "type": "uint256"
        },
        {
          "name": "",
          "type": "address"
        },
        {
          "name": "",
          "type": "uint256"
        },
        {
          "name": "",
          "type": "uint256"
        },
        {
          "name": "",
          "type": "uint256"
        },
        {
          "name": "",
          "type": "string"
        }
      ],
      "payable": false,
      "stateMutability": "view",
      "type": "function"
    },
    {
      "constant": true,
      "inputs": [
        {
          "name": "donor",
          "type": "address"
        }
      ],
      "name": "getDonorTotalDonations",
      "outputs": [
        {
          "name": "",
          "type": "uint256"
        }
      ],
      "payable": false,
      "stateMutability": "view",
      "type": "function"
    },
    {
      "constant": true,
      "inputs": [
        {
          "name": "campaignId",
          "type": "uint256"
        }
      ],
      "name": "getRemainingAmount",
      "outputs": [
        {
          "name": "",
          "type": "uint256"
        }
      ],
      "payable": false,
      "stateMutability": "view",
      "type": "function"
    },
    {
      "constant": true,
      "inputs": [
        {
          "name": "campaignId",
          "type": "uint256"
        },
        {
          "name": "index",
          "type": "uint256"
        }
      ],
      "name": "getCampaignDonation",
      "outputs": [
        {
          "name": "",
          "type": "uint256"
        },
        {
          "name": "",
          "type": "address"
        },
        {
          "name": "",
          "type": "uint256"
        },
        {
          "name": "",
          "type": "uint256"
        },
        {
          "name": "",
          "type": "uint256"
        },
        {
          "name": "",
          "type": "string"
        }
      ],
      "payable": false,
      "stateMutability": "view",
      "type": "function"
    },
    {
      "constant": true,
      "inputs": [
        {
          "name": "campaignId",
          "type": "uint256"
        }
      ],
      "name": "getCampaignTotalDonations",
      "outputs": [
        {
          "name": "",
          "type": "uint256"
        }
      ],
      "payable": false,
      "stateMutability": "view",
      "type": "function"
    },
    {
      "constant": true,
      "inputs": [
        {
          "name": "donor",
          "type": "address"
        },
        {
          "name": "campaignId",
          "type": "uint256"
        }
      ],
      "name": "checkPreviouslyDonated",
      "outputs": [
        {
          "name": "",
          "type": "bool"
        }
      ],
      "payable": false,
      "stateMutability": "view",
      "type": "function"
    },
    {
      "constant": false,
      "inputs": [
        {
          "name": "id",
          "type": "uint256"
        },
        {
          "name": "campaignId",
          "type": "uint256"
        },
        {
          "name": "donor",
          "type": "address"
        },
        {
          "name": "hash",
          "type": "string"
        }
      ],
      "name": "setTransactionHash",
      "outputs": [],
      "payable": false,
      "stateMutability": "nonpayable",
      "type": "function"
    }
  ],
  "bytecode": "0x608060405233600160006101000a81548173ffffffffffffffffffffffffffffffffffffffff021916908373ffffffffffffffffffffffffffffffffffffffff160217905550600160025534801561005657600080fd5b50604051602080611fa68339810180604052602081101561007657600080fd5b8101908080519060200190929190505050806000806101000a81548173ffffffffffffffffffffffffffffffffffffffff021916908373ffffffffffffffffffffffffffffffffffffffff16021790555050611ecf806100d76000396000f3fe60806040526004361061008e576000357c0100000000000000000000000000000000000000000000000000000000900463ffffffff16806372b2211814610093578063988ae6ee146101a0578063bfec514f146102c3578063c00cf3cc146103bf578063cd201a8514610432578063da6174b414610497578063ef88f48b146104e6578063f6252ff21461053c575b600080fd5b34801561009f57600080fd5b506100d6600480360360408110156100b657600080fd5b81019080803590602001909291908035906020019092919050505061058b565b604051808781526020018673ffffffffffffffffffffffffffffffffffffffff1673ffffffffffffffffffffffffffffffffffffffff16815260200185815260200184815260200183815260200180602001828103825283818151815260200191508051906020019080838360005b83811015610160578082015181840152602081019050610145565b50505050905090810190601f16801561018d5780820380516001836020036101000a031916815260200191505b5097505050505050505060405180910390f35b3480156101ac57600080fd5b506101f9600480360360408110156101c357600080fd5b81019080803573ffffffffffffffffffffffffffffffffffffffff1690602001909291908035906020019092919050505061086d565b604051808781526020018673ffffffffffffffffffffffffffffffffffffffff1673ffffffffffffffffffffffffffffffffffffffff16815260200185815260200184815260200183815260200180602001828103825283818151815260200191508051906020019080838360005b83811015610283578082015181840152602081019050610268565b50505050905090810190601f1680156102b05780820380516001836020036101000a031916815260200191505b5097505050505050505060405180910390f35b3480156102cf57600080fd5b506103bd600480360360808110156102e657600080fd5b810190808035906020019092919080359060200190929190803573ffffffffffffffffffffffffffffffffffffffff1690602001909291908035906020019064010000000081111561033757600080fd5b82018360208201111561034957600080fd5b8035906020019184600183028401116401000000008311171561036b57600080fd5b91908080601f016020809104026020016040519081016040528093929190818152602001838380828437600081840152601f19601f820116905080830192505050505050509192919290505050610b7c565b005b3480156103cb57600080fd5b50610418600480360360408110156103e257600080fd5b81019080803573ffffffffffffffffffffffffffffffffffffffff16906020019092919080359060200190929190505050610d76565b604051808215151515815260200191505060405180910390f35b34801561043e57600080fd5b506104816004803603602081101561045557600080fd5b81019080803573ffffffffffffffffffffffffffffffffffffffff169060200190929190505050610f26565b6040518082815260200191505060405180910390f35b3480156104a357600080fd5b506104d0600480360360208110156104ba57600080fd5b8101908080359060200190929190505050610f72565b6040518082815260200191505060405180910390f35b610526600480360360608110156104fc57600080fd5b8101908080359060200190929190803590602001909291908035906020019092919050505061106d565b6040518082815260200191505060405180910390f35b34801561054857600080fd5b506105756004803603602081101561055f57600080fd5b8101908080359060200190929190505050611aae565b6040518082815260200191505060405180910390f35b60008060008060006060600115156000809054906101000a900473ffffffffffffffffffffffffffffffffffffffff1673ffffffffffffffffffffffffffffffffffffffff166357d65eac8a6040518263ffffffff167c01000000000000000000000000000000000000000000000000000000000281526004018082815260200191505060206040518083038186803b15801561062757600080fd5b505afa15801561063b573d6000803e3d6000fd5b505050506040513d602081101561065157600080fd5b8101908080519060200190929190505050151514151561067057600080fd5b600460008981526020019081526020016000208781548110151561069057fe5b906000526020600020906006020160000154600460008a8152602001908152602001600020888154811015156106c257fe5b906000526020600020906006020160010160009054906101000a900473ffffffffffffffffffffffffffffffffffffffff16600460008b81526020019081526020016000208981548110151561071457fe5b906000526020600020906006020160020154600460008c81526020019081526020016000208a81548110151561074657fe5b906000526020600020906006020160030154600460008d81526020019081526020016000208b81548110151561077857fe5b906000526020600020906006020160040154600460008e81526020019081526020016000208c8154811015156107aa57fe5b9060005260206000209060060201600501808054600181600116156101000203166002900480601f0160208091040260200160405190810160405280929190818152602001828054600181600116156101000203166002900480156108505780601f1061082557610100808354040283529160200191610850565b820191906000526020600020905b81548152906001019060200180831161083357829003601f168201915b505050505090509550955095509550955095509295509295509295565b60008060008060006060600360008973ffffffffffffffffffffffffffffffffffffffff1673ffffffffffffffffffffffffffffffffffffffff168152602001908152602001600020878154811015156108c357fe5b906000526020600020906006020160000154600360008a73ffffffffffffffffffffffffffffffffffffffff1673ffffffffffffffffffffffffffffffffffffffff1681526020019081526020016000208881548110151561092157fe5b906000526020600020906006020160010160009054906101000a900473ffffffffffffffffffffffffffffffffffffffff16600360008b73ffffffffffffffffffffffffffffffffffffffff1673ffffffffffffffffffffffffffffffffffffffff1681526020019081526020016000208981548110151561099f57fe5b906000526020600020906006020160020154600360008c73ffffffffffffffffffffffffffffffffffffffff1673ffffffffffffffffffffffffffffffffffffffff1681526020019081526020016000208a8154811015156109fd57fe5b906000526020600020906006020160030154600360008d73ffffffffffffffffffffffffffffffffffffffff1673ffffffffffffffffffffffffffffffffffffffff1681526020019081526020016000208b815481101515610a5b57fe5b906000526020600020906006020160040154600360008e73ffffffffffffffffffffffffffffffffffffffff1673ffffffffffffffffffffffffffffffffffffffff1681526020019081526020016000208c815481101515610ab957fe5b9060005260206000209060060201600501808054600181600116156101000203166002900480601f016020809104026020016040519081016040528092919081815260200182805460018160011615610100020316600290048015610b5f5780601f10610b3457610100808354040283529160200191610b5f565b820191906000526020600020905b815481529060010190602001808311610b4257829003601f168201915b505050505090509550955095509550955095509295509295509295565b60006004600085815260200190815260200160002080549050905060008090505b81811015610c3257856004600087815260200190815260200160002082815481101515610bc657fe5b9060005260206000209060060201600001541415610c2557826004600087815260200190815260200160002082815481101515610bff57fe5b90600052602060002090600602016005019080519060200190610c23929190611d31565b505b8080600101915050610b9d565b506000600360008573ffffffffffffffffffffffffffffffffffffffff1673ffffffffffffffffffffffffffffffffffffffff16815260200190815260200160002080549050905060008090505b81811015610d6d5786600360008773ffffffffffffffffffffffffffffffffffffffff1673ffffffffffffffffffffffffffffffffffffffff16815260200190815260200160002082815481101515610cd557fe5b9060005260206000209060060201600001541415610d605783600360008773ffffffffffffffffffffffffffffffffffffffff1673ffffffffffffffffffffffffffffffffffffffff16815260200190815260200160002082815481101515610d3a57fe5b90600052602060002090600602016005019080519060200190610d5e929190611d31565b505b8080600101915050610c80565b50505050505050565b6000600115156000809054906101000a900473ffffffffffffffffffffffffffffffffffffffff1673ffffffffffffffffffffffffffffffffffffffff166357d65eac846040518263ffffffff167c01000000000000000000000000000000000000000000000000000000000281526004018082815260200191505060206040518083038186803b158015610e0a57600080fd5b505afa158015610e1e573d6000803e3d6000fd5b505050506040513d6020811015610e3457600080fd5b81019080805190602001909291905050501515141515610e5357600080fd5b60006004600084815260200190815260200160002080549050905060008090505b81811015610f19578473ffffffffffffffffffffffffffffffffffffffff166004600086815260200190815260200160002082815481101515610eb357fe5b906000526020600020906006020160010160009054906101000a900473ffffffffffffffffffffffffffffffffffffffff1673ffffffffffffffffffffffffffffffffffffffff161415610f0c57600192505050610f20565b8080600101915050610e74565b5060009150505b92915050565b6000600360008373ffffffffffffffffffffffffffffffffffffffff1673ffffffffffffffffffffffffffffffffffffffff168152602001908152602001600020805490509050919050565b6000600115156000809054906101000a900473ffffffffffffffffffffffffffffffffffffffff1673ffffffffffffffffffffffffffffffffffffffff166357d65eac846040518263ffffffff167c01000000000000000000000000000000000000000000000000000000000281526004018082815260200191505060206040518083038186803b15801561100657600080fd5b505afa15801561101a573d6000803e3d6000fd5b505050506040513d602081101561103057600080fd5b8101908080519060200190929190505050151514151561104f57600080fd5b60046000838152602001908152602001600020805490509050919050565b6000803411151561110c576040517f08c379a000000000000000000000000000000000000000000000000000000000815260040180806020018281038252602a8152602001807f446f6e6174696f6e2076616c7565206e6565647320746f206265206d6f72652081526020017f7468616e2030207765690000000000000000000000000000000000000000000081525060400191505060405180910390fd5b600015156000809054906101000a900473ffffffffffffffffffffffffffffffffffffffff1673ffffffffffffffffffffffffffffffffffffffff1663f6b54898866040518263ffffffff167c01000000000000000000000000000000000000000000000000000000000281526004018082815260200191505060206040518083038186803b15801561119e57600080fd5b505afa1580156111b2573d6000803e3d6000fd5b505050506040513d60208110156111c857600080fd5b81019080805190602001909291905050501515141515611250576040517f08c379a000000000000000000000000000000000000000000000000000000000815260040180806020018281038252601a8152602001807f43616d706169676e2068617320616c726561647920656e64656400000000000081525060200191505060405180910390fd5b61125984611aae565b83111515156112f6576040517f08c379a00000000000000000000000000000000000000000000000000000000081526004018080602001828103825260378152602001807f446f6e6174696f6e2076616c7565206973206d6f7265207468616e2063616d7081526020017f6169676e27732072656d61696e696e6720616d6f756e7400000000000000000081525060400191505060405180910390fd5b6112fe611db1565b60c06040519081016040528060025481526020013373ffffffffffffffffffffffffffffffffffffffff168152602001868152602001858152602001848152602001602060405190810160405280600081525081525090506000809054906101000a900473ffffffffffffffffffffffffffffffffffffffff1673ffffffffffffffffffffffffffffffffffffffff1663a6af939a86866040518363ffffffff167c01000000000000000000000000000000000000000000000000000000000281526004018083815260200182815260200192505050600060405180830381600087803b1580156113ee57600080fd5b505af1158015611402573d6000803e3d6000fd5b50505050600015156114143387610d76565b151514156114c5576000809054906101000a900473ffffffffffffffffffffffffffffffffffffffff1673ffffffffffffffffffffffffffffffffffffffff1663ea79c200866040518263ffffffff167c010000000000000000000000000000000000000000000000000000000002815260040180828152602001915050600060405180830381600087803b1580156114ac57600080fd5b505af11580156114c0573d6000803e3d6000fd5b505050505b600360003373ffffffffffffffffffffffffffffffffffffffff1673ffffffffffffffffffffffffffffffffffffffff16815260200190815260200160002081908060018154018082558091505090600182039060005260206000209060060201600090919290919091506000820151816000015560208201518160010160006101000a81548173ffffffffffffffffffffffffffffffffffffffff021916908373ffffffffffffffffffffffffffffffffffffffff16021790555060408201518160020155606082015181600301556080820151816004015560a08201518160050190805190602001906115bb929190611dfe565b505050506004600086815260200190815260200160002081908060018154018082558091505090600182039060005260206000209060060201600090919290919091506000820151816000015560208201518160010160006101000a81548173ffffffffffffffffffffffffffffffffffffffff021916908373ffffffffffffffffffffffffffffffffffffffff16021790555060408201518160020155606082015181600301556080820151816004015560a0820151816005019080519060200190611689929190611dfe565b5050505060008060009054906101000a900473ffffffffffffffffffffffffffffffffffffffff1673ffffffffffffffffffffffffffffffffffffffff166374eb5738876040518263ffffffff167c01000000000000000000000000000000000000000000000000000000000281526004018082815260200191505060206040518083038186803b15801561171d57600080fd5b505afa158015611731573d6000803e3d6000fd5b505050506040513d602081101561174757600080fd5b8101908080519060200190929190505050905060008060009054906101000a900473ffffffffffffffffffffffffffffffffffffffff1673ffffffffffffffffffffffffffffffffffffffff1663e317526a836040518263ffffffff167c01000000000000000000000000000000000000000000000000000000000281526004018082815260200191505060206040518083038186803b1580156117ea57600080fd5b505afa1580156117fe573d6000803e3d6000fd5b505050506040513d602081101561181457600080fd5b810190808051906020019092919050505090508073ffffffffffffffffffffffffffffffffffffffff166108fc349081150290604051600060405180830381858888f1935050505015801561186d573d6000803e3d6000fd5b50600015156000809054906101000a900473ffffffffffffffffffffffffffffffffffffffff1673ffffffffffffffffffffffffffffffffffffffff1663dba2295733856040518363ffffffff167c0100000000000000000000000000000000000000000000000000000000028152600401808373ffffffffffffffffffffffffffffffffffffffff1673ffffffffffffffffffffffffffffffffffffffff1681526020018281526020019250505060206040518083038186803b15801561193457600080fd5b505afa158015611948573d6000803e3d6000fd5b505050506040513d602081101561195e57600080fd5b810190808051906020019092919050505015151415611a54576000809054906101000a900473ffffffffffffffffffffffffffffffffffffffff1673ffffffffffffffffffffffffffffffffffffffff166368b0875633846040518363ffffffff167c0100000000000000000000000000000000000000000000000000000000028152600401808373ffffffffffffffffffffffffffffffffffffffff1673ffffffffffffffffffffffffffffffffffffffff16815260200182815260200192505050600060405180830381600087803b158015611a3b57600080fd5b505af1158015611a4f573d6000803e3d6000fd5b505050505b6000600260008154809291906001019190505590507f414d9a2b6dc643632f4c3bade88ac469f033fe2b456dd14a9c3e17a50d4f4ba4816040518082815260200191505060405180910390a1809450505050509392505050565b6000600115156000809054906101000a900473ffffffffffffffffffffffffffffffffffffffff1673ffffffffffffffffffffffffffffffffffffffff166357d65eac846040518263ffffffff167c01000000000000000000000000000000000000000000000000000000000281526004018082815260200191505060206040518083038186803b158015611b4257600080fd5b505afa158015611b56573d6000803e3d6000fd5b505050506040513d6020811015611b6c57600080fd5b81019080805190602001909291905050501515141515611b8b57600080fd5b60008060009054906101000a900473ffffffffffffffffffffffffffffffffffffffff1673ffffffffffffffffffffffffffffffffffffffff166315f28a27846040518263ffffffff167c01000000000000000000000000000000000000000000000000000000000281526004018082815260200191505060206040518083038186803b158015611c1b57600080fd5b505afa158015611c2f573d6000803e3d6000fd5b505050506040513d6020811015611c4557600080fd5b8101908080519060200190929190505050905060008060009054906101000a900473ffffffffffffffffffffffffffffffffffffffff1673ffffffffffffffffffffffffffffffffffffffff1663f1c4bfac856040518263ffffffff167c01000000000000000000000000000000000000000000000000000000000281526004018082815260200191505060206040518083038186803b158015611ce857600080fd5b505afa158015611cfc573d6000803e3d6000fd5b505050506040513d6020811015611d1257600080fd5b8101908080519060200190929190505050905080820392505050919050565b828054600181600116156101000203166002900490600052602060002090601f016020900481019282601f10611d7257805160ff1916838001178555611da0565b82800160010185558215611da0579182015b82811115611d9f578251825591602001919060010190611d84565b5b509050611dad9190611e7e565b5090565b60c06040519081016040528060008152602001600073ffffffffffffffffffffffffffffffffffffffff168152602001600081526020016000815260200160008152602001606081525090565b828054600181600116156101000203166002900490600052602060002090601f016020900481019282601f10611e3f57805160ff1916838001178555611e6d565b82800160010185558215611e6d579182015b82811115611e6c578251825591602001919060010190611e51565b5b509050611e7a9190611e7e565b5090565b611ea091905b80821115611e9c576000816000905550600101611e84565b5090565b9056fea165627a7a72305820c9525d54fa7e280b9eec3570b687c90f87f09edba3cd6fae1660205e56246b390029",
  "source": "pragma solidity ^0.5.0;\r\nimport \"./Charity.sol\";\r\n\r\ncontract Donation {\r\n    \r\n    Charity charityContract;\r\n    address contractOwner = msg.sender;\r\n    \r\n    struct Transaction {\r\n        uint transactionId;\r\n\t    address donor;\r\n\t    uint campaignId;\r\n\t    uint amount;\r\n        uint date;\r\n        string hash;\r\n    }\r\n    \r\n    uint numTransactions = 1;\r\n    mapping (address => Transaction[]) donorDonations;\r\n    mapping (uint => Transaction[]) campaignDonations;\r\n    \r\n    event donated(uint newTransactionId);\r\n    \r\n    constructor(Charity charityAddress) public {\r\n        charityContract = charityAddress;\r\n    }\r\n    \r\n    /*\r\n    * This function is for donors to donate to a campaign that is still ongoing. The function assumes that\r\n    * the uint amount == msg.value\r\n    */\r\n    function donate(uint campaignId, uint amount, uint date) public payable returns (uint256) {\r\n        require(msg.value > 0, \"Donation value needs to be more than 0 wei\");\r\n        require(charityContract.isStatusComplete(campaignId) == false, \"Campaign has already ended\");\r\n        require(amount <= (getRemainingAmount(campaignId)), \"Donation value is more than campaign's remaining amount\");\r\n        \r\n        Transaction memory newTransaction = Transaction(\r\n            numTransactions,\r\n            msg.sender,\r\n            campaignId,\r\n            amount,\r\n            date,\r\n            \"\"\r\n        );\r\n        \r\n        charityContract.updateCampaignCurrentDonation(campaignId, amount);\r\n        if(checkPreviouslyDonated(msg.sender, campaignId) == false) {\r\n            charityContract.addCampaignDonor(campaignId);\r\n        }\r\n        \r\n        donorDonations[msg.sender].push(newTransaction);\r\n        campaignDonations[campaignId].push(newTransaction);\r\n\r\n        uint id = charityContract.getCampaignCharity(campaignId);\r\n        address payable recipient = address(uint160(charityContract.getCharityOwner(id)));\r\n        recipient.transfer(msg.value);\r\n\r\n        if(charityContract.checkCharityDonor(msg.sender, id) == false) {\r\n            charityContract.addCharityDonor(msg.sender, id);\r\n        }\r\n        \r\n        uint newTransactionId = numTransactions++;\r\n        emit donated(newTransactionId);\r\n        return newTransactionId;\r\n    }\r\n    \r\n    /**\r\n     * getDonorDonation only retrieves a specific donation by a donor. To retrieve the full donation\r\n     * history by donor, it would require looping of entire Transaction[] mapped to donor address\r\n    */\r\n    function getDonorDonation(address donor, uint index) public view returns(uint, address, uint, uint, uint, string memory){\r\n        return (donorDonations[donor][index].transactionId, donorDonations[donor][index].donor,\r\n        donorDonations[donor][index].campaignId, donorDonations[donor][index].amount,\r\n        donorDonations[donor][index].date, donorDonations[donor][index].hash);\r\n    }\r\n    \r\n    // use this function for looping on front-end\r\n    function getDonorTotalDonations(address donor) public view returns(uint){\r\n        return (donorDonations[donor].length);\r\n    }\r\n    \r\n    // to view remaining amount for campaign\r\n    function getRemainingAmount(uint campaignId) public view returns(uint){\r\n        require(charityContract.checkValidCampaign(campaignId) == true);\r\n        uint target = charityContract.getCampaignTargetDonation(campaignId);\r\n        uint current = charityContract.getCampaignCurrentDonation(campaignId);\r\n        return (target - current);\r\n    }\r\n    \r\n    /**\r\n     * getCampaignDonation only retrieves a specific donation within a campaign. To retrieve the full donation\r\n     * history of the campagin, it would require looping of entire Transaction[] mapped to campaignId\r\n    */\r\n    function getCampaignDonation(uint campaignId, uint index) public view returns(uint, address, uint, uint, uint, string memory){\r\n        require(charityContract.checkValidCampaign(campaignId) == true);\r\n        return (campaignDonations[campaignId][index].transactionId, campaignDonations[campaignId][index].donor,\r\n        campaignDonations[campaignId][index].campaignId, campaignDonations[campaignId][index].amount,\r\n        campaignDonations[campaignId][index].date, campaignDonations[campaignId][index].hash);\r\n    }\r\n    \r\n    // use this function for looping on front-end\r\n    function getCampaignTotalDonations(uint campaignId) public view returns(uint){\r\n        require(charityContract.checkValidCampaign(campaignId) == true);\r\n        return (campaignDonations[campaignId].length);\r\n    }\r\n    \r\n    // function to check if donor has donated to campaign before\r\n    function checkPreviouslyDonated(address donor, uint campaignId) public view returns(bool){\r\n        require(charityContract.checkValidCampaign(campaignId) == true);\r\n        uint length = campaignDonations[campaignId].length;\r\n        for (uint i = 0; i < length; i++) {\r\n            if(campaignDonations[campaignId][i].donor == donor) {\r\n                return true;\r\n            }\r\n        }\r\n        return false;\r\n    }\r\n\r\n    // function to set the transaction hash\r\n    function setTransactionHash(uint id, uint campaignId, address donor, string memory hash) public {\r\n        uint cLength = campaignDonations[campaignId].length;\r\n        for (uint i = 0; i < cLength; i++) {\r\n            if(campaignDonations[campaignId][i].transactionId == id) {\r\n                campaignDonations[campaignId][i].hash = hash;\r\n            }\r\n        }\r\n\r\n        uint dLength = donorDonations[donor].length;\r\n        for (uint i = 0; i < dLength; i++) {\r\n            if(donorDonations[donor][i].transactionId == id) {\r\n                donorDonations[donor][i].hash = hash;\r\n            }\r\n        }\r\n    }\r\n\r\n}",
  "sourcePath": "C:/Users/user/Downloads/IS4302/Project/sharity/contracts/Donation.sol",
  "compiler": {
    "name": "solc",
    "version": "0.5.0+commit.1d4f565a.Emscripten.clang"
  },
  "schemaVersion": "3.3.3",
  "updatedAt": "2021-04-11T14:48:22.225Z",
  "devdoc": {
    "methods": {}
  },
  "userdoc": {
    "methods": {
      "getCampaignDonation(uint256,uint256)": {
        "notice": "getCampaignDonation only retrieves a specific donation within a campaign. To retrieve the full donation\r history of the campagin, it would require looping of entire Transaction[] mapped to campaignId\r"
      },
      "getDonorDonation(address,uint256)": {
        "notice": "getDonorDonation only retrieves a specific donation by a donor. To retrieve the full donation\r history by donor, it would require looping of entire Transaction[] mapped to donor address\r"
      }
    }
  }
}