{
  "contractName": "Donation",
  "abi": [
    {
      "inputs": [
        {
          "name": "charityAddress",
          "type": "address"
        }
      ],
      "payable": false,
      "stateMutability": "nonpayable",
      "type": "constructor"
    },
    {
      "anonymous": false,
      "inputs": [
        {
          "indexed": false,
          "name": "newTransactionId",
          "type": "uint256"
        }
      ],
      "name": "donated",
      "type": "event"
    },
    {
      "constant": false,
      "inputs": [
        {
          "name": "campaignId",
          "type": "uint256"
        },
        {
          "name": "amount",
          "type": "uint256"
        }
      ],
      "name": "donate",
      "outputs": [
        {
          "name": "",
          "type": "uint256"
        }
      ],
      "payable": true,
      "stateMutability": "payable",
      "type": "function"
    },
    {
      "constant": true,
      "inputs": [
        {
          "name": "donor",
          "type": "address"
        },
        {
          "name": "index",
          "type": "uint256"
        }
      ],
      "name": "getDonorDonation",
      "outputs": [
        {
          "name": "",
          "type": "uint256"
        },
        {
          "name": "",
          "type": "address"
        },
        {
          "name": "",
          "type": "uint256"
        },
        {
          "name": "",
          "type": "uint256"
        }
      ],
      "payable": false,
      "stateMutability": "view",
      "type": "function"
    },
    {
      "constant": true,
      "inputs": [
        {
          "name": "donor",
          "type": "address"
        }
      ],
      "name": "getDonorTotalDonations",
      "outputs": [
        {
          "name": "",
          "type": "uint256"
        }
      ],
      "payable": false,
      "stateMutability": "view",
      "type": "function"
    },
    {
      "constant": true,
      "inputs": [
        {
          "name": "campaignId",
          "type": "uint256"
        }
      ],
      "name": "getRemainingAmount",
      "outputs": [
        {
          "name": "",
          "type": "uint256"
        }
      ],
      "payable": false,
      "stateMutability": "view",
      "type": "function"
    },
    {
      "constant": true,
      "inputs": [
        {
          "name": "campaignId",
          "type": "uint256"
        },
        {
          "name": "index",
          "type": "uint256"
        }
      ],
      "name": "getCampaignDonation",
      "outputs": [
        {
          "name": "",
          "type": "uint256"
        },
        {
          "name": "",
          "type": "address"
        },
        {
          "name": "",
          "type": "uint256"
        },
        {
          "name": "",
          "type": "uint256"
        }
      ],
      "payable": false,
      "stateMutability": "view",
      "type": "function"
    },
    {
      "constant": true,
      "inputs": [
        {
          "name": "campaignId",
          "type": "uint256"
        }
      ],
      "name": "getCampaignTotalDonations",
      "outputs": [
        {
          "name": "",
          "type": "uint256"
        }
      ],
      "payable": false,
      "stateMutability": "view",
      "type": "function"
    },
    {
      "constant": true,
      "inputs": [
        {
          "name": "donor",
          "type": "address"
        },
        {
          "name": "campaignId",
          "type": "uint256"
        }
      ],
      "name": "checkPreviouslyDonated",
      "outputs": [
        {
          "name": "",
          "type": "bool"
        }
      ],
      "payable": false,
      "stateMutability": "view",
      "type": "function"
    }
  ],
  "bytecode": "0x608060405233600160006101000a81548173ffffffffffffffffffffffffffffffffffffffff021916908373ffffffffffffffffffffffffffffffffffffffff160217905550600160025534801561005657600080fd5b506040516020806117af8339810180604052602081101561007657600080fd5b8101908080519060200190929190505050806000806101000a81548173ffffffffffffffffffffffffffffffffffffffff021916908373ffffffffffffffffffffffffffffffffffffffff160217905550506116d8806100d76000396000f3fe608060405260043610610083576000357c0100000000000000000000000000000000000000000000000000000000900463ffffffff1680630cdd53f61461008857806372b22118146100d4578063988ae6ee1461016e578063c00cf3cc1461021e578063cd201a8514610291578063da6174b4146102f6578063f6252ff214610345575b600080fd5b6100be6004803603604081101561009e57600080fd5b810190808035906020019092919080359060200190929190505050610394565b6040518082815260200191505060405180910390f35b3480156100e057600080fd5b50610117600480360360408110156100f757600080fd5b810190808035906020019092919080359060200190929190505050610d6a565b604051808581526020018473ffffffffffffffffffffffffffffffffffffffff1673ffffffffffffffffffffffffffffffffffffffff16815260200183815260200182815260200194505050505060405180910390f35b34801561017a57600080fd5b506101c76004803603604081101561019157600080fd5b81019080803573ffffffffffffffffffffffffffffffffffffffff16906020019092919080359060200190929190505050610f44565b604051808581526020018473ffffffffffffffffffffffffffffffffffffffff1673ffffffffffffffffffffffffffffffffffffffff16815260200183815260200182815260200194505050505060405180910390f35b34801561022a57600080fd5b506102776004803603604081101561024157600080fd5b81019080803573ffffffffffffffffffffffffffffffffffffffff169060200190929190803590602001909291905050506110f3565b604051808215151515815260200191505060405180910390f35b34801561029d57600080fd5b506102e0600480360360208110156102b457600080fd5b81019080803573ffffffffffffffffffffffffffffffffffffffff1690602001909291905050506112a3565b6040518082815260200191505060405180910390f35b34801561030257600080fd5b5061032f6004803603602081101561031957600080fd5b81019080803590602001909291905050506112ef565b6040518082815260200191505060405180910390f35b34801561035157600080fd5b5061037e6004803603602081101561036857600080fd5b81019080803590602001909291905050506113ea565b6040518082815260200191505060405180910390f35b60008034111515610433576040517f08c379a000000000000000000000000000000000000000000000000000000000815260040180806020018281038252602a8152602001807f446f6e6174696f6e2076616c7565206e6565647320746f206265206d6f72652081526020017f7468616e2030207765690000000000000000000000000000000000000000000081525060400191505060405180910390fd5b600015156000809054906101000a900473ffffffffffffffffffffffffffffffffffffffff1673ffffffffffffffffffffffffffffffffffffffff1663f6b54898856040518263ffffffff167c01000000000000000000000000000000000000000000000000000000000281526004018082815260200191505060206040518083038186803b1580156104c557600080fd5b505afa1580156104d9573d6000803e3d6000fd5b505050506040513d60208110156104ef57600080fd5b81019080805190602001909291905050501515141515610577576040517f08c379a000000000000000000000000000000000000000000000000000000000815260040180806020018281038252601a8152602001807f43616d706169676e2068617320616c726561647920656e64656400000000000081525060200191505060405180910390fd5b610580836113ea565b821115151561061d576040517f08c379a00000000000000000000000000000000000000000000000000000000081526004018080602001828103825260378152602001807f446f6e6174696f6e2076616c7565206973206d6f7265207468616e2063616d7081526020017f6169676e27732072656d61696e696e6720616d6f756e7400000000000000000081525060400191505060405180910390fd5b61062561166d565b60806040519081016040528060025481526020013373ffffffffffffffffffffffffffffffffffffffff1681526020018581526020018481525090506000809054906101000a900473ffffffffffffffffffffffffffffffffffffffff1673ffffffffffffffffffffffffffffffffffffffff1663a6af939a85856040518363ffffffff167c01000000000000000000000000000000000000000000000000000000000281526004018083815260200182815260200192505050600060405180830381600087803b1580156106f957600080fd5b505af115801561070d573d6000803e3d6000fd5b505050506000151561071f33866110f3565b151514156107d0576000809054906101000a900473ffffffffffffffffffffffffffffffffffffffff1673ffffffffffffffffffffffffffffffffffffffff1663ea79c200856040518263ffffffff167c010000000000000000000000000000000000000000000000000000000002815260040180828152602001915050600060405180830381600087803b1580156107b757600080fd5b505af11580156107cb573d6000803e3d6000fd5b505050505b600360003373ffffffffffffffffffffffffffffffffffffffff1673ffffffffffffffffffffffffffffffffffffffff16815260200190815260200160002081908060018154018082558091505090600182039060005260206000209060040201600090919290919091506000820151816000015560208201518160010160006101000a81548173ffffffffffffffffffffffffffffffffffffffff021916908373ffffffffffffffffffffffffffffffffffffffff16021790555060408201518160020155606082015181600301555050506004600085815260200190815260200160002081908060018154018082558091505090600182039060005260206000209060040201600090919290919091506000820151816000015560208201518160010160006101000a81548173ffffffffffffffffffffffffffffffffffffffff021916908373ffffffffffffffffffffffffffffffffffffffff160217905550604082015181600201556060820151816003015550505060008060009054906101000a900473ffffffffffffffffffffffffffffffffffffffff1673ffffffffffffffffffffffffffffffffffffffff166374eb5738866040518263ffffffff167c01000000000000000000000000000000000000000000000000000000000281526004018082815260200191505060206040518083038186803b1580156109da57600080fd5b505afa1580156109ee573d6000803e3d6000fd5b505050506040513d6020811015610a0457600080fd5b8101908080519060200190929190505050905060008060009054906101000a900473ffffffffffffffffffffffffffffffffffffffff1673ffffffffffffffffffffffffffffffffffffffff1663e317526a836040518263ffffffff167c01000000000000000000000000000000000000000000000000000000000281526004018082815260200191505060206040518083038186803b158015610aa757600080fd5b505afa158015610abb573d6000803e3d6000fd5b505050506040513d6020811015610ad157600080fd5b810190808051906020019092919050505090508073ffffffffffffffffffffffffffffffffffffffff166108fc349081150290604051600060405180830381858888f19350505050158015610b2a573d6000803e3d6000fd5b50600015156000809054906101000a900473ffffffffffffffffffffffffffffffffffffffff1673ffffffffffffffffffffffffffffffffffffffff1663dba2295733856040518363ffffffff167c0100000000000000000000000000000000000000000000000000000000028152600401808373ffffffffffffffffffffffffffffffffffffffff1673ffffffffffffffffffffffffffffffffffffffff1681526020018281526020019250505060206040518083038186803b158015610bf157600080fd5b505afa158015610c05573d6000803e3d6000fd5b505050506040513d6020811015610c1b57600080fd5b810190808051906020019092919050505015151415610d11576000809054906101000a900473ffffffffffffffffffffffffffffffffffffffff1673ffffffffffffffffffffffffffffffffffffffff166368b0875633846040518363ffffffff167c0100000000000000000000000000000000000000000000000000000000028152600401808373ffffffffffffffffffffffffffffffffffffffff1673ffffffffffffffffffffffffffffffffffffffff16815260200182815260200192505050600060405180830381600087803b158015610cf857600080fd5b505af1158015610d0c573d6000803e3d6000fd5b505050505b6000600260008154809291906001019190505590507f414d9a2b6dc643632f4c3bade88ac469f033fe2b456dd14a9c3e17a50d4f4ba4816040518082815260200191505060405180910390a18094505050505092915050565b600080600080600115156000809054906101000a900473ffffffffffffffffffffffffffffffffffffffff1673ffffffffffffffffffffffffffffffffffffffff166357d65eac886040518263ffffffff167c01000000000000000000000000000000000000000000000000000000000281526004018082815260200191505060206040518083038186803b158015610e0257600080fd5b505afa158015610e16573d6000803e3d6000fd5b505050506040513d6020811015610e2c57600080fd5b81019080805190602001909291905050501515141515610e4b57600080fd5b6004600087815260200190815260200160002085815481101515610e6b57fe5b9060005260206000209060040201600001546004600088815260200190815260200160002086815481101515610e9d57fe5b906000526020600020906004020160010160009054906101000a900473ffffffffffffffffffffffffffffffffffffffff166004600089815260200190815260200160002087815481101515610eef57fe5b906000526020600020906004020160020154600460008a815260200190815260200160002088815481101515610f2157fe5b906000526020600020906004020160030154935093509350935092959194509250565b600080600080600360008773ffffffffffffffffffffffffffffffffffffffff1673ffffffffffffffffffffffffffffffffffffffff16815260200190815260200160002085815481101515610f9657fe5b906000526020600020906004020160000154600360008873ffffffffffffffffffffffffffffffffffffffff1673ffffffffffffffffffffffffffffffffffffffff16815260200190815260200160002086815481101515610ff457fe5b906000526020600020906004020160010160009054906101000a900473ffffffffffffffffffffffffffffffffffffffff16600360008973ffffffffffffffffffffffffffffffffffffffff1673ffffffffffffffffffffffffffffffffffffffff1681526020019081526020016000208781548110151561107257fe5b906000526020600020906004020160020154600360008a73ffffffffffffffffffffffffffffffffffffffff1673ffffffffffffffffffffffffffffffffffffffff168152602001908152602001600020888154811015156110d057fe5b906000526020600020906004020160030154935093509350935092959194509250565b6000600115156000809054906101000a900473ffffffffffffffffffffffffffffffffffffffff1673ffffffffffffffffffffffffffffffffffffffff166357d65eac846040518263ffffffff167c01000000000000000000000000000000000000000000000000000000000281526004018082815260200191505060206040518083038186803b15801561118757600080fd5b505afa15801561119b573d6000803e3d6000fd5b505050506040513d60208110156111b157600080fd5b810190808051906020019092919050505015151415156111d057600080fd5b60006004600084815260200190815260200160002080549050905060008090505b81811015611296578473ffffffffffffffffffffffffffffffffffffffff16600460008681526020019081526020016000208281548110151561123057fe5b906000526020600020906004020160010160009054906101000a900473ffffffffffffffffffffffffffffffffffffffff1673ffffffffffffffffffffffffffffffffffffffff1614156112895760019250505061129d565b80806001019150506111f1565b5060009150505b92915050565b6000600360008373ffffffffffffffffffffffffffffffffffffffff1673ffffffffffffffffffffffffffffffffffffffff168152602001908152602001600020805490509050919050565b6000600115156000809054906101000a900473ffffffffffffffffffffffffffffffffffffffff1673ffffffffffffffffffffffffffffffffffffffff166357d65eac846040518263ffffffff167c01000000000000000000000000000000000000000000000000000000000281526004018082815260200191505060206040518083038186803b15801561138357600080fd5b505afa158015611397573d6000803e3d6000fd5b505050506040513d60208110156113ad57600080fd5b810190808051906020019092919050505015151415156113cc57600080fd5b60046000838152602001908152602001600020805490509050919050565b6000600115156000809054906101000a900473ffffffffffffffffffffffffffffffffffffffff1673ffffffffffffffffffffffffffffffffffffffff166357d65eac846040518263ffffffff167c01000000000000000000000000000000000000000000000000000000000281526004018082815260200191505060206040518083038186803b15801561147e57600080fd5b505afa158015611492573d6000803e3d6000fd5b505050506040513d60208110156114a857600080fd5b810190808051906020019092919050505015151415156114c757600080fd5b60008060009054906101000a900473ffffffffffffffffffffffffffffffffffffffff1673ffffffffffffffffffffffffffffffffffffffff166315f28a27846040518263ffffffff167c01000000000000000000000000000000000000000000000000000000000281526004018082815260200191505060206040518083038186803b15801561155757600080fd5b505afa15801561156b573d6000803e3d6000fd5b505050506040513d602081101561158157600080fd5b8101908080519060200190929190505050905060008060009054906101000a900473ffffffffffffffffffffffffffffffffffffffff1673ffffffffffffffffffffffffffffffffffffffff1663f1c4bfac856040518263ffffffff167c01000000000000000000000000000000000000000000000000000000000281526004018082815260200191505060206040518083038186803b15801561162457600080fd5b505afa158015611638573d6000803e3d6000fd5b505050506040513d602081101561164e57600080fd5b8101908080519060200190929190505050905080820392505050919050565b60806040519081016040528060008152602001600073ffffffffffffffffffffffffffffffffffffffff1681526020016000815260200160008152509056fea165627a7a723058207e6ece8b8ef825a275b8461d5af629f7e7d38f795c5cfdd3bc58bd39449f13830029",
  "source": "pragma solidity ^0.5.0;\r\nimport \"./Charity.sol\";\r\n\r\ncontract Donation {\r\n    \r\n    Charity charityContract;\r\n    address contractOwner = msg.sender;\r\n    \r\n    struct Transaction {\r\n        uint transactionId;\r\n\t    address donor;\r\n\t    uint campaignId;\r\n\t    uint amount;\r\n    }\r\n    \r\n    uint numTransactions = 1;\r\n    mapping (address => Transaction[]) donorDonations;\r\n    mapping (uint => Transaction[]) campaignDonations;\r\n    \r\n    event donated(uint newTransactionId);\r\n    \r\n    constructor(Charity charityAddress) public {\r\n        charityContract = charityAddress;\r\n    }\r\n    \r\n    /*\r\n    * This function is for donors to donate to a campaign that is still ongoing. The function assumes that\r\n    * the uint amount == msg.value\r\n    */\r\n    function donate(uint campaignId, uint amount) public payable returns (uint256) {\r\n        require(msg.value > 0, \"Donation value needs to be more than 0 wei\");\r\n        require(charityContract.isStatusComplete(campaignId) == false, \"Campaign has already ended\");\r\n        require(amount <= (getRemainingAmount(campaignId)), \"Donation value is more than campaign's remaining amount\");\r\n        \r\n        Transaction memory newTransaction = Transaction(\r\n            numTransactions,\r\n            msg.sender,\r\n            campaignId,\r\n            amount\r\n        );\r\n        \r\n        charityContract.updateCampaignCurrentDonation(campaignId, amount);\r\n        if(checkPreviouslyDonated(msg.sender, campaignId) == false) {\r\n            charityContract.addCampaignDonor(campaignId);\r\n        }\r\n        \r\n        donorDonations[msg.sender].push(newTransaction);\r\n        campaignDonations[campaignId].push(newTransaction);\r\n\r\n        uint id = charityContract.getCampaignCharity(campaignId);\r\n        address payable recipient = address(uint160(charityContract.getCharityOwner(id)));\r\n        recipient.transfer(msg.value);\r\n\r\n        if(charityContract.checkCharityDonor(msg.sender, id) == false) {\r\n            charityContract.addCharityDonor(msg.sender, id);\r\n        }\r\n        \r\n        uint newTransactionId = numTransactions++;\r\n        emit donated(newTransactionId);\r\n        return newTransactionId;\r\n    }\r\n    \r\n    /**\r\n     * getDonorDonation only retrieves a specific donation by a donor. To retrieve the full donation\r\n     * history by donor, it would require looping of entire Transaction[] mapped to donor address\r\n    */\r\n    function getDonorDonation(address donor, uint index) public view returns(uint, address, uint, uint){\r\n        return (donorDonations[donor][index].transactionId, donorDonations[donor][index].donor,\r\n        donorDonations[donor][index].campaignId, donorDonations[donor][index].amount);\r\n    }\r\n    \r\n    // use this function for looping on front-end\r\n    function getDonorTotalDonations(address donor) public view returns(uint){\r\n        return (donorDonations[donor].length);\r\n    }\r\n    \r\n    // to view remaining amount for campaign\r\n    function getRemainingAmount(uint campaignId) public view returns(uint){\r\n        require(charityContract.checkValidCampaign(campaignId) == true);\r\n        uint target = charityContract.getCampaignTargetDonation(campaignId);\r\n        uint current = charityContract.getCampaignCurrentDonation(campaignId);\r\n        return (target - current);\r\n    }\r\n    \r\n    /**\r\n     * getCampaignDonation only retrieves a specific donation within a campaign. To retrieve the full donation\r\n     * history of the campagin, it would require looping of entire Transaction[] mapped to campaignId\r\n    */\r\n    function getCampaignDonation(uint campaignId, uint index) public view returns(uint, address, uint, uint){\r\n        require(charityContract.checkValidCampaign(campaignId) == true);\r\n        return (campaignDonations[campaignId][index].transactionId, campaignDonations[campaignId][index].donor,\r\n        campaignDonations[campaignId][index].campaignId, campaignDonations[campaignId][index].amount);\r\n    }\r\n    \r\n    // use this function for looping on front-end\r\n    function getCampaignTotalDonations(uint campaignId) public view returns(uint){\r\n        require(charityContract.checkValidCampaign(campaignId) == true);\r\n        return (campaignDonations[campaignId].length);\r\n    }\r\n    \r\n    // function to check if donor has donated to campaign before\r\n    function checkPreviouslyDonated(address donor, uint campaignId) public view returns(bool){\r\n        require(charityContract.checkValidCampaign(campaignId) == true);\r\n        uint length = campaignDonations[campaignId].length;\r\n        for (uint i = 0; i < length; i++) {\r\n            if(campaignDonations[campaignId][i].donor == donor) {\r\n                return true;\r\n            }\r\n        }\r\n        return false;\r\n    }\r\n\r\n}",
  "sourcePath": "C:/Users/user/Downloads/IS4302/Project/sharity/contracts/Donation.sol",
  "compiler": {
    "name": "solc",
    "version": "0.5.0+commit.1d4f565a.Emscripten.clang"
  },
  "schemaVersion": "3.3.3",
  "updatedAt": "2021-04-09T09:18:32.857Z",
  "devdoc": {
    "methods": {}
  },
  "userdoc": {
    "methods": {
      "getCampaignDonation(uint256,uint256)": {
        "notice": "getCampaignDonation only retrieves a specific donation within a campaign. To retrieve the full donation\r history of the campagin, it would require looping of entire Transaction[] mapped to campaignId\r"
      },
      "getDonorDonation(address,uint256)": {
        "notice": "getDonorDonation only retrieves a specific donation by a donor. To retrieve the full donation\r history by donor, it would require looping of entire Transaction[] mapped to donor address\r"
      }
    }
  }
}