{
  "contractName": "Donation",
  "abi": [
    {
      "inputs": [
        {
          "name": "charityAddress",
          "type": "address"
        }
      ],
      "payable": false,
      "stateMutability": "nonpayable",
      "type": "constructor"
    },
    {
      "anonymous": false,
      "inputs": [
        {
          "indexed": false,
          "name": "newTransactionId",
          "type": "uint256"
        }
      ],
      "name": "donated",
      "type": "event"
    },
    {
      "constant": false,
      "inputs": [
        {
          "name": "campaignId",
          "type": "uint256"
        },
        {
          "name": "amount",
          "type": "uint256"
        },
        {
          "name": "date",
          "type": "uint256"
        }
      ],
      "name": "donate",
      "outputs": [
        {
          "name": "",
          "type": "uint256"
        }
      ],
      "payable": true,
      "stateMutability": "payable",
      "type": "function"
    },
    {
      "constant": true,
      "inputs": [
        {
          "name": "donor",
          "type": "address"
        },
        {
          "name": "index",
          "type": "uint256"
        }
      ],
      "name": "getDonorDonation",
      "outputs": [
        {
          "name": "",
          "type": "uint256"
        },
        {
          "name": "",
          "type": "address"
        },
        {
          "name": "",
          "type": "uint256"
        },
        {
          "name": "",
          "type": "uint256"
        }
      ],
      "payable": false,
      "stateMutability": "view",
      "type": "function"
    },
    {
      "constant": true,
      "inputs": [
        {
          "name": "donor",
          "type": "address"
        }
      ],
      "name": "getDonorTotalDonations",
      "outputs": [
        {
          "name": "",
          "type": "uint256"
        }
      ],
      "payable": false,
      "stateMutability": "view",
      "type": "function"
    },
    {
      "constant": true,
      "inputs": [
        {
          "name": "campaignId",
          "type": "uint256"
        }
      ],
      "name": "getRemainingAmount",
      "outputs": [
        {
          "name": "",
          "type": "uint256"
        }
      ],
      "payable": false,
      "stateMutability": "view",
      "type": "function"
    },
    {
      "constant": true,
      "inputs": [
        {
          "name": "campaignId",
          "type": "uint256"
        },
        {
          "name": "index",
          "type": "uint256"
        }
      ],
      "name": "getCampaignDonation",
      "outputs": [
        {
          "name": "",
          "type": "uint256"
        },
        {
          "name": "",
          "type": "address"
        },
        {
          "name": "",
          "type": "uint256"
        },
        {
          "name": "",
          "type": "uint256"
        }
      ],
      "payable": false,
      "stateMutability": "view",
      "type": "function"
    },
    {
      "constant": true,
      "inputs": [
        {
          "name": "campaignId",
          "type": "uint256"
        }
      ],
      "name": "getCampaignTotalDonations",
      "outputs": [
        {
          "name": "",
          "type": "uint256"
        }
      ],
      "payable": false,
      "stateMutability": "view",
      "type": "function"
    },
    {
      "constant": true,
      "inputs": [
        {
          "name": "donor",
          "type": "address"
        },
        {
          "name": "campaignId",
          "type": "uint256"
        }
      ],
      "name": "checkPreviouslyDonated",
      "outputs": [
        {
          "name": "",
          "type": "bool"
        }
      ],
      "payable": false,
      "stateMutability": "view",
      "type": "function"
    },
    {
      "constant": false,
      "inputs": [
        {
          "name": "id",
          "type": "uint256"
        },
        {
          "name": "campaignId",
          "type": "uint256"
        },
        {
          "name": "donor",
          "type": "address"
        },
        {
          "name": "hash",
          "type": "string"
        }
      ],
      "name": "setTransactionHash",
      "outputs": [],
      "payable": false,
      "stateMutability": "nonpayable",
      "type": "function"
    }
  ],
  "bytecode": "0x608060405233600160006101000a81548173ffffffffffffffffffffffffffffffffffffffff021916908373ffffffffffffffffffffffffffffffffffffffff160217905550600160025534801561005657600080fd5b50604051602080611c588339810180604052602081101561007657600080fd5b8101908080519060200190929190505050806000806101000a81548173ffffffffffffffffffffffffffffffffffffffff021916908373ffffffffffffffffffffffffffffffffffffffff16021790555050611b81806100d76000396000f3fe60806040526004361061008e576000357c0100000000000000000000000000000000000000000000000000000000900463ffffffff16806372b2211814610093578063988ae6ee1461012d578063bfec514f146101dd578063c00cf3cc146102d9578063cd201a851461034c578063da6174b4146103b1578063ef88f48b14610400578063f6252ff214610456575b600080fd5b34801561009f57600080fd5b506100d6600480360360408110156100b657600080fd5b8101908080359060200190929190803590602001909291905050506104a5565b604051808581526020018473ffffffffffffffffffffffffffffffffffffffff1673ffffffffffffffffffffffffffffffffffffffff16815260200183815260200182815260200194505050505060405180910390f35b34801561013957600080fd5b506101866004803603604081101561015057600080fd5b81019080803573ffffffffffffffffffffffffffffffffffffffff1690602001909291908035906020019092919050505061067f565b604051808581526020018473ffffffffffffffffffffffffffffffffffffffff1673ffffffffffffffffffffffffffffffffffffffff16815260200183815260200182815260200194505050505060405180910390f35b3480156101e957600080fd5b506102d76004803603608081101561020057600080fd5b810190808035906020019092919080359060200190929190803573ffffffffffffffffffffffffffffffffffffffff1690602001909291908035906020019064010000000081111561025157600080fd5b82018360208201111561026357600080fd5b8035906020019184600183028401116401000000008311171561028557600080fd5b91908080601f016020809104026020016040519081016040528093929190818152602001838380828437600081840152601f19601f82011690508083019250505050505050919291929050505061082e565b005b3480156102e557600080fd5b50610332600480360360408110156102fc57600080fd5b81019080803573ffffffffffffffffffffffffffffffffffffffff16906020019092919080359060200190929190505050610a28565b604051808215151515815260200191505060405180910390f35b34801561035857600080fd5b5061039b6004803603602081101561036f57600080fd5b81019080803573ffffffffffffffffffffffffffffffffffffffff169060200190929190505050610bd8565b6040518082815260200191505060405180910390f35b3480156103bd57600080fd5b506103ea600480360360208110156103d457600080fd5b8101908080359060200190929190505050610c24565b6040518082815260200191505060405180910390f35b6104406004803603606081101561041657600080fd5b81019080803590602001909291908035906020019092919080359060200190929190505050610d1f565b6040518082815260200191505060405180910390f35b34801561046257600080fd5b5061048f6004803603602081101561047957600080fd5b8101908080359060200190929190505050611760565b6040518082815260200191505060405180910390f35b600080600080600115156000809054906101000a900473ffffffffffffffffffffffffffffffffffffffff1673ffffffffffffffffffffffffffffffffffffffff166357d65eac886040518263ffffffff167c01000000000000000000000000000000000000000000000000000000000281526004018082815260200191505060206040518083038186803b15801561053d57600080fd5b505afa158015610551573d6000803e3d6000fd5b505050506040513d602081101561056757600080fd5b8101908080519060200190929190505050151514151561058657600080fd5b60046000878152602001908152602001600020858154811015156105a657fe5b90600052602060002090600602016000015460046000888152602001908152602001600020868154811015156105d857fe5b906000526020600020906006020160010160009054906101000a900473ffffffffffffffffffffffffffffffffffffffff16600460008981526020019081526020016000208781548110151561062a57fe5b906000526020600020906006020160020154600460008a81526020019081526020016000208881548110151561065c57fe5b906000526020600020906006020160030154935093509350935092959194509250565b600080600080600360008773ffffffffffffffffffffffffffffffffffffffff1673ffffffffffffffffffffffffffffffffffffffff168152602001908152602001600020858154811015156106d157fe5b906000526020600020906006020160000154600360008873ffffffffffffffffffffffffffffffffffffffff1673ffffffffffffffffffffffffffffffffffffffff1681526020019081526020016000208681548110151561072f57fe5b906000526020600020906006020160010160009054906101000a900473ffffffffffffffffffffffffffffffffffffffff16600360008973ffffffffffffffffffffffffffffffffffffffff1673ffffffffffffffffffffffffffffffffffffffff168152602001908152602001600020878154811015156107ad57fe5b906000526020600020906006020160020154600360008a73ffffffffffffffffffffffffffffffffffffffff1673ffffffffffffffffffffffffffffffffffffffff1681526020019081526020016000208881548110151561080b57fe5b906000526020600020906006020160030154935093509350935092959194509250565b60006004600085815260200190815260200160002080549050905060008090505b818110156108e45785600460008781526020019081526020016000208281548110151561087857fe5b90600052602060002090600602016000015414156108d7578260046000878152602001908152602001600020828154811015156108b157fe5b906000526020600020906006020160050190805190602001906108d59291906119e3565b505b808060010191505061084f565b506000600360008573ffffffffffffffffffffffffffffffffffffffff1673ffffffffffffffffffffffffffffffffffffffff16815260200190815260200160002080549050905060008090505b81811015610a1f5786600360008773ffffffffffffffffffffffffffffffffffffffff1673ffffffffffffffffffffffffffffffffffffffff1681526020019081526020016000208281548110151561098757fe5b9060005260206000209060060201600001541415610a125783600360008773ffffffffffffffffffffffffffffffffffffffff1673ffffffffffffffffffffffffffffffffffffffff168152602001908152602001600020828154811015156109ec57fe5b90600052602060002090600602016005019080519060200190610a109291906119e3565b505b8080600101915050610932565b50505050505050565b6000600115156000809054906101000a900473ffffffffffffffffffffffffffffffffffffffff1673ffffffffffffffffffffffffffffffffffffffff166357d65eac846040518263ffffffff167c01000000000000000000000000000000000000000000000000000000000281526004018082815260200191505060206040518083038186803b158015610abc57600080fd5b505afa158015610ad0573d6000803e3d6000fd5b505050506040513d6020811015610ae657600080fd5b81019080805190602001909291905050501515141515610b0557600080fd5b60006004600084815260200190815260200160002080549050905060008090505b81811015610bcb578473ffffffffffffffffffffffffffffffffffffffff166004600086815260200190815260200160002082815481101515610b6557fe5b906000526020600020906006020160010160009054906101000a900473ffffffffffffffffffffffffffffffffffffffff1673ffffffffffffffffffffffffffffffffffffffff161415610bbe57600192505050610bd2565b8080600101915050610b26565b5060009150505b92915050565b6000600360008373ffffffffffffffffffffffffffffffffffffffff1673ffffffffffffffffffffffffffffffffffffffff168152602001908152602001600020805490509050919050565b6000600115156000809054906101000a900473ffffffffffffffffffffffffffffffffffffffff1673ffffffffffffffffffffffffffffffffffffffff166357d65eac846040518263ffffffff167c01000000000000000000000000000000000000000000000000000000000281526004018082815260200191505060206040518083038186803b158015610cb857600080fd5b505afa158015610ccc573d6000803e3d6000fd5b505050506040513d6020811015610ce257600080fd5b81019080805190602001909291905050501515141515610d0157600080fd5b60046000838152602001908152602001600020805490509050919050565b60008034111515610dbe576040517f08c379a000000000000000000000000000000000000000000000000000000000815260040180806020018281038252602a8152602001807f446f6e6174696f6e2076616c7565206e6565647320746f206265206d6f72652081526020017f7468616e2030207765690000000000000000000000000000000000000000000081525060400191505060405180910390fd5b600015156000809054906101000a900473ffffffffffffffffffffffffffffffffffffffff1673ffffffffffffffffffffffffffffffffffffffff1663f6b54898866040518263ffffffff167c01000000000000000000000000000000000000000000000000000000000281526004018082815260200191505060206040518083038186803b158015610e5057600080fd5b505afa158015610e64573d6000803e3d6000fd5b505050506040513d6020811015610e7a57600080fd5b81019080805190602001909291905050501515141515610f02576040517f08c379a000000000000000000000000000000000000000000000000000000000815260040180806020018281038252601a8152602001807f43616d706169676e2068617320616c726561647920656e64656400000000000081525060200191505060405180910390fd5b610f0b84611760565b8311151515610fa8576040517f08c379a00000000000000000000000000000000000000000000000000000000081526004018080602001828103825260378152602001807f446f6e6174696f6e2076616c7565206973206d6f7265207468616e2063616d7081526020017f6169676e27732072656d61696e696e6720616d6f756e7400000000000000000081525060400191505060405180910390fd5b610fb0611a63565b60c06040519081016040528060025481526020013373ffffffffffffffffffffffffffffffffffffffff168152602001868152602001858152602001848152602001602060405190810160405280600081525081525090506000809054906101000a900473ffffffffffffffffffffffffffffffffffffffff1673ffffffffffffffffffffffffffffffffffffffff1663a6af939a86866040518363ffffffff167c01000000000000000000000000000000000000000000000000000000000281526004018083815260200182815260200192505050600060405180830381600087803b1580156110a057600080fd5b505af11580156110b4573d6000803e3d6000fd5b50505050600015156110c63387610a28565b15151415611177576000809054906101000a900473ffffffffffffffffffffffffffffffffffffffff1673ffffffffffffffffffffffffffffffffffffffff1663ea79c200866040518263ffffffff167c010000000000000000000000000000000000000000000000000000000002815260040180828152602001915050600060405180830381600087803b15801561115e57600080fd5b505af1158015611172573d6000803e3d6000fd5b505050505b600360003373ffffffffffffffffffffffffffffffffffffffff1673ffffffffffffffffffffffffffffffffffffffff16815260200190815260200160002081908060018154018082558091505090600182039060005260206000209060060201600090919290919091506000820151816000015560208201518160010160006101000a81548173ffffffffffffffffffffffffffffffffffffffff021916908373ffffffffffffffffffffffffffffffffffffffff16021790555060408201518160020155606082015181600301556080820151816004015560a082015181600501908051906020019061126d929190611ab0565b505050506004600086815260200190815260200160002081908060018154018082558091505090600182039060005260206000209060060201600090919290919091506000820151816000015560208201518160010160006101000a81548173ffffffffffffffffffffffffffffffffffffffff021916908373ffffffffffffffffffffffffffffffffffffffff16021790555060408201518160020155606082015181600301556080820151816004015560a082015181600501908051906020019061133b929190611ab0565b5050505060008060009054906101000a900473ffffffffffffffffffffffffffffffffffffffff1673ffffffffffffffffffffffffffffffffffffffff166374eb5738876040518263ffffffff167c01000000000000000000000000000000000000000000000000000000000281526004018082815260200191505060206040518083038186803b1580156113cf57600080fd5b505afa1580156113e3573d6000803e3d6000fd5b505050506040513d60208110156113f957600080fd5b8101908080519060200190929190505050905060008060009054906101000a900473ffffffffffffffffffffffffffffffffffffffff1673ffffffffffffffffffffffffffffffffffffffff1663e317526a836040518263ffffffff167c01000000000000000000000000000000000000000000000000000000000281526004018082815260200191505060206040518083038186803b15801561149c57600080fd5b505afa1580156114b0573d6000803e3d6000fd5b505050506040513d60208110156114c657600080fd5b810190808051906020019092919050505090508073ffffffffffffffffffffffffffffffffffffffff166108fc349081150290604051600060405180830381858888f1935050505015801561151f573d6000803e3d6000fd5b50600015156000809054906101000a900473ffffffffffffffffffffffffffffffffffffffff1673ffffffffffffffffffffffffffffffffffffffff1663dba2295733856040518363ffffffff167c0100000000000000000000000000000000000000000000000000000000028152600401808373ffffffffffffffffffffffffffffffffffffffff1673ffffffffffffffffffffffffffffffffffffffff1681526020018281526020019250505060206040518083038186803b1580156115e657600080fd5b505afa1580156115fa573d6000803e3d6000fd5b505050506040513d602081101561161057600080fd5b810190808051906020019092919050505015151415611706576000809054906101000a900473ffffffffffffffffffffffffffffffffffffffff1673ffffffffffffffffffffffffffffffffffffffff166368b0875633846040518363ffffffff167c0100000000000000000000000000000000000000000000000000000000028152600401808373ffffffffffffffffffffffffffffffffffffffff1673ffffffffffffffffffffffffffffffffffffffff16815260200182815260200192505050600060405180830381600087803b1580156116ed57600080fd5b505af1158015611701573d6000803e3d6000fd5b505050505b6000600260008154809291906001019190505590507f414d9a2b6dc643632f4c3bade88ac469f033fe2b456dd14a9c3e17a50d4f4ba4816040518082815260200191505060405180910390a1809450505050509392505050565b6000600115156000809054906101000a900473ffffffffffffffffffffffffffffffffffffffff1673ffffffffffffffffffffffffffffffffffffffff166357d65eac846040518263ffffffff167c01000000000000000000000000000000000000000000000000000000000281526004018082815260200191505060206040518083038186803b1580156117f457600080fd5b505afa158015611808573d6000803e3d6000fd5b505050506040513d602081101561181e57600080fd5b8101908080519060200190929190505050151514151561183d57600080fd5b60008060009054906101000a900473ffffffffffffffffffffffffffffffffffffffff1673ffffffffffffffffffffffffffffffffffffffff166315f28a27846040518263ffffffff167c01000000000000000000000000000000000000000000000000000000000281526004018082815260200191505060206040518083038186803b1580156118cd57600080fd5b505afa1580156118e1573d6000803e3d6000fd5b505050506040513d60208110156118f757600080fd5b8101908080519060200190929190505050905060008060009054906101000a900473ffffffffffffffffffffffffffffffffffffffff1673ffffffffffffffffffffffffffffffffffffffff1663f1c4bfac856040518263ffffffff167c01000000000000000000000000000000000000000000000000000000000281526004018082815260200191505060206040518083038186803b15801561199a57600080fd5b505afa1580156119ae573d6000803e3d6000fd5b505050506040513d60208110156119c457600080fd5b8101908080519060200190929190505050905080820392505050919050565b828054600181600116156101000203166002900490600052602060002090601f016020900481019282601f10611a2457805160ff1916838001178555611a52565b82800160010185558215611a52579182015b82811115611a51578251825591602001919060010190611a36565b5b509050611a5f9190611b30565b5090565b60c06040519081016040528060008152602001600073ffffffffffffffffffffffffffffffffffffffff168152602001600081526020016000815260200160008152602001606081525090565b828054600181600116156101000203166002900490600052602060002090601f016020900481019282601f10611af157805160ff1916838001178555611b1f565b82800160010185558215611b1f579182015b82811115611b1e578251825591602001919060010190611b03565b5b509050611b2c9190611b30565b5090565b611b5291905b80821115611b4e576000816000905550600101611b36565b5090565b9056fea165627a7a72305820a888aef3e2305c3c4698618ef407bf97639e7880d6c47611932267b320fc8f920029",
  "source": "pragma solidity ^0.5.0;\r\nimport \"./Charity.sol\";\r\n\r\ncontract Donation {\r\n    \r\n    Charity charityContract;\r\n    address contractOwner = msg.sender;\r\n    \r\n    struct Transaction {\r\n        uint transactionId;\r\n\t    address donor;\r\n\t    uint campaignId;\r\n\t    uint amount;\r\n        uint date;\r\n        string hash;\r\n    }\r\n    \r\n    uint numTransactions = 1;\r\n    mapping (address => Transaction[]) donorDonations;\r\n    mapping (uint => Transaction[]) campaignDonations;\r\n    \r\n    event donated(uint newTransactionId);\r\n    \r\n    constructor(Charity charityAddress) public {\r\n        charityContract = charityAddress;\r\n    }\r\n    \r\n    /*\r\n    * This function is for donors to donate to a campaign that is still ongoing. The function assumes that\r\n    * the uint amount == msg.value\r\n    */\r\n    function donate(uint campaignId, uint amount, uint date) public payable returns (uint256) {\r\n        require(msg.value > 0, \"Donation value needs to be more than 0 wei\");\r\n        require(charityContract.isStatusComplete(campaignId) == false, \"Campaign has already ended\");\r\n        require(amount <= (getRemainingAmount(campaignId)), \"Donation value is more than campaign's remaining amount\");\r\n        \r\n        Transaction memory newTransaction = Transaction(\r\n            numTransactions,\r\n            msg.sender,\r\n            campaignId,\r\n            amount,\r\n            date,\r\n            \"\"\r\n        );\r\n        \r\n        charityContract.updateCampaignCurrentDonation(campaignId, amount);\r\n        if(checkPreviouslyDonated(msg.sender, campaignId) == false) {\r\n            charityContract.addCampaignDonor(campaignId);\r\n        }\r\n        \r\n        donorDonations[msg.sender].push(newTransaction);\r\n        campaignDonations[campaignId].push(newTransaction);\r\n\r\n        uint id = charityContract.getCampaignCharity(campaignId);\r\n        address payable recipient = address(uint160(charityContract.getCharityOwner(id)));\r\n        recipient.transfer(msg.value);\r\n\r\n        if(charityContract.checkCharityDonor(msg.sender, id) == false) {\r\n            charityContract.addCharityDonor(msg.sender, id);\r\n        }\r\n        \r\n        uint newTransactionId = numTransactions++;\r\n        emit donated(newTransactionId);\r\n        return newTransactionId;\r\n    }\r\n    \r\n    /**\r\n     * getDonorDonation only retrieves a specific donation by a donor. To retrieve the full donation\r\n     * history by donor, it would require looping of entire Transaction[] mapped to donor address\r\n    */\r\n    function getDonorDonation(address donor, uint index) public view returns(uint, address, uint, uint){\r\n        return (donorDonations[donor][index].transactionId, donorDonations[donor][index].donor,\r\n        donorDonations[donor][index].campaignId, donorDonations[donor][index].amount);\r\n    }\r\n    \r\n    // use this function for looping on front-end\r\n    function getDonorTotalDonations(address donor) public view returns(uint){\r\n        return (donorDonations[donor].length);\r\n    }\r\n    \r\n    // to view remaining amount for campaign\r\n    function getRemainingAmount(uint campaignId) public view returns(uint){\r\n        require(charityContract.checkValidCampaign(campaignId) == true);\r\n        uint target = charityContract.getCampaignTargetDonation(campaignId);\r\n        uint current = charityContract.getCampaignCurrentDonation(campaignId);\r\n        return (target - current);\r\n    }\r\n    \r\n    /**\r\n     * getCampaignDonation only retrieves a specific donation within a campaign. To retrieve the full donation\r\n     * history of the campagin, it would require looping of entire Transaction[] mapped to campaignId\r\n    */\r\n    function getCampaignDonation(uint campaignId, uint index) public view returns(uint, address, uint, uint){\r\n        require(charityContract.checkValidCampaign(campaignId) == true);\r\n        return (campaignDonations[campaignId][index].transactionId, campaignDonations[campaignId][index].donor,\r\n        campaignDonations[campaignId][index].campaignId, campaignDonations[campaignId][index].amount);\r\n    }\r\n    \r\n    // use this function for looping on front-end\r\n    function getCampaignTotalDonations(uint campaignId) public view returns(uint){\r\n        require(charityContract.checkValidCampaign(campaignId) == true);\r\n        return (campaignDonations[campaignId].length);\r\n    }\r\n    \r\n    // function to check if donor has donated to campaign before\r\n    function checkPreviouslyDonated(address donor, uint campaignId) public view returns(bool){\r\n        require(charityContract.checkValidCampaign(campaignId) == true);\r\n        uint length = campaignDonations[campaignId].length;\r\n        for (uint i = 0; i < length; i++) {\r\n            if(campaignDonations[campaignId][i].donor == donor) {\r\n                return true;\r\n            }\r\n        }\r\n        return false;\r\n    }\r\n\r\n    // function to set the transaction hash\r\n    function setTransactionHash(uint id, uint campaignId, address donor, string memory hash) public {\r\n        uint cLength = campaignDonations[campaignId].length;\r\n        for (uint i = 0; i < cLength; i++) {\r\n            if(campaignDonations[campaignId][i].transactionId == id) {\r\n                campaignDonations[campaignId][i].hash = hash;\r\n            }\r\n        }\r\n\r\n        uint dLength = donorDonations[donor].length;\r\n        for (uint i = 0; i < dLength; i++) {\r\n            if(donorDonations[donor][i].transactionId == id) {\r\n                donorDonations[donor][i].hash = hash;\r\n            }\r\n        }\r\n    }\r\n\r\n}",
  "sourcePath": "C:/Users/user/Downloads/IS4302/Project/sharity/contracts/Donation.sol",
  "compiler": {
    "name": "solc",
    "version": "0.5.0+commit.1d4f565a.Emscripten.clang"
  },
  "schemaVersion": "3.3.3",
  "updatedAt": "2021-04-11T13:52:44.189Z",
  "devdoc": {
    "methods": {}
  },
  "userdoc": {
    "methods": {
      "getCampaignDonation(uint256,uint256)": {
        "notice": "getCampaignDonation only retrieves a specific donation within a campaign. To retrieve the full donation\r history of the campagin, it would require looping of entire Transaction[] mapped to campaignId\r"
      },
      "getDonorDonation(address,uint256)": {
        "notice": "getDonorDonation only retrieves a specific donation by a donor. To retrieve the full donation\r history by donor, it would require looping of entire Transaction[] mapped to donor address\r"
      }
    }
  }
}